:400000000080002011000000110400001104000008B5044B1A6803F53F5302331A6000F0FFF900BFFA46004010B5054C237833B9044B13B10448AFF300800123237010BD55
:400040007081FF1F00000000300D0000084B10B51BB108490848AFF300800848036803B910BD074B002BFBD0BDE81040184700BF000000007481FF1F300D0000C880FF1F38
:400080000000000010B50024074B1C60204600F045FB204600F04EFB204600F043FC204600F04CFC10BD00BF9081FF1F10B50124074B1C60002000F031FB204600F03AFBE7
:4000C000002000F02FFC204600F038FC10BD00BF9081FF1F10B500F0ABFA164B1B6898421BD1FFF7E3FF4FF47A7000F01BFAFFF7C9FF104CA08800F045FA4FF47A7000F0E4
:4001000011FA208900F0B4FAFFF7D0FF4FF47A7000F008FAFFF7B6FF10BD064CA08900F0A7FA4FF47A7000F0FDF9208800F02AFA10BD00BFD080FF1F08B562B600F06AFA13
:4001400000F0DEFA00F064FB00F0A6FC00F09CFB002000F06BFB00F02BFC002000F0FAFB00F0D2FB014800F0CFF9FEE7D5000000FEE700BFF0B40022174611E050F82760BE
:40018000F3B226F0FF0608E001EB420511F812406D78A5550132013BDBB2002BF4D10137262FEBD9F0BC7047064B1B78DBB203F00701054A11701B09013213704422034BC0
:4001C0001A707047CF0100496E5800407658004008B50A46002100F0A2FD08BD38B51722304B1A80182330490B7002310A802F4A13703321023211800232137040F2DF12F9
:400200002B490A8002310B7002310A80294A137047F22F52284B1A80192502331D70022203F26A231A7008224FF040231A70032103F500731970214B1B78DBB220490B708A
:40024000204B1A8041F25122023B1A8000240CE01D4B1B7803F0010343EA440404F003044FF4F07000F014FD013D0DB1032CEFD115B90320FFF77CFF144B4FF480721A806B
:4002800007221A70002212490A704820023108701A700222033B1A700E4A137843F03F03137038BD8040004082400040864000408C400040924000409440004008010049AF
:4002C000A146004022420040254200400440004006400040A243004008B500F015FD08BD38B572B6374A137843F00403137000240CE0354D630019194A0011462A44084677
:4003000091882858FFF764FF0134E4B2082CF0D900240BE02C49A3001819420088180622C16B806BFFF7D8FF0134E4B2002CF1D026494FF09040FFF71DFF254A254B1A601C
:40034000254A137843F0020313701032137843F002031370214C237843F040032370A2F58632513A137843F0100313700A221C491C48FFF7B1FF08221B491C48FFF7ACFFD3
:400380000A221B491B48FFF7A7FF08221A491B48FFF7A2FF1A4A137843F008031370194D61232B70FFF71AFF81232B700122164B1A70FFF7F9FE0E2221461448FFF78CFF35
:4003C00038BD00BFE8460040340D00009C000048040404445804014003500140A0430040C40B0048C0510040D00B004812510040D80B004820510040E40B0048325100400E
:40040000224300400048004004000840B043004008B500F04DFC03680C2B00D1FEE7FEE708B5104E104D16E029686B68AC68002204E051F8040B43F8040B0432A242F8D16C
:40044000E868002203E0002143F8041B04328242F9D11035013E002EE6D100F02FFCFFF76BFEFEE7010000009C0D000008B5104A104B1A60104A136843F400731360002375
:400480000AE0032B03D80D4A52F8231000E00C490C4A42F8231001332F2BF2D90A4B1A780A4B1A70074A0A4B1A60FFF719FF08BD0004FA050CED00E014ED00E000000000AE
:4004C000110400000080FF1FBC760040C080FF1F08ED00E0014B1B681864704708ED00E04001C0B2014B1870704700BF00E400E00122014B1A60704700E100E00122014B3C
:400500001A60704780E100E010B50446FFF7F6FF2046FFF7DFFF0720FFF7E2FFFFF7E8FF10BD00BF10B5044605E0084B186800F0AFFBA4F50044B4F5004FF6D8034B58689C
:4005400000FB04F000F0A4FB10BD00BFF880FF1F084A137843F0080313701032137843F00803137002F67132137843F001031370704700BFA3430040014B1880704700BFD9
:40058000284F0040014B1880704700BF2A4F0040014B1870704700BF274F004008B51A4A137843F0020313700232137803F08F0343F040031370154B1A7802F0CF021A708E
:4005C0001A7842F030021A701A7802F0F0021A701A7842F00F021A7040F2E730FFF7CCFF4FF47570FFF7CEFF0020FFF7D1FF084A137843F00803137002F68232137843F039
:400600000103137008BD00BF244F00402F4F0040A343004008B5054B1B7823B9FFF7BEFF0122024B1A70FFF793FF08BDF081FF1F014B188880B270472A4F0040084A1378A8
:4006400043F0010313701032137843F00103137002F64D32137843F001031370704700BFA3430040014B1880704700BF044F0040014B1880704700BF064F0040014B187031
:40068000704700BF034F004008B51A4A137843F0020313700232137803F08F0343F040031370154B1A7802F0CF021A701A7842F030021A701A7802F0F0021A701A7842F00B
:4006C0000F021A7040F28920FFF7CCFF40F26720FFF7CEFF0020FFF7D1FF084A137843F00103137002F65E32137843F00103137008BD00BF004F00400B4F0040A34300402A
:4007000008B5054B1B7823B9FFF7BEFF0122024B1A70FFF793FF08BDF181FF1F044A137803F0DF03400100F0200018431070704710510040044A137803F0EF03000100F0D2
:40074000100018431070704710510040084A137843F0020313701032137843F00203137002F65932137843F001031370704700BFA3430040014B1880704700BF104F0040B9
:40078000014B1880704700BF124F0040014B1870704700BF0F4F004008B51A4A137843F0020313700232137803F08F0343F010031370154B1A7802F0CF021A701A7842F0DF
:4007C00030021A701A7802F0F0021A701A7842F00F021A7046F2A810FFF7CCFF43F2D400FFF7CEFF0020FFF7D1FF084A137843F00203137002F66A32137843F0010313700A
:4008000008BD00BF0C4F0040174F0040A343004008B5054B1B7823B9FFF7BEFF0122024B1A70FFF793FF08BDF281FF1F08B5002803DB80B280F4004002E0A0F5004080B234
:4008400000F04CF908BD00BF024B187800F00F00704700BF6B650040014B1870704700BF8B65004008B50F20FFF7F6FFFFF7ECFF00F016FA034A137843F01003137000F09A
:4008800013FA08BD9B65004008B500F075F94FF4004000F023F9044B1B7813B90122024B1A70FFF7DFFF08BDF381FF1F7222074B1A702022013B1A7006225C3B1A7047227F
:4008C00010331A7000224B331A7070478B64004010B500F0E5F904460A4A137843F020031370013A137843F010031370013A137843F01003137000F04DF9204600F0D4F90F
:4009000010BD00BF9B64004008B5054B1B7823B9FFF7CCFF0122024B1A70FFF7D9FF08BDF481FF1F044A137803F0FD03400000F0020018431070704730510040044A137865
:4009400003F0FB03800000F004001843107070473051004008B5002803DB80B280F4004002E0A0F5004080B200F036F908BD00BF024B187800F00F00704700BF6C64004028
:40098000014B1870704700BF8C64004008B50F20FFF7F6FFFFF7ECFF00F082F9034A137843F01003137000F07FF908BD9C64004008B500F05FF94FF4004000F00DF9044BBF
:4009C0001B7813B90122024B1A70FFF7DFFF08BDF681FF1F084A137843F0040313701032137843F00403137002F66532137843F001031370704700BFA3430040014B1880F8
:400A0000704700BF1C4F0040014B1880704700BF1E4F0040014B1870704700BF1B4F004008B51A4A137843F0020313700232137803F08F0343F010031370154B1A7802F042
:400A4000CF021A701A7842F030021A701A7802F0F0021A701A7842F00F021A7046F2A810FFF7CCFF43F2D400FFF7CEFF0020FFF7D1FF084A137843F00403137002F676329F
:400A8000137843F00103137008BD00BF184F0040234F0040A343004008B5054B1B7823B9FFF7BEFF0122024B1A70FFF793FF08BDF781FF1F024A137843F08003137070471B
:400AC0007B650040014B1870704700BF89650040014B1878704700BF69650040014B1880704700BF106A0040014B188880B27047906A0040014B1880704700BF506A004087
:400B0000014B1880704700BF706A004008B501E0FFF7EAFFFFF7DCFF10F0400FF8D108BD08B5134B1A7802F0F8021A701A7802F0FC021A70FFF7EAFF4FF40040FFF7DAFFB6
:400B40004FF40040FFF7CAFF0020FFF7BBFFFFF7BFFF4FF40040FFF7D3FF00F0A1F8054A137843F01003137000F09EF808BD00BF7B6500409965004008B5054B1B7823B954
:400B8000FFF7CEFF0122024B1A70FFF793FF08BDF881FF1F054A137843F0040313701032137843F004031370704700BFA2430040024A137843F08003137070477F640040EE
:400BC000014B1870704700BF84640040014B1878704700BF64640040014B1880704700BF16680040014B188880B2704796680040014B1880704700BF56680040014B1880C2
:400C0000704700BF7668004008B501E0FFF7EAFFFFF7DCFF10F0400FF8D108BD08B5134B1A7802F0F8021A701A7802F0FC021A70FFF7EAFF4FF40040FFF7DAFF4FF4004012
:400C4000FFF7CAFF0020FFF7BBFFFFF7BFFF4FF40040FFF7D3FF00F023F8054A137843F01003137000F020F808BD00BF7F6400409464004008B5054B1B7823B9FFF7CEFF12
:400C80000122024B1A70FFF793FF08BDF981FF1F0230800803D000BF01380046FCD17047EFF3108072B6704780F31088704700BF014B1868704700BF6881FF1F0E4B70B56D
:400CC0001E460E4C0025E41AA410A54204D056F8253098470135F8E700F04EF8084B094C1E46E41AA4100025A54204D056F8253098470135F8E770BD840D0000840D000053
:400D0000840D00008C0D000010B5431E0A44914204D011F8014B03F8014FF8E710BD03460244934202D003F8011BFAE77047000000000000004F00403000005100401000DD
:400D4000405100403000F0510040100000000140001000140140000800400140000A004C01400002005001402000000060520040BC0B004806004300F8B500BFF8BC08BC3A
:400D80009E4670474D0000006D040000F8B500BFF8BC08BC9E46704729000000B00D0000C880FF1FA800000090000000000000000000000000000000D4030000AC03000051
:400DC0000D0200006702000000B0B34600B0B346000000000000494000000000000014400000E02EC05D00001800000000366E010000000000000000000000000000000064
:400E000000000000000000000000000000000000760D000000000000000000000000000000000000000000000000000000000000000000000000000000000000000000002F
:400E4000000000000000000000000000000000000881FF1F0000000000000000000000000000000000000000000000000000000000000000000000000000000000000000CB
:400E80000000000000000000000000000000000000000000000000000000000000000000000000000000000000000000000000000000000000000000000000000000000032
:400EC00000000000000000000000000000000000000000000000000000000000000000000000000000000000000000000000000000000000000000000000000000000000F2
:400F000000000000000000000000000000000000000000000000000000000000000000000000000000000000000000000000000000000000000000000000000000000000B1
:400F40000000000000000000000000000000000000000000000000000000000000000000000000000000000000000000000000000000000000000000000000000000000071
:020000040003F7
:0200000480007A
:40000000074F004004520040066400400265004004000140020101400A03014069040140400501405806014046070140600801405A0901405D0A0140510B0140550C0140D7
:40004000470D0140590E0140310F014004150140081701406218014045190140451A01404C1B01400340014005410140084201400A430140024401400545014005460140A4
:4000800003470140044801400B490140094C0140094D0140085001400151014001400A4B0D10164B224B25302E4B0804108018011901846F860D890F8A388B728C0F896FAC
:4000C0008B0FB880BE40D804DF011F8089408780881089048A108E2090209940A380A810EA060002010202010304050809080A080C010E0219081F01200121022202230418
:40010000280129022A022B042D042E042F0230033101330834043506360839083A023B203F04405149FF4AFF4BFF4F015018540F580459045A045B045C115D195F0560402C
:40014000624064406540668068806A806C806E80820F850286108701880795019702980C99019A029B029C0B9E04A008A201A40CA601AA20AD01AF02B010B220B303B40F78
:40018000BB08C041C9FFCAFFCBFFCD83CE03CF01D018D280D804D904DA04DB04DC11DD99DF01E040E240E440E540E680E880EA80EC80EE8000800122042005060E06104069
:4001C0001120120116401718180219221D141E041F0120A021202504260829202A012B422F013040326035043710382239143D08420246824801581259405A0860206210EB
:4002000074017680791081208302881090209104981299409A10A220AC02C07BC2C0C47BCA1DCC6CCE47D098D208D60FD806DE04E004EE02011402010328052807140E01A5
:400240000F01110C133019301B0C1D3C230127402B022D1C313C33403401350237013F40404145EC4720482349FF4AFF4BFF4D834E034F0150185401580459045A045B043E
:400280005C195D995F016040624064406540668068806A806C806E8086088710890C8B02900291079201940196029B409C019D0B9E029F04A001A108A206A301A720A808B5
:4002C000A90CAB01AE10AF0FB003B120B204B340B408B50FB610B710BA02BE10D804D904DC11DF01022006820A5211821310188019041A581B401F2021102241231C24045F
:4003000025102643275029162A402B012C022E022F1830023220334035123740380439203E803F0646824D044F0156025D045E805F01804081018E02968899129AC09E02EC
:400340009F18A002A220A510A601A740A812AC20B102B248B510C094C20DC40BCAFFCCBDCED6D090D6D0E081E601E804EC01EE08024003040427070108020A110B010C4029
:400380001001120E164018401C041E111F02230424272C20300731023220341835043640370138803E103F504036410542044402450C47E0482149FF4AFF4BFF4C624DA00D
:4003C0004EF04F41500C580459045A045C125D025F016640670269106A306B106D106E106F128513870C89038B148F0891139304950A971498019F15B110B30FB401BB08BC
:40040000BE10BF01C061C104C50EC6CBC80DC9FFCAFFCBFFCEF0CF44D00CD401D804D904DA04DB04DC20DD22DF01E6C0EA40EB020420058107100B080C140D010E4215407D
:4004400017041A041D201E411F082104220823802404268027402D102E012F083080310833823440384039283C023D203F0843824410452046804A284B084D904F0851104B
:400480005340540158225A045B807820792080208340840286208F0190C091409288930494049588979199029A0B9B149C019D209F01A084A108A210A302A420A684A901FD
:4004C000AF01B020B201B308B704C0F0C2F2C4A0CA80CC1BCEEED0E9D234D60FE080E410E8C0EC81048005D1060207060B080C600E8B0F0C10A014E6158C161117131A1821
:400500001D201F43220128802A652C482DD12E862F0E30073130330F34F835C039223A023B083F105418580459045B045C225D205F018073810C8302850E860F88308AC924
:400540008B019106970298CF990C9A309CFD9E02A104A308A494A660AC9EAD0AAE60AF04B30EB4FFB501BE10C054C106C9FFCAFFCBFFCDA0CF01D018D602D712D804D90493
:40058000DA04DB04DC10DD21DF01E040E280E440E540E680E840EA80EC40ED20EE800210030204080505070809080A040B800F0910801226130414211A041B021D10204070
:4005C00021182202242026282B022C012E0130803108342035013608384039083A143E103F0946404C044E0158085B095E08600462806D406F147404760A82018A408D405E
:400600008E109080928A942095A09604971199069A109C299D319E41A080A210A301A420A620A704AF10B610B701C075C2CEC4ABCA98CCEACEEED080D230D641D80CE48069
:40064000001C044006030A200C0111021504161C17081A101C1C1F042040230224042608281029022C042E082F0130023108323C3302340135013640370438803E103F0491
:400680004054410345E4460C4732483749FF4AFF4BFF4DAF4E074F015018540F580459045A045B045C515D115F016040628064406540668068406A806C406D206E80880CB9
:4006C0008A018C088E018F01900C920298109901A60FA80BAA04AC07B00FB210B701BE04BF40D804D904DC01DF01012002010440051107100A440C100D080F091020135052
:4007000014A919021A501C401D0C1F542240254027642F45322036023744398042084310450846404E014F065440550156085C045E805F2188408A088C808D019084920A3D
:4007400093409420952097959A109C119D269E01A080A252A420A540A804AB02AD40B410B580C0F3C2EAC4F7CAB0CCD4CE08D0C0D210D6F0E230E620013003C90607070FE2
:40078000086109FD0A020B020C040D7319941A081B60206021CF22042330240126022857299E2B602C373070340F35FF38023F104002464049FF4A074BFF4C404D204EF0EB
:4007C0004F055008580459045A045C015D025F01604061A86240632080038101872089188A108B048C088D0C9006911C97019A089B049C059F02A210A301A406A518A810D6
:40080000A914AB08AD08AF10B007B120B302B408B51CB610B701B802BE50BF40D280D804D904DB04DC11DD10DF01012402010460050109A00A020C010F05106013501410C2
:400840001640171018881A081D811F2221202440250126522710284029222C202D202F41302035863610388839043A013B523D023F5441104880521076408B20C0D7C2D235
:40088000C47FCAF5CCF4CEFFD004E28087109720B708E81085409720A540A708AF20B110E202EC0203060402050608040A091502160217041B011C081E042202240C280C8F
:4008C00031043201330234023501360C3E103F054023410649FF4AFF4BFF4DA04F015018580459045A045C125D015F016040628064406540668068406A806C406D206E8044
:40090000810A831485018720891E8D0F99069A019B189D01A118A306A520A914AB0AB120B201B31EB501B920BF11C023C106C532C6C4C70EC81FC9FFCAFFCBFFCDAFCE07BA
:40094000CF01D018D40FD804D904DA04DB04DC11DD11DF05E040E280E440E540E680E840EA80EC40ED20EE80042808200B080E221640171419041D201E12220123182448D1
:400980002720292630A03618388039403A013B183F0541284528470848804A084B084E0C5140521458285A8262147940908091069288930494209580971099029A0B9B145B
:4009C0009C549DA19F01A024A210A510A605A910AA80B001B104B308C060C2A2C470CA07CC6CCECFD066D224D60FD806DE08E202EC22000C0201040C0501060218071C20A2
:400A00001D01223024082601280B2A042E0F3020340F3610370139803E01580459045C115F01804F81088290840C8504880489108CFF8D0D8F3290419120950C964098F3B4
:400A400099339A0C9B0C9C029D3FA003A6B3A732A84CA90FAAA3AB30AC08AD30B08CB27CB301B40FB50EB730BAAABF04D280D40FD804D904DB04DC22DD10DF010004010258
:400A80000545060808200A020C100E120F8010A012011310140415061682180419201A021B011D511E401F0823012510260427012C042D042E802F083080341035D4360981
:400AC0003B083C203E4A48044A085C405D095F20764084088501871188108C308D488F4090409146921093189420970199029A0B9B209C1C9DA19E409F01A0A4A201A5100D
:400B0000A604AC40C0FCC2F3C4FFCA70CCF8CEF2D6F0EE0830203610CC308408A610AC20E610EA4058085C08600864089808A610D6C0D8C019801B081E801F808B80A610DB
:400B4000A708AB08C6F0EC807280DC0101405F029E80C002D6019F02B540B680EA02EC088902AB02E0019980AE50EC40EE1005200B405D80874099809D20B520C080C210F2
:400B8000D620E4400B080F04570887049902A308AF08C203D4021080750288808C809902AF04C408DE04E603002601010A020B010C060E2610061C06000F00002020000066
:400BC00040000000800040A0A000A00000000000C03F3F00040000000400008480008000000000001807070001000000000000000000000000000000000000000000000024
:400C000000000000000000000000000000000000000000000000000000000000000000000000000000000000000000000000000000000000000000000000000000000000B4
:400C40000000000000000000000000000000000000000000000000000000000000000000000000000000000000000000000000000000000000000000000000000000000074
:400C80000000000000000000000000000000000000000000000000000000000000000000000000000000000000000000000000000000000000000000000000000000000034
:400CC00000000000000000000000000000000000000000000000000000000000000000000000000000000000000000000000000000000000000000000000000000000000F4
:0200000490006A
:0400000000004005B7
:0200000490105A
:04000000BC90ACAF55
:0200000490303A
:02000000A2D28A
:0200000490402A
:4000000000000000000000000000000000000000000000000000000000000000000000000000000000000000000000000000000000000000000000000000000000000000C0
:400040000000000000000000000000000000000000000000000000000000000000000000000000000000000000000000000000000000000000000000000000000000000080
:400080000000000000000000000000000000000000000000000000000000000000000000000000000000000000000000000000000000000000000000000000000000000040
:4000C0000000000000000000000000000000000000000000000000000000000000000000000000000000000000000000000000000000000000000000000000000000000000
:0200000490501A
:0C00000000012E16106900012E1EB33BFB
:00000001FF