:400000000080002011000000691200006912000008B5044B1A6803F53F5302331A6001F043F900BFFA46004010B5054C237833B9044B13B10448AFF300800123237010BD44
:40004000E881FF1F00000000EC520000084B10B51BB108490848AFF300800848036803B910BD074B002BFBD0BDE81040184700BF00000000EC81FF1FEC520000C880FF1F46
:400080000000000000000000F8B51B4B1B68012B2CD1194C60680028B8BF4042A368002BB8BF5B42C01A02F01FFDC4E90401134DD5E9002302F07EFD06460F46A86802F0FE
:4000C00025FD32463B4602F0C3FB09A3D3E9002302F070FD03F030F8E86003F07DF880B202F00CF8D4E90423C4E90623F8BD00BF9A9999999999E93F0882FF1FD080FF1F55
:4001000038B501F0E5FC01F0FBFC2D4C2062C0F57F43FF332B4880FB03201844DB17C3EB601002F0E1FC02460B46C4E90A23264D2649284603F020FD284602F095F8236BDA
:400140002BB9D4E90A01224BC3E9000118E0012B06D11B4BD3E90A011E4BC3E900010FE0022B05D1164BD3E90A01C3E90E0107E0032B05D1124BD3E90A01174BC3E9000188
:400180000022164B1349D1E9000102F08FFF18B101220B4B1A6402E00022094B1A6400220F4B0749D1E90E0102F08AFF18B10122034B5A6438BD0022014B5A6438BD00BFB2
:4001C0000882FF1F09CB3D8D9485FF1FF05200006886FF1FF883FF1F6086FF1F000014400000344008B501F029FD0122014B9A6408BD00BF0882FF1F08B501F013FA094B53
:400200001870212806D0084AD36C0849C8540133D36408BD044BDA6C00200449885401221A6508BDC884FF1F0882FF1F0084FF1F2DE9F04101F0B2FB0021682002F01EFA58
:40024000432002F077FA02F059FA012001F0A0F80121682002F012FA012002F097FA844C84F85400012002F091FA84F85500012002F08CFA84F85600012002F087FA84F8F3
:400280005700012002F082FA84F85800002002F07DFA84F8590002F031FA012001F078F894F8580094F8593043EA00231BB2A4F85A30704A1269012A11D1E16D13290EDC95
:4002C0006D4801F0D1F9B4F86010B4F85A200A44A4F86020E26D0132E265BDE8F081012A13D1634AD26D142A0FD16149B1F96030624A82FB0302DB17C3EBE203A1F8623028
:4003000000225C4B1A61BDE8F081594CB4F86200181A00B2A4F85A0002F0E6FB50A3D3E9002302F071FD06460F46C4E91A67C4E91C6704F17805D5E9004522462B4602F092
:4003400085FA84468E464B4BD3E9062360462EF0004102F0BFFE002870D022462B463046394602F075FA40A3D3E9002302F022FCDFF8FC80D8E9202302F06AFA05460C467E
:4003800002460B46C8E92023C8E91E6700223C4B284624F0004102F037FD02F0A5FE0646C8F88800002823DD002200232846214602F072FE60B14FF4B47000FB06F002F0C0
:4003C00093FB2A46234602F043FAC8E9240114E04FF4B47000FB06F002F086FB02460B462846214602F032FA214BC3E9240104E02A4623461E49C1E924231D4BD3E9244567
:40040000002200232046294602F046FE40B100221B4B2046294602F01BFA154BC3E92401134B03F19804D3E924231649204603F0A3FB204601F018F9BDE8F0810C4BC3E91E
:400440001E6703F19804D3E924230E49204603F093FB204601F008F9BDE8F081AFF300800AD7A3703D6250409A9999999999A93F0882FF1FD080FF1F0853000067666666EA
:40048000008076401853000010B50024074B1C60204600F063FF204600F06CFF204601F0C5F9204601F0CEF910BD00BF0882FF1F10B50124074B1C60002000F04FFF204688
:4004C00000F058FF002001F0B1F9204601F0BAF910BD00BF0882FF1F10B50124074B1C60204600F03BFF002000F044FF204601F09DF9002001F0A6F910BD00BF0882FF1F50
:4005000010B50124074B1C60002000F027FF204600F030FF204601F089F9002001F092F910BD00BF0882FF1F10B50124074B1C60204600F013FF002000F01CFF002001F043
:4005400075F9204601F07EF910BD00BF0882FF1F08B5002000F070FF002001F0ADF8024B00225A609A6008BD0882FF1F0000000070B50E4602F0B8FA3F4BD3E9002302F011
:4005800019FB02F0B1FD05460DE000F04DFF3B4C606001F089F8A060012E02D1FFF788FF01E0FFF799FF354B5B68002BB8BF5B429D4206DB314B9B68002BB8BF5B429D428D
:4005C000E3DAFFF761FF00F02FFF044601F06CF8204400EBD070401002F086FA04460D4621A3D3E900232649D1E9080102F0E2FA1FA3D3E9002302F007FC02460B46204605
:40060000294602F0D7FA1D4BD3F868313BB91B4CF4E95C2302F01CF9C4E9000120E0012B07D1164CF4E95E2302F012F9C4E9000116E0022B09D1114C02460B46F4E95C01B4
:4006400002F004F9C4E900010AE0032B08D10B4C02460B46F4E95E0102F0F8F8C4E90001FFF776FF70BD00BF182D4454FB2109400000000000A6AC406883FF1F0882FF1F54
:40068000D080FF1F0000000038B53B4C0120206301F09AFD322000F07BFE002323640DE0FFF706FF322000F073FE012001F0C8F90A2000F083FE002001F0C2F92E4B1B6CF2
:4006C000002BEDD0FFF7E0FE00F0AEFE044600F0EBFF204400EBD070401002F005FA04460D4621A3D3E900232449D1E9080102F061FA1FA3D3E9002302F086FB02460B4644
:400700002046294602F056FA1B4BD3F868313BB9194CF4E95C2302F09BF8C4E9000120E0012B07D1144CF4E95E2302F091F8C4E9000116E0022B09D10F4C02460B46F4E937
:400740005C0102F083F8C4E900010AE0032B08D1094C02460B46F4E95E0102F077F8C4E90001FFF7F5FE38BD182D4454FB2109400000000000A6AC400882FF1FD080FF1F0F
:4007800038B50220444B186301F01EFD322000F0FFFD1FE0FFF78CFE404C414B07CB20606160A2601A889B78A281A373204600F05BFF642000F0ECFD08E0012001F040F9FC
:4007C0000A2000F0FBFD002001F03AF901F00EFA0028F2D0304B5B6C002BDBD0FFF754FE00F022FE044600F05FFF204400EBD070401002F079F904460D4623A3D3E9002333
:400800002849D1E9080102F0D5F921A3D3E9002302F0FAFA02460B462046294602F0CAF91D4BD3F868313BB91B4CF4E95C2302F00FF8C4E9000120E0012B07D1164CF4E9AB
:400840005E2302F005F8C4E9000116E0022B09D1114C02460B46F4E95C0101F0F7FFC4E900010AE0032B08D10B4C02460B46F4E95E0101F0EBFFC4E90001FFF769FE002273
:40088000054B5A6438BD00BF182D4454FB2109400000000000A6AC400882FF1F9485FF1F28530000D080FF1F10B5274CA06A02F093FC80B201F01CFCA06A02F08DFC80B225
:4008C00001F01CFC214BD3F86831032B3AD8DFE803F002090406002405E0B42403E04FF4877400E05A24204602F0FEF802460B461649D1E9240101F0A9FF02F0F5FB10F10F
:40090000050F14DB052812DCFFF7BEFDC82000F03FFD0D4CA06802F05FFC80B201F0E8FBA06802F059FC80B201F0E8FB10BD002802DDFFF7E5FD01E0FFF7F6FD322000F013
:4009400027FDD0E710BD00BFD080FF1F0882FF1F70B505460E460DE000F066FD204C606000F0A2FEA060012E02D1FFF7DDFD01E0FFF7C6FD1A4B5B68002BB8BF5B42AB427A
:4009800006DC174B9B68002BB8BF5B429D42E3DAFFF77AFD012E0ED1114BD3F86831032B04D100220E4BC3F8682111E001330C4AC2F868310CE00A4BD3F8683123B90322A4
:4009C000074BC3F8682103E0013B054AC2F86831322000F0DDFCFFF767FFFFF7B9FD70BD0882FF1F2DE9F041012001F03DFA012001F022FA012001F04FFA0A2000F0C8FCB1
:400A000001F0DEF90024C34B9C64204601F020FA204601F035FA142000F0BAFC012001F005FA012000F0B4FC204601F0FFF9B94B9B6C002BFBD001F079F90246B54DC5F85F
:400A40008001B54CB549204603F096F8204600F00BFE01F051F9642000F09AFC01F0B0F90024AC64012001F0F3F9012001F008FA142000F08DFC012001F0D8F9012000F0EA
:400A800087FC204601F0D2F9A24B9B6C002BFBD001F04CF902469F4DC5F884019E4CA049204603F069F8204600F0DEFD01F024F9642000F06DFC01F083F90024AC6420464B
:400AC00001F0C6F9012001F0DBF9142000F060FC012001F0ABF9012000F05AFC204601F0A5F98C4B9B6C002BFBD001F01FF90246884CC4F88801884D8A49284603F03CF853
:400B0000284600F0B1FD01F0F7F8D4F88031D4F8842193420FDDD4F8882193420BDD0120C4F88C0101F0D0F94FF47A7000F030FC002001F0C9F9774BD3F88421D3F88031FA
:400B40009A4212DD734BD3F888319A420DDD0222704BC3F88C21012001F0AAF94FF47A7000F016FC002001F0A3F96A4BD3F88821D3F880319A4212DD664BD3F884319A424D
:400B80000DDD0322634BC3F88C21012001F0A8F94FF47A7000F0FCFB002001F0A1F9002001F07AF91CE0012000F04AFF0A2000F005FC002000F044FF01F09EF90028F2D0E4
:400BC0000022594B5949D1E9000102F079FA38B101211420FFF7CCFC00224E4BC3F88C214C4BD3F88C31012BE6D064E0494D2C46F4E9640102F078FA0121FFF7A9FE4FF458
:400C0000FA7000F0C5FBFFF7BBFD4FF4FA7000F0BFFB01211420FFF7ABFC4FF4FA7000F0B7FBD4E9000102F05FFA0021FFF790FE4FF4FA7000F0ACFB01211E20FFF798FC77
:400C40004FF4FA7000F0A4FBFFF79AFD4FF4FA7000F09EFB01211420FFF78AFC4FF4FA7000F096FBD4E9000102F03EFA0021FFF76FFE4FF4FA7000F08BFB01211420FFF79A
:400C800077FC4FF4FA7000F083FBD4E9000102F02BFA0121FFF75CFE4FF4FA7000F078FB01211420FFF764FC4FF4FA7000F070FB0023C5F88C31174BD3F88C31022B95D082
:400CC00021E0144C04F5B873D3E900673046394602F00AFA8046104D32463B461449284602F04AFF284601F0BFFA002188EAE870A0EBE870FFF73CFC4FF4FA7000F048FB4B
:400D00000023C4F88C31034BD3F88C31032BD8D0BDE8F0810882FF1F9485FF1F38530000445300005053000000002440F883FF1F5C53000008B50021682001F09FFC6B2088
:400D400001F0F8FC002001F0F5FC01F0D7FC012000F01EFB0021682001F090FC1B2001F0E9FC082001F0E6FC01F0C8FC012000F00FFB0021682001F081FC1A2001F0DAFC84
:400D8000052001F0D7FC01F0B9FC012000F000FB08BD00BF000000002DE9F84F62B6DFF850B14BA3D3E90023DBE9080101F002FF04460D46DFF83CA10AF5CC73C3E90045BB
:400DC00043A3D3E90023DBE9100101F0F3FE0022414B01F0EFFE06460F460AF5D073C3E90067DBE9128922462B464046494602F00BF80AF5B073C3E9000142464B46304655
:400E0000394601F0D7FE22462B4601F0FDFF0AF5C873C3E90001314800F098FD304800F0F7FF00F06BFD00F0ABFE2E4800F0D0FE00F04CFF2C4801F043FA002001F0D2FC83
:400E4000002000F0FDFD01F0B1F901F0BFF801F02DF900F01FFB002000F0EEFA00F05AFC002000F029FC00F0CFFB002001F014F801F088FA00F0D6FD1C4800F00DFEFFF72F
:400E800059FF0023CAF84030CAF8443001F0D2F9DBF8080002F0A0F980B201F029F9DBF8080002F099F980B201F028F901F0A6FC0028FBD14FF47A7000F06AFAFFF7E4FB68
:400EC00042F2107000F064FAFFF78CFDEEE700BF182D4454FB2109400000D03F89000000E501000001010000F901000031020000D080FF1F0882FF1FFEE700BFF0B400226E
:400F0000174611E050F82760F3B226F0FF0608E001EB420511F812406D78A5550132013BDBB2002BF4D10137292FEBD9F0BC704708B50A46002102F0A6F908BDF8B5174B49
:400F40001B78DBB2164E3478E4B2164F3D78EDB203F00701144A11701B090132137044F00303337045F003033B704023A2F23272137002F2CC7213700232137002F21D22BE
:400F800013702022094B1A700A2000F017FA3D7034704422064B1A70F8BD00BFCF010049F8460040F94600406E5800402B5B00407658004008B502F05BF908BD38B517227F
:400FC0003C4B1A8018233C490B7002310A803B4A137033210232118002321370EF2102321180023213704FF49C71023211800232137040F2DF11023211800232137047F2D1
:401000002F522F4B1A80192502331D7004222D492D48FFF7CFFF02222C4B1A7008224FF040231A70032103F500731970284B1B78DBB228490B70284B1A8041F25122023B44
:401040001A8000240CE0254B1B7803F0010343EA440404F003044FF4F07001F0D9FB013D0DB1032CEFD115B90320FFF745FF1C4B4FF480721A8007221A70002219490A70F7
:401080004820023108701A700222033B1A7004220A331A70144A137843F07F031370013A137843F001031370013A137843F08003137038BD8040004082400040864000401D
:4010C0009840004094130048004100400043004008010049A146004022420040254200400440004006400040A243004038B572B6444A137843F00403137000240CE0424D68
:40110000630019194A0011462A44084691882858FFF70EFF0134E4B2072CF0D900240BE03949A3001819420088180622416B006BFFF740FF0134E4B2002CF1D033494FF02C
:401140009040FFF7DBFE324B324A136002F52072136002F5C072136003F1404302F50862136002F5006213602B4A2C4B1A602C4A137843F0020313701032137843F002038E
:401180001370284C237843F040032370A2F58632513A137843F0100313700A2222492348FFF708FF0A2222492248FFF703FF082221492248FFF7FEFE082221492148FFF78B
:4011C000F9FE0A2220492148FFF7F4FE0A2220492048FFF7EFFE204A137843F0080313701E4D61232B70FFF7E9FE81232B7001221B4B1A70FFF7A2FE0E2221461948FFF73F
:40120000D9FE38BDE8460040A8530000A8000048040404C458000140C4C40404D816014003500140A0430040541300480051004060130048C05100406C130048F251004014
:4012400074130048125100407C130048205100408813004830510040224300400048004004000840B043004008B501F0D5FF03680C2B00D1FEE7FEE708B5094B1A6810447E
:40128000084BC31AB3F5007F02DC054B186005E001F0C2FF0C2303604FF0FF32104608BD3881FF1F9887FF1F08B5104E104D16E029686B68AC68002204E051F8040B43F8EA
:4012C000040B0432A242F8D1E868002203E0002143F8041B04328242F9D11035013E002EE6D101F09FFFFFF757FDFEE7010000006855000008B5104A104B1A60104A1368C2
:4013000043F40073136000230AE0032B03D80D4A52F8231000E00C490C4A42F8231001332F2BF2D90A4B1A780A4B1A70074A0A4B1A60FFF7DBFE08BD0004FA050CED00E0FF
:4013400014ED00E000000000691200000080FF1FBC760040C080FF1F08ED00E0044A137803F0DF03400100F0200018431070704710510040044A137803F0EF03000100F0ED
:4013800010001843107070471051004001BE704710B5044605E0084B186801F039FAA4F50044B4F5004FF6D8034B586800FB04F001F02EFA10BD00BF3C81FF1F08B5034B5E
:4013C0001B7A00FB03F001F023FA08BD3C81FF1F70B504460E46074B1D681F2802D90020FFF7D4FF04F01F04103455F8240045F8246070BD08ED00E038B504460D460729CE
:4014000002D90020FFF7C2FF1F2C02D90020FFF7BDFF04F01F0000F1604000F564406D01EDB2057038BD00BF08B500F05FF8A0F5004000B208BD00BF08B5002803DB80B28B
:4014400080F4004002E0A0F5004080B200F048F808BD00BF024B187800F00F00704700BF6F640040014B1870704700BF8F64004008B50F20FFF7F6FFFFF7ECFF01F0D0F9C7
:40148000034A137843F01003137001F0CDF908BD9F64004008B500F07BF84FF4004000F01FF8044B1B7813B90122024B1A70FFF7DFFF08BDDC83FF1F024A137843F08003D7
:4014C0001370704778640040014B1870704700BF84640040014B1878704700BF64640040014B1880704700BF1C680040024B1B78024B188880B270470E6400409C68004000
:40150000014B188880B270479C680040014B1880704700BF5C680040014B1880704700BF7C68004008B501E0FFF7EAFFFFF7D2FF10F0400FF8D108BD08B5134B1A7802F0F6
:40154000F8021A701A7802F0FC021A70FFF7EAFF4FF40040FFF7DAFF4FF40040FFF7C0FF0020FFF7B1FFFFF7B5FF4FF40040FFF7D3FF01F055F9054A137843F010031370D5
:4015800001F052F908BD00BF786400409464004008B5054B1B7823B9FFF7CEFF0122024B1A70FFF789FF08BDDD83FF1F7222074B1A70202201331A700622613B1A704722F6
:4015C00010331A70002246331A7070478B64004010B501F025F904460A4A137843F0200313700132137843F0100313700B3A137843F01003137000F049F8204601F014F988
:4016000010BD00BF9B64004008B5054B1B7823B9FFF7CCFF0122024B1A70FFF7D9FF08BDDE83FF1F084B1B78DBB213F0200F06D0064A1078C0B213F01E0F02D170470020F7
:4016400070470020704700BF6C64004044640040034B1B7813F0040FFAD1024B18707047616400404564004038B5074B1B782BB938BDFFF7EDFF0134A4B201E00546002481
:40168000285D0028F5D138BDDE83FF1F054A137843F0100313701032137843F010031370704700BFA243004008B500F05FF8A0F5004000B208BD00BF08B5002803DB80B26B
:4016C00080F4004002E0A0F5004080B200F048F808BD00BF024B187800F00F00704700BF66650040014B1870704700BF8665004008B50F20FFF7F6FFFFF7ECFF01F090F896
:40170000034A137843F01003137001F08DF808BD9665004008B500F07BF84FF4004000F01FF8044B1B7813B90122024B1A70FFF7DFFF08BDE083FF1F024A137843F0800399
:401740001370704775650040014B1870704700BF85650040014B1878704700BF65650040014B1880704700BF086A0040024B1B78024B188880B2704704650040886A0040A8
:40178000014B188880B27047886A0040014B1880704700BF486A0040014B1880704700BF686A004008B501E0FFF7EAFFFFF7D2FF10F0400FF8D108BD08B5134B1A7802F0AA
:4017C000F8021A701A7802F0FC021A70FFF7EAFF4FF40040FFF7DAFF4FF40040FFF7C0FF0020FFF7B1FFFFF7B5FF4FF40040FFF7D3FF01F015F8054A137843F01003137094
:4018000001F012F808BD00BF756500409565004008B5054B1B7823B9FFF7CEFF0122024B1A70FFF789FF08BDE183FF1F044A137803F0FD03400000F0020018431070704747
:4018400030510040044A137803F0FB03800000F0040018431070704730510040024A137843F080031370704774650040014B1870704700BF88650040014B1878704700BF6D
:401880006865004008B50146014800F0D1FF08BD26650040024B186820F07F40704700BF4665004008B50146014800F0C1FF08BD0665004008B501E0FFF7ECFFFFF7DCFFC4
:4018C00010F0080FF8D108BD08B54EF65F20FFF7D9FF4EF65F20FFF7E5FF00F0A1FF064A137843F01003137000F09EFFFFF7E2FF0120FFF7BBFF08BD9865004008B5054BE0
:401900001B7823B9FFF7E0FF0122024B1A70FFF7A5FF08BDE283FF1F014B1B685864704708ED00E04001C0B2014B1870704700BF01E400E00222014B1A60704700E100E04C
:401940000222014B1A60704780E100E010B50446FFF7F6FF2046FFF7DFFF0720FFF7E2FFFFF7E8FF10BD00BF084A137843F0040313701032137843F00403137002F6653237
:40198000137843F001031370704700BFA3430040014B1870704700BF1B4F0040014B1878704700BF1B4F0040014B1880704700BF1C4F0040014B1880704700BF1E4F00404A
:4019C00008B5154A137803F0010313700232137803F0FC031370114B1A7802F0CF021A701A7842F030021A701A7802F0F0021A701A7842F00F021A70094A137843F0010363
:401A000013700920FFF7D0FF0920FFF7D3FF0820FFF7BEFF08BD00BF184F0040234F0040194F004008B5054B1B7823B9FFF7C8FF0122024B1A70FFF797FF08BDE383FF1FDC
:401A4000044A137803F0FB03800000F00400184310707047C0510040024B1B68C3F88C00704700BF08ED00E04001C0B2014B1870704700BF13E400E04FF40022014B1A60E4
:401A8000704700BF00E100E04FF40022014B1A60704700BF80E100E010B50446FFF7F4FF2046FFF7D9FF0720FFF7DEFFFFF7E4FF10BD00BF024A137843F0800313707047BB
:401AC0007A640040014B1870704700BF8D640040014B1878704700BF6D640040014B1880704700BF58680040014B188880B2704798680040014B1880704700BF1868004061
:401B0000024B1B78024B188880B270470C6400409868004000F00300044B1A7802F0FC021A701A7810431870704700BF7A64004008B501E0FFF7D8FFFFF7CAFF10F0080F6F
:401B4000F8D108BD08B54FF6FF70FFF7C7FF4FF6FF70FFF7CFFF00F063FE084A137843F01003137000F060FE0020FFF7D3FFFFF7DFFF0220FFF7A6FF08BD00BF9D640040AF
:401B800008B5054B1B7823B9FFF7DCFF0122024B1A70FFF78FFF08BDE483FF1F014B1B689864704708ED00E04001C0B2014B1870704700BF02E400E00422014B1A60704753
:401BC00000E100E00422014B1A60704780E100E010B50446FFF7F6FF2046FFF7DFFF0620FFF7E2FFFFF7E8FF10BD00BF024B1878C0F34010704700BF31510040024A1378B7
:401C000043F080031370704777640040014B1880704700BF10680040014B1880704700BF90680040014B1880704700BF50680040014B1870704700BF80640040014B187859
:401C4000704700BF60640040014B188880B27047B068004008B501E0FFF7F6FFFFF7EEFF10F0100FF8D108BD08B5164A137803F0C00343F0090313702132137843F001036F
:401C800013700132137843F0010313704CF24F30FFF7BCFF4CF24F30FFF7BEFF46F2A710FFF7C0FF0120FFF7C3FF00F0B9FD064A137843F01003137000F0B6FDFFF7CAFF22
:401CC00008BD00BF776400409064004008B5054B1B7823B9FFF7C8FF0122024B1A70FFF78DFF08BDE583FF1F024A137843F080031370704773640040024A137803F07F03E7
:401D00001370704773640040014B1870704700BF83640040014B1878704700BF63640040014B1860704700BF00640040014B1868704700BF40640040014B1860704700BF4A
:401D400020640040014B1860704700BF3064004008B501E0FFF7EAFFFFF7DCFF10F0400FF8D108BD08B5144A137803F0F80343F001031370137803F0FC0343F008031370DA
:401D8000FFF7E6FF6FF00100FFF7D6FF0020FFF7C7FF0020FFF7B8FFFFF7BCFF8020FFF7D1FF00F03DFD054A137843F01003137000F03AFD08BD00BF736400409364004097
:401DC00008B5054B1B7823B9FFF7CCFF0122024B1A70FFF789FF08BDE683FF1F014B1B68D864704708ED00E04001C0B2014B1870704700BF03E400E00822014B1A607047E0
:401E000000E100E00822014B1A60704780E100E010B50446FFF7F6FF2046FFF7DFFF0720FFF7E2FFFFF7E8FF10BD00BF014B1870704700BF76640040044A137803F0EF033C
:401E4000000100F0100018431070704720510040044A137803F0F703C00000F0080018431070704720510040044A137803F0DF03400100F02000184310707047205100401B
:401E8000044A137803F07F03C001C0B218431070704700BF20510040044A137803F0BF03800100F0400018431070704720510040044A137803F0F703C00000F00800184344
:401EC0001070704700510040044A137803F0FB03800000F0040018431070704700510040044A137803F0EF03000100F0100018431070704700510040024B1878C0F38010B7
:401F0000704700BF01510040084A137843F0020313701032137843F00203137002F65932137843F001031370704700BFA3430040014B1880704700BF104F0040014B188038
:401F4000704700BF124F0040014B1870704700BF0F4F004008B51A4A137843F0020313700232137803F08F0343F040031370154B1A7802F0CF021A701A7842F030021A70FF
:401F80001A7802F0F0021A701A7842F00F021A7040F2E730FFF7CCFF4FF47570FFF7CEFF0020FFF7D1FF084A137843F00203137002F66A32137843F00103137008BD00BFF2
:401FC0000C4F0040174F0040A343004008B5054B1B7823B9FFF7BEFF0122024B1A70FFF793FF08BDE783FF1F084A137843F0010313701032137843F00103137002F64D32E7
:40200000137843F001031370704700BFA3430040014B1880704700BF044F0040014B1880704700BF064F0040014B1870704700BF034F004008B51A4A137843F002031370A0
:402040000232137803F08F0343F040031370154B1A7802F0CF021A701A7842F030021A701A7802F0F0021A701A7842F00F021A7040F28920FFF7CCFF40F20D20FFF7CEFF47
:402080000020FFF7D1FF084A137843F00103137002F65E32137843F00103137008BD00BF004F00400B4F0040A343004008B5054B1B7823B9FFF7BEFF0122024B1A70FFF7E4
:4020C00093FF08BDE883FF1F024A137843F080031370704777650040014B1880704700BF146A0040014B1880704700BF946A0040014B1880704700BF546A0040014B188031
:40210000704700BF746A0040014B1870704700BF87650040014B1878704700BF67650040014B188880B27047B46A004008B501E0FFF7F6FFFFF7EEFF10F0100FF8D108BDEB
:4021400008B5184A137803F0C00343F0090313702332137843F0010313700132137843F00103137046F2A810FFF7B6FF46F2A810FFF7B8FF43F2D400FFF7BAFF43F2D40032
:40218000FFF7BCFF0020FFF7BFFF00F049FB064A137843F01003137000F046FBFFF7C6FF08BD00BF776500409765004008B5054B1B7823B9FFF7C4FF0122024B1A70FFF7D5
:4021C00083FF08BDE983FF1F014B1870704700BF786500407222084B1A702022A3F580731A700622633B1A70472210331A7000224F331A70704700BF8965004010B500F0D2
:402200000FFB04460A4A137843F020031370A2F58072137843F010031370043A137843F01003137000F05AF8204600F0FDFA10BD9965004008B5054B1B7823B9FFF7CAFF4E
:402240000122024B1A70FFF7D9FF08BDEA83FF1F034B1B7813F0040FFAD1024B18707047656400404764004038B5074B1B782BB938BDFFF7EDFF0134A4B201E0054600249C
:40228000285D0028F5D138BDEA83FF1F014B1B681865704708ED00E04001C0B2014B1870704700BF04E400E01022014B1A60704700E100E01022014B1A60704780E100E02E
:4022C00010B50446FFF7F6FF2046FFF7DFFF0720FFF7E2FFFFF7E8FF10BD00BF054A137843F0040313701032137843F004031370704700BFA243004038B50222114B1A7090
:4023000081220E3B1A70082202331A700F2511331D70002401331C704FF400420A4B1A6007212846FFF768F808492846FFF750F81022074B1A70074B1C70074B1C70074BFC
:402340001C7038BDD649004080E100E0AD2300007887FF1F7E87FF1F8087FF1F7C87FF1F08B500F05DFA064A137843F0040313701032137843F00403137000F055FA08BDBC
:40238000A543004008B5074B1B7823B9FFF7B4FF0122044B1A70FFF7E3FF4FF40042024B1A6008BDEC83FF1F00E100E038B5A54B1C78A54B1B7813F0400F00F03A81E4B214
:4023C00014F0010F00F01D819F4B1B78453B052B00F21481DFE813F006008200120112010600DF0004F0DF0504F00A04082C42D1954B1B78DBB2452B35D1944B1B7813F01E
:40240000FF0F10D0924B1B681B78DBB2914A137004228C4B1A7001228F4B1A7046228A4B1A702C46EDE08D4B1B7813F0020F0DD08B4A137843F00A0313706022824B1A7064
:402440004FF40042874B1A602C46DAE0864A137843F0100313701022844B1A700422023B1A702C46CDE00022764B1A704A22764B1A702C46C5E00A2C2BD1794A137843F0B6
:40248000A0031370754B1B7813F0020F14D06E4B1B7813F0080F01D0092300E00A23704A11780B4313706022674B1A704FF400426C4B1A602C46A4E06B4A137843F0100337
:4024C00013701022694B1A700422023B1A702C4697E00020FEF75AFF2C4692E014F0020F36D15D4B1A78D2B2584B1B78DBB29A4210D2594A1378DBB255490968CB5CDBB2E8
:4025000054490B7004214F4B197013780133DBB2137076E0514B1B7813F0020F0CD0504A137843F00A0313706022474B1A704FF400424C4B1A6064E04B4A137843F0100331
:4025400013701022494B1A700422023B1A7058E0424B1B7813F0020F0CD0414A137843F09A0313706022384B1A704FF400423D4B1A6046E03C4A137843F0100313701022A2
:402580003A4B1A700422023B1A70354A137843F09003137035E0364A1378DBB2354908682C490978C9B2C15413780133DBB213701278D2B2304B1B78DBB29A4203D2102250
:4025C000204B1A701DE0254B1B7813F0020F0CD0234A137843F00903137060221A4B1A704FF400421F4B1A600BE01F4A137843F0100313700022134B1A7002E00020FEF7B9
:40260000C5FE14F0200F1CD00F4B1B7813F0080F01D0012300E00223114A11780B431370114A137803F0EF0313701022064B1A7038BD054B1B7813F0100F02D11022024B5B
:402640001A7038BDD74900407887FF1F7F87FF1F8487FF1FD84900407C87FF1F7D87FF1F7E87FF1F80E100E0D6490040D94900408087FF1F8887FF1F8C87FF1F1A4B1B78CD
:40268000DBB2102B29D1194B1B7813F0080F26D14FF40042164B1A604000C0B229B140F001004922104B1A7002E045220E4B1A70104B1870012201331A700F4B1B7813F003
:4026C000010FFAD00C4B1B7803F00A030A2B08D11022054B1A700320704702207047012070470020704700BF7887FF1FD949004080E100E0D8490040D74900400A4B1B7872
:4027000013F0040F0ED01023074A13700421023A1170064A1370064B1B7813F0210FFAD00020704702207047D94900407887FF1FD7490040114B1B7813F0040F1BD0104B2E
:4027400018700422013B1A7046220E4B1A700E4B1B7813F0010FFAD00B4B1B7813F0020F04D16022074B1A70002070476022054B1A70032070470220704700BFD94900409A
:40278000D84900407887FF1FD7490040114B1B7813F0040F1BD0104B1B78DBB2492B05D100220E4B1A704A220B4B1A700B4B1B7813F0010FFAD00A4B1B78DBB218B1102100
:4027C000064A117004E06021034A117000E0002318467047D94900407887FF1FD7490040D8490040044A137803F0FD03400000F00200184310707047F0510040024B18788F
:40280000C0F38000704700BF21510040000000000230800803D000BF01380046FCD17047EFF3108072B6704780F31088704700BFCBB20370C1F307234370C1F307418170AE
:40284000704700BF81F0004102E000BF83F0004330B54FEA41044FEA430594EA050F08BF90EA020F1FBF54EA000C55EA020C7FEA645C7FEA655C00F0E2804FEA5454D4EB57
:402880005555B8BF6D420CDD2C4480EA020281EA030382EA000083EA010180EA020281EA0303362D88BF30BD11F0004F4FEA01314FF4801C4CEA113102D0404261EB4101CB
:4028C00013F0004F4FEA03334CEA133302D0524263EB430394EA050F00F0A780A4F10104D5F1200E0DDB02FA0EFC22FA05F2801841F1000103FA0EF2801843FA05F359413A
:402900000EE0A5F120050EF1200E012A03FA0EFC28BF4CF0020C43FA05F3C01851EBE37101F0004507D54FF0000EDCF1000C7EEB00006EEB0101B1F5801F1BD3B1F5001FCD
:402940000CD349085FEA30004FEA3C0C04F101044FEA445212F5800F80F09A80BCF1004F08BF5FEA500C50F1000041EB045141EA050130BD5FEA4C0C404141EB010111F4A7
:40298000801FA4F10104E9D191F0000F04BF01460020B1FA81F308BF2033A3F10B03B3F120020CDA0C3208DD02F1140CC2F10C0201FA0CF021FA02F10CE002F11402D8BF5B
:4029C000C2F1200C01FA02F120FA0CFCDCBF41EA0C019040E41AA2BF01EB0451294330BD6FEA04041F3C1CDA0C340EDC04F11404C4F1200220FA04F001FA02F340EA030061
:402A000021FA04F345EA030130BDC4F10C04C4F1200220FA02F001FA04F340EA0300294630BD21FA04F0294630BD94F0000F83F4801306BF81F480110134013D4EE77FEA5D
:402A4000645C18BF7FEA655C29D094EA050F08BF90EA020F05D054EA000C04BF1946104630BD91EA030F1EBF0021002030BD5FEA545C05D14000494128BF41F0004130BDBD
:402A800014F580043CBF01F5801130BD01F0004545F0FE4141F470014FF0000030BD7FEA645C1ABF194610467FEA655C1CBF0B46024650EA013406BF52EA033591EA030F14
:402AC00041F4002130BD00BF90F0000F04BF0021704730B54FF4806404F132044FF000054FF0000150E700BF90F0000F04BF0021704730B54FF4806404F1320410F0004553
:402B000048BF40424FF000013EE700BF42004FEAE2014FEA31014FEA02701FBF12F07F4393F07F4F81F06051704792F0000F14BF93F07F4F704730B54FF4607401F000450A
:402B400021F0004120E700BF50EA010208BF704730B54FF000050AE050EA010208BF704730B511F0004502D5404261EB41014FF4806404F132045FEA915C3FF4DCAE4FF01E
:402B800003025FEADC0C18BF03325FEADC0C18BF033202EBDC02C2F1200300FA03FC20FA02F001FA03FE40EA0E0021FA02F11444C1E600BF70B54FF0FF0C4CF4E06C1CEAEF
:402BC00011541DBF1CEA135594EA0C0F95EA0C0F00F0DEF82C4481EA030621EA4C5123EA4C5350EA013518BF52EA033541F4801143F4801338D0A0FB02CE4FF00005E1FB17
:402C000002E506F00042E0FB03E54FF00006E1FB03569CF0000F18BF4EF0010EA4F1FF04B6F5007F64F5407404D25FEA4E0E6D4146EB060642EAC62141EA55514FEAC52042
:402C400040EA5E504FEACE2EB4F1FD0C88BFBCF5E06F1ED8BEF1004F08BF5FEA500E50F1000041EB045170BD06F0004646EA010140EA020081EA0301B4EB5C04C2BFD4EBB9
:402C80000C0541EA045170BD41F480114FF0000E013C00F3AB8014F1360FDEBF002001F0004170BDC4F10004203C35DA0C341BDC04F11404C4F1200500FA05F320FA04F040
:402CC00001FA05F240EA020001F0004221F0004110EBD37021FA04F642EB06015EEA430E08BF20EAD37070BDC4F10C04C4F1200500FA04F320FA05F001FA04F240EA020014
:402D000001F0004110EBD37041F100015EEA430E08BF20EAD37070BDC4F1200500FA05F24EEA020E20FA04F301FA05F243EA020321FA04F001F0004121FA04F220EA020070
:402D400000EBD3705EEA430E08BF20EAD37070BD94F0000F0FD101F00046400041EB010111F4801F08BF013CF7D041EA060195F0000F18BF704703F00046520043EB0303B1
:402D800013F4801F08BF013DF7D043EA0603704794EA0C0F0CEA135518BF95EA0C0F0CD050EA410618BF52EA4306D1D181EA030101F000414FF0000070BD50EA410606BF9E
:402DC0001046194652EA430619D094EA0C0F02D150EA013613D195EA0C0F05D152EA03361CBF104619460AD181EA030101F0004141F0FE4141F470014FF0000070BD41F04B
:402E0000FE4141F4780170BD70B54FF0FF0C4CF4E06C1CEA11541DBF1CEA135594EA0C0F95EA0C0F00F0A7F8A4EB050481EA030E52EA03354FEA013100F088804FEA0333AC
:402E40004FF0805545EA131343EA12634FEA022245EA111545EA10654FEA00260EF000419D4208BF964244F1FD0404F5407402D25B084FEA3202B61A65EB03055B084FEA8A
:402E800032024FF480104FF4002CB6EB020E75EB030E22BFB61A754640EA0C005B084FEA3202B6EB020E75EB030E22BFB61A754640EA5C005B084FEA3202B6EB020E75EB13
:402EC000030E22BFB61A754640EA9C005B084FEA3202B6EB020E75EB030E22BFB61A754640EADC0055EA060E18D04FEA051545EA16754FEA06164FEAC30343EA52734FEA64
:402F0000C2025FEA1C1CC0D111F4801F0BD141EA00014FF000004FF0004CB6E711F4801F04BF01430020B4F1FD0C88BFBCF5E06F3FF6AFAEB5EB030C04BFB6EB020C5FEAEC
:402F4000500C50F1000041EB045170BD0EF0004E4EEA113114EB5C04C2BFD4EB0C0541EA045170BD41F480114FF0000E013C90E645EA060E8DE60CEA135594EA0C0F08BFA9
:402F800095EA0C0F3FF43BAF94EA0C0F0AD150EA01347FF434AF95EA0C0F7FF425AF104619462CE795EA0C0F06D152EA03353FF4FDAE1046194622E750EA410618BF52EA63
:402FC00043067FF4C5AE50EA41047FF40DAF52EA43057FF4EBAE12E74FF0FF3C06E000BF4FF0010C02E000BF4FF0010C4DF804CD4FEA410C7FEA6C5C4FEA430C18BF7FEA7E
:403000006C5C1BD001B050EA410C0CBF52EA430C91EA030F02BF90EA020F0020704710F1000F91EA030F58BF994208BF90422CBFD8176FEAE37040F0010070474FEA410C83
:403040007FEA6C5C02D150EA013C07D14FEA430C7FEA6C5CD6D152EA033CD3D05DF8040B704700BF8446104662468C461946634600E000BF01B5FFF7B7FF002848BF10F1D2
:40308000000F01BD4DF808EDFFF7F4FF0CBF012000205DF808FB00BF4DF808EDFFF7EAFF34BF012000205DF808FB00BF4DF808EDFFF7E0FF94BF012000205DF808FB00BFDF
:4030C0004DF808EDFFF7CEFF94BF012000205DF808FB00BF4DF808EDFFF7C4FF34BF012000205DF808FB00BF4FEA410212F5001215D211D56FF47873B3EB625212D94FEAC4
:40310000C12343F0004343EA505311F0004F23FA02F018BF404270474FF00000704750EA013005D111F0004008BF6FF0004070474FF00000704700BF4FEA4102B2F1E0436A
:4031400024BFB3F5001CDCF1FE5C0DD901F0004C4FEAC0024CEA5070B2F1004F40EB830008BF20F00100704711F0804F21D113F13872BCBF01F00040704741F480114FEA6C
:403180005252C2F11802C2F1200C10FA0CF320FA02F018BF40F001004FEAC1234FEAD32303FA0CFC40EA0C0023FA02F34FEA4303CCE77FEA625307D150EA01331EBF4FF057
:4031C000FE4040F44000704701F0004040F0FE4040F40000704700BF42000ED2B2F1FE4F0BD34FF09E03B3EB126209D44FEA002343F0004323FA02F070474FF000007047D0
:4032000012F1610F01D1420202D14FF0FF3070474FF00000704700BF014B1868704700BFAC81FF1F0E4B70B51E460E4C0025E41AA410A54204D056F8253098470135F8E766
:4032400002F080F9084B094C1E46E41AA4100025A54204D056F8253098470135F8E770BD5055000050550000505500005855000010B5431E0A44914204D011F8014B03F87A
:40328000014FF8E710BD03460244934202D003F8011BFAE770472DE9F04788B0149F002B1E461299B8BF03F1004327F02007B6BF1E4600232D23462F1446109DDDF84CA046
:4032C0000B7003D0452F03D1013501E0032300E0022307AA049206AA03928DE828042246334600F001FD472F804602D1119BDB0728D5462F08EB050911D198F80030302BED
:403300000AD10022002320463146FFF7BBFE18B9C5F10105CAF80050DAF8003099440022002320463146FFF7ADFE08B9302202E0CDF81C9006E0079B994503D9591C0791EB
:403340001A70F8E74046079B159AC8EB0303136008B0BDE8F087034673B50029B8BF494203F8022BB4BF2D222B22092942701ADD0DF1070216460A2591FBF5F405FB141133
:40338000092C01F1300102F8011D2146F4DC3031541E02F8011CB4421A460AD214F8012B03F8012BF7E71A463024214402F8024B5970101A02B070BD2DE9F04F91B00C46F3
:4033C000DDF8688016461F46054601F025FA03681846099300F0F4FB00230E93D8F800300A90073323F0070303F1080294F81890D4F800B0C8F80020D3E90023C4E91223AC
:40340000D4F84CA0D4F848802AF000430B934FF0FF32A74B40460B9901F052FFA0B94FF0FF32A34B40460B99FFF740FE60B90022002340465146FFF72FFE10B12D2384F837
:4034400043309C4B9C4A0AE0424653464046514601F036FF002800F09281984B984AB9F1470F8CBF90469846032323612BF0040323604FF0000A3DE0B9F1670F00F08A81FF
:40348000B9F1470F00F0868123600193636800210DF13302059002920093424653460691CDF81090CDF80CE02846FFF7F4FE09F0DF03472B804600F08481B9F1650F0D9933
:4034C00000F28D8101394A4604F150000D91FFF742FF0E9A82468318012A236100F37C812268D10700F178819DF8333013B12D2384F84330009733460FAA2146284600F069
:403500009FF9013002D14FF0FF3096E123685A0501D4236965E0B9F1650F40F2D580D4E9120100220023FFF7ADFD78B30123654A31462846B8470130E5D00E9B0D9A9A422C
:403540000BDB2368D80708D423689B0740F111814FF0000804F1190906E10A9B099A31462846B8470130CED04FF0000804F11A090E9B013B9845E7DA01234A463146284674
:40358000B8470130BFD008F10108F1E70D9B002B29DC01234B4A31462846B8470130B2D00D9B23B90E9B13B92368D907CCD50A9B099A31462846B8470130A4D04FF000092C
:4035C00004F11A0A0D9B5B42994509DA0123524631462846B847013095D009F10109F1E70E9B4246A7E00E9AA36D9A42A8BF1A46002A914606DC4FF0000A29EAE97904F1F1
:403600001A0B11E01346314642462846B8470130F1D178E701235A4631462846B84701303FF471AF0AF1010AA36DC9EB03029245F0DB08EB03090D9A0E9B9A420FDB236820
:40364000DA070CD40E9B0D9A9844C9EB08089B1A9845A8BF9846B8F1000F08DC0FE00A9B099A31462846B8470130EBD14BE743464A4631462846B84701303FF444AF4FF059
:40368000000928EAE87804F11A0A09E00123524631462846B84701303FF435AF09F101090D9A0E9B9B1AC8EB03039945EEDB4BE7FFFFEF7FE4530000E8530000EC530000ED
:4036C000F0530000F45300000E9A012A01DCDB0738D50123424631462846B84701303FF412AF0A9B099A31462846B84701303FF40AAFD4E9120100220023FFF7C3FC20B108
:403700004FF0000804F11A090EE00E9B08F10102013B19E001234A4631462846B84701303FF4F1AE08F101080E9B013B9845F1DB534604F1500231462846B84701307FF4CF
:4037400003AFE0E64246012331462846B8470130EED1D8E601234A4631462846B84701303FF4D1AE08F10108E3680F9A9B1A9845F0DBE0680F9B9842B8BF18465DE062681D
:403780000EA8531C0DF1340E4BF480637FF474AE062201E012B90122626075E6002106910DF133018DE80C00236005904246CDF81090CDF80CE0029153462846FFF76BFDC0
:4037C00080460D9BD81C02DB626893421DDDA9F102095FFA89F970E60133236184E6B9F1660F14D10029636807DD216113B92268D2071DD501330B4419E013B92268D007D1
:4038000001D5023313E0012311E04FF067090D9B0E9A934205DB22682361D10708D5013305E0002BD4BFC3F102030123134423610D9B4FF0000AA36556E611B0BDE8F08F55
:403840002DE9F04791461F460A698B6806469342B8BF1346C9F8003091F843200C46DDF8208012B10133C9F800302368990642BFD9F800300233C9F80030256815F00605ED
:4038800010D104F1190A07E00123524639463046C04701301AD00135E368D9F800209B1A9D42F1DB94F843302268003318BF012392060FD5E118302081F843005A1C94F849
:4038C00045102244023382F8431003E04FF0FF30BDE8F08704F1430239463046C0470130F4D02268D9F80050E36802F00602042A08BF5D1B2269A3680CBF25EAE575002527
:403900009342C4BF9B1AED184FF000091A344D4509D00123224639463046C0470130D5D009F10109F3E70020BDE8F0872DE9F04317460A7E85B06E2A984606460C460C9BDE
:4039400001F1430E00F0AE8011D8632A22D009D8002A00F0BB80582A40F0CA8081F84520834955E0642A1ED0692A1CD0C0E0732A00F0B08009D86F2A2ED0702A40F0B8809B
:403980000A6842F020020A603EE0752A24D0782A3AD0ADE01A6801F14205111D1960136884F84230A8E021681A6811F0800F02D0111D196008E011F0400F02F104011960DD
:4039C00002D0B2F9003000E01368002B3CDA2D225B4284F8432037E021681A6811F0800F02D0111D196007E011F0400F02F10401196001D0138800E01368227E5C496F2A3B
:403A000014BF0A2208221BE078225A4984F845202268186812F0800F00F104051D6003D1550601D5038800E00368D00744BF42F0200222601BB9226822F020022260102261
:403A4000002084F8430001E049490A226568002DA56008DB206820F0040020602BB9002D7DD175460CE0002B79D07546B3FBF2F002FB1033CB5C05F8013D03460028F5D12C
:403A8000082A0BD12368DA0708D5236962689A42DEBF302305F8013C05F1FF35C5EB0E0323612EE008681A6810F0800F496903D0101D1860136808E010F0400F02F1040082
:403AC0001860136801D0198000E0196000232361754616E01A68111D1960156800216268284600F0A5FE08B1401B6060636804E004F1420584F8422001232361002384F842
:403B00004330CDF800803B4603AA21463046FFF797FE013002D14FF0FF3026E023692A4639463046C0470130F5D023689B0710D5002504F1190907E001234A4639463046F3
:403B4000C0470130E7D00135E368039A9B1A9D42F2DBE068039B9842B8BF184605E00B7804F1420584F842308AE705B0BDE8F083F6530000075400000EB400B54FF40271A1
:403B80009CB0ADF814106FF00041049107914FF6FF711DAB02900690084853F8042BADF81610006802A9019301F038FA029B00221A701CB05DF804EB03B07047AC81FF1F11
:403BC000034613F8012B002AFBD1181A013870472DE9F74F03690C6980469C427FDC013C01F114074FEA840E00F1140606EB0E0357F82450019356F824300135B3FBF5F508
:403C000007EB0E09C5B34FF0000A3846B446D34650F8043B9AB205FB02A21B0C4FEA124A05FB03A392B2C2EB0B0BBCF800204FEA134A5A441FFA83FBDCF800308145CBEB2A
:403C4000134303EB224392B242EA03424FEA234B4CF8042BDCD256F80E306BB9019B043B9E421A4602D3C8F8104005E01268043B002AF8D1013CF3E7404600F0F4FF002835
:403C80002BDB304601354FF0000E57F8042B036891B2C1EB0E0E120C99B27144C2EB134303EB214389B24FEA234EB94541EA034340F8043BE9D256F8242006EB840362B9F3
:403CC000043B9E421A4602D3C8F8104005E01268043B002AF8D1013CF3E7284600E0002003B0BDE8F08F00002DE9F04F456A95B08246219CCDE9022345B9102000F090FD1F
:403D0000CAF82400456085600560C560DAF82430196859B15A68012393404A608B60504600F0C9FDDAF8243000221A60039BA04A002BBDBF01232360039B0023BCBF23F057
:403D400000430393DDF80C80A8BF236028F000431B0D1B0593421DD142F20F73209A1360029B43B9934A944BC8F31300002814BF1846104600E09048229B002B00F04685A9
:403D8000C37813B100F1080300E0C31C229A136000F03CBDDDE902450022002320462946FFF770F9074658B1209A01231360229B002B00F01E8581481860013800F026BD3C
:403DC00012AB019313AB009322462B46504600F0C5FFC8F30A56049056B1C5F3130343F07F51204641F44011A6F2FF3611971DE0139B129E1E4406F23243202B0ADD029A1E
:403E000006F21240C3F1400322FA00F008FA03F3184304E0C3F12000029B03FA00F0FEF753FE0123A1F1F871013E11930022644BFEF70CFD58A3D3E90023FEF7BBFE58A306
:403E4000D3E90023FEF704FD044630460D46FEF74BFE55A3D3E90023FEF7ACFE02460B4620462946FEF7F4FC04460D46FFF73CF900228346002320462946FFF70DF958B1A3
:403E80005846FEF731FE02460B4620462946FFF7F9F808B90BF1FF3BBBF1160F0DD8DDE90223484901EBCB01D1E90001FFF712F930B10BF1FF3B002300E00123109300E08D
:403EC0001090129B9E1B731E079343BFC3F10008002307934FF00008BBF1000F06DB079BCDF82CB05B440793002705E00023CBEB0808CBF100070B931E9B092B28D8052B44
:403F0000C4BF043B1E931E9BC8BF0025A3F10203D8BF0125032B20D8DFE803F0060E0204012302E0012308E000230A931F9B002B1DDD9946059321E000230A931F9B0BEBC0
:403F4000030909F10103012B0593B8BF012315E0012500231E930A9501E001230A934FF0FF390022CDF8149012231F9206E04FF001094B46CDF81490CDF87C90DAF8244090
:403F800000226260042101F114029A421CD86268490001326260F6E761436F63A787D23FB3C8608B288AC63FFB799F501344D33F0000F07F1854000021540000F553000005
:403FC0000000F83F305400006168504600F03EFCDAF8243020601B680693059B0E2B00F25B81002D00F05881DDE90234BBF1000FCDE90E3430DD9F4A0BF00F034FEA2B15F3
:4040000002EBC303E80618CBCDE908340CD5DDE90E01994B05F00F05D3E90823FEF7F4FE0324CDE9020100E00224934E6DB1E90708D5DDE90801D6E90023FEF7BBFDCDE9D3
:40404000080101346D100836F0E7DDE90823DDE90201FEF7D9FE20E0CBF1000505B3DDE90E01844B05F00F0203EBC203D3E90023FEF7A0FDCDE902017F4E2D110023022496
:4040800055B1EA0705D5D6E90023FEF793FD013401236D100836F3E71BB1CDE9020100E00224109BE3B1DDE902560022734B28463146FEF7F1FF98B1059B8BB1B9F1000F6A
:4040C00040F3E6800BF1FF330893314600226C4B2846FEF76FFD0134CDE902014E4602E0059ECDF820B02046FEF7FEFCDDE90223FEF760FD634B0022FEF7AAFBA1F1507352
:4041000004460C931D46D6B9DDE9020100225E4BFEF79CFB22460C9BCDE90201FEF7DAFF002840F03F820C99224601F10043DDE90201FEF7B1FF002840F02B82A8E00A9AF4
:404140004C4B711E002A49D003EBC103D3E9002300204E49FEF758FE22462B46FEF776FBCDE90C01069CDDE90201FEF7BDFF0546FEF7BAFC02460B46DDE90201FEF766FB77
:40418000DDE90C23303504F8015BCDE90201FEF783FF002840F01D83DDE9022300203749FEF754FBDDE90C23FEF776FF002840F0D180069BE31AB3426ADADDE90C01002282
:4041C0002F4BFEF7F7FC0022CDE90C01DDE902012B4BFEF7EFFCCDE90201C4E703EBC1012246D1E900012B46FEF7E4FC069BCDE90C011D469C19DDE90201FEF775FF0646E2
:40420000FEF772FC02460B46DDE90201FEF71EFB303605F8016BAC42CDE902014FF0000222D11A4BDDE90C01FEF712FB02460B46DDE90201FEF74EFF002840F08B80DDE9FA
:404240000C2300201149FEF701FB02460B46DDE90201FEF721FFD8B114F8013C621E302B40F0B7821446F7E7054BFEF7A3FCCDE90201C0E730540000085500000000F03F8B
:404280000000244000001C40000014400000E03FDDE90E34CDE90234139B002B7CDBBBF10E0F79DCAB4B03EBCB03D3E900671F9B002B14DA059B002B11DC40F06C810022EA
:4042C000A54B30463946FEF775FCDDE90223FEF7F7FE059D2E46002840F05F8165E1069CDDE9028932463B4640464946FEF78CFDFEF7FAFE0546FEF7F7FB32463B46FEF77E
:4043000059FC0B46024649464046FEF79FFA05F1300E069B04F801EBC3EB040E059B73452DD102460B46FEF793FA8046894602460B4630463946FEF7AFFE78B942464B46EF
:4043400030463946FEF79EFE002800F04482EB0704D440E2DDF820B000E01C4614F8012C631E392A07D1069A9A42F6D1069930220BF1010B0A701A7801321A702BE20022DD
:40438000764BFEF717FC0022002380468946FEF779FE0028A6D01EE20A9A002A2BD01E9A012A0ADC119A12B103F2334302E0129BC3F136033D46444613E0059B5D1EAF425D
:4043C000BFBF0B9BEA1B9B180B93059BB6BF2F467D1B0025002BA7BF4446059BC3EB08040023079A01211A4450469844079200F001FB064602E03D4644460A9E5CB1079BBA
:40440000002B08DDA342A8BF2346079AC3EB0808E41AD31A0793002F1DDD0A9BABB18DB131462A46504600F07FFB049A01460646504600F0E8FA04990890504600F03BFAFB
:40444000089B04937A1B06D000E03A460499504600F06AFB04900121504600F0CBFA0B9B05465BB31A460146504600F05DFB1E9B0546012B18DC029B83B9039BC3F31303C3
:4044800073B9039B23F000473F0D3F054FB1079B08F1010801330793012702E0002700E0029F0B9B73B100E000272B6905EB8303186900F052FAC0F1200004E01E9B012BF2
:4044C000D9DD0B9F0120079B184410F01F0008D0C0F12003042B02DDC0F11C0002E006D018461C30079B8044034404440793B8F1000F05DD42460499504600F063FB04906F
:40450000079B002B05DD29461A46504600F05AFB0546109B23B32946049800F0A4FB00281EDA00230A220499504600F0DBF90A9B0BF1FF3B0490002B00F05F813146002352
:404540000A22504600F0CEF9B9F1000F06463FDC3BE000BF305400000000144000002440059B002B2BDC1E9B022B28DDDDF81490B9F1000F11D129464B460522504600F00E
:40458000B1F901460546049800F06DFB00280CDC03E0354600E000252E461F9B069C6FEA030B09E03546DDF820B0069B069A5C1C312313700BF1010B05960026F7E00A9B43
:4045C000DDF8149023B9069CB2E01E9B022BCFDC002C05DD31462246504600F0F3FA06469FB17168504600F031F90446326906F10C01023292000C30FEF73AFE012221467A
:40460000504600F0DFFA059000E00596029B069F03F00103079329460498FFF7D9FA3146044600F13008049800F01DFB059A02902946504600F033FBC36802463BB90146D4
:404640000A90049800F00FFB0A9A034600E00123114650460A9300F02EF90A9B53B91E9A42B9079A32B9B8F1390F2AD0029B002B1CDC1DE0029A002A04DB1BD11E9ACAB914
:40468000079ABAB9002B13DD01220499504600F099FA2946049000F0E6FA002803DC07D118F0010F04D0B8F1390F0AD004F131087C1C0CE0002B07F101040BDDB8F1390FD6
:4046C00003D139233B70013756E008F1010887F800806CE0069B2746E31A4B4504F8018C3BD000230A220499504600F0FBF8059B04909E424FF00A024FF0000331465046E2
:4047000004D100F0EFF80646059084E700F0EAF8002306460A220599504600F0E3F8059079E700230A220499504600F0DBF8049029460498FFF74CFA069B00F1300804F83A
:40474000018BE31A4B45ECDB069B0596B9F1010FACBF4B4401331F46002601220499504600F030FA2946049000F07DFA002803DC15D118F0010F12D03C4614F8013C621E9E
:40478000392B09D1069B934204D10BF1010B3123069A02E01446F0E70133137007E03C4614F8013C621E302B01D11446F8E72946504600F080F8059B6BB12EB19E4203D057
:4047C0003146504600F077F80599504600F073F801E0DDF820B00499504600F06CF80023209A23700BF101031360229B1BB11C6001E008480AE0069808E0B9F1000F3FF739
:40480000E2AE1E9B022B7FF7DEAEB1E615B0BDE8F08F00BFF453000000487047B081FF1F024B0146186800F041BB00BFAC81FF1F10B5C9B202449042034605D01C780130E7
:404840008C42F8D1184610BD002010BD70B5456A04460E463DB91020FFF7E2FF6062456085600560C560656AEB6843B1636ADB6853F8260078B1026843F8262017E021225F
:404880000421204600F0B8FA636AE860DB68002BECD1002070BD012101FA06F56A1D9200204600F0A9FA0028F3D04660856000230361C36070BD70B5446A06460D463CB960
:4048C0001020FFF7ADFF7062446084600460C4603DB1736A6A68DB6853F82210296043F8225070BD2DE9F04106460C460D691F4601F1140E0023DEF80000013381B202FB13
:404900000171000C0F0C02FB007089B201EB00419D424FEA10474EF8041BECDCD7B1A3689D4212DB616830460131FFF78FFF8046226904F10C01023292000C30FEF798FC3B
:4049400021463046FFF7B7FF444604EB850301355F6125612046BDE8F081030C1B0413B90004102300E0002310F07F4F04BF0002083310F0704F04BF0001043310F0404F6A
:4049800004BF80000233002803DB420003D5581C70471846704720207047036813F007020BD0D90722D49A074BBF5B089B08036003604CBF01200220704799B209B91B0C50
:4049C000102213F0FF0F04BF1B0A0832190704BF1B090432990704BF9B080232D90702D45B0805D00132036010467047002070472020704710B50C460121FFF727FF012204
:404A00004461026110BD2DE9F74F14460A69236988469A42BEBF0B46A0461C46D8F81070D4F81090D8F80830D8F8041007EB09069E42C8BF0131FFF709FF00F114052B4671
:404A400005EB860C0022634502D243F8042BFAE704F1140208F1140102EB890301EB87070093009B0192934257D9B2F800B0BBF1000F23D08946AE464FF0000859F8044B47
:404A8000BEF800A0A3B20BFB03A34FEA144ADEF8004043444FEA14480BFB0A84F24604EB13449BB243EA04434F454FEA14484AF8043B01D9D646E1E7CEF80480019B04327F
:404AC000B3F802A0BAF1000F21D02C4689462B684FF00008B9F800E0B4F802B09BB20AFB0EBEA346F04443EA08434BF8043B59F8043BB4F804E01B0C0AFB03E34F4503EBCB
:404B000018434FEA134801D95C46E3E763600435A7E75CF8043D13B9013E002EF9DC066103B0BDE8F08F00002DE9F843154612F0030206460F4607D0214C013A002354F893
:404B40002220FFF7CFFE0746AD1036D0746A3CB91020FFF765FE7062446084600460C460D6F82480D8F808404CB940F271213046FFF740FF04460023C8F8080003604FF00D
:404B80000008EB070AD5394622463046FFF73BFF814639463046FFF78EFE4F466D100CD0206808B10446ECE7224621463046FFF72AFF2060C0F80080F4E73846BDE8F88370
:404BC000F85400002DE9F0470C460746914626694FEA621A56444968A368751CAB4202DA01315B00FAE73846FFF730FE002380461A4600F11401534503DA41F8232001332E
:404C0000F9E72AEAEA73206901EB830319F01F0904F1140101EB800E14D0C9F1200C002208689A4600FA09F0024343F8042B51F8042B8E4522FA0CF2F2D8CAF8042042B18D
:404C4000B51C06E0043B51F8042B8E4543F8042FF9D8013D3846C8F810502146FFF72BFE4046BDE8F08703690A6910B59B1A11D192001430143183180A4453F8044D52F88B
:404C8000041D8C4202D007D3012010BD9842F4D3002010BD184610BD4FF0FF3010BD2DE9F8430C460746114620461546FFF7DBFF061E08D131463846FFF7C8FD012303616A
:404CC0004661BDE8F883BCBF23462C4638466168BABF1D4601260026FFF7B8FD2B69C660266905F1140904F1140101EB860709EB830800F114054FF0000C51F8042B59F800
:404D0000044B93B29C44A3B2240CC3EB0C03C4EB124202EB23429BB24FEA224CC84543EA02428E4645F8042BE7D8BE450ED25EF8041B8AB26244131403EB114392B242EAE4
:404D400003424FEA234C45F8042BEEE755F8043D0BB9013EFAE70661BDE8F8832DE9F3411C4601219046089E099DFFF76FFDC4F31302C4F30A5407460CB142F48012019274
:404D8000B8F1000F19D002A840F8088DFFF705FE009B48B1019AC0F1200102FA01F10B43C2407B61019200E07B61019B002B14BF02210121BB61396107E001A8FFF7EDFD73
:404DC000019B01217B613961203034B1A4F2334404443460C0F1350009E0A0F2324007EB810330601869FFF7B8FDC0EB41102860384602B0BDE8F08138B502FB01F421464C
:404E000000F054F8054618B122460021FEF73BFA284638BD38B50546002944D051F8043C0C1F002BB8BFE41800F017FA1E4A1368114613B96360146030E0A3420DD92268A2
:404E4000A018834201BF18685B681218226063600C6023E0A24203D813465A68002AF9D118681918A1420BD12168014458188242196013D110685268014419605A600DE0A0
:404E800002D90C232B6009E021686018824201BF106852680918216062605C602846BDE8384000F0DBB938BDF483FF1F70B5CD1C25F0030508350C2D38BF0C25002D0646C2
:404EC00001DBA94202D90C23336046E000F0C5F9234B1C681A462146A1B10B685B1B0ED40B2B03D90B60CC18CD501EE08C420BBF63684B681360636018BF0C4615E00C466C
:404F00004968E9E7174C23681BB9304600F07AF920602946304600F075F9431C18D0C41C24F00304A0420DD12560304600F096F904F10B00231D20F00700C31A0ED05A4268
:404F4000E25070BD211A304600F05CF90130EBD10C233360304600F081F9002070BD00BFF483FF1FF083FF1F2DE9F0478E6882469E420C46914698463ED88A8912F4906FFB
:404F80003AD02568096902236F1A656905EB450595FBF3F57B1C43449D4238BF1D4653050FD52946FFF782FF064698B13A462169FEF75EF9A38923F4906343F08003A38146
:404FC00013E02A4600F04BF9064670B921695046FFF720FF0C23CAF80030A3894FF0FF3043F04003A381BDE8F08726613E44266046466561ED1BA560464528BF4646494684
:405000003246206800F00EF9A36800209B1BA36023681E442660BDE8F08700002DE9F04F9DB003938B8980461C060D4616460DD50B695BB94021FFF739FF2860286118B948
:405040000C23C8F80030CDE040236B610023099320238DF82930DFF89CB130238DF82A3037463C4614F8013B1BB9B7EB060910D003E0252BF9D02746F3E74B463246294698
:405080004046FFF771FF013000F0A780099B4B4409933B78002B00F0A08000234FF0FF3204930793059206938DF853301A930126052221784E48FFF7BBFB671C049B38B122
:4050C0004B4A3C46801A06FA00F018430490EFE7D90644BF20228DF853201A0744BF2B228DF8532022782A2A03D0079A00210A200BE0039A111D12680391002A10DA5242AC
:4051000043F00200079204900BE027463B780134303B092B03D800FB02320121F5E701B107923B782E2B1ED17B782A2B0AD1039B02371A1D1B680392002BB8BF4FF0FF3384
:40514000059310E0002319460593781C0A2407463A780130303A092A03D804FB01210123F5E703B10591032239782248FFF760FB40B14023CBEB000003FA00F0049B013759
:4051800018430490397806221B487E1C8DF82810FFF74EFB88B1194B33B9039B073323F007030833039314E003AB00932A46144B04A94046FEF700F907E003AB00932A4622
:4051C0000F4B04A94046FEF7B1FBB0F1FF3F824603D0099B5344099342E7AB895B0601D4099801E04FF0FF301DB0BDE8F08F00BF30550000365500003A550000B933000072
:40520000694F000038B5064C0023054608462360FCF732F8431C02D1236803B12B6038BD9087FF1F884210B501EB020301D8421E0BE09842FBD28118D21AD34204D013F831
:40524000014D01F8014DF8E710BD994204D011F8014B02F8014FF8E710BD70477047F8B5074615460E4621B91146BDE8F840FFF71DBE1AB9FFF7CEFD2846F8BD00F015F849
:4052800085420ED929463846FFF710FE044650B131462A46FDF7ECFF31463846FFF7BAFD01E03046F8BD2046F8BD51F8040C0028BEBF091851F8043CC01804387047000002
:4052C0004FEA410C7FEA6C5C02D150EA013C0AD14FEA430C7FEA6C5C02D152EA033C02D14FF0000070474FF0010070470000000046726F6E74206469737420313A20256CF2
:405300006620200A0000000043616C6962726174696E670A0000000048656164696E673A20256C660A0000006D6F76696E6720746F20736C697400007265643A2025640AB1
:4053400000000000677265656E3A2025640A0000626C75653A2025640A000000795F636F6F7264203D20256C660A0000766F6C742856293A20256C660A00000064697374B2
:4053800028636D293A20256C660A000052656420200A0000477265656E20200A00000000426C756520200A00C84900401900004F0040240040510040300000000140001090
:4053C00000140140000800400140000A004C01400002005001402000605200404C13004806004300494E4600696E66004E414E006E616E0030003031323334353637383932
:40540000414243444546003031323334353637383961626364656600496E66696E697479004E614E00504F534958002E00000000000000000000F03F0000000000002440DA
:4054400000000000000059400000000000408F40000000000088C34000000000006AF8400000000080842E4100000000D01263410000000084D797410000000065CDCD41EB
:40548000000000205FA00242000000E876483742000000A2941A6D42000040E59C30A2420000901EC4BCD64200003426F56B0C430080E03779C3414300A0D88557347643AF
:4054C00000C84E676DC1AB43003D9160E458E143408CB5781DAF154450EFE2D6E41A4B4492D54D06CFF08044F64AE1C7022DB544B49DD9794378EA440500000019000000EC
:405500007D000000000000000080E03779C34143176E05B5B5B89346F5F93FE9034F384D321D30F94877825A3CBF737FDD4F1575232D302B2000686C4C0065666745464780
:4055400000000000F8B500BFF8BC08BC9E4670474D000000F5120000F8B500BFF8BC08BC9E4670472900000078550000C880FF1F20010000B00500000000000000000000A7
:40558000000000000000144000409C4600409C4601000000000000009A9999999999B93F9A9999999999154000401C4667020000AC0300000D020000D40300000000000037
:4055C000CDCCCCCCCC4C36400000000000A6AC40FFFFFFFF00409C4500409C450000000000000000000014409887FF1F0000E02EC05D00001800000000366E0100000000A3
:4056000000000000000000000000000000000000000000000000000000000000E2530000000000000000000000000000000000000000000000000000000000000000000035
:40564000000000000000000000000000000000000000000000000000000000004C81FF1F2B54000035550000355500003555000035550000355500003555000035550000FA
:405680003555000035550000FFFFFFFFFFFFFFFFFFFFFFFFFFFF000000000000000000000000000000000000000000000000000000000000000000000000000000000000E4
:4056C00000000000000000000000000000000000000000000000000000000000000000000000000000000000000000000000000000000000000000000000000000000000AA
:405700000000000000000000000000000000000000000000000000000000000000000000000000000000000000000000000000000000000000000000000000000000000069
:405740000000000000000000000000000000000000000000000000000000000000000000000000000000000000000000000000000000000000000000000000000000000029
:4057800000000000000000000000000000000000000000000000000000000000000000000000000000000000000000000000000000000000000000000000000000000000E9
:020000040003F7
:0200000480007A
:40000000064F0040045200400A6400400565004076000140380101406B0201405B030140600401405D0501406C0601404D0701406908014057090140520A01405C0B014097
:40004000670C01405D0D01406A0E0140340F0140601401405B15014067160140521701405E180140501901406E1A0140501B01400A400140124101400942014014430140FD
:40008000024401400545014002460140024701400C48014019490140174C01400F4D01400D5001400351014001500A1B0D50161B196022270102040108041801800D810F5F
:4000C0008377846F850F89388B728C388D0F8F0F856F860F870F880D89720001010102060302040206010B100D010F0A150217011C011D011E021F062401260A3008310840
:40010000330334033510360437043A203B0840524106420449FF4AFF4BFF4DA04F01501854055604580459045A045B045D335F056040628064406540668068406A506BA819
:400140006C406D206E506FA88210830888808D218E2B8F0E91409303951C972398069A099C679E189F1CA067A121A208A316A454A609B001B160B260B480B50FB61EB71A7D
:40018000B808B902BA80BBA0BE15C052C106C204C9FFCAFFCBFFCDAFCE07CF01D018D401D804D904DA04DB04DC44DD43DF01E040E280E440E540E680E840EA50EBA8EC409C
:4001C000ED20EE50EFA8010203200420060507420A020E020F081220170919021A021B201D041E461F40214922202408254027492F4031083280374A39A23D8140844480FB
:400200004521480149804A084D804E085A895C205E445F016340780187408910C0DCC2C1C434CA80CCDACE9DD0A5D23CD6FBD801DE01E280E42000090210041C06020C0CB5
:400240000E11144016031A201C14201026202C102D012E0C3040321F330136203B203E413F0440124106420449FF4AFF4BFF4DAF4E074F015018580459045A045C445D032C
:400280005F016040628064406540668068406A506BA86C406D206E506FA88303880889028A168C908E498F0494FC98449A89A420A8FCAF04B020B102B21CB304B403B501C4
:4002C000B6C0BE10BF05C052C106C204C502C6C0C75EC83BC9FFCAFFCBFFCDAFCE07CF01D018D280D417D804D904DA04DB04DC34DD33DF05E040E280E440E540E680E8406E
:40030000EA50EBA8EC40ED20EE50EFA801800308040807410B280C200E200F0211141422150119821A041B081C401E201F80202021102380251026042A802F013402360322
:40034000380239A0408444804521464248814A284E085001510852105A205B846108625065026740700278017E30828083108410870489028B108C408F0890089424950119
:400380009689981099089B419C019E01A201A320A401A521A688A704A820AA04AB05AD08B010B50CC0B3C2E6C4B6CA18CE0DD0B5D22CD60ED80EDE01E00AE241E408E64119
:4003C000EE08011C03020520070309140D090F10140219101A031B0C1D0C1F112510300232013320351F3E013F044045410642034402450C460E480549FF4AFF4BFF4C62F3
:400400004DA04EF04F41500C540F580459045A045B045C205D045F056640670269106A306B106D106E106F12840486038C018D028E08903C96109B019C0C9E20A020A306D2
:40044000AF01B002B230B301B40CB502B601B704B820BE50BF10C051C104C50EC7BCC831C9FFCAFFCBFFCEF0CF44D00CD401D804D904DA04DB04DC33DD24DF01E6C0EA40AE
:40048000EB020440072008100A100C810D080E80170219041A501C661D282314254027262A042C802D4031103340362039203A023B843C023D824020420443024601470116
:4004C00048284B404C104E025140570559085A425B105C805E285F016008632067037901851588108C088D108E01920493409424959496899732981099089B119C219E01FA
:400500009F04A080A110A206A330A420A521A688A705AB10AD01B001B180B202B402B780C0A0C2B6C410CA92CC2CCE1FD097D21CD6FFD806DE01E208E60AEA0C00D30204FF
:40054000071008D30A0C0B130C8A0E14112C131314201645180319111A041B261D111E081F0E232C2708312A32C0340F35103630370F388839083A203B823E043F14400397
:40058000470449FF4A074BFF4C404D204EF04F055008580459045A045B045C225D025F01604061A8624063208180848485B7861089038A078B0C8CB78D5F8E4094C096240F
:4005C00099059B0A9D809E08A477A56CA703A8C1A96AAA12AB05AC01AEF2B10FB2F0B370B40FB780B988BF40C063C101C50CC6B0C7E0C829C9FFCAFFCBFFCEF0CF44D00C5F
:40060000D280D804D904DA04DB04DD32DF01E6C0EA40EB020080012003200510060207410A120E020F241004118419241A101D181E021F402082210423402408260827410E
:40064000280429042E082F403080332035103741390C3A113B403F2442204340450849104A104B0451105301562C57106E80728080A481408C049560968997829C809D1031
:400680009E069F40A320A6F8A820AF10B008B201B504B702C0D7C2E5C407CAC6CCBCCE6FD04AD204E082E402E604EC08EE06009E026008300AC90F011A0F1C7320CF223076
:4006C00024FD2602270128942A60310132FF37013E043F404061410549FF4AFF4BFF4DA04F0450185280580459045A045B045C905D035F01604062C06440654066C068C030
:400700006AC06CC06EC082038678884089E78C488D408E308FB0927A958296039749981099E79C089D04A006A604A828A921AA50AB4AAC20B001B1E0B206B303B478B51885
:40074000B704BE11BF10C061C105C612C7D0C82CC9FFCAFFCBFFCDAFCE0FCF04D018D418D804D904DA04DB04DC21DD23DF01E040E2C0E440E540E6C0E8C0EAC0ECC0EEC0CB
:4007800000040140038804020680070809480B440E0910511110140416041705180819041A481E1020CA22082641281029242F1030203248384039203F80400244024A020D
:4007C0004B104E024F305140532259015A045B086280630875028320854087088F089004934094089550965D970498419A049B059D069E80A108A204A380A540A620A70842
:40080000AA80AC48AD04AF20B040B202B330B524C05FC2CFC47FCA44CC0ECE1CD018D23CD601D80CE080E440E810EAA0EE40003202C1034004FF074009090B140D110F0C24
:400840001050112012A41457151016A8180819011AF71F0223402780283129042AC22D0831FF320F34F039025283580459045B045C115D105F01810485E787188B048C0123
:400880008D7C8F8291FF97A399189D5C9FA1A508A601AD10B198B31FB401B540B738BB0ABE10BF10C004C640C9FFCA07CBFFCC40CD20CEF0CF05D008D602D712D804D90439
:4008C000DA04DB04DC40DD44DF01E040E1A8E240E3200002032005400AA810081620182019101A201F10210122012340250126802768280129042B842D802E08306031026E
:40090000330835083602375039523B083C803D283F024480541057025D105F18630C68086A806D046EA07102758076087710865188A089408E028F0290049308942895428B
:4009400096D79714988199489A269B059C089DB29E889F10A001A11CA204A381A4D8A543A622A708AA20AC10B010B101B280B703C08CC20EC422CA5FCCFFCEFFD080D6402D
:40098000E490E640E840EA80ECC0010F03E005E3070C080309C30D0C0FE311EF17C31802190C1A012182250429412B102D082E03300131C03202330F3510372039803B0854
:4009C0003E0540534102420649FF4AFF4BFF4F01501854185604580459045A045B045C405D415F016040624064406540668068806A806C806E808A888C998E66920F9301B0
:400A000095019A229B039D019E11A855AAAAAE44B302B4F0B60FB701BF40C046C102C203C5ECC702C813C9FFCAFFCBFFCD83CE03CF01D018D403D604D804D904DA04DB0423
:400A4000DC31DD11DF05E040E240E440E540E680E880EA80EC80EE8001400308052009420B040E0810011310140218041B801C401E2022842401251426012D912E0830909F
:400A800032043302350836023710380839083C803D0A3F20400841054408450849054A084C044E0151085208530459155A405E0262016444670278088001818084058510C0
:400AC000870189088E018F1094689695988299409A269B059C489D029E80A001A180A204A408A630AF01B209B308B480B604B720C043C24BC483CAF0CCEFCEF0D067D234F8
:400B0000D68FD8B1DE02E090E480E640E810EA20EC1001060202031905100606070609090B0614081501170218021D041F082209291F3008320134043602371F3E41405314
:400B4000410649FF4AFF4BFF4DA04F015018580459045A045C105F016040628064406540668068406A806C406D206E8081778210840385858640871A8A1C900491CC9208AE
:400B8000932395BF96209740981099039BFC9C1DA003A41CA804AA08ADCAAF15B002B201B43CB50FB640B7F0B80ABE04C053C102C530C62EC7C4C83EC9FFCAFFCBFFCDAFAD
:400BC000CE07CF01D018D40FD804D904DA04DB04DF01E040E280E440E540E680E840EA80EC40ED20EE8001020220040205100620080209020A280E551101150117241980B9
:400C00001A281B011D7A1E08200223012402270528082EC030083240372538283B013E054108452849804A044D815580562A5C415E205F0888408C018F04C07CC2F6C47874
:400C4000CA14CCEACEC7D062D21CD6F0E2800404053B09060B08152717081B01234025022601273C29252B122D1E2E072F2130013202333C3404350737404025410649FF00
:400C80004AFF4BFF4DA04F0150185280580459045A045B045D905F016040628064406540668068406A806C406D206E80810183068C0294019D049E06A101A201AA09B004DE
:400CC000B102B208B401B504B602B701B980BE50BF10C025C106C52CC640C73EC83BC9FFCAFFCBFFCDAFCE07CF01D018D280D40FD804D904DA04DB04DF05E040E280E4404F
:400D0000E540E680E840EA80EC40ED20EE80010804400C800E10100211081520164019191C401E1521302280232025802748280429802A022B202C803128374039043A10E8
:400D40003D02420443104710480149204A024C804D204E024F045420550156055C805E015F1866046704734076407D048002888089408A108B108C028D01910497409884A8
:400D800099A09A029C029D109E119F20A001A10CA320A4A0A5C0A680A940AB08AC84B340B501B620C084C2A0C455CA8FCC16CE86D024D23CD6F0D860DE40E204E404E6500A
:400DC000EA0CEE04010203040504070208080A041102130C1A011E0C26022701280D2D022F14300431083208330134013506360237103B203E15405649FF4AFF4BFF4F012A
:400E00005018540F580459045A045B045C035D095F016040624064406540668068806A806C806E80843086C98A0F8CFD8E028F0E910694CF95089630970399049B0B9C9473
:400E40009E60A473A710A89EAA60AD10B102B301B50CB6FFB710BB02BDA2BE40BF04C056C9FFCAFFCBFFCD83CE03CF01D018D280D407D804D904DA04DB04DC30DD09DF0159
:400E8000E040E240E440E540E680E880EA80EC80EE80008001A00320052009480A100C200D80100411041320142017101A021C081D401EA022662404250127112820294037
:400EC0002C202D403008322237013A803C043D024A084B404E084F40580259105B485D045EA05F016580670171017902820883408D048E02910692109404968A982099204B
:400F00009A809C049E11A049A320A480A540A6A0AA08B101B241B408C047C2C5C466CA5ACC87CEC8D23CD6FFDE01E010E28CE410E601EA10EC2002010502073C0B400C0CC4
:400F400011271308151E17211B011C06200C213B240A29062B082D252F12320133403507360E373C3880402545EC4602480749FF4AFF4BFF4D834E034F01501854015804E7
:400F800059045A045B045D995F016040624064406540668068806A806C806E808601930297019E01AF01B102B201B701BA02BE04BF40C035C104C201C406C50CC6E0C80977
:400FC000C9FFCAFFCBFFCC62CDA0CEF0CF41D00CD602D712D804D904DA04DB04DC02DD22DF01E640E702E910EA30EB10ED10EE10EF120210050207010B010E011680170457
:4010000018801B061E1120402280240226202710280229802C042E813106362037053E244002410443024608480549444D054F80521057405A085D055E80682069206A809B
:401040006D5070807314800483408F109204940295709681972098049A809B059D21A045A248A420A6A0A754B002B306B540B603C094C281C430CAB8CCE3CE60D02BD21C83
:40108000D6D2E010E2C8E410E640E820EA10EC20EE90001C02E304F30567060C0718088209180CC30D7F12F31301140F153916F0174219391B441C411D102008240425080C
:4010C000280C29012B802CFF2F0630C03180322C3320340F351F361C374039803A283B203F044020410149FF4AFF4BFF4DA04F045018580459045A045C225F01604062C040
:401100006440654066C068C06AC06CC06EC08605871089048A038B0A8D048F089104930999089B049E04A510B004B101B201B30CB402B510B702BB08BE01C020C101C520BE
:40114000C6D0C751C83AC9FFCAFFCBFFCDAFCE0FCF04D018D804D904DA04DF01E040E2C0E440E540E6C0E8C0EAC0ECC0EEC00084020803400604071008810A200DC00F02F9
:40118000109011401314180419851A201D081E401F102225230124482721281129602F103080310432213721388439483B103C403E1841404310458047104F02560C57125B
:4011C000810A82208342888089208B208F10908092109314940895089648970199409B109DA3A0C0A208A840AA40B102B208B310B620B710C06FC28DC40FCA4ECCAFCE7E5D
:40120000D03CE001E210E630E830EA08EC403042362037023910870288018910CCF0CE10E640032009400C205A206302854087208C028E109C41A402A620C010C2C0D480D0
:40124000D640E040E410032007803C209C41A020A620A701C030CE201B011E2062016601722087C08A109B809C41A020A410A620A701AF20C630D8C0DC80E040E440EC10EB
:401280007640DE0400088A409E40C008E401B004EA048902E001841088408E208F0497409C41A410AA21B020B620E210EA20051008010F4012201704562070087F028110FF
:4012C0008C088E2097409C019F04A302A620AF02C080C230C430D440DC80DE20E420EA1008200F041020131017081F8056807B107D2087108B808C208D108F109902C203B3
:40130000C40EC601D402DE03E008E203E40810107502828088108C2099029E80A020AF08B304C408DE04E204E608EE04001F010108190A1D0C1F0D010E1B100D11011A094F
:401340001B011C051D0100FF010303C0A2200000430000000200C13E3E00220000000000830048A4A700A300000000000002020000000000C03F3F0004000000040001FCE6
:40138000F8000000000000008000388707000100400000000E0018010000000000000000000000000000000000000000000000000000000000000000000000000000000087
:4013C00000000000000000000000000000000000000000000000000000000000000000000000000000000000000000000000000000000000000000000000000000000000ED
:4014000000000000000000000000000000000000000000000000000000000000000000000000000000000000000000000000000000000000000000000000000000000000AC
:40144000000000000000000000000000000000000000000000000000000000000000000000000000000000000000000000000000000000000000000000000000000000006C
:40148000000000000000000000000000000000000000000000000000000000000000000000000000000000000000000000000000000000000000000000000000000000002C
:0200000490006A
:0400000000004005B7
:0200000490105A
:04000000BC90ACAF55
:0200000490303A
:02000000983D29
:0200000490402A
:4000000000000000000000000000000000000000000000000000000000000000000000000000000000000000000000000000000000000000000000000000000000000000C0
:400040000000000000000000000000000000000000000000000000000000000000000000000000000000000000000000000000000000000000000000000000000000000080
:400080000000000000000000000000000000000000000000000000000000000000000000000000000000000000000000000000000000000000000000000000000000000040
:4000C0000000000000000000000000000000000000000000000000000000000000000000000000000000000000000000000000000000000000000000000000000000000000
:0200000490501A
:0C00000000012E16106900012E3EA8A67B
:00000001FF