:400000000080002011000000810900008109000008B5044B1A6803F53F5302331A6000F0CFFC00BFFA46004010B5054C237833B9044B13B10448AFF300800123237010BD98
:400040009881FF1F00000000DC3D0000084B10B51BB108490848AFF300800848036803B910BD074B002BFBD0BDE81040184700BF000000009C81FF1FDC3D0000C880FF1F30
:4000800000000000F8B5164B1B68012B27D1144C60680028B8BF4042A368002BB8BF5B42C01A01F051FCC4E904010E4DD5E9002301F0B0FC06460F46A86801F057FC3246E8
:4000C0003B4601F0F5FA01F0B7FEE86002F088F880B200F079FFD4E90423C4E90623F8BDB881FF1FD080FF1F08B501F057F801F06DF8084B1880C0F57F43FF33064880FBC1
:4001000003201844DB17C3EB601001F09FFF034B186008BD6082FF1F09CB3D8D6C82FF1F08B501F03BF801F051F8084B1880C0F57F43FF33064880FB03201844DB17C3EBD5
:40014000601001F083FF034B186008BD6882FF1F09CB3D8D3082FF1F08B501F01FF801F035F8084B1880C0F57F43FF33064880FB03201844DB17C3EB601001F067FF034B27
:40018000186008BD3482FF1F09CB3D8D6C82FF1F08B501F003F801F019F8084B1884C0F57F43FF33064880FB03201844DB17C3EB601001F04BFF034B186008BDB881FF1FCC
:4001C00009CB3D8D6C82FF1F10B50024074B1C60204600F04FFC204600F058FC204600F051FE204600F05AFE10BD00BFB881FF1F10B50124074B1C60002000F03BFC2046B8
:4002000000F044FC002000F03DFE204600F046FE10BD00BFB881FF1F10B50124074B1C60204600F027FC002000F030FC204600F029FE002000F032FE10BD00BFB881FF1FB9
:4002400010B50124074B1C60002000F013FC204600F01CFC204600F015FE002000F01EFE10BD00BFB881FF1F10B50124074B1C60204600F0FFFB002000F008FC002000F095
:4002800001FE204600F00AFE10BD00BFB881FF1F70B505460E461EE000F024FC3C4C606000F02EFDA060012E02D1FFF7A1FF01E0FFF7B2FF322000F0F5FB08E0012000F07E
:4002C000FBFF0A2000F004FC002000F0F5FF00F0FFFF0028F2D02E4B5B68002BB8BF5B42AB420DDC2A4B9B68002BB8BF5B429D4206DB2849284B186801F068FF0028CBD1C6
:40030000FFF762FF00F0EEFB044600F0F9FC204400EBD070401001F017FB1BA3D3E9002301F078FB1A4B5B6A3BB9194CD4E90A2301F0BEF9C4E90A0120E0012B07D1144C4A
:40034000D4E90C2301F0B4F9C4E90C0116E0022B09D10F4C02460B46D4E90A0101F0A6F9C4E90A010AE0032B08D1094C02460B46D4E90C0101F09AF9C4E90C01044A936B05
:400380000133936370BD00BF269071E403F3723FB881FF1F000020416C82FF1F0000000070B505460E461EE000F09CFB3C4C606000F0A6FCA060012E02D1FFF719FF01E09D
:4003C000FFF72AFF322000F06DFB08E0012001F043F90A2000F07CFB002001F03DF900F0E9FF0028F2D02E4B5B68002BB8BF5B42AB420DDC2A4B9B68002BB8BF5B429D427D
:4004000006DB2849284B186801F0C2FE0028CBD1FFF7DAFE00F066FB044600F071FC204400EBD070401001F08FFA1BA3D3E9002301F0F0FA1A4B5B6A3BB9194CD4E90A23FE
:4004400001F036F9C4E90A0120E0012B07D1144CD4E90C2301F02CF9C4E90C0116E0022B09D10F4C02460B46D4E90A0101F01EF9C4E90A010AE0032B08D1094C02460B462C
:40048000D4E90C0101F012F9C4E90C01044A936B0133936370BD00BF269071E403F3723FB881FF1F0000F0416482FF1F70B505460E460DE000F016FB1C4C606000F020FC36
:4004C000A060012E02D1FFF7CFFE01E0FFF7B8FE164B5B68002BB8BF5B42AB4206DC134B9B68002BB8BF5B429D42E3DAFFF76CFE012E0BD10D4B5B6A032B03D100220B4B3A
:400500005A620DE00133094A536209E0074B5B6A1BB90322054B5A6202E0013B034A5362024A936B0133936370BD00BFB881FF1F10B562B6524800F015FE00F0EBFD00F0B8
:4005400085FE00F029FF00F0BFFF01F04FF84D4800F0A4FE4C4800F04DFF4C4800F0DCFF4B4801F06BF800F007FD00F075FD00F0EFFA002000F0BEFA00F0F8FB002000F0D3
:40058000C7FB00F0A1FB434CA06801F029FE80B200F0AAFCA06801F023FE80B200F014FD4FF4FA6000F07EFA04E0012146F25250FFF76EFE384B9B6B002BF6D04FF4FA70BB
:4005C00000F070FA002000F095FA002000F0A0FB314B00225A609A6004E0012140F6D540FFF764FF2C4B9B6B012BF6D04FF4FA7000F058FA002000F07DFA002000F088FBE3
:40060000254B00225A609A6004E0012146F25250FFF7C6FE204B9B6B022BF6D04FF4FA7000F040FA002000F065FA002000F070FB194B00225A609A6004E0012140F67100CE
:40064000FFF7AEFE144B9B6B032BF6D04FF4FA7000F028FA002000F04DFA002000F058FB0D4B00225A609A6004E0002140F6D540FFF71CFF084B9B6B042BF6D0002010BD3C
:4006800085000000E9000000590100009101000021010000D080FF1FB881FF1FFEE700BFF0B40022174611E050F82760F3B226F0FF0608E001EB420511F812406D78A5555D
:4006C0000132013BDBB2002BF4D10137272FEBD9F0BC7047064B1B78DBB203F00701054A11701B09013213704422034B1A707047CF0100496E5800407658004008B50A4614
:40070000002101F0C4FD08BD38B517222E4B1A8018232E490B7002310A8002310B7002310A802B4A137033210232118002321370EF2228490A8002310B7002310A80264AE4
:4007400013700222254B1A7008224FF040231A70032103F500731970214B1B78DBB221490B70214B1A8041F25122023B1A80002419250CE01D4B1B7803F0010343EA4404C1
:4007800004F003044FF4F07000F072FF013D0DB1032CEFD115B90320FFF780FF144B4FF480721A8007221A70002212490A704820023108701A700222033B1A700E4A1378A5
:4007C00043F03F03137038BD80400040824000408A40004090400040964000400043004008010049A146004022420040254200400440004006400040A243004008B501F0B6
:400800003BFD08BD38B572B6464A137843F00403137000240CE0444D630019194A0011462A44084691882858FFF768FF0134E4B20A2CF0D900240CE03B48A20011194B00D1
:400840000344B3F84C20996C586CFFF7D7FF0134E4B2052CF0D935494FF09040FFF720FF334A344B1A60344B344A136034498032116002F50062136002F500721360314976
:4008800002F51862116002F59062136002F554522B32137843F0020313701032137843F002031370284C237843F040032370A2F58632513A137843F010031370082201F1D0
:4008C0007F7101F572612148FFF798FF0A2220492048FFF793FF08221F492048FFF78EFF08221F491F48FFF789FF08221E491F48FFF784FF1E4A137843F0080313701D4D41
:4009000061232B70FFF700FF81232B7001221A4B1A70FFF7DFFE0E2221461848FFF76EFF38BD00BFE8460040E03D0000A0000048C4C404C4580001400404048458020140EA
:40094000C4C4040004040444A0430040025100402C130048C0510040381300481251004040130048225100404813004832510040224300400048004004000840B043004077
:4009800008B501F04DFC03680C2B00D1FEE7FEE708B5094B1A681044084BC31AB3F5007F02DC054B186005E001F03AFC0C2303604FF0FF32104608BDE880FF1F8882FF1F48
:4009C00008B5104E104D16E029686B68AC68002204E051F8040B43F8040B0432A242F8D1E868002203E0002143F8041B04328242F9D11035013E002EE6D101F017FCFFF78F
:400A000097FDFEE701000000B43F000008B5104A104B1A60104A136843F40073136000230AE0032B03D80D4A52F8231000E00C490C4A42F8231001332F2BF2D90A4B1A7849
:400A40000A4B1A70074A0A4B1A60FFF7DBFE08BD0004FA050CED00E014ED00E000000000810900000080FF1FBC760040C080FF1F08ED00E0044A137803F0DF03400100F07A
:400A8000200018431070704710510040044A137803F0EF03000100F010001843107070471051004010B5044605E0084B186800F0DFFDA4F50044B4F5004FF6D8034B5868AD
:400AC00000FB04F000F0D4FD10BD00BFEC80FF1F08B5034B1B7A00FB03F000F0C9FD08BDEC80FF1F08B500F05FF8A0F5004000B208BD00BF08B5002803DB80B280F40040E5
:400B000002E0A0F5004080B200F048F808BD00BF024B187800F00F00704700BF69650040014B1870704700BF8965004008B50F20FFF7F6FFFFF7ECFF00F0A2FD034A137821
:400B400043F01003137000F09FFD08BD9965004008B500F07BF84FF4004000F01FF8044B1B7813B90122024B1A70FFF7DFFF08BD1882FF1F024A137843F0800313707047B3
:400B80007A650040014B1870704700BF8B650040014B1878704700BF6B650040014B1880704700BF146A0040024B1B78024B188880B270470A650040946A0040014B188893
:400BC00080B27047946A0040014B1880704700BF546A0040014B1880704700BF746A004008B501E0FFF7EAFFFFF7D2FF10F0400FF8D108BD08B5134B1A7802F0F8021A70BA
:400C00001A7802F0FC021A70FFF7EAFF4FF40040FFF7DAFF4FF40040FFF7C0FF0020FFF7B1FFFFF7B5FF4FF40040FFF7D3FF00F027FD054A137843F01003137000F024FDBC
:400C400008BD00BF7A6500409B65004008B5054B1B7823B9FFF7CEFF0122024B1A70FFF789FF08BD1982FF1F7222084B1A702022FE3B1A700622663B1A70472210331A705D
:400C8000002203F5AC731A70704700BF8465004010B500F0F5FC04460A4A137843F020031370FE3A137843F01003137002F58172137843F01003137000F014F8204600F00E
:400CC000E3FC10BD9465004008B5054B1B7823B9FFF7CAFF0122024B1A70FFF7D9FF08BD1A82FF1F054A137843F0080313701032137843F008031370704700BFA2430040C9
:400D000008B500F05FF8A0F5004000B208BD00BF08B5002803DB80B280F4004002E0A0F5004080B200F048F808BD00BF024B187800F00F00704700BF68640040014B18702C
:400D4000704700BF8864004008B50F20FFF7F6FFFFF7ECFF00F094FC034A137843F01003137000F091FC08BD9864004008B500F07BF84FF4004000F01FF8044B1B7813B922
:400D80000122024B1A70FFF7DFFF08BD1C82FF1F024A137843F080031370704778640040014B1870704700BF8B640040014B1878704700BF6B640040014B1880704700BFCD
:400DC00014680040024B1B78024B188880B270470A64004094680040014B188880B2704794680040014B1880704700BF54680040014B1880704700BF7468004008B501E01C
:400E0000FFF7EAFFFFF7D2FF10F0400FF8D108BD08B5134B1A7802F0F8021A701A7802F0FC021A70FFF7EAFF4FF40040FFF7DAFF4FF40040FFF7C0FF0020FFF7B1FFFFF7DB
:400E4000B5FF4FF40040FFF7D3FF00F019FC054A137843F01003137000F016FC08BD00BF786400409B64004008B5054B1B7823B9FFF7CEFF0122024B1A70FFF789FF08BD6E
:400E80001D82FF1F044A137803F0FD03400000F0020018431070704730510040044A137803F0FB03800000F0040018431070704730510040084A137843F0010313701032BA
:400EC000137843F00103137002F64D32137843F001031370704700BFA3430040014B1880704700BF044F0040014B1880704700BF064F0040014B1870704700BF034F00409D
:400F000008B51A4A137843F0020313700232137803F08F0343F010031370154B1A7802F0CF021A701A7842F030021A701A7802F0F0021A701A7842F00F021A7046F2A8102F
:400F4000FFF7CCFF43F2D400FFF7CEFF0020FFF7D1FF084A137843F00103137002F65E32137843F00103137008BD00BF004F00400B4F0040A343004008B5054B1B7823B94B
:400F8000FFF7BEFF0122024B1A70FFF793FF08BD1E82FF1F084A137843F0020313701032137843F00203137002F65932137843F001031370704700BFA3430040014B188011
:400FC000704700BF104F0040014B1880704700BF124F0040014B1870704700BF0F4F004008B51A4A137843F0020313700232137803F08F0343F010031370154B1A7802F0A1
:40100000CF021A701A7842F030021A701A7802F0F0021A701A7842F00F021A7046F2A810FFF7CCFF43F2D400FFF7CEFF0020FFF7D1FF084A137843F00203137002F66A32E7
:40104000137843F00103137008BD00BF0C4F0040174F0040A343004008B5054B1B7823B9FFF7BEFF0122024B1A70FFF793FF08BD1F82FF1F024A137843F080031370704744
:4010800079640040014B1870704700BF8E640040014B1878704700BF6E64004008B50146014800F0F5FA08BD26650040024B186820F07F40704700BF4665004008B5014676
:4010C000014800F0E5FA08BD0665004008B501E0FFF7ECFFFFF7DCFF10F0080FF8D108BD08B54EF65F20FFF7D9FF4EF65F20FFF7E5FF00F0C5FA064A137843F01003137035
:4011000000F0C2FAFFF7E2FF0120FFF7BBFF08BD9E64004008B5054B1B7823B9FFF7E0FF0122024B1A70FFF7A5FF08BD2082FF1F014B1B681864704708ED00E04001C0B260
:40114000014B1870704700BF00E400E00122014B1A60704700E100E00122014B1A60704780E100E010B50446FFF7F6FF2046FFF7DFFF0720FFF7E2FFFFF7E8FF10BD00BF84
:40118000024A137843F08003137070477D640040014B1870704700BF8D640040014B1878704700BF6D640040014B1880704700BF58680040014B188880B2704798680040FA
:4011C000014B1880704700BF18680040024B1B78024B188880B270470C6400409868004000F00300044B1A7802F0FC021A701A7810431870704700BF7D64004008B501E03F
:40120000FFF7D8FFFFF7CAFF10F0080FF8D108BD08B54FF6FF70FFF7C7FF4FF6FF70FFF7CFFF00F02DFA084A137843F01003137000F02AFA0020FFF7D3FFFFF7DFFF022029
:40124000FFF7A6FF08BD00BF9D64004008B5054B1B7823B9FFF7DCFF0122024B1A70FFF78FFF08BD2182FF1F014B1B685864704708ED00E04001C0B2014B1870704700BFA9
:4012800001E400E00222014B1A60704700E100E00222014B1A60704780E100E010B50446FFF7F6FF2046FFF7DFFF0720FFF7E2FFFFF7E8FF10BD00BF044A137803F0F703C4
:4012C000C00000F0080018431070704720510040024B1878C0F30010704700BF21510040024A137843F080031370704775640040014B1870704700BF82640040014B1878FF
:40130000704700BF62640040014B1880704700BF44680040014B188880B2704784680040014B1880704700BF0468004000F00300044B1A7802F0FC021A701A781043187029
:40134000704700BF7564004008B501E0FFF7E2FFFFF7D4FF10F0080FF8D108BD08B54FF6FF70FFF7D1FF4FF6FF70FFF7D9FF00F087F9084A137843F01003137000F084F9BF
:401380000020FFF7D3FFFFF7DFFF0220FFF7B0FF08BD00BF9264004008B5054B1B7823B9FFF7DCFF0122024B1A70FFF799FF08BD2282FF1F014B1878C009704701510040A6
:4013C000014B1B689864704708ED00E04001C0B2014B1870704700BF02E400E00422014B1A60704700E100E00422014B1A60704780E100E010B50446FFF7F6FF2046FFF735
:40140000DFFF0720FFF7E2FFFFF7E8FF10BD00BF024A137843F080031370704776650040014B1870704700BF86650040014B1878704700BF66650040014B1880704700BF59
:40144000486A0040014B188880B27047886A0040014B1880704700BF086A004000F00300044B1A7802F0FC021A701A7810431870704700BF7665004008B501E0FFF7E2FFA6
:40148000FFF7D4FF10F0080FF8D108BD08B54FF6FF70FFF7D1FF4FF6FF70FFF7D9FF00F0EFF8084A137843F01003137000F0ECF80020FFF7D3FFFFF7DFFF0220FFF7B0FF31
:4014C00008BD00BF9665004008B5054B1B7823B9FFF7DCFF0122024B1A70FFF799FF08BD2382FF1F014B1B68D864704708ED00E04001C0B2014B1870704700BF03E400E075
:401500000822014B1A60704700E100E00822014B1A60704780E100E010B50446FFF7F6FF2046FFF7DFFF0720FFF7E2FFFFF7E8FF10BD00BF024A137843F0800313707047F9
:401540007F640040014B1870704700BF8F640040014B1878704700BF6F640040014B1880704700BF5C680040014B188880B270479C680040014B1880704700BF1C680040D1
:4015800000F00300044B1A7802F0FC021A701A7810431870704700BF7F64004008B501E0FFF7E2FFFFF7D4FF10F0080FF8D108BD08B54FF6FF70FFF7D1FF4FF6FF70FFF713
:4015C000D9FF00F05DF8084A137843F01003137000F05AF80020FFF7D3FFFFF7DFFF0220FFF7B0FF08BD00BF9F64004008B5054B1B7823B9FFF7DCFF0122024B1A70FFF75F
:4016000099FF08BD2482FF1F014B1B681865704708ED00E04001C0B2014B1870704700BF04E400E01022014B1A60704700E100E01022014B1A60704780E100E010B504467D
:40164000FFF7F6FF2046FFF7DFFF0720FFF7E2FFFFF7E8FF10BD00BF044A137803F0BF03800100F04000184310707047005100400230800803D000BF01380046FCD170472D
:40168000EFF3108072B6704780F31088704700BFCBB20370C1F307234370C1F307418170704700BF81F0004102E000BF83F0004330B54FEA41044FEA430594EA050F08BF2E
:4016C00090EA020F1FBF54EA000C55EA020C7FEA645C7FEA655C00F0E2804FEA5454D4EB5555B8BF6D420CDD2C4480EA020281EA030382EA000083EA010180EA020281EAE9
:401700000303362D88BF30BD11F0004F4FEA01314FF4801C4CEA113102D0404261EB410113F0004F4FEA03334CEA133302D0524263EB430394EA050F00F0A780A4F101049E
:40174000D5F1200E0DDB02FA0EFC22FA05F2801841F1000103FA0EF2801843FA05F359410EE0A5F120050EF1200E012A03FA0EFC28BF4CF0020C43FA05F3C01851EBE3716F
:4017800001F0004507D54FF0000EDCF1000C7EEB00006EEB0101B1F5801F1BD3B1F5001F0CD349085FEA30004FEA3C0C04F101044FEA445212F5800F80F09A80BCF1004F26
:4017C00008BF5FEA500C50F1000041EB045141EA050130BD5FEA4C0C404141EB010111F4801FA4F10104E9D191F0000F04BF01460020B1FA81F308BF2033A3F10B03B3F11C
:4018000020020CDA0C3208DD02F1140CC2F10C0201FA0CF021FA02F10CE002F11402D8BFC2F1200C01FA02F120FA0CFCDCBF41EA0C019040E41AA2BF01EB0451294330BD8D
:401840006FEA04041F3C1CDA0C340EDC04F11404C4F1200220FA04F001FA02F340EA030021FA04F345EA030130BDC4F10C04C4F1200220FA02F001FA04F340EA0300294615
:4018800030BD21FA04F0294630BD94F0000F83F4801306BF81F480110134013D4EE77FEA645C18BF7FEA655C29D094EA050F08BF90EA020F05D054EA000C04BF1946104622
:4018C00030BD91EA030F1EBF0021002030BD5FEA545C05D14000494128BF41F0004130BD14F580043CBF01F5801130BD01F0004545F0FE4141F470014FF0000030BD7FEAA3
:40190000645C1ABF194610467FEA655C1CBF0B46024650EA013406BF52EA033591EA030F41F4002130BD00BF90F0000F04BF0021704730B54FF4806404F132044FF00005DF
:401940004FF0000150E700BF90F0000F04BF0021704730B54FF4806404F1320410F0004548BF40424FF000013EE700BF42004FEAE2014FEA31014FEA02701FBF12F07F43C8
:4019800093F07F4F81F06051704792F0000F14BF93F07F4F704730B54FF4607401F0004521F0004120E700BF50EA010208BF704730B54FF000050AE050EA010208BF7047BE
:4019C00030B511F0004502D5404261EB41014FF4806404F132045FEA915C3FF4DCAE4FF003025FEADC0C18BF03325FEADC0C18BF033202EBDC02C2F1200300FA03FC20FA1E
:401A000002F001FA03FE40EA0E0021FA02F11444C1E600BF70B54FF0FF0C4CF4E06C1CEA11541DBF1CEA135594EA0C0F95EA0C0F00F0DEF82C4481EA030621EA4C5123EA72
:401A40004C5350EA013518BF52EA033541F4801143F4801338D0A0FB02CE4FF00005E1FB02E506F00042E0FB03E54FF00006E1FB03569CF0000F18BF4EF0010EA4F1FF0436
:401A8000B6F5007F64F5407404D25FEA4E0E6D4146EB060642EAC62141EA55514FEAC52040EA5E504FEACE2EB4F1FD0C88BFBCF5E06F1ED8BEF1004F08BF5FEA500E50F1E2
:401AC000000041EB045170BD06F0004646EA010140EA020081EA0301B4EB5C04C2BFD4EB0C0541EA045170BD41F480114FF0000E013C00F3AB8014F1360FDEBF002001F0CC
:401B0000004170BDC4F10004203C35DA0C341BDC04F11404C4F1200500FA05F320FA04F001FA05F240EA020001F0004221F0004110EBD37021FA04F642EB06015EEA430E32
:401B400008BF20EAD37070BDC4F10C04C4F1200500FA04F320FA05F001FA04F240EA020001F0004110EBD37041F100015EEA430E08BF20EAD37070BDC4F1200500FA05F220
:401B80004EEA020E20FA04F301FA05F243EA020321FA04F001F0004121FA04F220EA020000EBD3705EEA430E08BF20EAD37070BD94F0000F0FD101F00046400041EB01012A
:401BC00011F4801F08BF013CF7D041EA060195F0000F18BF704703F00046520043EB030313F4801F08BF013DF7D043EA0603704794EA0C0F0CEA135518BF95EA0C0F0CD0C0
:401C000050EA410618BF52EA4306D1D181EA030101F000414FF0000070BD50EA410606BF1046194652EA430619D094EA0C0F02D150EA013613D195EA0C0F05D152EA033609
:401C40001CBF104619460AD181EA030101F0004141F0FE4141F470014FF0000070BD41F0FE4141F4780170BD70B54FF0FF0C4CF4E06C1CEA11541DBF1CEA135594EA0C0F42
:401C800095EA0C0F00F0A7F8A4EB050481EA030E52EA03354FEA013100F088804FEA03334FF0805545EA131343EA12634FEA022245EA111545EA10654FEA00260EF00041A2
:401CC0009D4208BF964244F1FD0404F5407402D25B084FEA3202B61A65EB03055B084FEA32024FF480104FF4002CB6EB020E75EB030E22BFB61A754640EA0C005B084FEA45
:401D00003202B6EB020E75EB030E22BFB61A754640EA5C005B084FEA3202B6EB020E75EB030E22BFB61A754640EA9C005B084FEA3202B6EB020E75EB030E22BFB61A7546D9
:401D400040EADC0055EA060E18D04FEA051545EA16754FEA06164FEAC30343EA52734FEAC2025FEA1C1CC0D111F4801F0BD141EA00014FF000004FF0004CB6E711F4801F09
:401D800004BF01430020B4F1FD0C88BFBCF5E06F3FF6AFAEB5EB030C04BFB6EB020C5FEA500C50F1000041EB045170BD0EF0004E4EEA113114EB5C04C2BFD4EB0C0541EA1F
:401DC000045170BD41F480114FF0000E013C90E645EA060E8DE60CEA135594EA0C0F08BF95EA0C0F3FF43BAF94EA0C0F0AD150EA01347FF434AF95EA0C0F7FF425AF104600
:401E000019462CE795EA0C0F06D152EA03353FF4FDAE1046194622E750EA410618BF52EA43067FF4C5AE50EA41047FF40DAF52EA43057FF4EBAE12E74FEA4102B2F1E04373
:401E400024BFB3F5001CDCF1FE5C0DD901F0004C4FEAC0024CEA5070B2F1004F40EB830008BF20F00100704711F0804F21D113F13872BCBF01F00040704741F480114FEA7F
:401E80005252C2F11802C2F1200C10FA0CF320FA02F018BF40F001004FEAC1234FEAD32303FA0CFC40EA0C0023FA02F34FEA4303CCE77FEA625307D150EA01331EBF4FF06A
:401EC000FE4040F44000704701F0004040F0FE4040F40000704700BF80F0004002E000BF81F0004142001FBF5FEA410392EA030F7FEA226C7FEA236C6AD04FEA1262D2EB5F
:401F00001363C1BFD218414048404140B8BF5B42192B88BF704710F0004F40F4000020F07F4018BF404211F0004F41F4000121F07F4118BF494292EA030F3FD0A2F101024A
:401F400041FA03FC10EB0C00C3F1200301FA03F100F0004302D5494260EB4000B0F5000F13D3B0F1807F06D340084FEA310102F10102FE2A51D2B1F1004F40EBC25008BF3E
:401F800020F0010040EA03007047490040EB000010F4000FA2F10102EDD1B0FA80FCACF1080CB2EB0C0200FA0CF0AABF00EBC25052421843BCBFD0401843704792F0000F56
:401FC00081F4000106BF80F400000132013BB5E74FEA41037FEA226C18BF7FEA236C21D092EA030F04D092F0000F08BF0846704790EA010F1CBF0020704712F07F4F04D153
:40200000400028BF40F00040704712F100723CBF00F50000704700F0004343F0FE4040F4000070477FEA226216BF08467FEA23630146420206BF5FEA412390EA010F40F4ED
:40204000800070474FF0000304E000BF10F0004348BF40425FEA000C08BF704743F0964301464FF000001CE050EA010208BF70474FF000030AE000BF50EA010208BF7047B6
:4020800011F0004302D5404261EB41015FEA010C02BF84460146002043F0B64308BFA3F18053A3F50003BCFA8CF2083AA3EBC25310DB01FA02FC634400FA02FCC2F1200247
:4020C000BCF1004F20FA02F243EB020008BF20F00100704702F1200201FA02FCC2F1200250EA4C0021FA02F243EB020008BF20EADC7070474FF0FF3C06E000BF4FF0010C30
:4021000002E000BF4FF0010C4DF804CD4FEA40024FEA41037FEA226C18BF7FEA236C11D001B052EA530C18BF90EA010F58BFB2EB030088BFC81738BF6FEAE17018BF40F0CB
:40214000010070477FEA226C02D15FEA402C05D17FEA236CE4D15FEA412CE1D05DF8040B704700BF844608466146FFE70FB5FFF7C9FF002848BF10F1000F0FBD4DF808EDF8
:40218000FFF7F4FF0CBF012000205DF808FB00BF4DF808EDFFF7EAFF34BF012000205DF808FB00BF4DF808EDFFF7E0FF94BF012000205DF808FB00BF4DF808EDFFF7D2FFF4
:4021C00094BF012000205DF808FB00BF4DF808EDFFF7C8FF34BF012000205DF808FB00BF42000ED2B2F1FE4F0BD34FF09E03B3EB126209D44FEA002343F0004323FA02F052
:4022000070474FF00000704712F1610F01D1420202D14FF0FF3070474FF00000704700BF014B1868704700BF5C81FF1F0E4B70B51E460E4C0025E41AA410A54204D056F862
:40224000253098470135F8E701F0A2FE084B094C1E46E41AA4100025A54204D056F8253098470135F8E770BD9C3F00009C3F00009C3F0000A43F000010B5431E0A44914267
:4022800004D011F8014B03F8014FF8E710BD03460244934202D003F8011BFAE770472DE9F04788B0149F002B1E461299B8BF03F1004327F02007B6BF1E4600232D23462FFA
:4022C0001446109DDDF84CA00B7003D0452F03D1013501E0032300E0022307AA049206AA03928DE828042246334600F0B9FB472F804602D1119BDB0728D5462F08EB05097C
:4023000011D198F80030302B0AD1002200232046314601F0F3FC18B9C5F10105CAF80050DAF800309944002200232046314601F0E5FC08B9302202E0CDF81C9006E0079B63
:40234000994503D9591C07911A70F8E74046079B159AC8EB0303136008B0BDE8F087034673B50029B8BF494203F8022BB4BF2D222B22092942701ADD0DF1070216460A2516
:4023800091FBF5F405FB1411092C01F1300102F8011D2146F4DC3031541E02F8011CB4421A460AD214F8012B03F8012BF7E71A463024214402F8024B5970101A02B070BD51
:4023C0002DE9F04F91B00C46DDF8688016461F46054601F0DDF803681846099300F0AAFA00230E93D8F800300A90073323F0070303F1080294F81890D4F800B0C8F800202A
:40240000D3E90023C4E91223D4F84CA0D4F848802AF000430B934FF0FF32A74B40460B9901F09EFCA0B94FF0FF32A34B40460B9901F078FC60B9002200234046514601F0CB
:4024400067FC10B12D2384F843309C4B9C4A0AE0424653464046514601F082FC002800F09281984B984AB9F1470F8CBF90469846032323612BF0040323604FF0000A3DE0F1
:40248000B9F1670F00F08A81B9F1470F00F0868123600193636800210DF13302059002920093424653460691CDF81090CDF80CE02846FFF7F4FE09F0DF03472B804600F0F1
:4024C0008481B9F1650F0D9900F28D8101394A4604F150000D91FFF742FF0E9A82468318012A236100F37C812268D10700F178819DF8333013B12D2384F84330009733462E
:402500000FAA2146284600F09FF9013002D14FF0FF3096E123685A0501D4236965E0B9F1650F40F2D580D4E912010022002301F0E5FB78B30123654A31462846B84701306E
:40254000E5D00E9B0D9A9A420BDB2368D80708D423689B0740F111814FF0000804F1190906E10A9B099A31462846B8470130CED04FF0000804F11A090E9B013B9845E7DA3C
:4025800001234A4631462846B8470130BFD008F10108F1E70D9B002B29DC01234B4A31462846B8470130B2D00D9B23B90E9B13B92368D907CCD50A9B099A31462846B84790
:4025C0000130A4D04FF0000904F11A0A0D9B5B42994509DA0123524631462846B847013095D009F10109F1E70E9B4246A7E00E9AA36D9A42A8BF1A46002A914606DC4FF088
:40260000000A29EAE97904F11A0B11E01346314642462846B8470130F1D178E701235A4631462846B84701303FF471AF0AF1010AA36DC9EB03029245F0DB08EB03090D9AB6
:402640000E9B9A420FDB2368DA070CD40E9B0D9A9844C9EB08089B1A9845A8BF9846B8F1000F08DC0FE00A9B099A31462846B8470130EBD14BE743464A4631462846B84705
:4026800001303FF444AF4FF0000928EAE87804F11A0A09E00123524631462846B84701303FF435AF09F101090D9A0E9B9B1AC8EB03039945EEDB4BE7FFFFEF7F623E000078
:4026C000663E00006A3E00006E3E0000723E00000E9A012A01DCDB0738D50123424631462846B84701303FF412AF0A9B099A31462846B84701303FF40AAFD4E912010022A3
:40270000002301F0FBFA20B14FF0000804F11A090EE00E9B08F10102013B19E001234A4631462846B84701303FF4F1AE08F101080E9B013B9845F1DB534604F15002314616
:402740002846B84701307FF403AFE0E64246012331462846B8470130EED1D8E601234A4631462846B84701303FF4D1AE08F10108E3680F9A9B1A9845F0DBE0680F9B9842F8
:40278000B8BF18465DE062680EA8531C0DF1340E4BF480637FF474AE062201E012B90122626075E6002106910DF133018DE80C00236005904246CDF81090CDF80CE0029159
:4027C00053462846FFF76BFD80460D9BD81C02DB626893421DDDA9F102095FFA89F970E60133236184E6B9F1660F14D10029636807DD216113B92268D2071DD501330B44A2
:4028000019E013B92268D00701D5023313E0012311E04FF067090D9B0E9A934205DB22682361D10708D5013305E0002BD4BFC3F102030123134423610D9B4FF0000AA36560
:4028400056E611B0BDE8F08F2DE9F04791461F460A698B6806469342B8BF1346C9F8003091F843200C46DDF8208012B10133C9F800302368990642BFD9F800300233C9F8A9
:402880000030256815F0060510D104F1190A07E00123524639463046C04701301AD00135E368D9F800209B1A9D42F1DB94F843302268003318BF012392060FD5E11830204A
:4028C00081F843005A1C94F845102244023382F8431003E04FF0FF30BDE8F08704F1430239463046C0470130F4D02268D9F80050E36802F00602042A08BF5D1B2269A368D2
:402900000CBF25EAE57500259342C4BF9B1AED184FF000091A344D4509D00123224639463046C0470130D5D009F10109F3E70020BDE8F087034613F8012B002AFBD1181A0B
:40294000013870472DE9F74F03690C6980469C427FDC013C01F114074FEA840E00F1140606EB0E0357F82450019356F824300135B3FBF5F507EB0E09C5B34FF0000A3846FA
:40298000B446D34650F8043B9AB205FB02A21B0C4FEA124A05FB03A392B2C2EB0B0BBCF800204FEA134A5A441FFA83FBDCF800308145CBEB134303EB224392B242EA0342A7
:4029C0004FEA234B4CF8042BDCD256F80E306BB9019B043B9E421A4602D3C8F8104005E01268043B002AF8D1013CF3E7404600F0E8FF00282BDB304601354FF0000E57F8E4
:402A0000042B036891B2C1EB0E0E120C99B27144C2EB134303EB214389B24FEA234EB94541EA034340F8043BE9D256F8242006EB840362B9043B9E421A4602D3C8F810406F
:402A400005E01268043B002AF8D1013CF3E7284600E0002003B0BDE8F08F0000000000002DE9F04F456A95B08246219CCDE9022345B9102000F090FDCAF8240045608560A5
:402A80000560C560DAF82430196859B15A68012393404A608B60504600F0BBFDDAF8243000221A60039BA04A002BBDBF01232360039B0023BCBF23F000430393DDF80C802E
:402AC000A8BF236028F000431B0D1B0593421DD142F20F73209A1360029B43B9934A944BC8F31300002814BF1846104600E09048229B002B00F04685C37813B100F108037B
:402B000000E0C31C229A136000F03CBDDDE90245002200232046294601F0F0F8074658B1209A01231360229B002B00F01E8581481860013800F026BD12AB019313AB0093AD
:402B400022462B46504600F0B7FFC8F30A56049056B1C5F3130343F07F51204641F44011A6F2FF3611971DE0139B129E1E4406F23243202B0ADD029A06F21240C3F140031F
:402B800022FA00F008FA03F3184304E0C3F12000029B03FA00F0FEF7C7FE0123A1F1F871013E11930022644BFEF780FD58A3D3E90023FEF72FFF58A3D3E90023FEF778FD34
:402BC000044630460D46FEF7BFFE55A3D3E90023FEF720FF02460B4620462946FEF768FD04460D4601F0D2F80022834600232046294601F08DF858B15846FEF7A5FE024625
:402C00000B462046294601F079F808B90BF1FF3BBBF1160F0DD8DDE90223484901EBCB01D1E9000101F092F830B10BF1FF3B002300E00123109300E01090129B9E1B731E9D
:402C4000079343BFC3F10008002307934FF00008BBF1000F06DB079BCDF82CB05B440793002705E00023CBEB0808CBF100070B931E9B092B28D8052BC4BF043B1E931E9B41
:402C8000C8BF0025A3F10203D8BF0125032B20D8DFE803F0060E0204012302E0012308E000230A931F9B002B1DDD9946059321E000230A931F9B0BEB030909F10103012B49
:402CC0000593B8BF012315E0012500231E930A9501E001230A934FF0FF390022CDF8149012231F9206E04FF001094B46CDF81490CDF87C90DAF8244000226260042101F15E
:402D000014029A421CD86268490001326260F6E761436F63A787D23FB3C8608B288AC63FFB799F501344D33F0000F07F743E00007D3E0000733E00000000F83F903E000098
:402D40006168504600F030FCDAF8243020601B680693059B0E2B00F25B81002D00F05881DDE90234BBF1000FCDE90E3430DD9F4A0BF00F034FEA2B1502EBC303E80618CBCA
:402D8000CDE908340CD5DDE90E01994B05F00F05D3E90823FEF768FF0324CDE9020100E00224934E6DB1E90708D5DDE90801D6E90023FEF72FFECDE9080101346D10083607
:402DC000F0E7DDE90823DDE90201FEF74DFF20E0CBF1000505B3DDE90E01844B05F00F0203EBC203D3E90023FEF714FECDE902017F4E2D110023022455B1EA0705D5D6E9A8
:402E00000023FEF707FE013401236D100836F3E71BB1CDE9020100E00224109BE3B1DDE902560022734B2846314600F071FF98B1059B8BB1B9F1000F40F3E6800BF1FF33D5
:402E40000893314600226C4B2846FEF7E3FD0134CDE902014E4602E0059ECDF820B02046FEF772FDDDE90223FEF7D4FD634B0022FEF71EFCA1F1507304460C931D46D6B9FE
:402E8000DDE9020100225E4BFEF710FC22460C9BCDE9020100F05AFF002840F03F820C99224601F10043DDE9020100F031FF002840F02B82A8E00A9A4C4B711E002A49D08E
:402EC00003EBC103D3E9002300204E49FEF7CCFE22462B46FEF7EAFBCDE90C01069CDDE9020100F053FF0546FEF72EFD02460B46DDE90201FEF7DAFBDDE90C23303504F8BB
:402F0000015BCDE9020100F003FF002840F01D83DDE9022300203749FEF7C8FBDDE90C2300F0F6FE002840F0D180069BE31AB3426ADADDE90C0100222F4BFEF76BFD002208
:402F4000CDE90C01DDE902012B4BFEF763FDCDE90201C4E703EBC1012246D1E900012B46FEF758FD069BCDE90C011D469C19DDE9020100F00BFF0646FEF7E6FC02460B460D
:402F8000DDE90201FEF792FB303605F8016BAC42CDE902014FF0000222D11A4BDDE90C01FEF786FB02460B46DDE9020100F0CEFE002840F08B80DDE90C2300201149FEF789
:402FC00075FB02460B46DDE9020100F0A1FED8B114F8013C621E302B40F0B7821446F7E7054BFEF717FDCDE90201C0E7903E0000683F00000000F03F0000244000001C4005
:40300000000014400000E03FDDE90E34CDE90234139B002B7CDBBBF10E0F79DCAB4B03EBCB03D3E900671F9B002B14DA059B002B11DC40F06C810022A54B30463946FEF762
:40304000E9FCDDE9022300F077FE059D2E46002840F05F8165E1069CDDE9028932463B4640464946FEF700FE00F090FE0546FEF76BFC32463B46FEF7CDFC0B46024649468F
:403080004046FEF713FB05F1300E069B04F801EBC3EB040E059B73452DD102460B46FEF707FB8046894602460B463046394600F02FFE78B942464B463046394600F01EFE99
:4030C000002800F04482EB0704D440E2DDF820B000E01C4614F8012C631E392A07D1069A9A42F6D1069930220BF1010B0A701A7801321A702BE20022764BFEF78BFC002297
:4031000000238046894600F0F9FD0028A6D01EE20A9A002A2BD01E9A012A0ADC119A12B103F2334302E0129BC3F136033D46444613E0059B5D1EAF42BFBF0B9BEA1B9B1884
:403140000B93059BB6BF2F467D1B0025002BA7BF4446059BC3EB08040023079A01211A4450469844079200F0F3FA064602E03D4644460A9E5CB1079B002B08DDA342A8BFDB
:403180002346079AC3EB0808E41AD31A0793002F1DDD0A9BABB18DB131462A46504600F071FB049A01460646504600F0DAFA04990890504600F02DFA089B04937A1B06D06F
:4031C00000E03A460499504600F05CFB04900121504600F0BDFA0B9B05465BB31A460146504600F04FFB1E9B0546012B18DC029B83B9039BC3F3130373B9039B23F0004701
:403200003F0D3F054FB1079B08F1010801330793012702E0002700E0029F0B9B73B100E000272B6905EB8303186900F044FAC0F1200004E01E9B012BD9DD0B9F0120079B93
:40324000184410F01F0008D0C0F12003042B02DDC0F11C0002E006D018461C30079B8044034404440793B8F1000F05DD42460499504600F055FB0490079B002B05DD294614
:403280001A46504600F04CFB0546109B23B32946049800F096FB00281EDA00230A220499504600F0CDF90A9B0BF1FF3B0490002B00F05F81314600230A22504600F0C0F9C2
:4032C000B9F1000F06463FDC3BE000BF903E00000000144000002440059B002B2BDC1E9B022B28DDDDF81490B9F1000F11D129464B460522504600F0A3F901460546049806
:4033000000F05FFB00280CDC03E0354600E000252E461F9B069C6FEA030B09E03546DDF820B0069B069A5C1C312313700BF1010B05960026F7E00A9BDDF8149023B9069CC4
:40334000B2E01E9B022BCFDC002C05DD31462246504600F0E5FA06469FB17168504600F023F90446326906F10C01023292000C30FEF782FF01222146504600F0D1FA0590F0
:4033800000E00596029B069F03F00103079329460498FFF7D7FA3146044600F13008049800F00FFB059A02902946504600F025FBC36802463BB901460A90049800F001FB57
:4033C0000A9A034600E00123114650460A9300F020F90A9B53B91E9A42B9079A32B9B8F1390F2AD0029B002B1CDC1DE0029A002A04DB1BD11E9ACAB9079ABAB9002B13DDB6
:4034000001220499504600F08BFA2946049000F0D8FA002803DC07D118F0010F04D0B8F1390F0AD004F131087C1C0CE0002B07F101040BDDB8F1390F03D139233B700137A0
:4034400056E008F1010887F800806CE0069B2746E31A4B4504F8018C3BD000230A220499504600F0EDF8059B04909E424FF00A024FF000033146504604D100F0E1F80646AB
:40348000059084E700F0DCF8002306460A220599504600F0D5F8059079E700230A220499504600F0CDF8049029460498FFF74AFA069B00F1300804F8018BE31A4B45ECDB11
:4034C000069B0596B9F1010FACBF4B4401331F46002601220499504600F022FA2946049000F06FFA002803DC15D118F0010F12D03C4614F8013C621E392B09D1069B934279
:4035000004D10BF1010B3123069A02E01446F0E70133137007E03C4614F8013C621E302B01D11446F8E72946504600F072F8059B6BB12EB19E4203D03146504600F069F84D
:403540000599504600F065F801E0DDF820B00499504600F05EF80023209A23700BF101031360229B1BB11C6001E008480AE0069808E0B9F1000F3FF7E2AE1E9B022B7FF767
:40358000DEAEB1E615B0BDE8F08F00BF723E0000004870476081FF1F024B0146186800F0E7BA00BF5C81FF1F70B5456A04460E463DB91020FFF7F0FF606245608560056005
:4035C000C560656AEB6843B1636ADB6853F8260078B1026843F8262017E021220421204600F0B8FA636AE860DB68002BECD1002070BD012101FA06F56A1D9200204600F080
:40360000A9FA0028F3D04660856000230361C36070BD70B5446A06460D463CB91020FFF7BBFF7062446084600460C4603DB1736A6A68DB6853F82210296043F8225070BDB1
:403640002DE9F04106460C460D691F4601F1140E0023DEF80000013381B202FB0171000C0F0C02FB007089B201EB00419D424FEA10474EF8041BECDCD7B1A3689D4212DBB0
:40368000616830460131FFF78FFF8046226904F10C01023292000C30FEF7EEFD21463046FFF7B7FF444604EB850301355F6125612046BDE8F081030C1B0413B9000410232D
:4036C00000E0002310F07F4F04BF0002083310F0704F04BF0001043310F0404F04BF80000233002803DB420003D5581C70471846704720207047036813F007020BD0D907AF
:4037000022D49A074BBF5B089B08036003604CBF01200220704799B209B91B0C102213F0FF0F04BF1B0A0832190704BF1B090432990704BF9B080232D90702D45B0805D019
:403740000132036010467047002070472020704710B50C460121FFF727FF01224461026110BD2DE9F74F14460A69236988469A42BEBF0B46A0461C46D8F81070D4F810905A
:40378000D8F80830D8F8041007EB09069E42C8BF0131FFF709FF00F114052B4605EB860C0022634502D243F8042BFAE704F1140208F1140102EB890301EB87070093009B65
:4037C0000192934257D9B2F800B0BBF1000F23D08946AE464FF0000859F8044BBEF800A0A3B20BFB03A34FEA144ADEF8004043444FEA14480BFB0A84F24604EB13449BB200
:4038000043EA04434F454FEA14484AF8043B01D9D646E1E7CEF80480019B0432B3F802A0BAF1000F21D02C4689462B684FF00008B9F800E0B4F802B09BB20AFB0EBEA34687
:40384000F04443EA08434BF8043B59F8043BB4F804E01B0C0AFB03E34F4503EB18434FEA134801D95C46E3E763600435A7E75CF8043D13B9013E002EF9DC066103B0BDE845
:40388000F08F00002DE9F843154612F0030206460F4607D0214C013A002354F82220FFF7CFFE0746AD1036D0746A3CB91020FFF773FE7062446084600460C460D6F8248074
:4038C000D8F808404CB940F271213046FFF740FF04460023C8F8080003604FF00008EB070AD5394622463046FFF73BFF814639463046FFF78EFE4F466D100CD0206808B192
:403900000446ECE7224621463046FFF72AFF2060C0F80080F4E73846BDE8F883583F00002DE9F0470C460746914626694FEA621A56444968A368751CAB4202DA01315B00FA
:40394000FAE73846FFF730FE002380461A4600F11401534503DA41F823200133F9E72AEAEA73206901EB830319F01F0904F1140101EB800E14D0C9F1200C002208689A4613
:4039800000FA09F0024343F8042B51F8042B8E4522FA0CF2F2D8CAF8042042B1B51C06E0043B51F8042B8E4543F8042FF9D8013D3846C8F810502146FFF72BFE4046BDE850
:4039C000F08703690A6910B59B1A11D192001430143183180A4453F8044D52F8041D8C4202D007D3012010BD9842F4D3002010BD184610BD4FF0FF3010BD2DE9F8430C460B
:403A00000746114620461546FFF7DBFF061E08D131463846FFF7C8FD012303614661BDE8F883BCBF23462C4638466168BABF1D4601260026FFF7B8FD2B69C660266905F1A5
:403A4000140904F1140101EB860709EB830800F114054FF0000C51F8042B59F8044B93B29C44A3B2240CC3EB0C03C4EB124202EB23429BB24FEA224CC84543EA02428E46B8
:403A800045F8042BE7D8BE450ED25EF8041B8AB26244131403EB114392B242EA03424FEA234C45F8042BEEE755F8043D0BB9013EFAE70661BDE8F8832DE9F3411C460121D3
:403AC0009046089E099DFFF76FFDC4F31302C4F30A5407460CB142F480120192B8F1000F19D002A840F8088DFFF705FE009B48B1019AC0F1200102FA01F10B43C2407B61D0
:403B0000019200E07B61019B002B14BF02210121BB61396107E001A8FFF7EDFD019B01217B613961203034B1A4F2334404443460C0F1350009E0A0F2324007EB8103306006
:403B40001869FFF7B8FDC0EB41102860384602B0BDE8F08138B502FB01F4214600F008F8054618B122460021FEF791FB284638BD70B5CD1C25F0030508350C2D38BF0C25CF
:403B8000002D064601DBA94202D90C23336046E000F05CF8234B1C681A462146A1B10B685B1B0ED40B2B03D90B60CC18CD501EE08C420BBF63684B681360636018BF0C46F7
:403BC00015E00C464968E9E7174C23681BB9304600F02CF820602946304600F027F8431C18D0C41C24F00304A0420DD12560304600F02DF804F10B00231D20F00700C31AF7
:403C00000ED05A42E25070BD211A304600F00EF80130EBD10C233360304600F018F8002070BD00BF2C82FF1F2882FF1F38B5064C0023054608462360FCF7AAFE431C02D1F4
:403C4000236803B12B6038BD8482FF1F704770474FF0FF3C06E000BF4FF0010C02E000BF4FF0010C4DF804CD4FEA410C7FEA6C5C4FEA430C18BF7FEA6C5C1BD001B050EA68
:403C8000410C0CBF52EA430C91EA030F02BF90EA020F0020704710F1000F91EA030F58BF994208BF90422CBFD8176FEAE37040F0010070474FEA410C7FEA6C5C02D150EA57
:403CC000013C07D14FEA430C7FEA6C5CD6D152EA033CD3D05DF8040B704700BF8446104662468C461946634600E000BF01B5FFF7B7FF002848BF10F1000F01BD4DF808ED7D
:403D0000FFF7F4FF0CBF012000205DF808FB00BF4DF808EDFFF7EAFF34BF012000205DF808FB00BF4DF808EDFFF7E0FF94BF012000205DF808FB00BF4DF808EDFFF7CEFF5C
:403D400094BF012000205DF808FB00BF4DF808EDFFF7C4FF34BF012000205DF808FB00BF4FEA410C7FEA6C5C02D150EA013C0AD14FEA430C7FEA6C5C02D152EA033C02D1A4
:403D80004FF0000070474FF0010070474FEA410212F5001215D211D56FF47873B3EB625212D94FEAC12343F0004343EA505311F0004F23FA02F018BF404270474FF0000018
:403DC000704750EA013005D111F0004008BF6FF0004070474FF00000704700BF00000000004F00401800405100403000F0510040100000000140000480040140000200076C
:403E000001408005000D0140000380140140800700400140000A004C014000021050014010000000605200400C110048060000040140141100488000800601409411004801
:403E40008000800C014014120048800000140140941200488000005001401413004810004300494E4600696E66004E414E006E616E003000496E66696E697479004E614E46
:403E800000504F534958002E0000000000000000000000000000F03F000000000000244000000000000059400000000000408F40000000000088C34000000000006AF840D9
:403EC0000000000080842E4100000000D01263410000000084D797410000000065CDCD41000000205FA00242000000E876483742000000A2941A6D42000040E59C30A24200
:403F00000000901EC4BCD64200003426F56B0C430080E03779C3414300A0D8855734764300C84E676DC1AB43003D9160E458E143408CB5781DAF154450EFE2D6E41A4B44D1
:403F400092D54D06CFF08044F64AE1C7022DB544B49DD9794378EA4405000000190000007D000000000000000080E03779C34143176E05B5B5B89346F5F93FE9034F384D04
:403F8000321D30F94877825A3CBF737FDD4F1575F8B500BFF8BC08BC9E4670474D0000000D0A0000F8B500BFF8BC08BC9E46704729000000C83F0000C880FF1FD000000083
:403FC000F0000000000000000000000000000000000000000000494000B0B34600B0B34600000000000014408882FF1F0000E02EC05D00001800000000366E010000000092
:4040000000000000000000000000000000000000000000000000000000000000603E00000000000000000000000000000000000000000000000000000000000000000000E2
:4040400000000000000000000000000000000000000000000000000000000000FC80FF1F873E0000883E0000883E0000883E0000883E0000883E0000883E0000883E000077
:40408000883E0000883E0000FFFFFFFFFFFFFFFFFFFFFFFFFFFF00000000000000000000000000000000000000000000000000000000000000000000000000000000000082
:4040C00000000000000000000000000000000000000000000000000000000000000000000000000000000000000000000000000000000000000000000000000000000000C0
:40410000000000000000000000000000000000000000000000000000000000000000000000000000000000000000000000000000000000000000000000000000000000007F
:40414000000000000000000000000000000000000000000000000000000000000000000000000000000000000000000000000000000000000000000000000000000000003F
:4041800000000000000000000000000000000000000000000000000000000000000000000000000000000000000000000000000000000000000000000000000000000000FF
:020000040003F7
:0200000480007A
:40000000034F0040045200400964004005650040650001403D010140710201405A0301403D040140530501403A0601405E0701407408014049090140660A0140500B0140EB
:40004000290C01404C0D0140640E01403D0F014021140140581501406B160140511701406E18014044190140671A01404F1B01400A40014011410140084201400943014099
:400080000A4501400146014002480140124901400A4C0140094D0140065001400251014001200A4B164B08040904180119018077820F8638880F8A0D8B6F8D0F8E0D8F0F42
:4000C0008472860F880F890F8B6F010A020408020E03160819021B1C1F01230E2D042F18300831083201331034043506360237013B023D223E403F044006464049FF4A075B
:400100004BFF4C404D204EF04F0550085417580459045A045B045C455D535F05604061A862406320820C840C89018B028C0690109101930695019611970A99029B01A210D5
:40014000AC10AE02B001B210B303B408B504B606B708BB08BE14C026C104C201C403C5E0C70CC812C9FFCAFFCBFFCC62CDA0CEF0CF41D00CD280D804D904DA04DB04DC2575
:40018000DD53DF01E640E702E910EA30EB10ED10EE10EF12001002010340040807410A200C080E401682181819801B011E441F84215122282510271229012B022E022F80FE
:4001C000308032203604371239023A083B083D204402450146044708482049104F21501053105708581059805A0461046250768078018C08C0BBC234C490CA09CCECCE21ED
:40020000D0F0D224D60ED80EDE01E208E410062F070F09050A2F0B0A0D050F0A1103130C1618170F1807190F1A101C011E02202F250F280229032A012B0C2E04321F342068
:40024000350F3A083E1040354102420649FF4AFF4BFF4F01501854035604580459045A045B045C115D115F056040624064406540668068806A806C806E80845C86038B049C
:400280008D108E1C90619103920E9608986199019A169B089D03A623AB14AD08AF02B01AB110B20FB308B460B504B703B820B980BA0ABD02BE10BF44C035C102C206C5EC9C
:4002C000C720C823C9FFCAFFCBFFCD83CE03CF01D018D804D904DA04DC43DD01DF01E040E240E440E540E680E880EA80EC80EE8000800108040407040A480B600D200E1241
:4003000010201550168019181A401C081E102002218A2218261028042B012D102F2030033290334136013724380439A03B083C043D403E1041204324440847044804492220
:400340004A024B044D204E02510152025C805D025E205F04678078017F208280832085028A48902091A09321962097809A089B109C139D159E559F49A020A309A480A50145
:40038000A604A712AF40B208B620C065C2EEC4D4CA6CCCEDCE7CD066D23CD6F0D880DE41E002E603800A840F8507864087108A0F8E0F8F27910292209308950196079708C5
:4003C00098039A109B279E1CA104A220A308A51FAA09B240B318B420B507B61FB720BA80BE10C021C104C203C9FFCAFFCBFFCDAFCE07CF01D018D283D804D904DA04DB0418
:40040000DC11DD15DF01E040E280E440E540E680E840EA50EBA8EC40ED20EE50EFA80040035004020540072409400A840D210E1210411304141015181701184019801A447B
:400440001C081E021F0421022208230425042705284129A02E022F20324833103725384039023A023B043D083E80410A4208458A4608480168026C016D507680808086083E
:400480008C02902091029210934195509608970899089A089B309C929D059E159F0CA021A1A8A328A4C2A501A685A712AC8CAF20C0FDC2FBC45DCACDCCEECE5AD0F7D20816
:4004C000E008E244000F02200308070208010A020E180F011402160117041A0F1B081E0F23102407261027042B102E043101330834203506361F37103A803F5440214104E6
:40050000420349FF4AFF4BFF4DAF4E074F0150185418580459045A045B045C215D355F016040628064406540668068406A506BA86C406D206E506FA801800310055208809A
:400540000A400E240F02105012081304142015401640170119201D401E04208022142410274929082B022D042F88302032043404362039203B403D803F09418A4208458A1D
:4005800046084904510452915D0166406708710178027B807C107F0480808104826084408590868288308A048F109020924093459508968899889A089B109C429D259E15FC
:4005C0009F48A020A18AA208A308A440A541A684A710A902AC84AD40AF04B302C0D5C2E9C4AECAEACC66CEDCD0FFD680D830E008E204E601010202010301051808F00903AA
:400600000A040CAC0E500F20124313031401190C1C701E8820A02118220424DC2B202C802D142E3C30E03101320233023401351C363C372039203E103F454042410649FF99
:400640004AFF4BFF4DA04F0450185280540F580459045A045B045C225D245F01604062C06440654066C068C06AC06CC06EC08101821083068D018F0290029201940195024B
:4006800096029701980199019A069B0A9C019E0AB003B204B303B408B504B610B708BA02BB08C042C103C5D2C610C80BC9FFCAFFCBFFCDAFCE0FCF04D018D280D804D90435
:4006C000DA04DB04DC22DD94DF01E040E2C0E440E540E6C0E8C0EAC0ECC0EEC00022012003080580060807420AAA0EA21641170418801AAA1C041EA21F80216824402504A0
:4007000026A0270C2D802E202F8030403128328036203701380139803E594080431844A045054710481049014D2050105C605F0A7001724077408260864089508A088E01D4
:400740009211942496409B119C409D0B9E20A101A410A620B010C0D8C2BFC4B0CAB0CCA6CEF9D0A7D220D6F0E0A0E460EE80020706090A0F0C0A0F04100F11011302150721
:40078000160F17101B0F1E1C1F182502270128032A102B0F2D0F361F371F3A803B804023410149FF4AFF4BFF4DA04F01501854055604580459045A045B045C115D425F054A
:4007C0006040628064406540668068406A806C406D206E80810389038B0C90019104940499019E03AE0CB002B108B208B301B401B504B604B702B988BE50BF14C023C105B0
:40080000C53CC620C74EC83BC9FFCAFFCBFFCDAFCE07CF01D018D40FD804D904DA04DB04DC22DD22DF05E040E280E440E540E680E840EA80EC40ED20EE80001801600280B6
:40084000032008010A220D020E100F02100416011A021D021E181F402280251826022701280129202B2030043291362239403F32400C41084201440845084BC04D804F0624
:400880005609571059015B885E085F516040660867047B027E20801081108301858086018C408F12901091409220964298059B889C409D0A9E20A004A101A680AF40C00FC7
:4008C000C2BDC482CA0ECCAFCEA8D06ED210D6FBD861DE48E240E440EA08040706100B010C1F1401160818021A28200422282A072E072F0131013207341836203E40402309
:400900004106420549FF4AFF4BFF4F015018580459045A045C915D015F016040624064406540668068806A806C806E800018014004040601080109200A020B800E14100450
:40094000128016801750181019601B401C041E101F88204021242250260128812BA02E403128384239083E204128452849454A044FA0510859255A806340680469407001EA
:4009800078047B308205833087C092049A819B489CC09D0A9F10A101A708AC01AD40AE02B308B501C0A7C26BC4DACA1ACC06CE2BD066D23CD60FD801DE02E204E604E810B2
:4009C000EA02EC80041F0A320C0C0E20161C1A1F221F2A062C0A323E34013A083E1040344105420249FF4AFF4BFF4F015018540158045A045B045C015D915F0160406240C7
:400A000064406540668068806A806C806E80860F880F89038A208B0C8D0F8E0F900791059210930A95039618970C980299059A019B0A9F0FA204A50FA710A801AA02AB0F0E
:400A4000AE20B21FB30FB420B710BA08C034C105C206C5ECC602C807C9FFCAFFCBFFCD83CE03CF01D018D283D403D604D804D904DA04DB04DC11DD11DF05E040E240E44019
:400A8000E540E680E880EA80EC80EE8000100203033006280702082009080C010E200F0810021110128015101741181419041B141D081E24268027222E082F283504369059
:400AC00037013D90402442A04308442046804A024D044E024F2156805840590A5C805D045F2167806C026D106F0177407D808740C0E7C276C4DBCA60CCF0CE30D0C7D2388B
:400B0000D6FBD880DE109302AB01B301B702BA80C042C103C201C5ECC620C80BC9FFCAFFCBFFCD83CE03CF01D018D804D904DA04DC23DD01DF01E040E240E440E540E6804A
:400B4000E880EA80EC80EE8000040140030805200604080409010A0910A01360180419351B881C021D401E012101222425402604288429442F04308031123204340138225C
:400B800039083B40402042C0432044204510468047404A014F05551057205901680269206B1070B073207903808181438334840285108704880589048B408F10910892402B
:400BC0009505970598209B409C049E04A201A401A550A624A794A820AC80AD20AF01B702C007C20FC40FCA2FCC8FCE0FD0F7D208D601E00AE420E605071F0A1C0D050E071E
:400C00000F0A111F150F160919031A0F1B0C1D051E0F1F0A200F240325032610270C2C0A2F1F3110330F341F3A203F01403149FF4AFF4BFF4F015018528354035604580483
:400C400059045A045B045C115D195F056040624064406540668068806A806C806E80874089108D0C8E478F119001912092089303940795109610970C981F9C029D149E28C1
:400C8000A51CA702A804AA28AD09AE47AF10B007B11FB218B340B420B520B640BE10BF10C031C9FFCAFFCBFFCD83CE03CF01D018D804D904DA04DC31DD09DF01E040E24091
:400CC000E440E540E680E880EA80EC80EE800301055008200A510E240F021002112014201540170519201A511B011D101F20200821062601276029082A802E402F20308021
:400D000031023204354236103705382039043B403C023D423E044180422045845C805F2566026D406E2074027C208080818088048E109020922C9340954599489AA09C2420
:400D40009D129E06A104A541A634A797AA40AC40AF40C0C1C2EFC4B3CA5ACCFBCE5ED05AD6F0D880DE20E204E601E804EC42EE080473051C072109770C300D0C0EC90F4218
:400D800010FD114812021301149416601770189E1A6020CF22302380260F29102B2F2D7B2F0435F036FF370F3E40405645EC4620480B49FF4AFF4BFF4D834E034F015018F7
:400DC0005401580459045A045B045C205D395F016040624064406540668068806A806C806E8085CC8690872089768FF0906F921094639580960C97109C7C9DCC9E039F1046
:400E0000A025A1BAA24AA340A45AA625A837AB01B00FB30EB470B5F0B680B701B908C052C104C50EC6C0C7B0C829C9FFCAFFCBFFCEF0CF44D00CD40FD804D904DA04DB047E
:400E4000DC22DD23DF01E6C0EA40EB02000404B0072209880A400D080E500F0413161705180419011A461F4020012204233425C0270529212E502F403188370638803B1478
:400E80003D803F144111482049444C014D0A4F20501052015620571059015AA85C525E08820183108C428D0490829122940199409D0A9E20A108A401A980AD01AF80C0A403
:400EC000C27DC43ECAB5CCCACE7ED005D238D6FFE060EC4004020B091101150417021A041C041F06220325062E0430023108320133013404350437023E113F5440264103E5
:400F000049FF4AFF4BFF4DA04F0150185280580459045A045B045C225D225F016040628064406540668068406A806C406D206E80800481038218830C845F880989038A0661
:400F40008C5F94129605982099019D08A040B01CB104B203B301B420B508B640B702B988BE10BF14C062C103C54CC630C72EC83BC9FFCAFFCBFFCDAFCE07CF01D018D40F36
:400F8000D804D904DA04DB04DC23DD22DF05E040E280E440E540E680E840EA80EC40ED20EE80010805A10610080809080A060C200E20108216401804190C1A481C201D013A
:400FC0001E2A1F01210A2250259026082750290431823304362037603A203E203F024004430447144A084C804E044F04562857015C085D105E405F016608670470027E205E
:4010000082018301851086508701881089208D908F01920696A09B24A020A604B001B120B410C0F4C263C419CA02CC3BCEA4D066D224D6F0D860DE40E220E440E680EE408E
:4010400031803302340836203B8087408E10CCF0CE10E21008200A100C20332080208180862096109C08A580A620AF02C2D0CC10E080E6C0EA105B045C018F209C08A7201A
:40108000AC20D6C0EC1019011F0284089C08A801AB04C630E610EA8006020A040B100F80820283409604AE04C001C20EAF10A302B501070108080B020C01570284088B0118
:4010C00097029C01A302AB01AC01C080C270D620E410E840EC2008100C4054028804A002B402C203D604E004EC02101074048810A004B050C408DE04E204EA05100E110196
:401100001A0E1B011C0C1D0100FF010F80800000400000000100060028C050240000000078B700403800000000000007018402100177020050C128126000180000000008E9
:401140001A0161F27800000F04F003000002800000000001250403000000000000FFFFFF00A00001180000000000000004040404220500014000800040408000400050A8EE
:40118000402050A800000000000000000000000000000000000000003000C9000000000894336004FD0002000033000C00400015730000009E006000CF0A303400000F005B
:4011C000000300140060000FFF100000000200080000101021040300000EC0523DFFFFFF00AF0701180080000000000004040404304500014000800040408000400050A8E1
:40120000402050A8000000000000000000000000000000000000004E03040C1100002F00050E0A202F0010000008001100022F1003000C0005000A00003E00000F00000074
:401240000000004E003010400F0E200100000000000040402306050000EC000213FFFFFF0083030118008300030004000404040411110005400040004040800080008000D6
:4012800080008000000000000000000000000000000000000060000073000C041F0860000324000000186300021C00E25CE723187F10000008000063041C00E10C4000005D
:4012C00001FF000010602C1F0F804C000020280800000100420305000000000000FFFFFF00000001180000000000021304040404333100014000400040408000800080009D
:4013000080008000000000000000000000000000000000003E010000000000003E003E0016010201906F6F0000000000800040808000800000000000C03F3F0004000000E8
:4013400030484800000000003847470001000000000000000000000000000000000000000000000000000000000000000000000000000000000000000000000000000000E6
:40138000000000000000000000000000000000000000000000000000000000000000000000000000000000000000000000000000000000000000000000000000000000002D
:4013C00000000000000000000000000000000000000000000000000000000000000000000000000000000000000000000000000000000000000000000000000000000000ED
:4014000000000000000000000000000000000000000000000000000000000000000000000000000000000000000000000000000000000000000000000000000000000000AC
:40144000000000000000000000000000000000000000000000000000000000000000000000000000000000000000000000000000000000000000000000000000000000006C
:0200000490006A
:0400000000004005B7
:0200000490105A
:04000000BC90ACAF55
:0200000490303A
:020000005A2084
:0200000490402A
:4000000000000000000000000000000000000000000000000000000000000000000000000000000000000000000000000000000000000000000000000000000000000000C0
:400040000000000000000000000000000000000000000000000000000000000000000000000000000000000000000000000000000000000000000000000000000000000080
:400080000000000000000000000000000000000000000000000000000000000000000000000000000000000000000000000000000000000000000000000000000000000040
:4000C0000000000000000000000000000000000000000000000000000000000000000000000000000000000000000000000000000000000000000000000000000000000000
:0200000490501A
:0C00000000012E16106900012E356A89DF
:00000001FF