:400000000080002011000000310C0000310C000008B5044B1A6803F53F5302331A6000F027FE00BFFA46004010B5054C237833B9044B13B10448AFF300800123237010BDD8
:400040009881FF1F000000003C4A0000084B10B51BB108490848AFF300800848036803B910BD074B002BFBD0BDE81040184700BF000000009C81FF1F3C4A0000C880FF1F56
:400080000000000008B501F089FC0122014B1A6008BD00BFB881FF1FF8B5164B5B68012B27D1144CA0680028B8BF4042E368002BB8BF5B42C01A01F03BFFC4E904010E4D2F
:4000C000D5E9002301F09AFF06460F46A86801F041FF32463B4601F0DFFD02F0A1F9E86002F072FB80B201F0E3F8D4E90423C4E90623F8BDB881FF1FD080FF1F08B501F0DA
:40010000C1F901F0D7F9084B1880C0F57F43FF33064880FB03201844DB17C3EB601002F089FA034B186008BD6882FF1F09CB3D8D7482FF1F08B501F0A5F901F0BBF9084B5A
:400140001880C0F57F43FF33064880FB03201844DB17C3EB601002F06DFA034B186008BD7082FF1F09CB3D8D3882FF1F08B501F089F901F09FF9084B1880C0F57F43FF332F
:40018000064880FB03201844DB17C3EB601002F051FA034B186008BD3C82FF1F09CB3D8D7482FF1F08B501F06DF901F083F9084B1884C0F57F43FF33064880FB0320184430
:4001C000DB17C3EB601002F035FA034B186008BDB881FF1F09CB3D8D7482FF1F10B50024074B5C60204600F09DFD204600F0A6FD204600F0BBFF204600F0C4FF10BD00BFA5
:40020000B881FF1F10B50124074B5C60002000F089FD204600F092FD002000F0A7FF204600F0B0FF10BD00BFB881FF1F10B50124074B5C60204600F075FD002000F07EFD0B
:40024000204600F093FF002000F09CFF10BD00BFB881FF1F10B50124074B5C60002000F061FD204600F06AFD204600F07FFF002000F088FF10BD00BFB881FF1F10B50124AD
:40028000074B5C60204600F04DFD002000F056FD002000F06BFF204600F074FF10BD00BFB881FF1F0000000070B505460E461EE000F070FD3C4CA06000F096FEE060012E6D
:4002C00002D1FFF79FFF01E0FFF7B0FF322000F041FD08E0012001F063F90A2000F050FD002001F05DF901F067F90028F2D02E4B9B68002BB8BF5B42AB420DDC2A4BDB68E9
:40030000002BB8BF5B429D4206DB2849284B186802F050FA0028CBD1FFF760FF00F03AFD044600F061FE204400EBD070401001F0FFFD1BA3D3E9002301F060FE1A4B5B6A63
:400340003BB9194CD4E90A2301F0A6FCC4E90A0120E0012B07D1144CD4E90C2301F09CFCC4E90C0116E0022B09D10F4C02460B46D4E90A0101F08EFCC4E90A010AE0032B58
:4003800008D1094C02460B46D4E90C0101F082FCC4E90C01044A936B0133936370BD00BF269071E403F3723FB881FF1F000020417482FF1F0000000070B505460E461EE0E1
:4003C00000F0E8FC3C4CA06000F00EFEE060012E02D1FFF717FF01E0FFF728FF322000F0B9FC08E0012001F0ADFA0A2000F0C8FC002001F0A7FA01F051F90028F2D02E4B93
:400400009B68002BB8BF5B42AB420DDC2A4BDB68002BB8BF5B429D4206DB2849284B186802F0AAF90028CBD1FFF7D8FE00F0B2FC044600F0D9FD204400EBD070401001F0E6
:4004400077FD1BA3D3E9002301F0D8FD1A4B5B6A3BB9194CD4E90A2301F01EFCC4E90A0120E0012B07D1144CD4E90C2301F014FCC4E90C0116E0022B09D10F4C02460B4679
:40048000D4E90A0101F006FCC4E90A010AE0032B08D1094C02460B46D4E90C0101F0FAFBC4E90C01044A936B0133936370BD00BF269071E403F3723FB881FF1F0000F041E4
:4004C0006C82FF1F0000000070B505460E460DE000F060FC324CA06000F086FDE060012E02D1FFF78FFE01E0FFF7A0FE2C4B9B68002BB8BF5B42AB420ADC294BDB68002B5A
:40050000B8BF5B429D4203DB01F07AFB0028DFD0FFF764FE00F03EFC044600F065FD204400EBD070401001F003FD1BA3D3E9002301F064FD1A4B5B6A3BB9194CD4E90A2363
:4005400001F0AAFBC4E90A0120E0012B07D1144CD4E90C2301F0A0FBC4E90C0116E0022B09D10F4C02460B46D4E90A0101F092FBC4E90A010AE0032B08D1094C02460B46C9
:40058000D4E90C0101F086FBC4E90C01044A936B0133936370BD00BF269071E403F3723FB881FF1F70B505460E460DE000F0F2FB1C4CA06000F018FDE060012E02D1FFF7A7
:4005C0005DFE01E0FFF746FE164B9B68002BB8BF5B42AB4206DC134BDB68002BB8BF5B429D42E3DAFFF7FAFD012E0BD10D4B5B6A032B03D100220B4B5A620DE00133094AD8
:40060000536209E0074B5B6A1BB90322054B5A6202E0013B034A5362024A936B0133936370BD00BFB881FF1FF8B5012001F0DCFA0024484B1C60204601F0B2FA204601F007
:40064000C7FA142000F086FB012001F097FA012000F080FB204601F091FA3E4B1B68002BFBD001F00BFA04463B4D02463B49284602F07AFD284600F097FC0025354B1D6083
:40068000284601F08DFA012001F0A2FA142000F061FB012001F072FA012000F05BFB284601F06CFA2B4B1B68002BFBD001F0E6F90646294D02462A49284602F055FD284620
:4006C00000F072FC0025234B1D60012001F068FA012001F07DFA142000F03CFB012001F04DFA012000F036FB284601F047FA194B1B68002BFBD001F0C1F90546164F024679
:400700001849384602F030FD384600F04DFCAC4206DDB44204DD01200E4BD86301F082FAAC4207DAAE4205DA02220A4BDA63012001F06CFAB44207DAAE4205DD0322054B50
:40074000DA63012001F07AFA024A936B01339363F8BD00BFB881FF1F5482FF1F404A00004C4A0000584A000010B562B6714800F06DFE714801F0F4F900F040FE00F0DAFE43
:4007800000F07EFF01F016F801F0A6F86B4800F0F9FE6B4800F0A4FF6A4801F033F86A4801F0C2F801F042F901F0B2F900F058FD00F0C6FD00F024FB002000F0F3FA00F077
:4007C00049FC002000F018FC00F0D4FB012001F0F3F9012001F0D8F9002001F005FA5B4CA06801F0F1FF80B200F0F2FCA06801F0EBFF80B200F05CFD4FF4FA6000F0AAFAB1
:4008000004E0012147F6A760FFF74EFD504B9B6B002BF6D04FF4FA7000F09CFA002000F0C1FA002000F0E8FB494B00229A60DA6004E0012140F6D540FFF7B4FE444B9B6B32
:40084000012BF6D04FF4FA7000F084FA002000F0A9FA002000F0D0FB3D4B00229A60DA6004E001214AF6DF00FFF7A6FD384B9B6B022BF6D04FF4FA7000F06CFA002000F0B2
:4008800091FA002000F0B8FB314B00229A60DA6004E0012140F67100FFF78EFD2C4B9B6B032BF6D04FF4FA7000F054FA002000F079FA002000F0A0FB254B00229A60DA609A
:4008C00004E0002140F6D540FFF76CFE204B9B6B042BF6D04FF4FA7000F03CFA002000F061FA002000F088FB194B00229A60DA6004E0012141F65410FFF7E6FD144B9B6B78
:40090000052BF6D04FF4FA7000F024FA002000F049FA002000F070FB0D4B00229A60DA6001E0FFF781FE0A4B9B6B062BF9D0002010BD00BF9900000085000000FD00000018
:400940006D010000A501000035010000D080FF1FB881FF1FFEE700BFF0B40022174611E050F82760F3B226F0FF0608E001EB420511F812406D78A5550132013BDBB2002BA5
:40098000F4D10137282FEBD9F0BC7047064B1B78DBB203F00701054A11701B09013213704422034B1A707047CF0100496E5800407658004008B50A46002101F05CFF08BD45
:4009C00038B517222C4B1A8018232C490B7002310A8002310B7002310A80294A137033210232118002321370EF2102321180023213700222234B1A7008224FF040231A70A9
:400A0000032103F5007319701F4B1B78DBB21F490B701F4B1A8041F25122023B1A80002419250CE01B4B1B7803F0010343EA440404F003044FF4F07001F00EF9013D0DB16B
:400A4000032CEFD115B90320FFF784FF124B4FF480721A8007221A70002210490A704820023108701A700222033B1A700C4A137843F01F03137038BD804000408240004010
:400A80008A4000400043004008010049A146004022420040254200400440004006400040A243004008B501F0DBFE08BD38B572B6444A137843F00403137000240CE0424DE0
:400AC000630019194A0011462A44084691882858FFF770FF0134E4B2092CF0D900240CE03948A20011194B000344B3F84420196CD86BFFF7D7FF0134E4B2042CF0D933496B
:400B00004FF09040FFF728FF314B324A136002F500721360304A31490A60314801F50071086001F520610B602E4B1A602E4A137843F0020313701032137843F00203137081
:400B40002A4C237843F040032370A2F58632513A137843F010031370082225492548FFF7A1FF0A2224492548FFF79CFF082224492448FFF797FF082223492448FFF792FFE3
:400B8000082223492348FFF78DFF0A2222492348FFF788FF224A137843F008031370214D61232B70FFF70CFF81232B7001221E4B1A70FFF7EBFE0E2221461C48FFF772FF57
:400BC00038BD00BFE8460040644A0000A400004804040484D800014004040444D80C0140040404C4D81A014003500140A0430040681300480251004070130048C0510040EF
:400C00007C130048F251004084130048125100408C130048225100409413004830510040224300400048004004000840B043004008B501F0E9FD03680C2B00D1FEE7FEE711
:400C400008B5094B1A681044084BC31AB3F5007F02DC054B186005E001F0D6FD0C2303604FF0FF32104608BDE880FF1F9082FF1F08B5104E104D16E029686B68AC6800220C
:400C800004E051F8040B43F8040B0432A242F8D1E868002203E0002143F8041B04328242F9D11035013E002EE6D101F0B3FDFFF75BFDFEE701000000584C000008B5104A3E
:400CC000104B1A60104A136843F40073136000230AE0032B03D80D4A52F8231000E00C490C4A42F8231001332F2BF2D90A4B1A780A4B1A70074A0A4B1A60FFF7D7FE08BD7C
:400D00000004FA050CED00E014ED00E000000000310C00000080FF1FBC760040C080FF1F08ED00E0044A137803F0DF03400100F0200018431070704710510040044A13786B
:400D400003F0EF03000100F010001843107070471051004010B5044605E0084B186800F07BFFA4F50044B4F5004FF6D8034B586800FB04F000F070FF10BD00BFEC80FF1F14
:400D800008B5034B1B7A00FB03F000F065FF08BDEC80FF1F08B500F05FF8A0F5004000B208BD00BF08B5002803DB80B280F4004002E0A0F5004080B200F048F808BD00BFAD
:400DC000024B187800F00F00704700BF6A650040014B1870704700BF8A65004008B50F20FFF7F6FFFFF7ECFF00F03EFF034A137843F01003137000F03BFF08BD9A65004065
:400E000008B500F07BF84FF4004000F01FF8044B1B7813B90122024B1A70FFF7DFFF08BD2082FF1F024A137843F08003137070477B650040014B1870704700BF8B650040A6
:400E4000014B1878704700BF6B650040014B1880704700BF146A0040024B1B78024B188880B270470A650040946A0040014B188880B27047946A0040014B1880704700BFE8
:400E8000546A0040014B1880704700BF746A004008B501E0FFF7EAFFFFF7D2FF10F0400FF8D108BD08B5134B1A7802F0F8021A701A7802F0FC021A70FFF7EAFF4FF400400A
:400EC000FFF7DAFF4FF40040FFF7C0FF0020FFF7B1FFFFF7B5FF4FF40040FFF7D3FF00F0C3FE054A137843F01003137000F0C0FE08BD00BF7B6500409B65004008B5054B3D
:400F00001B7823B9FFF7CEFF0122024B1A70FFF789FF08BD2182FF1F7222074B1A702022FD3B1A7006229E331A70472210331A700022A93B1A7070478465004010B500F02F
:400F400093FE04460A4A137843F020031370FD3A137843F0100313700532137843F01003137000F033F8204600F082FE10BD00BF9465004008B5054B1B7823B9FFF7CCFFD5
:400F80000122024B1A70FFF7D9FF08BD2282FF1F034B1B7813F0040FFAD1024B187070476C6400404D64004038B5074B1B782BB938BDFFF7EDFF0134A4B201E0054600242B
:400FC000285D0028F5D138BD2282FF1F054A137843F0080313701032137843F008031370704700BFA243004008B500F05FF8A0F5004000B208BD00BF08B5002803DB80B2FF
:4010000080F4004002E0A0F5004080B200F048F808BD00BF024B187800F00F00704700BF69640040014B1870704700BF8964004008B50F20FFF7F6FFFFF7ECFF00F014FECF
:40104000034A137843F01003137000F011FE08BD9964004008B500F07BF84FF4004000F01FF8044B1B7813B90122024B1A70FFF7DFFF08BD2482FF1F024A137843F0800392
:40108000137070477A640040014B1870704700BF89650040014B1878704700BF69650040014B1880704700BF106A0040024B1B78024B188880B2704708650040906A00404F
:4010C000014B188880B27047906A0040014B1880704700BF506A0040014B1880704700BF706A004008B501E0FFF7EAFFFFF7D2FF10F0400FF8D108BD08B5134B1A7802F059
:40110000F8021A701A7802F0FC021A70FFF7EAFF4FF40040FFF7DAFF4FF40040FFF7C0FF0020FFF7B1FFFFF7B5FF4FF40040FFF7D3FF00F099FD054A137843F010031370D2
:4011400000F096FD08BD00BF7A6400409965004008B5054B1B7823B9FFF7CEFF0122024B1A70FFF789FF08BD2582FF1F044A137803F0FD03400000F002001843107070473B
:4011800030510040044A137803F0FB03800000F0040018431070704730510040084A137843F0010313701032137843F00103137002F64D32137843F001031370704700BF8D
:4011C000A3430040014B1880704700BF044F0040014B1880704700BF064F0040014B1870704700BF034F004008B51A4A137843F0020313700232137803F08F0343F0100320
:401200001370154B1A7802F0CF021A701A7842F030021A701A7802F0F0021A701A7842F00F021A7046F2A810FFF7CCFF43F2D400FFF7CEFF0020FFF7D1FF084A137843F09A
:401240000103137002F65E32137843F00103137008BD00BF004F00400B4F0040A343004008B5054B1B7823B9FFF7BEFF0122024B1A70FFF793FF08BD2682FF1F084A13782E
:4012800043F0020313701032137843F00203137002F65932137843F001031370704700BFA3430040014B1880704700BF104F0040014B1880704700BF124F0040014B1870BF
:4012C000704700BF0F4F004008B51A4A137843F0020313700232137803F08F0343F010031370154B1A7802F0CF021A701A7842F030021A701A7802F0F0021A701A7842F0E3
:401300000F021A7046F2A810FFF7CCFF43F2D400FFF7CEFF0020FFF7D1FF084A137843F00203137002F66A32137843F00103137008BD00BF0C4F0040174F0040A343004053
:4013400008B5054B1B7823B9FFF7BEFF0122024B1A70FFF793FF08BD2782FF1F024A137843F080031370704778640040014B1870704700BF88640040014B1878704700BF85
:401380006864004008B50146014800F075FC08BD2A640040024B186820F07F40704700BF4A64004008B50146014800F065FC08BD0A64004008B501E0FFF7ECFFFFF7DCFF7F
:4013C00010F0080FF8D108BD08B54EF65F20FFF7D9FF4EF65F20FFF7E5FF00F045FC064A137843F01003137000F042FCFFF7E2FF0120FFF7BBFF08BD9864004008B5054BA4
:401400001B7823B9FFF7E0FF0122024B1A70FFF7A5FF08BD2882FF1F014B1B681864704708ED00E04001C0B2014B1870704700BF00E400E00122014B1A60704700E100E04E
:401440000122014B1A60704780E100E010B50446FFF7F6FF2046FFF7DFFF0720FFF7E2FFFFF7E8FF10BD00BF024A137843F08003137070477B640040014B1870704700BFC0
:401480008F640040014B1878704700BF6F640040014B1880704700BF40680040014B188880B2704780680040014B1880704700BF00680040024B1B78024B188880B270479D
:4014C000006400408068004000F00300044B1A7802F0FC021A701A7810431870704700BF7B64004008B501E0FFF7D8FFFFF7CAFF10F0080FF8D108BD08B54FF6FF70FFF79A
:40150000C7FF4FF6FF70FFF7CFFF00F0ADFB084A137843F01003137000F0AAFB0020FFF7D3FFFFF7DFFF0220FFF7A6FF08BD00BF9F64004008B5054B1B7823B9FFF7DCFF0D
:401540000122024B1A70FFF78FFF08BD2982FF1F014B1B685864704708ED00E04001C0B2014B1870704700BF01E400E00222014B1A60704700E100E00222014B1A60704783
:4015800080E100E010B50446FFF7F6FF2046FFF7DFFF0720FFF7E2FFFFF7E8FF10BD00BF044A137803F0F703C00000F00800184310707047C0510040024B187800F0010020
:4015C000704700BF01510040024A137843F080031370704775640040014B1870704700BF81640040014B1878704700BF61640040014B1880704700BF48680040014B188807
:4016000080B2704788680040014B1880704700BF0868004000F00300044B1A7802F0FC021A701A7810431870704700BF7564004008B501E0FFF7E2FFFFF7D4FF10F0080FE8
:40164000F8D108BD08B54FF6FF70FFF7D1FF4FF6FF70FFF7D9FF00F007FB084A137843F01003137000F004FB0020FFF7D3FFFFF7DFFF0220FFF7B0FF08BD00BF9164004060
:4016800008B5054B1B7823B9FFF7DCFF0122024B1A70FFF799FF08BD2A82FF1F024B1878C0F34010704700BF01510040014B1B689864704708ED00E04001C0B2014B187000
:4016C000704700BF02E400E00422014B1A60704700E100E00422014B1A60704780E100E010B50446FFF7F6FF2046FFF7DFFF0720FFF7E2FFFFF7E8FF10BD00BF024A1378F4
:4017000043F080031370704776640040014B1870704700BF86640040014B1878704700BF66640040014B1880704700BF4C6A0040014B188880B270478C6A0040014B188090
:40174000704700BF0C6A004000F00300044B1A7802F0FC021A701A7810431870704700BF7664004008B501E0FFF7E2FFFFF7D4FF10F0080FF8D108BD08B54FF6FF70FFF7A8
:40178000D1FF4FF6FF70FFF7D9FF00F06DFA084A137843F01003137000F06AFA0020FFF7D3FFFFF7DFFF0220FFF7B0FF08BD00BF9664004008B5054B1B7823B9FFF7DCFFF8
:4017C0000122024B1A70FFF799FF08BD2B82FF1F014B1B68D864704708ED00E04001C0B2014B1870704700BF03E400E00822014B1A60704700E100E00822014B1A60704767
:4018000080E100E010B50446FFF7F6FF2046FFF7DFFF0720FFF7E2FFFFF7E8FF10BD00BF024A137843F08003137070477F640040014B1870704700BF83640040014B187895
:40184000704700BF63640040014B1880704700BF44680040014B188880B2704784680040014B1880704700BF0468004000F00300044B1A7802F0FC021A701A7810431870E3
:40188000704700BF7F64004008B501E0FFF7E2FFFFF7D4FF10F0080FF8D108BD08B54FF6FF70FFF7D1FF4FF6FF70FFF7D9FF00F0DBF9084A137843F01003137000F0D8F9C8
:4018C0000020FFF7D3FFFFF7DFFF0220FFF7B0FF08BD00BF9364004008B5054B1B7823B9FFF7DCFF0122024B1A70FFF799FF08BD2C82FF1F014B1B681865704708ED00E06C
:401900004001C0B2014B1870704700BF04E400E01022014B1A60704700E100E01022014B1A60704780E100E010B50446FFF7F6FF2046FFF7DFFF0720FFF7E2FFFFF7E8FF73
:4019400010BD00BF044A137803F0FB03800000F0040018431070704720510040024A137843F080031370704770640040014B1880704700BF1C680040014B1880704700BF07
:401980009C680040014B1880704700BF5C680040014B1870704700BF80640040014B1878704700BF60640040014B188880B27047BC68004008B501E0FFF7F6FFFFF7EEFF1C
:4019C00010F0100FF8D108BD08B5164A137803F0C00343F0090313702E32137843F0010313700132137843F0010313704CF24F30FFF7BCFF4CF24F30FFF7BEFF46F2A71030
:401A0000FFF7C0FF0120FFF7C3FF00F02DF9064A137843F01003137000F02AF9FFF7CAFF08BD00BF706400409064004008B5054B1B7823B9FFF7C8FF0122024B1A70FFF797
:401A40008DFF08BD2D82FF1F024A137843F080031370704774640040014B1870704700BF8D640040014B1878704700BF6D640040014B1860704700BF06640040014B1868DB
:401A8000704700BF46640040014B1860704700BF26640040014B1860704700BF3664004008B501E0FFF7EAFFFFF7DCFF10F0400FF8D108BD08B5144A137803F0F80343F0BC
:401AC00001031370137803F0FC0343F008031370FFF7E6FF6FF00100FFF7D6FF0020FFF7C7FF0020FFF7B8FFFFF7BCFF8020FFF7D1FF00F0B9F8054A137843F01003137017
:401B000000F0B6F808BD00BF746400409D64004008B5054B1B7823B9FFF7CCFF0122024B1A70FFF791FF08BD2E82FF1F014B1B685865704708ED00E04001C0B2014B18703B
:401B4000704700BF05E400E02022014B1A60704700E100E02022014B1A60704780E100E010B50446FFF7F6FF2046FFF7DFFF0720FFF7E2FFFFF7E8FF10BD00BF014B187037
:401B8000704700BF73640040044A137803F0EF03000100F0100018431070704720510040044A137803F0F703C00000F0080018431070704720510040044A137803F0DF0327
:401BC000400100F0200018431070704720510040044A137803F0FE0300F0010018431070704700BF20510040044A137803F0BF03800100F04000184310707047205100400F
:401C0000014B1878C009704731510040044A137803F0F703C00000F0080018431070704700510040044A137803F0EF03000100F0100018431070704700510040044A13782A
:401C400003F0FB03800000F0040018431070704700510040000000000230800803D000BF01380046FCD17047EFF3108072B6704780F31088704700BFCBB20370C1F30723ED
:401C80004370C1F307418170704700BF81F0004102E000BF83F0004330B54FEA41044FEA430594EA050F08BF90EA020F1FBF54EA000C55EA020C7FEA645C7FEA655C00F085
:401CC000E2804FEA5454D4EB5555B8BF6D420CDD2C4480EA020281EA030382EA000083EA010180EA020281EA0303362D88BF30BD11F0004F4FEA01314FF4801C4CEA113177
:401D000002D0404261EB410113F0004F4FEA03334CEA133302D0524263EB430394EA050F00F0A780A4F10104D5F1200E0DDB02FA0EFC22FA05F2801841F1000103FA0EF28A
:401D4000801843FA05F359410EE0A5F120050EF1200E012A03FA0EFC28BF4CF0020C43FA05F3C01851EBE37101F0004507D54FF0000EDCF1000C7EEB00006EEB0101B1F584
:401D8000801F1BD3B1F5001F0CD349085FEA30004FEA3C0C04F101044FEA445212F5800F80F09A80BCF1004F08BF5FEA500C50F1000041EB045141EA050130BD5FEA4C0CD5
:401DC000404141EB010111F4801FA4F10104E9D191F0000F04BF01460020B1FA81F308BF2033A3F10B03B3F120020CDA0C3208DD02F1140CC2F10C0201FA0CF021FA02F1FF
:401E00000CE002F11402D8BFC2F1200C01FA02F120FA0CFCDCBF41EA0C019040E41AA2BF01EB0451294330BD6FEA04041F3C1CDA0C340EDC04F11404C4F1200220FA04F0BD
:401E400001FA02F340EA030021FA04F345EA030130BDC4F10C04C4F1200220FA02F001FA04F340EA0300294630BD21FA04F0294630BD94F0000F83F4801306BF81F480111D
:401E80000134013D4EE77FEA645C18BF7FEA655C29D094EA050F08BF90EA020F05D054EA000C04BF1946104630BD91EA030F1EBF0021002030BD5FEA545C05D140004941BE
:401EC00028BF41F0004130BD14F580043CBF01F5801130BD01F0004545F0FE4141F470014FF0000030BD7FEA645C1ABF194610467FEA655C1CBF0B46024650EA013406BF9B
:401F000052EA033591EA030F41F4002130BD00BF90F0000F04BF0021704730B54FF4806404F132044FF000054FF0000150E700BF90F0000F04BF0021704730B54FF480648D
:401F400004F1320410F0004548BF40424FF000013EE700BF42004FEAE2014FEA31014FEA02701FBF12F07F4393F07F4F81F06051704792F0000F14BF93F07F4F704730B5B3
:401F80004FF4607401F0004521F0004120E700BF50EA010208BF704730B54FF000050AE050EA010208BF704730B511F0004502D5404261EB41014FF4806404F132045FEA86
:401FC000915C3FF4DCAE4FF003025FEADC0C18BF03325FEADC0C18BF033202EBDC02C2F1200300FA03FC20FA02F001FA03FE40EA0E0021FA02F11444C1E600BF70B54FF06F
:40200000FF0C4CF4E06C1CEA11541DBF1CEA135594EA0C0F95EA0C0F00F0DEF82C4481EA030621EA4C5123EA4C5350EA013518BF52EA033541F4801143F4801338D0A0FB35
:4020400002CE4FF00005E1FB02E506F00042E0FB03E54FF00006E1FB03569CF0000F18BF4EF0010EA4F1FF04B6F5007F64F5407404D25FEA4E0E6D4146EB060642EAC6210D
:4020800041EA55514FEAC52040EA5E504FEACE2EB4F1FD0C88BFBCF5E06F1ED8BEF1004F08BF5FEA500E50F1000041EB045170BD06F0004646EA010140EA020081EA0301D5
:4020C000B4EB5C04C2BFD4EB0C0541EA045170BD41F480114FF0000E013C00F3AB8014F1360FDEBF002001F0004170BDC4F10004203C35DA0C341BDC04F11404C4F12005CD
:4021000000FA05F320FA04F001FA05F240EA020001F0004221F0004110EBD37021FA04F642EB06015EEA430E08BF20EAD37070BDC4F10C04C4F1200500FA04F320FA05F0FC
:4021400001FA04F240EA020001F0004110EBD37041F100015EEA430E08BF20EAD37070BDC4F1200500FA05F24EEA020E20FA04F301FA05F243EA020321FA04F001F000413C
:4021800021FA04F220EA020000EBD3705EEA430E08BF20EAD37070BD94F0000F0FD101F00046400041EB010111F4801F08BF013CF7D041EA060195F0000F18BF704703F02C
:4021C0000046520043EB030313F4801F08BF013DF7D043EA0603704794EA0C0F0CEA135518BF95EA0C0F0CD050EA410618BF52EA4306D1D181EA030101F000414FF0000011
:4022000070BD50EA410606BF1046194652EA430619D094EA0C0F02D150EA013613D195EA0C0F05D152EA03361CBF104619460AD181EA030101F0004141F0FE4141F4700140
:402240004FF0000070BD41F0FE4141F4780170BD70B54FF0FF0C4CF4E06C1CEA11541DBF1CEA135594EA0C0F95EA0C0F00F0A7F8A4EB050481EA030E52EA03354FEA013142
:4022800000F088804FEA03334FF0805545EA131343EA12634FEA022245EA111545EA10654FEA00260EF000419D4208BF964244F1FD0404F5407402D25B084FEA3202B61AE3
:4022C00065EB03055B084FEA32024FF480104FF4002CB6EB020E75EB030E22BFB61A754640EA0C005B084FEA3202B6EB020E75EB030E22BFB61A754640EA5C005B084FEA30
:402300003202B6EB020E75EB030E22BFB61A754640EA9C005B084FEA3202B6EB020E75EB030E22BFB61A754640EADC0055EA060E18D04FEA051545EA16754FEA06164FEADB
:40234000C30343EA52734FEAC2025FEA1C1CC0D111F4801F0BD141EA00014FF000004FF0004CB6E711F4801F04BF01430020B4F1FD0C88BFBCF5E06F3FF6AFAEB5EB030C82
:4023800004BFB6EB020C5FEA500C50F1000041EB045170BD0EF0004E4EEA113114EB5C04C2BFD4EB0C0541EA045170BD41F480114FF0000E013C90E645EA060E8DE60CEA82
:4023C000135594EA0C0F08BF95EA0C0F3FF43BAF94EA0C0F0AD150EA01347FF434AF95EA0C0F7FF425AF104619462CE795EA0C0F06D152EA03353FF4FDAE1046194622E7FB
:4024000050EA410618BF52EA43067FF4C5AE50EA41047FF40DAF52EA43057FF4EBAE12E74FEA4102B2F1E04324BFB3F5001CDCF1FE5C0DD901F0004C4FEAC0024CEA50707E
:40244000B2F1004F40EB830008BF20F00100704711F0804F21D113F13872BCBF01F00040704741F480114FEA5252C2F11802C2F1200C10FA0CF320FA02F018BF40F00100EE
:402480004FEAC1234FEAD32303FA0CFC40EA0C0023FA02F34FEA4303CCE77FEA625307D150EA01331EBF4FF0FE4040F44000704701F0004040F0FE4040F40000704700BF1F
:4024C00080F0004002E000BF81F0004142001FBF5FEA410392EA030F7FEA226C7FEA236C6AD04FEA1262D2EB1363C1BFD218414048404140B8BF5B42192B88BF704710F04B
:40250000004F40F4000020F07F4018BF404211F0004F41F4000121F07F4118BF494292EA030F3FD0A2F1010241FA03FC10EB0C00C3F1200301FA03F100F0004302D5494268
:4025400060EB4000B0F5000F13D3B0F1807F06D340084FEA310102F10102FE2A51D2B1F1004F40EBC25008BF20F0010040EA03007047490040EB000010F4000FA2F10102C2
:40258000EDD1B0FA80FCACF1080CB2EB0C0200FA0CF0AABF00EBC25052421843BCBFD0401843704792F0000F81F4000106BF80F400000132013BB5E74FEA41037FEA226C34
:4025C00018BF7FEA236C21D092EA030F04D092F0000F08BF0846704790EA010F1CBF0020704712F07F4F04D1400028BF40F00040704712F100723CBF00F50000704700F021
:40260000004343F0FE4040F4000070477FEA226216BF08467FEA23630146420206BF5FEA412390EA010F40F4800070474FF0000304E000BF10F0004348BF40425FEA000C04
:4026400008BF704743F0964301464FF000001CE050EA010208BF70474FF000030AE000BF50EA010208BF704711F0004302D5404261EB41015FEA010C02BF8446014600207A
:4026800043F0B64308BFA3F18053A3F50003BCFA8CF2083AA3EBC25310DB01FA02FC634400FA02FCC2F12002BCF1004F20FA02F243EB020008BF20F00100704702F12002D6
:4026C00001FA02FCC2F1200250EA4C0021FA02F243EB020008BF20EADC7070474FF0FF3C06E000BF4FF0010C02E000BF4FF0010C4DF804CD4FEA40024FEA41037FEA226C16
:4027000018BF7FEA236C11D001B052EA530C18BF90EA010F58BFB2EB030088BFC81738BF6FEAE17018BF40F0010070477FEA226C02D15FEA402C05D17FEA236CE4D15FEAB4
:40274000412CE1D05DF8040B704700BF844608466146FFE70FB5FFF7C9FF002848BF10F1000F0FBD4DF808EDFFF7F4FF0CBF012000205DF808FB00BF4DF808EDFFF7EAFFD0
:4027800034BF012000205DF808FB00BF4DF808EDFFF7E0FF94BF012000205DF808FB00BF4DF808EDFFF7D2FF94BF012000205DF808FB00BF4DF808EDFFF7C8FF34BF01205D
:4027C00000205DF808FB00BF42000ED2B2F1FE4F0BD34FF09E03B3EB126209D44FEA002343F0004323FA02F070474FF00000704712F1610F01D1420202D14FF0FF307047D4
:402800004FF00000704700BF014B1868704700BF5C81FF1F0E4B70B51E460E4C0025E41AA410A54204D056F8253098470135F8E702F000FA084B094C1E46E41AA410002572
:40284000A54204D056F8253098470135F8E770BD404C0000404C0000404C0000484C000010B5431E0A44914204D011F8014B03F8014FF8E710BD03460244934202D003F809
:40288000011BFAE770472DE9F04788B0149F002B1E461299B8BF03F1004327F02007B6BF1E4600232D23462F1446109DDDF84CA00B7003D0452F03D1013501E0032300E0CA
:4028C000022307AA049206AA03928DE828042246334600F001FD472F804602D1119BDB0728D5462F08EB050911D198F80030302B0AD1002200232046314602F02FF818B9C3
:40290000C5F10105CAF80050DAF800309944002200232046314602F021F808B9302202E0CDF81C9006E0079B994503D9591C07911A70F8E74046079B159AC8EB030313609C
:4029400008B0BDE8F087034673B50029B8BF494203F8022BB4BF2D222B22092942701ADD0DF1070216460A2591FBF5F405FB1411092C01F1300102F8011D2146F4DC3031A1
:40298000541E02F8011CB4421A460AD214F8012B03F8012BF7E71A463024214402F8024B5970101A02B070BD2DE9F04F91B00C46DDF8688016461F46054601F025FA0368C1
:4029C0001846099300F0F4FB00230E93D8F800300A90073323F0070303F1080294F81890D4F800B0C8F80020D3E90023C4E91223D4F84CA0D4F848802AF000430B934FF074
:402A0000FF32A74B40460B9901F0DAFFA0B94FF0FF32A34B40460B9901F0B4FF60B9002200234046514601F0A3FF10B12D2384F843309C4B9C4A0AE04246534640465146F7
:402A400001F0BEFF002800F09281984B984AB9F1470F8CBF90469846032323612BF0040323604FF0000A3DE0B9F1670F00F08A81B9F1470F00F086812360019363680021EF
:402A80000DF13302059002920093424653460691CDF81090CDF80CE02846FFF7F4FE09F0DF03472B804600F08481B9F1650F0D9900F28D8101394A4604F150000D91FFF794
:402AC00042FF0E9A82468318012A236100F37C812268D10700F178819DF8333013B12D2384F84330009733460FAA2146284600F09FF9013002D14FF0FF3096E123685A05AB
:402B000001D4236965E0B9F1650F40F2D580D4E912010022002301F021FF78B30123654A31462846B8470130E5D00E9B0D9A9A420BDB2368D80708D423689B0740F1118114
:402B40004FF0000804F1190906E10A9B099A31462846B8470130CED04FF0000804F11A090E9B013B9845E7DA01234A4631462846B8470130BFD008F10108F1E70D9B002B2E
:402B800029DC01234B4A31462846B8470130B2D00D9B23B90E9B13B92368D907CCD50A9B099A31462846B8470130A4D04FF0000904F11A0A0D9B5B42994509DA01235246C7
:402BC00031462846B847013095D009F10109F1E70E9B4246A7E00E9AA36D9A42A8BF1A46002A914606DC4FF0000A29EAE97904F11A0B11E01346314642462846B8470130CA
:402C0000F1D178E701235A4631462846B84701303FF471AF0AF1010AA36DC9EB03029245F0DB08EB03090D9A0E9B9A420FDB2368DA070CD40E9B0D9A9844C9EB08089B1AD0
:402C40009845A8BF9846B8F1000F08DC0FE00A9B099A31462846B8470130EBD14BE743464A4631462846B84701303FF444AF4FF0000928EAE87804F11A0A09E00123524690
:402C800031462846B84701303FF435AF09F101090D9A0E9B9B1AC8EB03039945EEDB4BE7FFFFEF7FD44A0000D84A0000DC4A0000E04A0000E44A00000E9A012A01DCDB0791
:402CC00038D50123424631462846B84701303FF412AF0A9B099A31462846B84701303FF40AAFD4E912010022002301F037FE20B14FF0000804F11A090EE00E9B08F10102CB
:402D0000013B19E001234A4631462846B84701303FF4F1AE08F101080E9B013B9845F1DB534604F1500231462846B84701307FF403AFE0E64246012331462846B847013092
:402D4000EED1D8E601234A4631462846B84701303FF4D1AE08F10108E3680F9A9B1A9845F0DBE0680F9B9842B8BF18465DE062680EA8531C0DF1340E4BF480637FF474AE44
:402D8000062201E012B90122626075E6002106910DF133018DE80C00236005904246CDF81090CDF80CE0029153462846FFF76BFD80460D9BD81C02DB626893421DDDA9F174
:402DC00002095FFA89F970E60133236184E6B9F1660F14D10029636807DD216113B92268D2071DD501330B4419E013B92268D00701D5023313E0012311E04FF067090D9BE3
:402E00000E9A934205DB22682361D10708D5013305E0002BD4BFC3F102030123134423610D9B4FF0000AA36556E611B0BDE8F08F2DE9F04791461F460A698B6806469342B9
:402E4000B8BF1346C9F8003091F843200C46DDF8208012B10133C9F800302368990642BFD9F800300233C9F80030256815F0060510D104F1190A07E0012352463946304676
:402E8000C04701301AD00135E368D9F800209B1A9D42F1DB94F843302268003318BF012392060FD5E118302081F843005A1C94F845102244023382F8431003E04FF0FF30D6
:402EC000BDE8F08704F1430239463046C0470130F4D02268D9F80050E36802F00602042A08BF5D1B2269A3680CBF25EAE57500259342C4BF9B1AED184FF000091A344D4505
:402F000009D00123224639463046C0470130D5D009F10109F3E70020BDE8F0872DE9F04317460A7E85B06E2A984606460C460C9B01F1430E00F0AE8011D8632A22D009D878
:402F4000002A00F0BB80582A40F0CA8081F84520834955E0642A1ED0692A1CD0C0E0732A00F0B08009D86F2A2ED0702A40F0B8800A6842F020020A603EE0752A24D0782ACC
:402F80003AD0ADE01A6801F14205111D1960136884F84230A8E021681A6811F0800F02D0111D196008E011F0400F02F10401196002D0B2F9003000E01368002B3CDA2D22D2
:402FC0005B4284F8432037E021681A6811F0800F02D0111D196007E011F0400F02F10401196001D0138800E01368227E5C496F2A14BF0A2208221BE078225A4984F845209B
:403000002268186812F0800F00F104051D6003D1550601D5038800E00368D00744BF42F0200222601BB9226822F0200222601022002084F8430001E049490A226568002D35
:40304000A56008DB206820F0040020602BB9002D7DD175460CE0002B79D07546B3FBF2F002FB1033CB5C05F8013D03460028F5D1082A0BD12368DA0708D5236962689A4225
:40308000DEBF302305F8013C05F1FF35C5EB0E0323612EE008681A6810F0800F496903D0101D1860136808E010F0400F02F104001860136801D0198000E0196000232361B8
:4030C000754616E01A68111D1960156800216268284600F0A5FE08B1401B6060636804E004F1420584F8422001232361002384F84330CDF800803B4603AA21463046FFF7F0
:4031000097FE013002D14FF0FF3026E023692A4639463046C0470130F5D023689B0710D5002504F1190907E001234A4639463046C0470130E7D00135E368039A9B1A9D4215
:40314000F2DBE068039B9842B8BF184605E00B7804F1420584F842308AE705B0BDE8F083E64A0000F74A00000EB400B54FF402719CB0ADF814106FF00041049107914FF658
:40318000FF711DAB02900690084853F8042BADF81610006802A9019301F038FA029B00221A701CB05DF804EB03B070475C81FF1F034613F8012B002AFBD1181A01387047FA
:4031C0002DE9F74F03690C6980469C427FDC013C01F114074FEA840E00F1140606EB0E0357F82450019356F824300135B3FBF5F507EB0E09C5B34FF0000A3846B446D3464F
:4032000050F8043B9AB205FB02A21B0C4FEA124A05FB03A392B2C2EB0B0BBCF800204FEA134A5A441FFA83FBDCF800308145CBEB134303EB224392B242EA03424FEA234B8A
:403240004CF8042BDCD256F80E306BB9019B043B9E421A4602D3C8F8104005E01268043B002AF8D1013CF3E7404600F0F4FF00282BDB304601354FF0000E57F8042B03685C
:4032800091B2C1EB0E0E120C99B27144C2EB134303EB214389B24FEA234EB94541EA034340F8043BE9D256F8242006EB840362B9043B9E421A4602D3C8F8104005E0126822
:4032C000043B002AF8D1013CF3E7284600E0002003B0BDE8F08F00002DE9F04F456A95B08246219CCDE9022345B9102000F090FDCAF82400456085600560C560DAF82430CC
:40330000196859B15A68012393404A608B60504600F0C9FDDAF8243000221A60039BA04A002BBDBF01232360039B0023BCBF23F000430393DDF80C80A8BF236028F0004302
:403340001B0D1B0593421DD142F20F73209A1360029B43B9934A944BC8F31300002814BF1846104600E09048229B002B00F04685C37813B100F1080300E0C31C229A136049
:4033800000F03CBDDDE90245002200232046294601F0E4FA074658B1209A01231360229B002B00F01E8581481860013800F026BD12AB019313AB009322462B46504600F0BE
:4033C000C5FFC8F30A56049056B1C5F3130343F07F51204641F44011A6F2FF3611971DE0139B129E1E4406F23243202B0ADD029A06F21240C3F1400322FA00F008FA03F3E4
:40340000184304E0C3F12000029B03FA00F0FEF77FFD0123A1F1F871013E11930022644BFEF738FC58A3D3E90023FEF7E7FD58A3D3E90023FEF730FC044630460D46FEF7CC
:4034400077FD55A3D3E90023FEF7D8FD02460B4620462946FEF720FC04460D4601F0C6FA0022834600232046294601F081FA58B15846FEF75DFD02460B462046294601F0C6
:403480006DFA08B90BF1FF3BBBF1160F0DD8DDE90223484901EBCB01D1E9000101F086FA30B10BF1FF3B002300E00123109300E01090129B9E1B731E079343BFC3F10008E8
:4034C000002307934FF00008BBF1000F06DB079BCDF82CB05B440793002705E00023CBEB0808CBF100070B931E9B092B28D8052BC4BF043B1E931E9BC8BF0025A3F10203CC
:40350000D8BF0125032B20D8DFE803F0060E0204012302E0012308E000230A931F9B002B1DDD9946059321E000230A931F9B0BEB030909F10103012B0593B8BF012315E0DD
:40354000012500231E930A9501E001230A934FF0FF390022CDF8149012231F9206E04FF001094B46CDF81490CDF87C90DAF8244000226260042101F114029A421CD862684D
:40358000490001326260F6E761436F63A787D23FB3C8608B288AC63FFB799F501344D33F0000F07F084B0000114B0000E54A00000000F83F204B00006168504600F03EFCDA
:4035C000DAF8243020601B680693059B0E2B00F25B81002D00F05881DDE90234BBF1000FCDE90E3430DD9F4A0BF00F034FEA2B1502EBC303E80618CBCDE908340CD5DDE924
:403600000E01994B05F00F05D3E90823FEF720FE0324CDE9020100E00224934E6DB1E90708D5DDE90801D6E90023FEF7E7FCCDE9080101346D100836F0E7DDE90823DDE91C
:403640000201FEF705FE20E0CBF1000505B3DDE90E01844B05F00F0203EBC203D3E90023FEF7CCFCCDE902017F4E2D110023022455B1EA0705D5D6E90023FEF7BFFC013438
:4036800001236D100836F3E71BB1CDE9020100E00224109BE3B1DDE902560022734B2846314601F065F998B1059B8BB1B9F1000F40F3E6800BF1FF330893314600226C4BC5
:4036C0002846FEF79BFC0134CDE902014E4602E0059ECDF820B02046FEF72AFCDDE90223FEF78CFC634B0022FEF7D6FAA1F1507304460C931D46D6B9DDE9020100225E4BF2
:40370000FEF7C8FA22460C9BCDE9020101F04EF9002840F03F820C99224601F10043DDE9020101F025F9002840F02B82A8E00A9A4C4B711E002A49D003EBC103D3E9002374
:4037400000204E49FEF784FD22462B46FEF7A2FACDE90C01069CDDE9020101F047F90546FEF7E6FB02460B46DDE90201FEF792FADDE90C23303504F8015BCDE9020101F0F3
:40378000F7F8002840F01D83DDE9022300203749FEF780FADDE90C2301F0EAF8002840F0D180069BE31AB3426ADADDE90C0100222F4BFEF723FC0022CDE90C01DDE90201AF
:4037C0002B4BFEF71BFCCDE90201C4E703EBC1012246D1E900012B46FEF710FC069BCDE90C011D469C19DDE9020101F0FFF80646FEF79EFB02460B46DDE90201FEF74AFAFC
:40380000303605F8016BAC42CDE902014FF0000222D11A4BDDE90C01FEF73EFA02460B46DDE9020101F0C2F8002840F08B80DDE90C2300201149FEF72DFA02460B46DDE91F
:40384000020101F095F8D8B114F8013C621E302B40F0B7821446F7E7054BFEF7CFFBCDE90201C0E7204B0000F84B00000000F03F0000244000001C40000014400000E03FFA
:40388000DDE90E34CDE90234139B002B7CDBBBF10E0F79DCAB4B03EBCB03D3E900671F9B002B14DA059B002B11DC40F06C810022A54B30463946FEF7A1FBDDE9022301F0D5
:4038C0006BF8059D2E46002840F05F8165E1069CDDE9028932463B4640464946FEF7B8FC01F084F80546FEF723FB32463B46FEF785FB0B46024649464046FEF7CBF905F191
:40390000300E069B04F801EBC3EB040E059B73452DD102460B46FEF7BFF98046894602460B463046394601F023F878B942464B463046394601F012F8002800F04482EB072B
:4039400004D440E2DDF820B000E01C4614F8012C631E392A07D1069A9A42F6D1069930220BF1010B0A701A7801321A702BE20022764BFEF743FB002200238046894600F07F
:40398000EDFF0028A6D01EE20A9A002A2BD01E9A012A0ADC119A12B103F2334302E0129BC3F136033D46444613E0059B5D1EAF42BFBF0B9BEA1B9B180B93059BB6BF2F4686
:4039C0007D1B0025002BA7BF4446059BC3EB08040023079A01211A4450469844079200F001FB064602E03D4644460A9E5CB1079B002B08DDA342A8BF2346079AC3EB0808A4
:403A0000E41AD31A0793002F1DDD0A9BABB18DB131462A46504600F07FFB049A01460646504600F0E8FA04990890504600F03BFA089B04937A1B06D000E03A4604995046F1
:403A400000F06AFB04900121504600F0CBFA0B9B05465BB31A460146504600F05DFB1E9B0546012B18DC029B83B9039BC3F3130373B9039B23F000473F0D3F054FB1079BAF
:403A800008F1010801330793012702E0002700E0029F0B9B73B100E000272B6905EB8303186900F052FAC0F1200004E01E9B012BD9DD0B9F0120079B184410F01F0008D0DC
:403AC000C0F12003042B02DDC0F11C0002E006D018461C30079B8044034404440793B8F1000F05DD42460499504600F063FB0490079B002B05DD29461A46504600F05AFB96
:403B00000546109B23B32946049800F0A4FB00281EDA00230A220499504600F0DBF90A9B0BF1FF3B0490002B00F05F81314600230A22504600F0CEF9B9F1000F06463FDC1C
:403B40003BE000BF204B00000000144000002440059B002B2BDC1E9B022B28DDDDF81490B9F1000F11D129464B460522504600F0B1F901460546049800F06DFB00280CDC8A
:403B800003E0354600E000252E461F9B069C6FEA030B09E03546DDF820B0069B069A5C1C312313700BF1010B05960026F7E00A9BDDF8149023B9069CB2E01E9B022BCFDC73
:403BC000002C05DD31462246504600F0F3FA06469FB17168504600F031F90446326906F10C01023292000C30FEF73AFE01222146504600F0DFFA059000E00596029B069FED
:403C000003F00103079329460498FFF7D9FA3146044600F13008049800F01DFB059A02902946504600F033FBC36802463BB901460A90049800F00FFB0A9A034600E001236E
:403C4000114650460A9300F02EF90A9B53B91E9A42B9079A32B9B8F1390F2AD0029B002B1CDC1DE0029A002A04DB1BD11E9ACAB9079ABAB9002B13DD01220499504600F0CA
:403C800099FA2946049000F0E6FA002803DC07D118F0010F04D0B8F1390F0AD004F131087C1C0CE0002B07F101040BDDB8F1390F03D139233B70013756E008F1010887F88B
:403CC00000806CE0069B2746E31A4B4504F8018C3BD000230A220499504600F0FBF8059B04909E424FF00A024FF000033146504604D100F0EFF80646059084E700F0EAF8EC
:403D0000002306460A220599504600F0E3F8059079E700230A220499504600F0DBF8049029460498FFF74CFA069B00F1300804F8018BE31A4B45ECDB069B0596B9F1010F38
:403D4000ACBF4B4401331F46002601220499504600F030FA2946049000F07DFA002803DC15D118F0010F12D03C4614F8013C621E392B09D1069B934204D10BF1010B312399
:403D8000069A02E01446F0E70133137007E03C4614F8013C621E302B01D11446F8E72946504600F080F8059B6BB12EB19E4203D03146504600F077F80599504600F073F84B
:403DC00001E0DDF820B00499504600F06CF80023209A23700BF101031360229B1BB11C6001E008480AE0069808E0B9F1000F3FF7E2AE1E9B022B7FF7DEAEB1E615B0BDE8C5
:403E0000F08F00BFE44A0000004870476081FF1F024B0146186800F041BB00BF5C81FF1F10B5C9B202449042034605D01C7801308C42F8D1184610BD002010BD70B5456AA0
:403E400004460E463DB91020FFF7E2FF6062456085600560C560656AEB6843B1636ADB6853F8260078B1026843F8262017E021220421204600F0B8FA636AE860DB68002B3C
:403E8000ECD1002070BD012101FA06F56A1D9200204600F0A9FA0028F3D04660856000230361C36070BD70B5446A06460D463CB91020FFF7ADFF7062446084600460C46066
:403EC0003DB1736A6A68DB6853F82210296043F8225070BD2DE9F04106460C460D691F4601F1140E0023DEF80000013381B202FB0171000C0F0C02FB007089B201EB004163
:403F00009D424FEA10474EF8041BECDCD7B1A3689D4212DB616830460131FFF78FFF8046226904F10C01023292000C30FEF798FC21463046FFF7B7FF444604EB85030135F3
:403F40005F6125612046BDE8F081030C1B0413B90004102300E0002310F07F4F04BF0002083310F0704F04BF0001043310F0404F04BF80000233002803DB420003D5581C28
:403F800070471846704720207047036813F007020BD0D90722D49A074BBF5B089B08036003604CBF01200220704799B209B91B0C102213F0FF0F04BF1B0A0832190704BF1E
:403FC0001B090432990704BF9B080232D90702D45B0805D00132036010467047002070472020704710B50C460121FFF727FF01224461026110BD2DE9F74F14460A692369CC
:4040000088469A42BEBF0B46A0461C46D8F81070D4F81090D8F80830D8F8041007EB09069E42C8BF0131FFF709FF00F114052B4605EB860C0022634502D243F8042BFAE79A
:4040400004F1140208F1140102EB890301EB87070093009B0192934257D9B2F800B0BBF1000F23D08946AE464FF0000859F8044BBEF800A0A3B20BFB03A34FEA144ADEF8F8
:40408000004043444FEA14480BFB0A84F24604EB13449BB243EA04434F454FEA14484AF8043B01D9D646E1E7CEF80480019B0432B3F802A0BAF1000F21D02C4689462B6881
:4040C0004FF00008B9F800E0B4F802B09BB20AFB0EBEA346F04443EA08434BF8043B59F8043BB4F804E01B0C0AFB03E34F4503EB18434FEA134801D95C46E3E76360043570
:40410000A7E75CF8043D13B9013E002EF9DC066103B0BDE8F08F00002DE9F843154612F0030206460F4607D0214C013A002354F82220FFF7CFFE0746AD1036D0746A3CB9E6
:404140001020FFF765FE7062446084600460C460D6F82480D8F808404CB940F271213046FFF740FF04460023C8F8080003604FF00008EB070AD5394622463046FFF73BFF99
:40418000814639463046FFF78EFE4F466D100CD0206808B10446ECE7224621463046FFF72AFF2060C0F80080F4E73846BDE8F883E84B00002DE9F0470C460746914626695B
:4041C0004FEA621A56444968A368751CAB4202DA01315B00FAE73846FFF730FE002380461A4600F11401534503DA41F823200133F9E72AEAEA73206901EB830319F01F0959
:4042000004F1140101EB800E14D0C9F1200C002208689A4600FA09F0024343F8042B51F8042B8E4522FA0CF2F2D8CAF8042042B1B51C06E0043B51F8042B8E4543F8042F65
:40424000F9D8013D3846C8F810502146FFF72BFE4046BDE8F08703690A6910B59B1A11D192001430143183180A4453F8044D52F8041D8C4202D007D3012010BD9842F4D31A
:40428000002010BD184610BD4FF0FF3010BD2DE9F8430C460746114620461546FFF7DBFF061E08D131463846FFF7C8FD012303614661BDE8F883BCBF23462C46384661683A
:4042C000BABF1D4601260026FFF7B8FD2B69C660266905F1140904F1140101EB860709EB830800F114054FF0000C51F8042B59F8044B93B29C44A3B2240CC3EB0C03C4EB09
:40430000124202EB23429BB24FEA224CC84543EA02428E4645F8042BE7D8BE450ED25EF8041B8AB26244131403EB114392B242EA03424FEA234C45F8042BEEE755F8043D97
:404340000BB9013EFAE70661BDE8F8832DE9F3411C4601219046089E099DFFF76FFDC4F31302C4F30A5407460CB142F480120192B8F1000F19D002A840F8088DFFF705FE29
:40438000009B48B1019AC0F1200102FA01F10B43C2407B61019200E07B61019B002B14BF02210121BB61396107E001A8FFF7EDFD019B01217B613961203034B1A4F2334418
:4043C00004443460C0F1350009E0A0F2324007EB810330601869FFF7B8FDC0EB41102860384602B0BDE8F08138B502FB01F4214600F054F8054618B122460021FEF73BFAC9
:40440000284638BD38B50546002944D051F8043C0C1F002BB8BFE41800F017FA1E4A1368114613B96360146030E0A3420DD92268A018834201BF18685B68121822606360C0
:404440000C6023E0A24203D813465A68002AF9D118681918A1420BD12168014458188242196013D110685268014419605A600DE002D90C232B6009E021686018824201BF96
:40448000106852680918216062605C602846BDE8384000F0DBB938BD3482FF1F70B5CD1C25F0030508350C2D38BF0C25002D064601DBA94202D90C23336046E000F0C5F958
:4044C000234B1C681A462146A1B10B685B1B0ED40B2B03D90B60CC18CD501EE08C420BBF63684B681360636018BF0C4615E00C464968E9E7174C23681BB9304600F07AF992
:4045000020602946304600F075F9431C18D0C41C24F00304A0420DD12560304600F096F904F10B00231D20F00700C31A0ED05A42E25070BD211A304600F05CF90130EBD14C
:404540000C233360304600F081F9002070BD00BF3482FF1F3082FF1F2DE9F0478E6882469E420C46914698463ED88A8912F4906F3AD02568096902236F1A656905EB45050A
:4045800095FBF3F57B1C43449D4238BF1D4653050FD52946FFF782FF064698B13A462169FEF75EF9A38923F4906343F08003A38113E02A4600F04BF9064670B921695046E3
:4045C000FFF720FF0C23CAF80030A3894FF0FF3043F04003A381BDE8F08726613E44266046466561ED1BA560464528BF464649463246206800F00EF9A36800209B1BA360DF
:4046000023681E442660BDE8F08700002DE9F04F9DB003938B8980461C060D4616460DD50B695BB94021FFF739FF2860286118B90C23C8F80030CDE040236B610023099373
:4046400020238DF82930DFF89CB130238DF82A3037463C4614F8013B1BB9B7EB060910D003E0252BF9D02746F3E74B46324629464046FFF771FF013000F0A780099B4B44F5
:4046800009933B78002B00F0A08000234FF0FF3204930793059206938DF853301A930126052221784E48FFF7BBFB671C049B38B14B4A3C46801A06FA00F018430490EFE72D
:4046C000D90644BF20228DF853201A0744BF2B228DF8532022782A2A03D0079A00210A200BE0039A111D12680391002A10DA524243F00200079204900BE027463B7801347A
:40470000303B092B03D800FB02320121F5E701B107923B782E2B1ED17B782A2B0AD1039B02371A1D1B680392002BB8BF4FF0FF33059310E0002319460593781C0A2407467F
:404740003A780130303A092A03D804FB01210123F5E703B10591032239782248FFF760FB40B14023CBEB000003FA00F0049B013718430490397806221B487E1C8DF8281092
:40478000FFF74EFB88B1194B33B9039B073323F007030833039314E003AB00932A46144B04A94046FEF700F907E003AB00932A460F4B04A94046FEF7B1FBB0F1FF3F8246D9
:4047C00003D0099B5344099342E7AB895B0601D4099801E04FF0FF301DB0BDE8F08F00BF204C0000264C00002A4C0000A92900005945000038B5064C00230546084623609A
:40480000FCF71EFA431C02D1236803B12B6038BD8C82FF1F884210B501EB020301D8421E0BE09842FBD28118D21AD34204D013F8014D01F8014DF8E710BD994204D011F893
:40484000014B02F8014FF8E710BD70477047F8B5074615460E4621B91146BDE8F840FFF71DBE1AB9FFF7CEFD2846F8BD00F015F885420ED929463846FFF710FE044650B162
:4048800031462A46FDF7ECFF31463846FFF7BAFD01E03046F8BD2046F8BD51F8040C0028BEBF091851F8043CC0180438704700004FF0FF3C06E000BF4FF0010C02E000BFEA
:4048C0004FF0010C4DF804CD4FEA410C7FEA6C5C4FEA430C18BF7FEA6C5C1BD001B050EA410C0CBF52EA430C91EA030F02BF90EA020F0020704710F1000F91EA030F58BF32
:40490000994208BF90422CBFD8176FEAE37040F0010070474FEA410C7FEA6C5C02D150EA013C07D14FEA430C7FEA6C5CD6D152EA033CD3D05DF8040B704700BF8446104644
:4049400062468C461946634600E000BF01B5FFF7B7FF002848BF10F1000F01BD4DF808EDFFF7F4FF0CBF012000205DF808FB00BF4DF808EDFFF7EAFF34BF012000205DF8CF
:4049800008FB00BF4DF808EDFFF7E0FF94BF012000205DF808FB00BF4DF808EDFFF7CEFF94BF012000205DF808FB00BF4DF808EDFFF7C4FF34BF012000205DF808FB00BF95
:4049C0004FEA410C7FEA6C5C02D150EA013C0AD14FEA430C7FEA6C5C02D152EA033C02D14FF0000070474FF0010070474FEA410212F5001215D211D56FF47873B3EB625212
:404A000012D94FEAC12343F0004343EA505311F0004F23FA02F018BF404270474FF00000704750EA013005D111F0004008BF6FF0004070474FF00000704700BF000000006F
:404A40007265643A2025640A00000000626C75653A2025640A000000677265656E3A2025640A0000004F00401800405100403000000001408008000901400003800C0140F0
:404A8000800380140140000200170140000500400140000A004C0140000210500140100080080140581100488000000C0140D811004880000014014058120048800080165F
:404AC0000140D81200488000005001405813004810004300494E4600696E66004E414E006E616E003000303132333435363738394142434445460030313233343536373852
:404B00003961626364656600496E66696E697479004E614E00504F534958002E00000000000000000000F03F000000000000244000000000000059400000000000408F40A4
:404B4000000000000088C34000000000006AF8400000000080842E4100000000D01263410000000084D797410000000065CDCD41000000205FA00242000000E8764837421A
:404B8000000000A2941A6D42000040E59C30A2420000901EC4BCD64200003426F56B0C430080E03779C3414300A0D8855734764300C84E676DC1AB43003D9160E458E14313
:404BC000408CB5781DAF154450EFE2D6E41A4B4492D54D06CFF08044F64AE1C7022DB544B49DD9794378EA4405000000190000007D000000000000000080E03779C3414348
:404C0000176E05B5B5B89346F5F93FE9034F384D321D30F94877825A3CBF737FDD4F1575232D302B2000686C4C0065666745464700000000F8B500BFF8BC08BC9E467047DE
:404C40004D000000BD0C0000F8B500BFF8BC08BC9E46704729000000684C0000C880FF1FD0000000F80000000000000000000000000000000000494000B0B34600B0B346B9
:404C800000000000000014409082FF1F0000E02EC05D00001800000000366E010000000000000000000000000000000000000000000000000000000000000000D24A00006C
:404CC000000000000000000000000000000000000000000000000000000000000000000000000000000000000000000000000000000000000000000000000000FC80FF1F1A
:404D00001B4B0000254C0000254C0000254C0000254C0000254C0000254C0000254C0000254C0000254C0000FFFFFFFFFFFFFFFFFFFFFFFFFFFF0000000000000000000022
:404D40000000000000000000000000000000000000000000000000000000000000000000000000000000000000000000000000000000000000000000000000000000000033
:404D800000000000000000000000000000000000000000000000000000000000000000000000000000000000000000000000000000000000000000000000000000000000F3
:404DC00000000000000000000000000000000000000000000000000000000000000000000000000000000000000000000000000000000000000000000000000000000000B3
:404E00000000000000000000000000000000000000000000000000000000000000000000000000000000000000000000000000000000000000000000000000000000000072
:020000040003F7
:0200000480007A
:40000000034F0040065200400A64004004650040670001403C0101406B0201404F03014073040140590501407706014055070140320801405D0901406E0A01404D0B0140B2
:40004000200C01405E0D0140630E0140410F0140221401405015014033160140551701406D18014058190140661A0140531B014009400140144101400F42014007430140AB
:40008000044401400B45014002460140074801400B490140094C0140054D0140035001400251014001200A4B164B080409041801190160806440800D810F830F860F87387D
:4000C000880D890F8C0F8D778F0F8472896F8A0F8B6F0307080E09010A200B0E0C080E11100411051211164E18021A101B102102224E230C243E29103040310432303308B6
:40010000340E3503360137103B023DA23E403F0440354101420649FF4AFF4BFF4F015018528054055604580459045A045B045C415D415F0560406240644065406680688065
:400140006A806C806E809401960A98019A029C029E01A701A801AA06B204B301B408B603BA80C035C101C206C502C7CEC831C9FFCAFFCBFFCD83CE03CF01D018D403D60441
:40018000D804D904DA04DB04DC22DD11DF05E040E240E440E540E680E880EA80EC80EE80020203080A640DA00E1010801220171019401A441B081DA01E1021102245271097
:4001C00029122C103020320138023920410843404508474048084B404C084D044F60560857015A895EA05F0563806780700179807D088020850487418A018D848E18C003F9
:40020000C2EEC44CCA45CC05CE05D05AD23CD6FBD881DE48E209E40A010E0320050207100A06150417501A081B0F1C041F0F2201250827502D3E300431303201330E3408F9
:400240003501360237403E013F4040654101420449FF4AFF4BFF4F015018580459045A045C145D015F016040624064406540668068806A806C806E80849E8660878088948E
:4002800089138A608B2C8C308EC9910C93439473977099779CCF9D7F9E30A0FDA202A51AA725AA0FAD45AF0AB3F0B4FFB70FBE10C025C101C204C5ECC720C823C9FFCAFF6D
:4002C000CBFFCD83CE03CF01D018D403D604D804D904DA04DB04DC20DD11DF05E040E240E440E540E680E880EA80EC80EE800010032204200A210C200E021288150118043D
:400300001D101E021F8922882505264027142B222D802E083299376438143D0A41804204430144404580470149064A024C084E02520259465A106340680269807A208002A0
:400340008501872888408A088B408D808E3092049580970599C09C109D10A020A480A672A710AB40AD10AF40B180B50AB740C047C2C5C41ACA5ACC7FCEC6D09DD238D60F63
:40038000D801DE02E004E228E402E812010204CC051806210722088009080A1F0C080EF10F04111B147719041B011CCC1E121F0420BB2244231029043120330434F03503DE
:4003C000360F371839803F4440624105420149FF4AFF4BFF4F0150185280580459045A045B045C425D415F016040624064406540668068806A806C806E80800F861F87189B
:400400008C058D018E0A8F02921F93049403960C9805990F9A0A9D079F10A003A20CA70FA81FA902AA20AB01AF0FB020B20FB51FB610BB20BE40C062C105C201C5ECC702E1
:40044000C813C9FFCAFFCBFFCD83CE03CF01D018D283D804D904DA04DB04DC11DD11DF01E040E240E440E540E680E880EA80EC80EE80001003220508064107100A210C096A
:400480000D200E40114012811404168017201A031B201D801E602002214122282302240425202B882C082D082E4030823220358037213820390A3B503C843E8041804208DB
:4004C0004580460849904DA04F05560859305B10658066406C086D406F017340774081408490850190109302942095039623970599809B389C109E089F40A002A280A388BA
:40050000A610A732A890B008B204C0B7C275C458CA75CCBDCE5FD03CD23CE001E248E410E804EE01000E0220064E0718080809020A110B010F041101130214021610170F52
:4005400018041A11203E270F290F2D072E4E2F103030320E331F344036013B083E4040644103420249FF4AFF4BFF4DA04F015018528354035604580459045A045B045C1106
:400580005D145F056040628064406540668068406A506BA86C406D206E506FA8821083208401860287078C028D038E018F10931C970998019A0A9B0F9C019E069F20A10A35
:4005C000A90FAF0FB003B11FB204B410B520B608BA02BB02BF10C065C103C202C9FFCAFFCBFFCDAFCE07CF01D018D418D804D904DA04DB04DC12DD34DF01E040E280E440B5
:40060000E540E680E840EA50EBA8EC40ED20EE50EFA8010903020501062407200A090D080E041680174019081A091B021D4D1E042080212022012504260428052A012D4096
:400640002EA830883201331035043701380439023A403DA8400843044408470E48014A084E0859425A405E605F056002612067806DA077407D408180821087408A888F2051
:40068000900493029508962098059A419B1AA009A288A320A440A706AB14B201B310C07DC263C490CA7DCCCFCE7BD0E6D22CD6F1D88CDE10E004E604EC04EE0105940760DA
:4006C00009FD0B020DCF0F3015731B0F213023C926012D9E2E012F603001340135FF3E013F1040344106420149FF4AFF4BFF4DAF4E074F01501852805401580459045A04E5
:400700005B045C095D945F016040628064406540668068406A506BA86C406D206E506FA80081032004A005200601084409100A40120914041628174018A119801B201E8852
:40074000225023202704284829802B102C402D8030103102330434183608372039503A083C803DF03E0841844280438045804680470849044B124F1050805128524058083F
:4007800059025AA05E805F056020610877408110831089048A028B088F049102924893B595059606970299019AAC9CA09D049F50A104A280A4A0A5A0A604A808AB08B1055C
:4007C000C00DC20FC4A3CA9FCC67CE7ED0DBD224D6DFE0C0E480E820EE8000010206050F0B090D0A1002120114011602170F1B201C011E0A1F07230F2610271C29202D03B2
:400800002F103003320433203410351F36083A023B203F04401349FF4AFF4BFF4F0150185280580459045A045B045C125D295F016040624064406540668068806A806C805C
:400840006E80800782108640882F89038B0C8D058E2F8F0A910F9218970F980199039A029B0C9D059F0AA240A62FA802A90FAA01AB10AE04AF0FB220B30FB440B510B61F25
:40088000BA80BE14C013C9FFCAFFCBFFCD83CE03CF01D018D283D804D904DA04DB04DC11DD19DF01E040E240E440E540E680E880EA80EC80EE800380048005A006410714EC
:4008C0000A920D100E80102014801550170819111A901B801D401F182110222424202708281229102A412C082DA02F04302031403208341235403668370839503B083D507E
:4009000042204340462047406D507240740182808E048F04908091089395942095059684970298029A2C9C289D049F40A104A280A489A5A0A802AA40B020B210C0F8C25D2E
:40094000C4F4CA3FCCFECE3ED05AE248E410EC2084029E03A004B002B201B404B908BE11BF04C043C102C50CC60EC70BC815C9FFCAFFCBFFCEF0CF44D00CD417D804D9048B
:40098000DA04DB04DC04DD43DF05E6C0EA40EB02010804020510061007010B020C920D08110114801580170419281A401D021E181F80231025042680271A28082B082C041C
:4009C0002D042E1034083712382039103C203E044141420543084620474048104A104F0551405204562058245A405D805E2961A479027A88800482088410871089208BC037
:400A00008C848D838F0890829108940C9510980299109A089B05A108A42BA501A608AD40AE02B208B440B540B642B704C0F4C2F1C4B8CA40CCE0CE60D057D6FED80EDE0441
:400A4000E290E480E610E830EA40EE10024E03010C020E10103E1301140E162018041A111C081E112A4E300E32303301344036013E404052410149FF4AFF4BFF4DA04F0432
:400A80005018580459045A045C415D045F01604062C06440654066C068C06AC06CC06EC08107820E83108406861089018A198B028C05900F92209304960F970F9A0F9B0FE0
:400AC0009F18A502A603A701AD0FB220B41FB71FBA20BB80C016C105C512C7D0C823C9FFCAFFCBFFCDAFCE0FCF04D018D283D403D604D804D904DA04DB04DC11DD14DF0559
:400B0000E040E2C0E440E540E6C0E8C0EAC0ECC0EEC00042040A0510070108800AA40C320D081008170418C019801A241D1C1F102104240226802C022F1032023410350409
:400B4000368037013B013D023E104004420245404A024D404E084F0957025D985E0267806E106F0575027C027E4083018480850887408B028D028E01C0F9C27FC422CA506F
:400B8000CCF1CEA1D01CD238D6F0D880DE80E010E240E6C08201910193069501970299029B01A101A30AB304B503B601B708BB20C006C604C9FFCA07CBFFCC40CD20CEF012
:400BC000CF05D008D804D904DA04DC22DD03DF01E040E1A8E240E3200082011A064008400A20100111441204186019081A021B101F80208021412210231826142702290AD1
:400C00002AA02F80304232183614370239564044414044404501488049804B104F205220560457445901680269147020721379807A0282A483408501861088418A408B01ED
:400C40008E089004942095809613971099819E029F08A001A4A0A501A622A705AB20B220B702C01FC205C407CA8FCCEFCE0FD00DD22CD601E005E48A041F070F0A1F0B099E
:400C80000C0A0D0A0E14101E161F170F180A190F1A141B2020062218231C2406261827072D032F10321E34013520371F3B803E1040364105420249FF4AFF4BFF4F01501839
:400CC000580459045A045C115D015F016040624064406540668068806A806C806E8000140201044006080724080409210A110C100D080E080F4012921318144016201701A9
:400D0000181419891E2421012284270529082A122B012C502D403024312032813724380439803A013B103C403DA83E20410842044310450C471048084B454C044D404F406A
:400D4000500C52048503860488018C108E019140950397059D829E0C9F21A158A204A302A480A610A704A808AB01AC02B104B540C0E7C27FC43FCADFCC6FCE7FD066D23C90
:400D8000E208E840EC44EE0200C004400503068007FC086C0C020DCC0F231577162018B819BF1A401B4020F82185231A2A032CD42DCA2E202F15300132E0341C350F360200
:400DC00037F038203E404063410249FF4AFF4BFF4DA04F015018580459045A045C225D025F016040628064406540668068406A806C406D206E808404852C8A018D218E0CC6
:400E00008F02911895219914A202A902AD18B004B101B202B31CB408B520B601B702B92ABE01BF50C062C103C543C6C2C70EC81FC9FFCAFFCBFFCDAFCE07CF01D018D40FED
:400E4000D804D904DA04DB04DC22DD22DF05E040E280E440E540E680E840EA80EC40ED20EE80008003240440051106200E100F0810801405150216021A421B381C401D1045
:400E80001E12200421062208230A25502620270129802B082C402D803104322033013628388039083D803E0840244728486049244D2050C0510852105A485B125C205F2049
:400EC0006108621079088A808C808F109102920893809505960699A19A0E9B209CC09D10A104A280A304A420A552A608A710AB80AF10B112B240C0F7C260C4D8CA9CCC678A
:400F0000CE5AD066D224D60FD806DE02E288EC40EE800203041006400D020E200F011103180C1A711CDC1E22201022AC240926D028142F03301F34E0350237013A203F50C5
:400F40004023410549FF4AFF4BFF4DA04F015018540F580459045A045B045C035D225F016040628064406540668068406A806C406D206E808004830188018B03910494037C
:400F800099019C039E0CA30CB008B108B201B301B404B502B602B704B888BE14BF44C023C105C53CC620C74EC83BC9FFCAFFCBFFCDAFCE07CF01D018D280D40FD804D904D6
:400FC000DA04DB04DC22DD22DF05E040E280E440E540E680E840EA80EC40ED20EE800004010302020410051107040A060C040F311108128419021A041D491E08225025023B
:401000002660271029402E0231023301362037013B803C023E10410843104508471049804B804D804F05560A571058015AA05B045E8A5F106608670474017C108004820277
:401040008440850486018A048D049210938095059604980199109A049C44A104A281AB04B080B620C05DC2A3C40ECA88CCA1CEA8D066D218D6FFD860DE20E280E660E820F3
:40108000EA01EC4032803302358036083B208580CCF0CE10E210000106200C013120840186408B1094089720A120A688A920AF02B404C030C220CC10E040E210EA3004088E
:4010C0006240664087028C018E80900194089A40A688AA20C020D6C0E440E82019011F0286089F02A608C630E2107E018E01DE04E602020105040C808A018D0496029E0120
:40110000C006C201E004E2088480A080000105029D029F02A302B503C03007020B8057028B409F02A302A801C080C210D620E88009100D2054028520A002B402C203D60450
:40114000EC0210408840A910C408E201100E1A0E1C0C00FF010F00004500220008040008001C00004700101000000803060010203602411D02007400001000000003000026
:40118000731C0000000489080700083C80027401000000000000045034060100005EC0021FFFFFFF00AF0701180000000F0000000404040422240001400080004040800009
:4011C000400050A8402050A80000000000000000000000000000000005000A0000532F0403030C4405000A002F53000C00202F4510000008000010000F000000030A0C549F
:4012000000000000400000000F0010304040200F00080080000054101300000000EC20000BFFFFFF00830301180000000100000004040404313900014000400040408000C2
:40124000800080008000800000000000000000000000000000000000600C000302F0090003F000004001000E008000000000040C0010006001201A1000010006034000101D
:4012800000002008600000030C0F0300607010802000000A000011002106050004E0C0000AFFFFFF62A0F0410C000000000002130404040433330001000000000000400206
:4012C0000010301000101012000000000000000000000000000000000040000073E70C181FFF600002000063010000040C18000004080000081C00E25C102300031C00E101
:401300007F6000000024630010802C600F004C1F00022880000001003605020000EC000213FFFFFF008303011800000000000000040404003301000140004000404080006B
:401340008000800080008000000000000000000000000000000000001E0100000000000016001E0016011A01231C1C00000000008000408888008000000000000102020038
:4013800000000000C03F3F0004000000807F7F0000000000800018870700010000000000000000000000000000000000000000000000000000000000000000000000000046
:4013C00000000000000000000000000000000000000000000000000000000000000000000000000000000000000000000000000000000000000000000000000000000000ED
:4014000000000000000000000000000000000000000000000000000000000000000000000000000000000000000000000000000000000000000000000000000000000000AC
:40144000000000000000000000000000000000000000000000000000000000000000000000000000000000000000000000000000000000000000000000000000000000006C
:40148000000000000000000000000000000000000000000000000000000000000000000000000000000000000000000000000000000000000000000000000000000000002C
:0200000490006A
:0400000000004005B7
:0200000490105A
:04000000BC90ACAF55
:0200000490303A
:02000000639CFF
:0200000490402A
:4000000000000000000000000000000000000000000000000000000000000000000000000000000000000000000000000000000000000000000000000000000000000000C0
:400040000000000000000000000000000000000000000000000000000000000000000000000000000000000000000000000000000000000000000000000000000000000080
:400080000000000000000000000000000000000000000000000000000000000000000000000000000000000000000000000000000000000000000000000000000000000040
:4000C0000000000000000000000000000000000000000000000000000000000000000000000000000000000000000000000000000000000000000000000000000000000000
:0200000490501A
:0C00000000012E16106900012E3A740554
:00000001FF