:4000000000800020110000003D0C00003D0C000008B5044B1A6803F53F5302331A6000F02DFE00BFFA46004010B5054C237833B9044B13B10448AFF300800123237010BDBA
:400040009881FF1F0000000054490000084B10B51BB108490848AFF300800848036803B910BD074B002BFBD0BDE81040184700BF000000009C81FF1F54490000C880FF1F28
:400080000000000008B501F00DFC0122014B1A6008BD00BFB881FF1FF8B5164B5B68012B27D1144CA0680028B8BF4042E368002BB8BF5B42C01A01F0C7FEC4E904010E4D20
:4000C000D5E9002301F026FF06460F46A86801F0CDFE32463B4601F06BFD02F02DF9E86002F0FEFA80B201F0EDF8D4E90423C4E90623F8BDB881FF1FD080FF1F38B501F0E6
:40010000CBF901F0E1F9124B1880C0F57F43FF33104880FB03201844DB17C3EB601002F015FA0D4C206001F0A1FE0C4D02460B460B49284602F0A4FF284600F03FFF09498F
:40014000206802F0AFFA10B10122074B1A6238BD6882FF1F09CB3D8D7482FF1F5482FF1F5849000000002041B881FF1F10B50024074B5C60204600F0DBFD204600F0E4FD52
:40018000204600F0FDFF204601F006F810BD00BFB881FF1F10B50124074B5C60002000F0C7FD204600F0D0FD002000F0E9FF204600F0F2FF10BD00BFB881FF1F10B50124BA
:4001C000074B5C60204600F0B3FD002000F0BCFD204600F0D5FF002000F0DEFF10BD00BFB881FF1F10B50124074B5C60002000F09FFD204600F0A8FD204600F0C1FF002053
:4002000000F0CAFF10BD00BFB881FF1F10B50124074B5C60204600F08BFD002000F094FD002000F0ADFF204600F0B6FF10BD00BFB881FF1F00000000F8B505460E46464A25
:40024000464B1A60464F474C0FCC38607960BA60FB602068386123793B75384600F0AEFE1EE000F09DFD404CA06000F0C7FEE060012E02D1FFF78EFF01E0FFF79FFF3220AE
:4002800000F06EFD08E0012001F066FC0A2000F07DFD002001F060FC01F0D0FA0028F2D0314B9B68002BB8BF5B42AB420ADC2E4BDB68002BB8BF5B429D4203DB2A4B1B6A9E
:4002C000002BCED0FFF752FF00F06AFD044600F095FE204400EBD070401001F0B5FD1CA3D3E9002301F016FE1F4B5B6A3BB91E4CD4E90A2301F05CFCC4E90A0120E0012B01
:4003000007D1194CD4E90C2301F052FCC4E90C0116E0022B09D1144C02460B46D4E90A0101F044FCC4E90A010AE0032B08D10E4C02460B46D4E90C0101F038FCC4E90C0167
:40034000094A936B01339363F8BD00BFAFF30080269071E403F3723F000048427482FF1F5482FF1F6C490000B881FF1F0000000070B505460E461EE000F012FD3C4CA060D3
:4003800000F03CFEE060012E02D1FFF703FF01E0FFF714FF322000F0E3FC08E0012001F055FA0A2000F0F2FC002001F04FFA01F06BF90028F2D02E4B9B68002BB8BF5B4229
:4003C000AB420DDC2A4BDB68002BB8BF5B429D4206DB2849284B186802F05AF90028CBD1FFF7C4FE00F0DCFC044600F007FE204400EBD070401001F027FD1BA3D3E90023B3
:4004000001F088FD1A4B5B6A3BB9194CD4E90A2301F0CEFBC4E90A0120E0012B07D1144CD4E90C2301F0C4FBC4E90C0116E0022B09D10F4C02460B46D4E90A0101F0B6FB52
:40044000C4E90A010AE0032B08D1094C02460B46D4E90C0101F0AAFBC4E90C01044A936B0133936370BD00BF269071E403F3723FB881FF1F0000F0416C82FF1F0000000023
:4004800070B505460E460DE000F08AFC324CA06000F0B4FDE060012E02D1FFF77BFE01E0FFF78CFE2C4B9B68002BB8BF5B42AB420ADC294BDB68002BB8BF5B429D4203DBA5
:4004C00001F020FB0028DFD0FFF750FE00F068FC044600F093FD204400EBD070401001F0B3FC1BA3D3E9002301F014FD1A4B5B6A3BB9194CD4E90A2301F05AFBC4E90A012E
:4005000020E0012B07D1144CD4E90C2301F050FBC4E90C0116E0022B09D10F4C02460B46D4E90A0101F042FBC4E90A010AE0032B08D1094C02460B46D4E90C0101F036FB0B
:40054000C4E90C01044A936B0133936370BD00BF269071E403F3723FB881FF1F70B505460E460DE000F01CFC1C4CA06000F046FDE060012E02D1FFF749FE01E0FFF732FE7C
:40058000164B9B68002BB8BF5B42AB4206DC134BDB68002BB8BF5B429D42E3DAFFF7E6FD012E0BD10D4B5B6A032B03D100220B4B5A620DE00133094A536209E0074B5B6AED
:4005C0001BB90322054B5A6202E0013B034A5362024A936B0133936370BD00BFB881FF1FF8B5012001F082FA0024484B1C60204601F058FA204601F06DFA142000F0B0FB7B
:40060000012001F03DFA012000F0AAFB204601F037FA3E4B1B68002BFBD001F0B1F904463B4D02463B49284602F02AFD284600F0C5FC0025354B1D60284601F033FA012083
:4006400001F048FA142000F08BFB012001F018FA012000F085FB284601F012FA2B4B1B68002BFBD001F08CF90646294D02462A49284602F005FD284600F0A0FC0025234BAC
:400680001D60012001F00EFA012001F023FA142000F066FB012001F0F3F9012000F060FB284601F0EDF9194B1B68002BFBD001F067F90546164F02461849384602F0E0FC6D
:4006C000384600F07BFCAC4206DDB44204DD01200E4BD86301F028FAAC4207DAAE4205DA02220A4BDA63012001F012FAB44207DAAE4205DD0322054BDA63012001F020FAAC
:40070000024A936B01339363F8BD00BFB881FF1F5482FF1F84490000904900009C49000038B562B6874800F09BFE874801F09AF900F06EFE00F008FF00F098FF01F006F882
:4007400001F06EF8814800F027FF01F0F1F801F061F900F08FFD00F0FDFD00F057FB002000F026FB00F080FC002000F04FFC00F00BFC012001F0A2F9012001F087F9002028
:4007800001F0B4F9724CA06801F0AAFF80B200F029FDA06801F0A4FF80B200F093FD4FF4FA6000F0DDFA1DE06A4C6B4B03CB206061601A889B782281A372204600F0FEFB0D
:4007C000012147F6A760FFF737FD644D0FCD20606160A260E360286820612B792375204600F0ECFB5E4B9B6B002BDDD04FF4FA7000F0B6FA574C5B4D0FCD20606160A2608E
:40080000E36028682061204600F0D8FB002000F0CFFA002000F0FAFB514D0023AB60EB604FF47A7000F09CFAAA6B4F49204602F027FC204600F0C2FB4FF47A7000F090FAB1
:4008400004E0012140F6D540FFF788FE444B9B6B012BF6D04FF4FA7000F082FA002000F0A7FA002000F0D2FB3D4B00229A60DA6004E001214AF6DF00FFF77AFD384B9B6B84
:40088000022BF6D04FF4FA7000F06AFA002000F08FFA002000F0BAFB314B00229A60DA6004E0012140F67100FFF762FD2C4B9B6B032BF6D04FF4FA7000F052FA002000F0A8
:4008C00077FA002000F0A2FB254B00229A60DA6004E0002140F6D540FFF740FE204B9B6B042BF6D04FF4FA7000F03AFA002000F05FFA002000F08AFB194B00229A60DA60A1
:4009000004E0012141F65410FFF7BAFD144B9B6B052BF6D04FF4FA7000F022FA002000F047FA002000F072FB0D4B00229A60DA6001E0FFF755FE0A4B9B6B062BF9D000203A
:4009400038BD00BF9900000085000000FD000000D080FF1F5482FF1FA8490000B4490000B881FF1FD8490000CC490000FEE700BFF0B40022174611E050F82760F3B226F089
:40098000FF0608E001EB420511F812406D78A5550132013BDBB2002BF4D10137292FEBD9F0BC7047064B1B78DBB203F00701054A11701B09013213704422034B1A7070472F
:4009C000CF0100496E5800407658004008B50A46002101F0DCFE08BD38B517222C4B1A8018232C490B7002310A8002310B7002310A80294A137033210232118002321370BC
:400A0000EF2102321180023213700222234B1A7008224FF040231A70032103F5007319701F4B1B78DBB21F490B701F4B1A8041F25122023B1A80002419250CE01B4B1B786B
:400A400003F0010343EA440404F003044FF4F07001F08EF8013D0DB1032CEFD115B90320FFF784FF124B4FF480721A8007221A70002210490A704820023108701A7002220B
:400A8000033B1A700C4A137843F01F03137038BD80400040824000408A4000400043004008010049A146004022420040254200400440004006400040A243004008B501F090
:400AC0005BFE08BD38B572B6424A137843F00403137000240CE0404D630019194A0011462A44084691882858FFF770FF0134E4B2082CF0D900240CE03748A20011194B00F4
:400B00000344B3F84020D96B986BFFF7D7FF0134E4B2022CF0D931494FF09040FFF728FF2F4A304B1A60304B30490B6001F500710B6001F500610B6001F5C0610A602C4A90
:400B400013602C4A2C4B1A602C4A137843F0020313701032137843F002031370284C237843F040032370A2F58632513A137843F010031370082223492348FFF79FFF0A2250
:400B800022492348FFF79AFF082222492248FFF795FF082221492248FFF790FF0A2221492148FFF78BFF214A137843F0080313701F4D61232B70FFF70FFF81232B7001229D
:400BC0001C4B1A70FFF7EEFE0E2221461A48FFF775FF38BDE8460040EC490000A800004804040444D802014004040484D8040140D8160140C4C4040458180140035001401B
:400C0000A0430040A013004802510040A8130048C0510040B413004812510040BC13004822510040C413004830510040224300400048004004000840B043004008B501F0F9
:400C40006FFD03680C2B00D1FEE7FEE708B5094B1A681044084BC31AB3F5007F02DC054B186005E001F05CFD0C2303604FF0FF32104608BDE880FF1F9082FF1F08B5104ECA
:400C8000104D16E029686B68AC68002204E051F8040B43F8040B0432A242F8D1E868002203E0002143F8041B04328242F9D11035013E002EE6D101F039FDFFF731FDFEE7B1
:400CC00001000000C84B000008B5104A104B1A60104A136843F40073136000230AE0032B03D80D4A52F8231000E00C490C4A42F8231001332F2BF2D90A4B1A780A4B1A7001
:400D0000074A0A4B1A60FFF7DDFE08BD0004FA050CED00E014ED00E0000000003D0C00000080FF1FBC760040C080FF1F08ED00E0044A137803F0DF03400100F0200018435A
:400D40001070704710510040044A137803F0EF03000100F010001843107070471051004010B5044605E0084B186800F001FFA4F50044B4F5004FF6D8034B586800FB04F052
:400D800000F0F6FE10BD00BFEC80FF1F08B5034B1B7A00FB03F000F0EBFE08BDEC80FF1F08B500F05FF8A0F5004000B208BD00BF08B5002803DB80B280F4004002E0A0F554
:400DC000004080B200F048F808BD00BF024B187800F00F00704700BF68650040014B1870704700BF8865004008B50F20FFF7F6FFFFF7ECFF00F0C4FE034A137843F010036F
:400E0000137000F0C1FE08BD9865004008B500F07BF84FF4004000F01FF8044B1B7813B90122024B1A70FFF7DFFF08BD2082FF1F024A137843F080031370704774650040F3
:400E4000014B1870704700BF87650040014B1878704700BF67650040014B1880704700BF0C6A0040024B1B78024B188880B27047066500408C6A0040014B188880B2704722
:400E80008C6A0040014B1880704700BF4C6A0040014B1880704700BF6C6A004008B501E0FFF7EAFFFFF7D2FF10F0400FF8D108BD08B5134B1A7802F0F8021A701A7802F074
:400EC000FC021A70FFF7EAFF4FF40040FFF7DAFF4FF40040FFF7C0FF0020FFF7B1FFFFF7B5FF4FF40040FFF7D3FF00F049FE054A137843F01003137000F046FE08BD00BFB4
:400F0000746500409765004008B5054B1B7823B9FFF7CEFF0122024B1A70FFF789FF08BD2182FF1F7222094B1A70202203F201131A700622A3F269131A70472210331A70DF
:400F4000002203F5AD731A70704700BF8964004010B500F015FE04460A4A137843F02003137002F20112137843F0100313700132137843F01003137000F032F8204600F0EE
:400F800003FE10BD9964004008B5054B1B7823B9FFF7C8FF0122024B1A70FFF7D9FF08BD2282FF1F034B1B7813F0040FFAD1024B187070476B6500404B65004038B5074B11
:400FC0001B782BB938BDFFF7EDFF0134A4B201E005460024285D0028F5D138BD2282FF1F054A137843F0080313701032137843F008031370704700BFA243004008B500F02D
:401000005FF8A0F5004000B208BD00BF08B5002803DB80B280F4004002E0A0F5004080B200F048F808BD00BF024B187800F00F00704700BF60640040014B1870704700BF68
:401040008064004008B50F20FFF7F6FFFFF7ECFF00F096FD034A137843F01003137000F093FD08BD9064004008B500F07BF84FF4004000F01FF8044B1B7813B90122024B2F
:401080001A70FFF7DFFF08BD2482FF1F024A137843F080031370704771640040014B1870704700BF83640040014B1878704700BF63640040014B1880704700BF046800409D
:4010C000024B1B78024B188880B270470264004084680040014B188880B2704784680040014B1880704700BF44680040014B1880704700BF6468004008B501E0FFF7EAFF3E
:40110000FFF7D2FF10F0400FF8D108BD08B5134B1A7802F0F8021A701A7802F0FC021A70FFF7EAFF4FF40040FFF7DAFF4FF40040FFF7C0FF0020FFF7B1FFFFF7B5FF4FF4C0
:401140000040FFF7D3FF00F01BFD054A137843F01003137000F018FD08BD00BF716400409364004008B5054B1B7823B9FFF7CEFF0122024B1A70FFF789FF08BD2582FF1FA6
:40118000044A137803F0FD03400000F0020018431070704730510040044A137803F0FB03800000F0040018431070704730510040084A137843F0010313701032137843F0B6
:4011C0000103137002F64D32137843F001031370704700BFA3430040014B1880704700BF044F0040014B1880704700BF064F0040014B1870704700BF034F004008B51A4A37
:40120000137843F0020313700232137803F08F0343F010031370154B1A7802F0CF021A701A7842F030021A701A7802F0F0021A701A7842F00F021A7046F2A810FFF7CCFF8C
:4012400043F2D400FFF7CEFF0020FFF7D1FF084A137843F00103137002F65E32137843F00103137008BD00BF004F00400B4F0040A343004008B5054B1B7823B9FFF7BEFF56
:401280000122024B1A70FFF793FF08BD2682FF1F084A137843F0020313701032137843F00203137002F65932137843F001031370704700BFA3430040014B1880704700BF43
:4012C000104F0040014B1880704700BF124F0040014B1870704700BF0F4F004008B51A4A137843F0020313700232137803F08F0343F010031370154B1A7802F0CF021A70B9
:401300001A7842F030021A701A7802F0F0021A701A7842F00F021A7046F2A810FFF7CCFF43F2D400FFF7CEFF0020FFF7D1FF084A137843F00203137002F66A32137843F081
:401340000103137008BD00BF0C4F0040174F0040A343004008B5054B1B7823B9FFF7BEFF0122024B1A70FFF793FF08BD2782FF1F024A137843F080031370704779650040D9
:40138000014B1870704700BF89650040014B1878704700BF6965004008B50146014800F0F7FB08BD28650040024B186820F07F40704700BF4865004008B50146014800F058
:4013C000E7FB08BD0865004008B501E0FFF7ECFFFFF7DCFF10F0080FF8D108BD08B54EF65F20FFF7D9FF4EF65F20FFF7E5FF00F0C7FB064A137843F01003137000F0C4FBB4
:40140000FFF7E2FF0120FFF7BBFF08BD9965004008B5054B1B7823B9FFF7E0FF0122024B1A70FFF7A5FF08BD2882FF1F014B1B681864704708ED00E04001C0B2014B187031
:40144000704700BF00E400E00122014B1A60704700E100E00122014B1A60704780E100E010B50446FFF7F6FF2046FFF7DFFF0720FFF7E2FFFFF7E8FF10BD00BF024A13787E
:4014800043F080031370704776640040014B1870704700BF87640040014B1878704700BF67640040014B1880704700BF4C680040014B188880B270478C680040014B188015
:4014C000704700BF0C680040024B1B78024B188880B27047066400408C68004000F00300044B1A7802F0FC021A701A7810431870704700BF7664004008B501E0FFF7D8FF78
:40150000FFF7CAFF10F0080FF8D108BD08B54FF6FF70FFF7C7FF4FF6FF70FFF7CFFF00F02FFB084A137843F01003137000F02CFB0020FFF7D3FFFFF7DFFF0220FFF7A6FF52
:4015400008BD00BF9764004008B5054B1B7823B9FFF7DCFF0122024B1A70FFF78FFF08BD2982FF1F014B1B685864704708ED00E04001C0B2014B1870704700BF01E400E07A
:401580000222014B1A60704700E100E00222014B1A60704780E100E010B50446FFF7F6FF2046FFF7DFFF0720FFF7E2FFFFF7E8FF10BD00BF024A137843F080031370704785
:4015C00074640040014B1870704700BF85640040014B1878704700BF65640040014B1880704700BF48680040014B188880B2704788680040014B1880704700BF08680040AC
:4016000000F00300044B1A7802F0FC021A701A7810431870704700BF7464004008B501E0FFF7E2FFFFF7D4FF10F0080FF8D108BD08B54FF6FF70FFF7D1FF4FF6FF70FFF79D
:40164000D9FF00F09DFA084A137843F01003137000F09AFA0020FFF7D3FFFFF7DFFF0220FFF7B0FF08BD00BF9564004008B5054B1B7823B9FFF7DCFF0122024B1A70FFF764
:4016800099FF08BD2A82FF1F014B1878C009704701510040024A137843F080031370704775650040014B1870704700BF85650040014B1878704700BF65650040014B188080
:4016C000704700BF486A0040014B188880B27047886A0040014B1880704700BF086A004000F00300044B1A7802F0FC021A701A7810431870704700BF7565004008B501E086
:40170000FFF7E2FFFFF7D4FF10F0080FF8D108BD08B54FF6FF70FFF7D1FF4FF6FF70FFF7D9FF00F02DFA084A137843F01003137000F02AFA0020FFF7D3FFFFF7DFFF0220FC
:40174000FFF7B0FF08BD00BF9565004008B5054B1B7823B9FFF7DCFF0122024B1A70FFF799FF08BD2B82FF1F024A137843F08003137070477D640040014B1870704700BF6F
:401780008F640040014B1878704700BF6F640040014B1880704700BF5C680040014B188880B270479C680040014B1880704700BF1C68004000F00300044B1A7802F0FC0238
:4017C0001A701A7810431870704700BF7D64004008B501E0FFF7E2FFFFF7D4FF10F0080FF8D108BD08B54FF6FF70FFF7D1FF4FF6FF70FFF7D9FF00F0C3F9084A137843F003
:401800001003137000F0C0F90020FFF7D3FFFFF7DFFF0220FFF7B0FF08BD00BF9F64004008B5054B1B7823B9FFF7DCFF0122024B1A70FFF799FF08BD2C82FF1F024B1878DC
:40184000C0F3C000704700BFC1510040044A137803F0BF03800100F0400018431070704700510040024A137843F08003137070477B640040014B1880704700BF18680040CB
:40188000014B1880704700BF98680040014B1880704700BF58680040014B1870704700BF8C640040014B1878704700BF6C640040014B188880B27047B868004008B501E085
:4018C000FFF7F6FFFFF7EEFF10F0100FF8D108BD10B5154A137803F0C00343F009031370124C237843F0010323702232137843F0010313704CF24F30FFF7BCFF4CF24F30BF
:40190000FFF7BEFF46F2A710FFF7C0FF0120FFF7C3FF00F035F9237843F01003237000F033F9FFF7CBFF10BD7B6400409C64004008B5054B1B7823B9FFF7CAFF0122024B32
:401940001A70FFF78FFF08BD2D82FF1F024A137843F08003137070477C640040014B1870704700BF88640040014B1878704700BF68640040014B1860704700BF0864004026
:40198000014B1868704700BF48640040014B1860704700BF28640040014B1860704700BF3864004008B501E0FFF7EAFFFFF7DCFF10F0400FF8D108BD08B5144A137803F019
:4019C000F80343F001031370137803F0FC0343F008031370FFF7E6FF6FF00100FFF7D6FF0020FFF7C7FF0020FFF7B8FFFFF7BCFF8020FFF7D1FF00F0C3F8054A137843F076
:401A00001003137000F0C0F808BD00BF7C6400409864004008B5054B1B7823B9FFF7CCFF0122024B1A70FFF791FF08BD2E82FF1F014B1B685865704708ED00E04001C0B26D
:401A4000014B1870704700BF05E400E02022014B1A60704700E100E02022014B1A60704780E100E010B50446FFF7F6FF2046FFF7DFFF0720FFF7E2FFFFF7E8FF10BD00BF38
:401A8000014B1870704700BF7B650040044A137803F0EF03000100F0100018431070704720510040044A137803F0F703C00000F0080018431070704720510040044A137820
:401AC00003F0DF03400100F0200018431070704720510040044A137803F0FE0300F0010018431070704700BF20510040044A137803F0BF03800100F04000184310707047EC
:401B000020510040014B1878C009704731510040044A137803F0F703C00000F0080018431070704700510040044A137803F0FB03800000F0040018431070704700510040D4
:401B4000044A137803F0EF03000100F0100018431070704700510040044A137803F0FB03800000F00400184310707047C05100400230800803D000BF01380046FCD1704713
:401B8000EFF3108072B6704780F31088704700BFCBB20370C1F307234370C1F307418170704700BF81F0004102E000BF83F0004330B54FEA41044FEA430594EA050F08BF29
:401BC00090EA020F1FBF54EA000C55EA020C7FEA645C7FEA655C00F0E2804FEA5454D4EB5555B8BF6D420CDD2C4480EA020281EA030382EA000083EA010180EA020281EAE4
:401C00000303362D88BF30BD11F0004F4FEA01314FF4801C4CEA113102D0404261EB410113F0004F4FEA03334CEA133302D0524263EB430394EA050F00F0A780A4F1010499
:401C4000D5F1200E0DDB02FA0EFC22FA05F2801841F1000103FA0EF2801843FA05F359410EE0A5F120050EF1200E012A03FA0EFC28BF4CF0020C43FA05F3C01851EBE3716A
:401C800001F0004507D54FF0000EDCF1000C7EEB00006EEB0101B1F5801F1BD3B1F5001F0CD349085FEA30004FEA3C0C04F101044FEA445212F5800F80F09A80BCF1004F21
:401CC00008BF5FEA500C50F1000041EB045141EA050130BD5FEA4C0C404141EB010111F4801FA4F10104E9D191F0000F04BF01460020B1FA81F308BF2033A3F10B03B3F117
:401D000020020CDA0C3208DD02F1140CC2F10C0201FA0CF021FA02F10CE002F11402D8BFC2F1200C01FA02F120FA0CFCDCBF41EA0C019040E41AA2BF01EB0451294330BD88
:401D40006FEA04041F3C1CDA0C340EDC04F11404C4F1200220FA04F001FA02F340EA030021FA04F345EA030130BDC4F10C04C4F1200220FA02F001FA04F340EA0300294610
:401D800030BD21FA04F0294630BD94F0000F83F4801306BF81F480110134013D4EE77FEA645C18BF7FEA655C29D094EA050F08BF90EA020F05D054EA000C04BF194610461D
:401DC00030BD91EA030F1EBF0021002030BD5FEA545C05D14000494128BF41F0004130BD14F580043CBF01F5801130BD01F0004545F0FE4141F470014FF0000030BD7FEA9E
:401E0000645C1ABF194610467FEA655C1CBF0B46024650EA013406BF52EA033591EA030F41F4002130BD00BF90F0000F04BF0021704730B54FF4806404F132044FF00005DA
:401E40004FF0000150E700BF90F0000F04BF0021704730B54FF4806404F1320410F0004548BF40424FF000013EE700BF42004FEAE2014FEA31014FEA02701FBF12F07F43C3
:401E800093F07F4F81F06051704792F0000F14BF93F07F4F704730B54FF4607401F0004521F0004120E700BF50EA010208BF704730B54FF000050AE050EA010208BF7047B9
:401EC00030B511F0004502D5404261EB41014FF4806404F132045FEA915C3FF4DCAE4FF003025FEADC0C18BF03325FEADC0C18BF033202EBDC02C2F1200300FA03FC20FA19
:401F000002F001FA03FE40EA0E0021FA02F11444C1E600BF70B54FF0FF0C4CF4E06C1CEA11541DBF1CEA135594EA0C0F95EA0C0F00F0DEF82C4481EA030621EA4C5123EA6D
:401F40004C5350EA013518BF52EA033541F4801143F4801338D0A0FB02CE4FF00005E1FB02E506F00042E0FB03E54FF00006E1FB03569CF0000F18BF4EF0010EA4F1FF0431
:401F8000B6F5007F64F5407404D25FEA4E0E6D4146EB060642EAC62141EA55514FEAC52040EA5E504FEACE2EB4F1FD0C88BFBCF5E06F1ED8BEF1004F08BF5FEA500E50F1DD
:401FC000000041EB045170BD06F0004646EA010140EA020081EA0301B4EB5C04C2BFD4EB0C0541EA045170BD41F480114FF0000E013C00F3AB8014F1360FDEBF002001F0C7
:40200000004170BDC4F10004203C35DA0C341BDC04F11404C4F1200500FA05F320FA04F001FA05F240EA020001F0004221F0004110EBD37021FA04F642EB06015EEA430E2D
:4020400008BF20EAD37070BDC4F10C04C4F1200500FA04F320FA05F001FA04F240EA020001F0004110EBD37041F100015EEA430E08BF20EAD37070BDC4F1200500FA05F21B
:402080004EEA020E20FA04F301FA05F243EA020321FA04F001F0004121FA04F220EA020000EBD3705EEA430E08BF20EAD37070BD94F0000F0FD101F00046400041EB010125
:4020C00011F4801F08BF013CF7D041EA060195F0000F18BF704703F00046520043EB030313F4801F08BF013DF7D043EA0603704794EA0C0F0CEA135518BF95EA0C0F0CD0BB
:4021000050EA410618BF52EA4306D1D181EA030101F000414FF0000070BD50EA410606BF1046194652EA430619D094EA0C0F02D150EA013613D195EA0C0F05D152EA033604
:402140001CBF104619460AD181EA030101F0004141F0FE4141F470014FF0000070BD41F0FE4141F4780170BD70B54FF0FF0C4CF4E06C1CEA11541DBF1CEA135594EA0C0F3D
:4021800095EA0C0F00F0A7F8A4EB050481EA030E52EA03354FEA013100F088804FEA03334FF0805545EA131343EA12634FEA022245EA111545EA10654FEA00260EF000419D
:4021C0009D4208BF964244F1FD0404F5407402D25B084FEA3202B61A65EB03055B084FEA32024FF480104FF4002CB6EB020E75EB030E22BFB61A754640EA0C005B084FEA40
:402200003202B6EB020E75EB030E22BFB61A754640EA5C005B084FEA3202B6EB020E75EB030E22BFB61A754640EA9C005B084FEA3202B6EB020E75EB030E22BFB61A7546D4
:4022400040EADC0055EA060E18D04FEA051545EA16754FEA06164FEAC30343EA52734FEAC2025FEA1C1CC0D111F4801F0BD141EA00014FF000004FF0004CB6E711F4801F04
:4022800004BF01430020B4F1FD0C88BFBCF5E06F3FF6AFAEB5EB030C04BFB6EB020C5FEA500C50F1000041EB045170BD0EF0004E4EEA113114EB5C04C2BFD4EB0C0541EA1A
:4022C000045170BD41F480114FF0000E013C90E645EA060E8DE60CEA135594EA0C0F08BF95EA0C0F3FF43BAF94EA0C0F0AD150EA01347FF434AF95EA0C0F7FF425AF1046FB
:4023000019462CE795EA0C0F06D152EA03353FF4FDAE1046194622E750EA410618BF52EA43067FF4C5AE50EA41047FF40DAF52EA43057FF4EBAE12E74FEA4102B2F1E0436E
:4023400024BFB3F5001CDCF1FE5C0DD901F0004C4FEAC0024CEA5070B2F1004F40EB830008BF20F00100704711F0804F21D113F13872BCBF01F00040704741F480114FEA7A
:402380005252C2F11802C2F1200C10FA0CF320FA02F018BF40F001004FEAC1234FEAD32303FA0CFC40EA0C0023FA02F34FEA4303CCE77FEA625307D150EA01331EBF4FF065
:4023C000FE4040F44000704701F0004040F0FE4040F40000704700BF80F0004002E000BF81F0004142001FBF5FEA410392EA030F7FEA226C7FEA236C6AD04FEA1262D2EB5A
:402400001363C1BFD218414048404140B8BF5B42192B88BF704710F0004F40F4000020F07F4018BF404211F0004F41F4000121F07F4118BF494292EA030F3FD0A2F1010245
:4024400041FA03FC10EB0C00C3F1200301FA03F100F0004302D5494260EB4000B0F5000F13D3B0F1807F06D340084FEA310102F10102FE2A51D2B1F1004F40EBC25008BF39
:4024800020F0010040EA03007047490040EB000010F4000FA2F10102EDD1B0FA80FCACF1080CB2EB0C0200FA0CF0AABF00EBC25052421843BCBFD0401843704792F0000F51
:4024C00081F4000106BF80F400000132013BB5E74FEA41037FEA226C18BF7FEA236C21D092EA030F04D092F0000F08BF0846704790EA010F1CBF0020704712F07F4F04D14E
:40250000400028BF40F00040704712F100723CBF00F50000704700F0004343F0FE4040F4000070477FEA226216BF08467FEA23630146420206BF5FEA412390EA010F40F4E8
:40254000800070474FF0000304E000BF10F0004348BF40425FEA000C08BF704743F0964301464FF000001CE050EA010208BF70474FF000030AE000BF50EA010208BF7047B1
:4025800011F0004302D5404261EB41015FEA010C02BF84460146002043F0B64308BFA3F18053A3F50003BCFA8CF2083AA3EBC25310DB01FA02FC634400FA02FCC2F1200242
:4025C000BCF1004F20FA02F243EB020008BF20F00100704702F1200201FA02FCC2F1200250EA4C0021FA02F243EB020008BF20EADC7070474FF0FF3C06E000BF4FF0010C2B
:4026000002E000BF4FF0010C4DF804CD4FEA40024FEA41037FEA226C18BF7FEA236C11D001B052EA530C18BF90EA010F58BFB2EB030088BFC81738BF6FEAE17018BF40F0C6
:40264000010070477FEA226C02D15FEA402C05D17FEA236CE4D15FEA412CE1D05DF8040B704700BF844608466146FFE70FB5FFF7C9FF002848BF10F1000F0FBD4DF808EDF3
:40268000FFF7F4FF0CBF012000205DF808FB00BF4DF808EDFFF7EAFF34BF012000205DF808FB00BF4DF808EDFFF7E0FF94BF012000205DF808FB00BF4DF808EDFFF7D2FFEF
:4026C00094BF012000205DF808FB00BF4DF808EDFFF7C8FF34BF012000205DF808FB00BF42000ED2B2F1FE4F0BD34FF09E03B3EB126209D44FEA002343F0004323FA02F04D
:4027000070474FF00000704712F1610F01D1420202D14FF0FF3070474FF00000704700BF014B1868704700BF5C81FF1F0E4B70B51E460E4C0025E41AA410A54204D056F85D
:40274000253098470135F8E702F02CFA084B094C1E46E41AA4100025A54204D056F8253098470135F8E770BDB04B0000B04B0000B04B0000B84B000010B5431E0A4491425B
:4027800004D011F8014B03F8014FF8E710BD03460244934202D003F8011BFAE770472DE9F04788B0149F002B1E461299B8BF03F1004327F02007B6BF1E4600232D23462FF5
:4027C0001446109DDDF84CA00B7003D0452F03D1013501E0032300E0022307AA049206AA03928DE828042246334600F001FD472F804602D1119BDB0728D5462F08EB05092D
:4028000011D198F80030302B0AD1002200232046314602F02FF818B9C5F10105CAF80050DAF800309944002200232046314602F021F808B9302202E0CDF81C9006E0079BEC
:40284000994503D9591C07911A70F8E74046079B159AC8EB0303136008B0BDE8F087034673B50029B8BF494203F8022BB4BF2D222B22092942701ADD0DF1070216460A2511
:4028800091FBF5F405FB1411092C01F1300102F8011D2146F4DC3031541E02F8011CB4421A460AD214F8012B03F8012BF7E71A463024214402F8024B5970101A02B070BD4C
:4028C0002DE9F04F91B00C46DDF8688016461F46054601F025FA03681846099300F0F4FB00230E93D8F800300A90073323F0070303F1080294F81890D4F800B0C8F8002090
:40290000D3E90023C4E91223D4F84CA0D4F848802AF000430B934FF0FF32A74B40460B9901F0DAFFA0B94FF0FF32A34B40460B9901F0B4FF60B9002200234046514601F048
:40294000A3FF10B12D2384F843309C4B9C4A0AE0424653464046514601F0BEFF002800F09281984B984AB9F1470F8CBF90469846032323612BF0040323604FF0000A3DE06E
:40298000B9F1670F00F08A81B9F1470F00F0868123600193636800210DF13302059002920093424653460691CDF81090CDF80CE02846FFF7F4FE09F0DF03472B804600F0EC
:4029C0008481B9F1650F0D9900F28D8101394A4604F150000D91FFF742FF0E9A82468318012A236100F37C812268D10700F178819DF8333013B12D2384F843300097334629
:402A00000FAA2146284600F09FF9013002D14FF0FF3096E123685A0501D4236965E0B9F1650F40F2D580D4E912010022002301F021FF78B30123654A31462846B847013029
:402A4000E5D00E9B0D9A9A420BDB2368D80708D423689B0740F111814FF0000804F1190906E10A9B099A31462846B8470130CED04FF0000804F11A090E9B013B9845E7DA37
:402A800001234A4631462846B8470130BFD008F10108F1E70D9B002B29DC01234B4A31462846B8470130B2D00D9B23B90E9B13B92368D907CCD50A9B099A31462846B8478B
:402AC0000130A4D04FF0000904F11A0A0D9B5B42994509DA0123524631462846B847013095D009F10109F1E70E9B4246A7E00E9AA36D9A42A8BF1A46002A914606DC4FF083
:402B0000000A29EAE97904F11A0B11E01346314642462846B8470130F1D178E701235A4631462846B84701303FF471AF0AF1010AA36DC9EB03029245F0DB08EB03090D9AB1
:402B40000E9B9A420FDB2368DA070CD40E9B0D9A9844C9EB08089B1A9845A8BF9846B8F1000F08DC0FE00A9B099A31462846B8470130EBD14BE743464A4631462846B84700
:402B800001303FF444AF4FF0000928EAE87804F11A0A09E00123524631462846B84701303FF435AF09F101090D9A0E9B9B1AC8EB03039945EEDB4BE7FFFFEF7F444A000085
:402BC000484A00004C4A0000504A0000544A00000E9A012A01DCDB0738D50123424631462846B84701303FF412AF0A9B099A31462846B84701303FF40AAFD4E912010022E6
:402C0000002301F037FE20B14FF0000804F11A090EE00E9B08F10102013B19E001234A4631462846B84701303FF4F1AE08F101080E9B013B9845F1DB534604F150023146D1
:402C40002846B84701307FF403AFE0E64246012331462846B8470130EED1D8E601234A4631462846B84701303FF4D1AE08F10108E3680F9A9B1A9845F0DBE0680F9B9842F3
:402C8000B8BF18465DE062680EA8531C0DF1340E4BF480637FF474AE062201E012B90122626075E6002106910DF133018DE80C00236005904246CDF81090CDF80CE0029154
:402CC00053462846FFF76BFD80460D9BD81C02DB626893421DDDA9F102095FFA89F970E60133236184E6B9F1660F14D10029636807DD216113B92268D2071DD501330B449D
:402D000019E013B92268D00701D5023313E0012311E04FF067090D9B0E9A934205DB22682361D10708D5013305E0002BD4BFC3F102030123134423610D9B4FF0000AA3655B
:402D400056E611B0BDE8F08F2DE9F04791461F460A698B6806469342B8BF1346C9F8003091F843200C46DDF8208012B10133C9F800302368990642BFD9F800300233C9F8A4
:402D80000030256815F0060510D104F1190A07E00123524639463046C04701301AD00135E368D9F800209B1A9D42F1DB94F843302268003318BF012392060FD5E118302045
:402DC00081F843005A1C94F845102244023382F8431003E04FF0FF30BDE8F08704F1430239463046C0470130F4D02268D9F80050E36802F00602042A08BF5D1B2269A368CD
:402E00000CBF25EAE57500259342C4BF9B1AED184FF000091A344D4509D00123224639463046C0470130D5D009F10109F3E70020BDE8F0872DE9F04317460A7E85B06E2AB3
:402E4000984606460C460C9B01F1430E00F0AE8011D8632A22D009D8002A00F0BB80582A40F0CA8081F84520834955E0642A1ED0692A1CD0C0E0732A00F0B08009D86F2A83
:402E80002ED0702A40F0B8800A6842F020020A603EE0752A24D0782A3AD0ADE01A6801F14205111D1960136884F84230A8E021681A6811F0800F02D0111D196008E011F0A8
:402EC000400F02F10401196002D0B2F9003000E01368002B3CDA2D225B4284F8432037E021681A6811F0800F02D0111D196007E011F0400F02F10401196001D0138800E0DF
:402F00001368227E5C496F2A14BF0A2208221BE078225A4984F845202268186812F0800F00F104051D6003D1550601D5038800E00368D00744BF42F0200222601BB92268FB
:402F400022F0200222601022002084F8430001E049490A226568002DA56008DB206820F0040020602BB9002D7DD175460CE0002B79D07546B3FBF2F002FB1033CB5C05F8C4
:402F8000013D03460028F5D1082A0BD12368DA0708D5236962689A42DEBF302305F8013C05F1FF35C5EB0E0323612EE008681A6810F0800F496903D0101D1860136808E05E
:402FC00010F0400F02F104001860136801D0198000E0196000232361754616E01A68111D1960156800216268284600F0A5FE08B1401B6060636804E004F1420584F842204E
:4030000001232361002384F84330CDF800803B4603AA21463046FFF797FE013002D14FF0FF3026E023692A4639463046C0470130F5D023689B0710D5002504F1190907E060
:4030400001234A4639463046C0470130E7D00135E368039A9B1A9D42F2DBE068039B9842B8BF184605E00B7804F1420584F842308AE705B0BDE8F083564A0000674A000083
:403080000EB400B54FF402719CB0ADF814106FF00041049107914FF6FF711DAB02900690084853F8042BADF81610006802A9019301F038FA029B00221A701CB05DF804EBA4
:4030C00003B070475C81FF1F034613F8012B002AFBD1181A013870472DE9F74F03690C6980469C427FDC013C01F114074FEA840E00F1140606EB0E0357F82450019356F8D0
:4031000024300135B3FBF5F507EB0E09C5B34FF0000A3846B446D34650F8043B9AB205FB02A21B0C4FEA124A05FB03A392B2C2EB0B0BBCF800204FEA134A5A441FFA83FB93
:40314000DCF800308145CBEB134303EB224392B242EA03424FEA234B4CF8042BDCD256F80E306BB9019B043B9E421A4602D3C8F8104005E01268043B002AF8D1013CF3E751
:40318000404600F0F4FF00282BDB304601354FF0000E57F8042B036891B2C1EB0E0E120C99B27144C2EB134303EB214389B24FEA234EB94541EA034340F8043BE9D256F844
:4031C000242006EB840362B9043B9E421A4602D3C8F8104005E01268043B002AF8D1013CF3E7284600E0002003B0BDE8F08F00002DE9F04F456A95B08246219CCDE90223FE
:4032000045B9102000F090FDCAF82400456085600560C560DAF82430196859B15A68012393404A608B60504600F0C9FDDAF8243000221A60039BA04A002BBDBF0123236006
:40324000039B0023BCBF23F000430393DDF80C80A8BF236028F000431B0D1B0593421DD142F20F73209A1360029B43B9934A944BC8F31300002814BF1846104600E0904808
:40328000229B002B00F04685C37813B100F1080300E0C31C229A136000F03CBDDDE90245002200232046294601F0E4FA074658B1209A01231360229B002B00F01E858148B8
:4032C0001860013800F026BD12AB019313AB009322462B46504600F0C5FFC8F30A56049056B1C5F3130343F07F51204641F44011A6F2FF3611971DE0139B129E1E4406F2E8
:403300003243202B0ADD029A06F21240C3F1400322FA00F008FA03F3184304E0C3F12000029B03FA00F0FEF77FFD0123A1F1F871013E11930022644BFEF738FC58A3D3E944
:403340000023FEF7E7FD58A3D3E90023FEF730FC044630460D46FEF777FD55A3D3E90023FEF7D8FD02460B4620462946FEF720FC04460D4601F0C6FA0022834600232046F8
:40338000294601F081FA58B15846FEF75DFD02460B462046294601F06DFA08B90BF1FF3BBBF1160F0DD8DDE90223484901EBCB01D1E9000101F086FA30B10BF1FF3B00232F
:4033C00000E00123109300E01090129B9E1B731E079343BFC3F10008002307934FF00008BBF1000F06DB079BCDF82CB05B440793002705E00023CBEB0808CBF100070B93E5
:403400001E9B092B28D8052BC4BF043B1E931E9BC8BF0025A3F10203D8BF0125032B20D8DFE803F0060E0204012302E0012308E000230A931F9B002B1DDD9946059321E01E
:4034400000230A931F9B0BEB030909F10103012B0593B8BF012315E0012500231E930A9501E001230A934FF0FF390022CDF8149012231F9206E04FF001094B46CDF8149032
:40348000CDF87C90DAF8244000226260042101F114029A421CD86268490001326260F6E761436F63A787D23FB3C8608B288AC63FFB799F501344D33F0000F07F784A000070
:4034C000814A0000554A00000000F83F904A00006168504600F03EFCDAF8243020601B680693059B0E2B00F25B81002D00F05881DDE90234BBF1000FCDE90E3430DD9F4AC4
:403500000BF00F034FEA2B1502EBC303E80618CBCDE908340CD5DDE90E01994B05F00F05D3E90823FEF720FE0324CDE9020100E00224934E6DB1E90708D5DDE90801D6E9B2
:403540000023FEF7E7FCCDE9080101346D100836F0E7DDE90823DDE90201FEF705FE20E0CBF1000505B3DDE90E01844B05F00F0203EBC203D3E90023FEF7CCFCCDE90201ED
:403580007F4E2D110023022455B1EA0705D5D6E90023FEF7BFFC013401236D100836F3E71BB1CDE9020100E00224109BE3B1DDE902560022734B2846314601F065F998B121
:4035C000059B8BB1B9F1000F40F3E6800BF1FF330893314600226C4B2846FEF79BFC0134CDE902014E4602E0059ECDF820B02046FEF72AFCDDE90223FEF78CFC634B002235
:40360000FEF7D6FAA1F1507304460C931D46D6B9DDE9020100225E4BFEF7C8FA22460C9BCDE9020101F04EF9002840F03F820C99224601F10043DDE9020101F025F90028EF
:4036400040F02B82A8E00A9A4C4B711E002A49D003EBC103D3E9002300204E49FEF784FD22462B46FEF7A2FACDE90C01069CDDE9020101F047F90546FEF7E6FB02460B4697
:40368000DDE90201FEF792FADDE90C23303504F8015BCDE9020101F0F7F8002840F01D83DDE9022300203749FEF780FADDE90C2301F0EAF8002840F0D180069BE31AB3427F
:4036C0006ADADDE90C0100222F4BFEF723FC0022CDE90C01DDE902012B4BFEF71BFCCDE90201C4E703EBC1012246D1E900012B46FEF710FC069BCDE90C011D469C19DDE9E8
:40370000020101F0FFF80646FEF79EFB02460B46DDE90201FEF74AFA303605F8016BAC42CDE902014FF0000222D11A4BDDE90C01FEF73EFA02460B46DDE9020101F0C2F80D
:40374000002840F08B80DDE90C2300201149FEF72DFA02460B46DDE9020101F095F8D8B114F8013C621E302B40F0B7821446F7E7054BFEF7CFFBCDE90201C0E7904A0000E4
:40378000684B00000000F03F0000244000001C40000014400000E03FDDE90E34CDE90234139B002B7CDBBBF10E0F79DCAB4B03EBCB03D3E900671F9B002B14DA059B002B3F
:4037C00011DC40F06C810022A54B30463946FEF7A1FBDDE9022301F06BF8059D2E46002840F05F8165E1069CDDE9028932463B4640464946FEF7B8FC01F084F80546FEF7FD
:4038000023FB32463B46FEF785FB0B46024649464046FEF7CBF905F1300E069B04F801EBC3EB040E059B73452DD102460B46FEF7BFF98046894602460B463046394601F068
:4038400023F878B942464B463046394601F012F8002800F04482EB0704D440E2DDF820B000E01C4614F8012C631E392A07D1069A9A42F6D1069930220BF1010B0A701A7805
:4038800001321A702BE20022764BFEF743FB002200238046894600F0EDFF0028A6D01EE20A9A002A2BD01E9A012A0ADC119A12B103F2334302E0129BC3F136033D464446E0
:4038C00013E0059B5D1EAF42BFBF0B9BEA1B9B180B93059BB6BF2F467D1B0025002BA7BF4446059BC3EB08040023079A01211A4450469844079200F001FB064602E03D46A7
:4039000044460A9E5CB1079B002B08DDA342A8BF2346079AC3EB0808E41AD31A0793002F1DDD0A9BABB18DB131462A46504600F07FFB049A01460646504600F0E8FA049978
:403940000890504600F03BFA089B04937A1B06D000E03A460499504600F06AFB04900121504600F0CBFA0B9B05465BB31A460146504600F05DFB1E9B0546012B18DC029B21
:4039800083B9039BC3F3130373B9039B23F000473F0D3F054FB1079B08F1010801330793012702E0002700E0029F0B9B73B100E000272B6905EB8303186900F052FAC0F140
:4039C000200004E01E9B012BD9DD0B9F0120079B184410F01F0008D0C0F12003042B02DDC0F11C0002E006D018461C30079B8044034404440793B8F1000F05DD4246049909
:403A0000504600F063FB0490079B002B05DD29461A46504600F05AFB0546109B23B32946049800F0A4FB00281EDA00230A220499504600F0DBF90A9B0BF1FF3B0490002B4F
:403A400000F05F81314600230A22504600F0CEF9B9F1000F06463FDC3BE000BF904A00000000144000002440059B002B2BDC1E9B022B28DDDDF81490B9F1000F11D1294697
:403A80004B460522504600F0B1F901460546049800F06DFB00280CDC03E0354600E000252E461F9B069C6FEA030B09E03546DDF820B0069B069A5C1C312313700BF1010B4D
:403AC00005960026F7E00A9BDDF8149023B9069CB2E01E9B022BCFDC002C05DD31462246504600F0F3FA06469FB17168504600F031F90446326906F10C01023292000C30FF
:403B0000FEF73AFE01222146504600F0DFFA059000E00596029B069F03F00103079329460498FFF7D9FA3146044600F13008049800F01DFB059A02902946504600F033FBD6
:403B4000C36802463BB901460A90049800F00FFB0A9A034600E00123114650460A9300F02EF90A9B53B91E9A42B9079A32B9B8F1390F2AD0029B002B1CDC1DE0029A002A77
:403B800004DB1BD11E9ACAB9079ABAB9002B13DD01220499504600F099FA2946049000F0E6FA002803DC07D118F0010F04D0B8F1390F0AD004F131087C1C0CE0002B07F1B9
:403BC00001040BDDB8F1390F03D139233B70013756E008F1010887F800806CE0069B2746E31A4B4504F8018C3BD000230A220499504600F0FBF8059B04909E424FF00A025E
:403C00004FF000033146504604D100F0EFF80646059084E700F0EAF8002306460A220599504600F0E3F8059079E700230A220499504600F0DBF8049029460498FFF74CFABC
:403C4000069B00F1300804F8018BE31A4B45ECDB069B0596B9F1010FACBF4B4401331F46002601220499504600F030FA2946049000F07DFA002803DC15D118F0010F12D02E
:403C80003C4614F8013C621E392B09D1069B934204D10BF1010B3123069A02E01446F0E70133137007E03C4614F8013C621E302B01D11446F8E72946504600F080F8059BC5
:403CC0006BB12EB19E4203D03146504600F077F80599504600F073F801E0DDF820B00499504600F06CF80023209A23700BF101031360229B1BB11C6001E008480AE006986D
:403D000008E0B9F1000F3FF7E2AE1E9B022B7FF7DEAEB1E615B0BDE8F08F00BF544A0000004870476081FF1F024B0146186800F041BB00BF5C81FF1F10B5C9B20244904247
:403D4000034605D01C7801308C42F8D1184610BD002010BD70B5456A04460E463DB91020FFF7E2FF6062456085600560C560656AEB6843B1636ADB6853F8260078B1026842
:403D800043F8262017E021220421204600F0B8FA636AE860DB68002BECD1002070BD012101FA06F56A1D9200204600F0A9FA0028F3D04660856000230361C36070BD70B5F2
:403DC000446A06460D463CB91020FFF7ADFF7062446084600460C4603DB1736A6A68DB6853F82210296043F8225070BD2DE9F04106460C460D691F4601F1140E0023DEF840
:403E00000000013381B202FB0171000C0F0C02FB007089B201EB00419D424FEA10474EF8041BECDCD7B1A3689D4212DB616830460131FFF78FFF8046226904F10C01023239
:403E400092000C30FEF798FC21463046FFF7B7FF444604EB850301355F6125612046BDE8F081030C1B0413B90004102300E0002310F07F4F04BF0002083310F0704F04BFE5
:403E80000001043310F0404F04BF80000233002803DB420003D5581C70471846704720207047036813F007020BD0D90722D49A074BBF5B089B08036003604CBF012002207F
:403EC000704799B209B91B0C102213F0FF0F04BF1B0A0832190704BF1B090432990704BF9B080232D90702D45B0805D00132036010467047002070472020704710B50C4685
:403F00000121FFF727FF01224461026110BD2DE9F74F14460A69236988469A42BEBF0B46A0461C46D8F81070D4F81090D8F80830D8F8041007EB09069E42C8BF0131FFF79E
:403F400009FF00F114052B4605EB860C0022634502D243F8042BFAE704F1140208F1140102EB890301EB87070093009B0192934257D9B2F800B0BBF1000F23D08946AE46B6
:403F80004FF0000859F8044BBEF800A0A3B20BFB03A34FEA144ADEF8004043444FEA14480BFB0A84F24604EB13449BB243EA04434F454FEA14484AF8043B01D9D646E1E7BF
:403FC000CEF80480019B0432B3F802A0BAF1000F21D02C4689462B684FF00008B9F800E0B4F802B09BB20AFB0EBEA346F04443EA08434BF8043B59F8043BB4F804E01B0C27
:404000000AFB03E34F4503EB18434FEA134801D95C46E3E763600435A7E75CF8043D13B9013E002EF9DC066103B0BDE8F08F00002DE9F843154612F0030206460F4607D048
:40404000214C013A002354F82220FFF7CFFE0746AD1036D0746A3CB91020FFF765FE7062446084600460C460D6F82480D8F808404CB940F271213046FFF740FF044600236B
:40408000C8F8080003604FF00008EB070AD5394622463046FFF73BFF814639463046FFF78EFE4F466D100CD0206808B10446ECE7224621463046FFF72AFF2060C0F800808A
:4040C000F4E73846BDE8F883584B00002DE9F0470C460746914626694FEA621A56444968A368751CAB4202DA01315B00FAE73846FFF730FE002380461A4600F114015345F6
:4041000003DA41F823200133F9E72AEAEA73206901EB830319F01F0904F1140101EB800E14D0C9F1200C002208689A4600FA09F0024343F8042B51F8042B8E4522FA0CF2AE
:40414000F2D8CAF8042042B1B51C06E0043B51F8042B8E4543F8042FF9D8013D3846C8F810502146FFF72BFE4046BDE8F08703690A6910B59B1A11D1920014301431831827
:404180000A4453F8044D52F8041D8C4202D007D3012010BD9842F4D3002010BD184610BD4FF0FF3010BD2DE9F8430C460746114620461546FFF7DBFF061E08D13146384684
:4041C000FFF7C8FD012303614661BDE8F883BCBF23462C4638466168BABF1D4601260026FFF7B8FD2B69C660266905F1140904F1140101EB860709EB830800F114054FF09D
:40420000000C51F8042B59F8044B93B29C44A3B2240CC3EB0C03C4EB124202EB23429BB24FEA224CC84543EA02428E4645F8042BE7D8BE450ED25EF8041B8AB262441314CC
:4042400003EB114392B242EA03424FEA234C45F8042BEEE755F8043D0BB9013EFAE70661BDE8F8832DE9F3411C4601219046089E099DFFF76FFDC4F31302C4F30A540746E5
:404280000CB142F480120192B8F1000F19D002A840F8088DFFF705FE009B48B1019AC0F1200102FA01F10B43C2407B61019200E07B61019B002B14BF02210121BB613961D6
:4042C00007E001A8FFF7EDFD019B01217B613961203034B1A4F2334404443460C0F1350009E0A0F2324007EB810330601869FFF7B8FDC0EB41102860384602B0BDE8F0812D
:4043000038B502FB01F4214600F054F8054618B122460021FEF73BFA284638BD38B50546002944D051F8043C0C1F002BB8BFE41800F017FA1E4A1368114613B963601460CC
:4043400030E0A3420DD92268A018834201BF18685B681218226063600C6023E0A24203D813465A68002AF9D118681918A1420BD12168014458188242196013D110685268AB
:40438000014419605A600DE002D90C232B6009E021686018824201BF106852680918216062605C602846BDE8384000F0DBB938BD3482FF1F70B5CD1C25F0030508350C2DCA
:4043C00038BF0C25002D064601DBA94202D90C23336046E000F0C5F9234B1C681A462146A1B10B685B1B0ED40B2B03D90B60CC18CD501EE08C420BBF63684B681360636046
:4044000018BF0C4615E00C464968E9E7174C23681BB9304600F07AF920602946304600F075F9431C18D0C41C24F00304A0420DD12560304600F096F904F10B00231D20F061
:404440000700C31A0ED05A42E25070BD211A304600F05CF90130EBD10C233360304600F081F9002070BD00BF3482FF1F3082FF1F2DE9F0478E6882469E420C469146984658
:404480003ED88A8912F4906F3AD02568096902236F1A656905EB450595FBF3F57B1C43449D4238BF1D4653050FD52946FFF782FF064698B13A462169FEF75EF9A38923F4F0
:4044C000906343F08003A38113E02A4600F04BF9064670B921695046FFF720FF0C23CAF80030A3894FF0FF3043F04003A381BDE8F08726613E44266046466561ED1BA5604F
:40450000464528BF464649463246206800F00EF9A36800209B1BA36023681E442660BDE8F08700002DE9F04F9DB003938B8980461C060D4616460DD50B695BB94021FFF7E0
:4045400039FF2860286118B90C23C8F80030CDE040236B610023099320238DF82930DFF89CB130238DF82A3037463C4614F8013B1BB9B7EB060910D003E0252BF9D02746DB
:40458000F3E74B46324629464046FFF771FF013000F0A780099B4B4409933B78002B00F0A08000234FF0FF3204930793059206938DF853301A930126052221784E48FFF79C
:4045C000BBFB671C049B38B14B4A3C46801A06FA00F018430490EFE7D90644BF20228DF853201A0744BF2B228DF8532022782A2A03D0079A00210A200BE0039A111D126832
:404600000391002A10DA524243F00200079204900BE027463B780134303B092B03D800FB02320121F5E701B107923B782E2B1ED17B782A2B0AD1039B02371A1D1B68039266
:40464000002BB8BF4FF0FF33059310E0002319460593781C0A2407463A780130303A092A03D804FB01210123F5E703B10591032239782248FFF760FB40B14023CBEB000015
:4046800003FA00F0049B013718430490397806221B487E1C8DF82810FFF74EFB88B1194B33B9039B073323F007030833039314E003AB00932A46144B04A94046FEF700F901
:4046C00007E003AB00932A460F4B04A94046FEF7B1FBB0F1FF3F824603D0099B5344099342E7AB895B0601D4099801E04FF0FF301DB0BDE8F08F00BF904B0000964B0000B4
:404700009A4B0000C12800007144000038B5064C0023054608462360FCF798FA431C02D1236803B12B6038BD8C82FF1F884210B501EB020301D8421E0BE09842FBD28118F2
:40474000D21AD34204D013F8014D01F8014DF8E710BD994204D011F8014B02F8014FF8E710BD70477047F8B5074615460E4621B91146BDE8F840FFF71DBE1AB9FFF7CEFD94
:404780002846F8BD00F015F885420ED929463846FFF710FE044650B131462A46FDF7ECFF31463846FFF7BAFD01E03046F8BD2046F8BD51F8040C0028BEBF091851F8043CB8
:4047C000C0180438704700004FF0FF3C06E000BF4FF0010C02E000BF4FF0010C4DF804CD4FEA410C7FEA6C5C4FEA430C18BF7FEA6C5C1BD001B050EA410C0CBF52EA430CC0
:4048000091EA030F02BF90EA020F0020704710F1000F91EA030F58BF994208BF90422CBFD8176FEAE37040F0010070474FEA410C7FEA6C5C02D150EA013C07D14FEA430CD1
:404840007FEA6C5CD6D152EA033CD3D05DF8040B704700BF8446104662468C461946634600E000BF01B5FFF7B7FF002848BF10F1000F01BD4DF808EDFFF7F4FF0CBF0120B9
:4048800000205DF808FB00BF4DF808EDFFF7EAFF34BF012000205DF808FB00BF4DF808EDFFF7E0FF94BF012000205DF808FB00BF4DF808EDFFF7CEFF94BF012000205DF8BD
:4048C00008FB00BF4DF808EDFFF7C4FF34BF012000205DF808FB00BF4FEA410C7FEA6C5C02D150EA013C0AD14FEA430C7FEA6C5C02D152EA033C02D14FF0000070474FF0CD
:40490000010070474FEA410212F5001215D211D56FF47873B3EB625212D94FEAC12343F0004343EA505311F0004F23FA02F018BF404270474FF00000704750EA013005D1C9
:4049400011F0004008BF6FF0004070474FF00000704700BF0000000046726F6E74206469737420313A20256C660A000052756E6E696E6720465F6F725F525F312E2E2E0A3F
:40498000000000007265643A2025640A00000000626C75653A2025640A000000677265656E3A2025640A0000496E205374657020300A0000465F6F725F525F3120436F6D69
:4049C000706C657465642E0A00000000537465703A2025690A0000004F7574206F66207768696C65206C6F6F702E0A00004F00401800405100403000F05100401000800042
:404A00000140800F00140140800000150140000700400140000A004C0140000200500140200000006052004098120048060000000140A012004880008014014020130048B4
:404A400080004300494E4600696E66004E414E006E616E00300030313233343536373839414243444546003031323334353637383961626364656600496E66696E697479C1
:404A8000004E614E00504F534958002E00000000000000000000F03F000000000000244000000000000059400000000000408F40000000000088C34000000000006AF840D0
:404AC0000000000080842E4100000000D01263410000000084D797410000000065CDCD41000000205FA00242000000E876483742000000A2941A6D42000040E59C30A242F4
:404B00000000901EC4BCD64200003426F56B0C430080E03779C3414300A0D8855734764300C84E676DC1AB43003D9160E458E143408CB5781DAF154450EFE2D6E41A4B44C5
:404B400092D54D06CFF08044F64AE1C7022DB544B49DD9794378EA4405000000190000007D000000000000000080E03779C34143176E05B5B5B89346F5F93FE9034F384DF8
:404B8000321D30F94877825A3CBF737FDD4F1575232D302B2000686C4C0065666745464700000000F8B500BFF8BC08BC9E4670474D000000C90C0000F8B500BFF8BC08BCCB
:404BC0009E46704729000000D84B0000C880FF1FD0000000F80000000000000000000000000000000000494000B0B34600B0B34600000000000014409082FF1F0000E02E33
:404C0000C05D00001800000000366E010000000000000000000000000000000000000000000000000000000000000000424A0000000000000000000000000000000000000E
:404C40000000000000000000000000000000000000000000000000000000000000000000000000000000000000000000FC80FF1F8B4A0000954B0000954B0000954B000025
:404C8000954B0000954B0000954B0000954B0000954B0000954B0000FFFFFFFFFFFFFFFFFFFFFFFFFFFF0000000000000000000000000000000000000000000000000000C2
:404CC00000000000000000000000000000000000000000000000000000000000000000000000000000000000000000000000000000000000000000000000000000000000B4
:404D00000000000000000000000000000000000000000000000000000000000000000000000000000000000000000000000000000000000000000000000000000000000073
:404D40000000000000000000000000000000000000000000000000000000000000000000000000000000000000000000000000000000000000000000000000000000000033
:404D800000000000000000000000000000000000000000000000000000000000000000000000000000000000000000000000000000000000000000000000000000000000F3
:020000040003F7
:0200000480007A
:40000000034F004003520040086400400665004031000140410101406D0201405A03014069040140510501406B0601404D0701406F0801405D0901407D0A01404B0B0140B5
:40004000670C0140550D0140680E01403C0F0140271401405015014067160140521701406E180140651901406D1A0140551B0140094001400C410140134201401343014018
:40008000024401400645014002460140034701400848014010490140084C0140094D01400C5001400251014001200A4B1627080418011901800F836F850F870F88778972FA
:4000C0008C0D8F0F850F876F880F890D8A388B0F8060820F861089BF8B408C7C8D838E028F1C91CC93139437982899CA9A419B25A46BA505A614A7FAA85CA977AA21B27098
:40010000B3F0B50FB60FC003C604C9FFCA07CBFFCC40CD20CEF0CF05D008D280D804D904DA04DB04DC22DD23DF01E040E1A8E240E3200040011002400310054406400A107D
:400140000B800D100E10104111201220171419081A181B441D441E20204021082404251026082714284129482B402E102F10320834013710382439303A403B603D203F400C
:40018000400241044302462048044A02508053045501578059095A805B2077408080C0BFC26CC46FCA6BCCA2CE3ED04BD20CD60FE004E2080201040409010B020C010D013B
:4001C0000F061101130A160319021B011E0C30023208330334013504360437083B083E504026410549FF4AFF4BFF4DA04F015018580459045A045C225D025F0160406280E5
:4002000064406540668068406A806C406D206E8082048A188D088E0F920F9305940795059610984099089B029E20A001A104A202A301A640A802AA01AC0FB040B108B21F96
:40024000B304B420B502B701B902BA08BE01BF44C026C105C542C6C3C70EC81FC9FFCAFFCBFFCDAFCE07CF01D018D40FD804D904DA04DB04DC21DD22DF05E040E280E4400A
:40028000E540E680E840EA80EC40ED20EE80000202010308044005040740080109040A010B040E200F0110081222130219111B081C401D441E042241232424202550271041
:4002C0002B4030103104322137113B803DA03E0C4204460849A04A204B014DA04E044F8051085210534058145941610862107B04840486018A408D109208930894209508B6
:400300009680978098049B409C029E609F20A101A210A3C4A404A620A702AF40B004B404B509B602C0BBC2AFC40FCA01CCA7CE38D024D23CD60FD806DE04E208E602E808AF
:40034000EA01021E040606180740080A0A140C1E0D0A0E01100A1214132F1709181E19031B101F1C20062218232F27402B072D2F2E1E3001321E33203540371F3B803F1489
:4003800040414102420649FF4AFF4BFF4F0150185283580459045A045B045C115D115F016040624064406540668068806A806C806E808008821187018E4E90029210940EA6
:4003C000962098049A119C3EA24EB00EB230B440B601B701BE40C041C106C202C5ECC602C807C9FFCAFFCBFFCD83CE03CF01D018D403D604D804D904DA04DB04DC21DD111B
:40040000DF05E040E240E440E540E680E880EA80EC80EE800008018202020308058007400A480D020E280F02100113021680181019021D021E281F402250233227012986CC
:400440002A012B08300931023240332039403B083E0441824360458247204BD04D044E044F0155805C105D045F416501680D69406A4072807D087F208101840286408B80EE
:400480008D01930895089C039E219F03A101A388A409A504A602A702C09FC2FAC419CA0FCC0FCE4AD0BDD224D6F0D880DE40E208E602EC01EE0401020304060F0803090497
:4004C0000A100B020C0F100A111F160F171F1E1C1F302207250E260927202B1F2F083301361F373E3A803B803F0440344106420249FF4AFF4BFF4F01501852835804590463
:400500005A045B045C115D115F016040624064406540668068806A806C806E808003820C8640880F8C0F8E109005920A960F9A0F9B019E40A220A803AA0CAB01AC05AE0ACE
:40054000B060B210B301B40FB701BE01BF40C035C106C202C5ECC720C823C9FFCAFFCBFFCD83CE03CF01D018D403D604D804D904DA04DB04DC91DD11DF05E040E240E440B9
:40058000E540E680E880EA80EC80EE80000602080301050806080701084009080A400B080D080E4110081182170619181B0A1C021E01224425402640271228082E482F0C0D
:4005C0003220364137093C023E1041084310450A471849054A0A4E084F2051035202595563406C086E506F0476807B1082288310860488808A049220950896049A409E20B8
:40060000A702AD80B204B321B504C0EFC2BFC43BCA74CCD4CEA0D0E6D22CD60FD801DE02E001E284E88000120220041805C10622071608010B080F1C119C1206130314286C
:4006400015C1170E18201A181C381E04260128202B432D20303E310F331A35C03601372039203B0A3E403F5040214105420649FF4AFF4BFF4DA04F015018541758045904B9
:400680005A045B045C335D445F056040628064406540668068406A506BA86C406D206E506FA88502906A9205945F98059A0A9C379F03A06CA203A803AA0CB301B40FB502B4
:4006C000B670B880BF10C021C105C206C9FFCAFFCBFFCDAFCE07CF01D018D602D712D804D904DA04DB04DC42DD34DF01E040E280E440E540E680E840EA50EBA8EC40ED2055
:40070000EE50EFA806800724080809100A810E420F2810841510170819101A011E401F8021042220240626092720280829102E602F083280360939083A033D983E803F0861
:4007400041A045A049204A064B204D204E0259045A025B015C205E045F4066186702680869447034710872027E0180048B088C019010911092049314948095219609970802
:40078000982599049A5C9B109DB09E019F01A080A121A280A349A434A588A652B020B202B404C070C2FFC46ACA30CCC8CE72D03CD23CD672D870DE10E001E480EA1004F9C8
:4007C0000606070708A609840A490B100C200DC10F1210A712501406150117F219C01A201B241F0821772219240228FF29B72B402C04303E3280330F344035F03607382025
:400800003A023E0440214105420649FF4AFF4BFF4DAF4E074F015018580459045A045C235D045F016040628064406540668068406A506BA86C406D206E506FA884CF8630D3
:4008400088FD8A028B108C9E8D018E608F0E93079494966098309AC99C739D05A502A60FA70CB104B310B508B6FFB703BB02BD82BE40BF10C021C105C206C550C6C0C72E7A
:40088000C83EC9FFCAFFCBFFCDAFCE07CF01D018D280D804D904DA04DB04DC40DD44DF01E040E280E440E540E680E840EA50EBA8EC40ED20EE50EFA800280180048405106F
:4008C000080109080A480C440D100E211020112112051508180819041A421F802004210422102310240225402758284029102C1030043210338035013740388039283C1052
:400900003D8041A045A049204A024D204E8256DA75017C808404850489108C848F0890109204930494029602970898909E809F09A131A341A640AA0AB020C0E7C2EEC42F5D
:40094000CA45CC9ECE3ED03CD23CDE10E09007060C010D010E0213021402160118011A0A1C011E062A102F09300431043203330234103501360837083A083F1040544103DD
:4009800049FF4AFF4BFF4DA04F045018528054055604580459045A045B045C425D445F05604062C06440654066C068C06AC06CC06EC081028502860F8A188C028E01920445
:4009C000960F98079A109B039E20A00FA801AA02AE20AF02B020B101B21FB502BA08BE01BF10C054C102C5D1C620C80BC9FFCAFFCBFFCDAFCE0FCF04D018D283D804D9042D
:400A0000DA04DB04DC41DD14DF01E040E2C0E440E540E6C0E8C0EAC0ECC0EEC00080031804400AAA0D800E181111120116081B091C601D801E1821212410254127042A4031
:400A40002E803020360239023B083D803F844110430144904610470149024A024B044C014E02511052105A045B045D025E805F08660269106A80710176407C808501860198
:400A800088108C208E109208951196809A019B109C209D01A040A110A708A804A940AE40B201B510C087C2EFC44BCA18CC84CE53D0C5D218D6D0D880DE10E040E208E680EE
:400AC000EA04EC10EE80010F040F0506071008050A0A0B030C030E0C0F191005120A1A1F1B0F1D05201F2403260C270F2A1F2B0E311F320F361039803B023E403F404023A6
:400B00004106420549FF4AFF4BFF4F015018580459045A045C115D015F016040624064406540668068806A806C806E8082068327851F89048A018B088D078F10932794042F
:400B40009502970899019B08A601B001B202B307B520B604B718BE41C023C106C205C5ECC620C80BC9FFCAFFCBFFCD83CE03CF01D018D403D604D804D904DA04DB04DC12BB
:400B8000DD11DF05E040E240E440E540E680E880EA80EC80EE80008403080640070408200A800E10110112181620181019801E5120C0214025402608271428202B08324078
:400BC000331035013714384439113A103C043D813E20422043104620471049A04B204DA84E044F0156205C105D085E405F0167807C047F1082018740C057C22AC42ECA061E
:400C0000CCECCEFFD066D23CD6F0D880DE40001F1407161018011A081C021E282004222826072E073020321834073E0140214106420549FF4AFF4BFF4F015018528058041C
:400C40005A045B045C015D215F016040624064406540668068806A806C806E80010105080660070509400A140E2510A217021A5C1E211F0424102540260127402C202D08F9
:400C80002E012F0637063D013E8441804204464047404A094E044F855480558057405C105E405F0565026F0F7340740276807E08810182108508884089018A688C048D02CA
:400CC00092209404960597409B029C409E209F01A501A638A708AD0CB504B680C0F8C2E7C41DCAF0CCC0CED0D09CD23CD6F0D880DE20E240E484E601EA08EE08020F030756
:400D0000070F083E090F0C0E0E200F1C110A140215031610171018041A501B0F1E0F200822502B093030320E34013640371F3B803E404053410449FF4AFF4BFF4DA04F01C1
:400D40005018580459045A045C115D025F016040628064406540668068406A806C406D206E808603880191089201940495019D03A103A30CA60CB001B104B208B308B402BC
:400D8000B501B604B702B9A0BE41BF14C052C104C534C6C2C70EC81FC9FFCAFFCBFFCDAFCE07CF01D018D40FD804D904DA04DB04DC22DD22DF05E040E280E440E540E680FC
:400DC000E840EA80EC40ED20EE800128044006880A100B400D080E0A10201502188019A41A101C401D481E082110228523082540270229012F083084320136183701388069
:400E000039403B803D803E2540804110448046404708482049014B804D405080521459825A085B1062147804808883109102922094049508980499029AC89C489D40A201C8
:400E4000A480A509A620A902AC04AF40B301B640C0D6C2ECC414CA21CCEBCEF0D0C5D218D60FD806DE02E604EA08EC30EE040003020804100602080109020A100B010C0FE0
:400E800010081604170419031A202020230330203101320C330234103504360338803C023E503F05405149FF4AFF4BFF4F015018540F580459045A045B045C245D295F0153
:400EC0006040624064406540668068806A806C806E8081108518860189088D788E408F079025911892129367941E9621980299429A3C9C3B9D21A027A167A208A318A57F89
:400F0000A806A963AA08AF67B03CB103B240B31CB407B578BB28C054C9FFCAFFCBFFCD83CE03CF01D018D280D401D804D904DA04DB04DC32DD99DF01E040E240E440E5402F
:400F4000E680E880EA80EC80EE8000800320041006400711080809300A810B020D080F8410841440188019081A801B201D881E801F14202822012440272428802A042B0AB0
:400F80002F8030013290340235A03680370938283A023B803F1041014440450146014B404C0159055B405C405D025E085F207001724073407C028001845087408808890259
:400FC0008E048F0190389144920193149480952196889728980D9A669B589D809F05A088A101A209A341A414A5D4A650A710AB80AE01B220B340B606B741C0F5C27FC41A9A
:40100000CA8FCC6DCE2FD011D218D6FBDE80E202E810EC100024021108010A060C120D010E610F021501170A19021B011D011F06243F2710283F2C08300831043207331084
:4010400034403503363037083B20404545EC4720482349FF4AFF4BFF4D834E034F0150185418580459045A045B045C235D395F016040624064406540668068806A806C8002
:401080006E8084018503860A874489208B45910A93549402955396019704980199539A069B0C9C019E029F08A580B140B203B30FB408B580B604B730B980BA08BB08BF11D2
:4010C000C023C106C5ECC6B0C70EC81BC9FFCAFFCBFFCEF0CF44D00CD401D804D904DA04DB04DC32DD33DF01E6C0EA40EB020180038805080E29100811441A081B8A1E298E
:40110000204021B824042544268027A028202E0831A83689372038403E203F0442404620472049054A024D014E084F0451015203560857105A025C045D215F8060086302C0
:40114000652067046F018008830889018B808D808E108F809144924295229628982099089A209D859E019F01A008A209A301A564A610A71AAD01AF22B0A4B520B780C02BDA
:40118000C2E0C407CA42CCFECE68D061D228D6F1D80CE2A0E640E85030023380350836403B808740CCF0CE10E21008200C8032109B049D08A402A640A780AB04C2C0CC1060
:4011C000EA80022007805B04800298209B049D089F02A080A402A640A780AA10AB02C030D640E220EC80EE201A101F027704823085088B809B849D089F02A220A640A7805E
:40120000AC80B020C630DC40E0C0E480E8101108C40800200D108410A904C002C201B110EE0482048D02E0029D089F02A302A508AE40B380B704EE40070209080A080D0433
:401240005702860489048D089D089F02A302A508C080C270D620E41009400F025604854099029A04C203D402108075028C809902B301C408DE04E602EA01001E0101080E0F
:401280000A060B010C1C0E16101E11011A061C1C1D0100FF010F00008080000040000000100020001CFD2002403000C90094806001000000779E0060000000000000000033
:4012C0000000700F017300007A0000000CCF403000FF0E000100F00028000008000010011305060004000C0E14FFFFFF62A0F0410C0000000F0000000404040432230001F6
:401300000000000000004002001030100010101200000000000000000000000000000000071E10000F00203E02000100000004010006001800060F1800000F0000001800CD
:40134000010A0214003E00010000003E000A00140020201E00001F0100008000000000016504010000EC020007FFFFFF0083030118008300030004000404040411110005F6
:401380004000400040408000800080008000800000000000000000000000000000000000805C5C0000000000800048949400800000000000C03F3F0004000000847979004D
:4013C00000000000800058A7270001000000000000000000000000000000000000000000000000000000000000000000000000000000000000000000000000000000000046
:4014000000000000000000000000000000000000000000000000000000000000000000000000000000000000000000000000000000000000000000000000000000000000AC
:40144000000000000000000000000000000000000000000000000000000000000000000000000000000000000000000000000000000000000000000000000000000000006C
:40148000000000000000000000000000000000000000000000000000000000000000000000000000000000000000000000000000000000000000000000000000000000002C
:4014C00000000000000000000000000000000000000000000000000000000000000000000000000000000000000000000000000000000000000000000000000000000000EC
:0200000490006A
:0400000000004005B7
:0200000490105A
:04000000BC90ACAF55
:0200000490303A
:020000005FFAA5
:0200000490402A
:4000000000000000000000000000000000000000000000000000000000000000000000000000000000000000000000000000000000000000000000000000000000000000C0
:400040000000000000000000000000000000000000000000000000000000000000000000000000000000000000000000000000000000000000000000000000000000000080
:400080000000000000000000000000000000000000000000000000000000000000000000000000000000000000000000000000000000000000000000000000000000000040
:4000C0000000000000000000000000000000000000000000000000000000000000000000000000000000000000000000000000000000000000000000000000000000000000
:0200000490501A
:0C00000000012E16106900012E3A7063FA
:00000001FF