:400000000080002011000000D9150000D915000008B5044B1A6803F53F5302331A6001F0FBFA00BFFA46004010B5054C237833B9044B13B10448AFF300800123237010BDA5
:40004000D881FF1F0000000084550000084B10B51BB108490848AFF300800848036803B910BD074B002BFBD0BDE81040184700BF00000000DC81FF1F84550000C880FF1F30
:400080000000000000000000F8B51B4B1B68012B2CD1194C60680028B8BF4042A368002BB8BF5B42C01A02F0FBFDC4E90401134DD5E9002302F05AFE06460F46A86802F045
:4000C00001FE32463B4602F09FFC09A3D3E9002302F04CFE03F00CF9E86003F059F980B202F068F9D4E90423C4E90623F8BD00BFCDCCCCCCCCCCE43FF881FF1FD080FF1F8B
:4001000010B501F091FE01F095FE234C2062C0F57F43FF33214880FB03201844DB17C3EB601002F0BDFD02460B46C4E90A231C491C4803F0FDFD236B2BB9D4E90A011A4B75
:40014000C3E9000118E0012B06D1134BD3E90A01164BC3E900010FE0022B05D10E4BD3E90A01C3E90E0107E0032B05D10A4BD3E90A010F4BC3E9000100220E4B0A49D1E941
:40018000000103F06FF818B10122034B1A6410BD0022014B1A6410BDF881FF1F09CB3D8D88550000D084FF1FA085FF1FE883FF1F9885FF1F00002E4008B501F09DFE012241
:4001C000014B5A6408BD00BFF881FF1F08B501F0E3FB094B1870212806D0084A936C0849C8540133936408BD044B9A6C0020044988540122DA6408BD0484FF1FF881FF1FA4
:40020000F083FF1F00000000914B1B68012B40F016812DE9F04101F07BFD0021682002F01DFB432002F076FB02F058FB012001F067FA0121682002F011FB012002F096FBAE
:40024000834C84F85000012002F090FB84F85100012002F08BFB84F85200012002F086FB84F85300012002F081FB84F85400002002F07CFB84F8550002F030FB012001F0C6
:400280003FFA94F8542094F8553043EA02231BB2A4F856306F4A1269012A11D1A16D13290EDC6D4801F09AFBB4F85C10B4F856200A44A4F85C20A26D0132A265BDE8F08104
:4002C000012A13D1624A926D142A0FD16049B1F95C30624A82FB0302DB17C3EBE203A1F85E3000225B4B1A61BDE8F081584CB4F85E00181A00B2A4F8560002F0D1FC50A3DE
:40030000D3E9002302F05CFE06460F46C4E91867C4E91A6704F17005D5E9004522462B4602F070FB84468E464A4BD3E9062360462EF0004102F0AAFF002870D022462B46FB
:400340003046394602F060FB3FA3D3E9002302F00DFDDFF8FC80D8E91E2302F055FB05460C4602460B46C8E91E23C8E91C6700223B4B284624F0004102F022FE02F090FF8D
:400380000646C8F88000002823DD002200232846214602F05DFF60B14FF4B47000FB06F002F07EFC2A46234602F02EFBC8E9220114E04FF4B47000FB06F002F071FC024691
:4003C0000B462846214602F01DFB214BC3E9220104E02A4623461E49C1E922231C4BD3E92245002200232046294602F031FF40B100221B4B2046294602F006FB144BC3E96D
:400400002201134B03F19004D3E922231549204603F08EFC204601F0E1FABDE8F0810C4BC3E91C6703F19004D3E922230D49204603F07EFC204601F0D1FABDE8F081704702
:400440000AD7A3703D6250409A9999999999A93FF881FF1FD080FF1F9C5500006766666600807640AC55000010B50024074B1C60204601F02BF9204601F034F9204601F007
:400480008FFB204601F098FB10BD00BFF881FF1F10B50124074B1C60002001F017F9204601F020F9002001F07BFB204601F084FB10BD00BFF881FF1F10B50124074B1C6024
:4004C000204601F003F9002001F00CF9204601F067FB002001F070FB10BD00BFF881FF1F10B50124074B1C60002001F0EFF8204601F0F8F8204601F053FB002001F05CFB37
:4005000010BD00BFF881FF1F10B50124074B1C60204601F0DBF8002001F0E4F8002001F03FFB204601F048FB10BD00BFF881FF1F08B5002001F038F9002001F077FA024BF3
:4005400000225A609A6008BDF881FF1F0000000070B50E4602F0A4FB3F4BD3E9002302F005FC02F09DFE05460DE001F015F93B4C606001F053FAA060012E02D1FFF788FF1B
:4005800001E0FFF799FF354B5B68002BB8BF5B429D4206DB314B9B68002BB8BF5B429D42E3DAFFF761FF01F0F7F8044601F036FA204400EBD070401002F072FB04460D46B4
:4005C00021A3D3E900232649D1E9080102F0CEFB1FA3D3E9002302F0F3FC02460B462046294602F0C3FB1D4BD3F860313BB91B4CF4E95A2302F008FAC4E9000120E0012B84
:4006000007D1164CF4E95C2302F0FEF9C4E9000116E0022B09D1114C02460B46F4E95A0102F0F0F9C4E900010AE0032B08D10B4C02460B46F4E95C0102F0E4F9C4E9000141
:40064000FFF776FF70BD00BF182D4454FB2109400000000000A6AC405083FF1FF881FF1FD080FF1F0000000038B51BE0FFF710FF322001F045F811E00024394B1C6320466E
:4006800001F0FCFE322001F03BF8012001F092FB0A2001F04BF8204601F08CFB01F004FC0028E9D02E4B1B6C002BDFD0FFF7DCFE01F072F8044601F0B1F9204400EBD070B3
:4006C000401002F0EDFA04460D4621A3D3E900232449D1E9080102F049FB1FA3D3E9002302F06EFC02460B462046294602F03EFB1B4BD3F860313BB9194CF4E95A2302F02E
:4007000083F9C4E9000120E0012B07D1144CF4E95C2302F079F9C4E9000116E0022B09D10F4C02460B46F4E95A0102F06BF9C4E900010AE0032B08D1094C02460B46F4E9D4
:400740005C0102F05FF9C4E90001FFF7F1FE38BD182D4454FB2109400000000000A6AC40F881FF1FD080FF1F38B54FF4FA7000F0C7FF27E0FFF78CFE434C444B07CB20602A
:400780006160A2601A889B78A281A373204601F025F9642000F0B4FF10E002203C4B186301F06CFE322000F0ABFF012001F002FB0A2000F0BBFF002001F0FCFA01F06CFB4F
:4007C0000028EAD0324BD3F87831002BD2D0FFF74BFE00F0E1FF044601F020F9204400EBD070401002F05CFA04460D4622A3D3E900232849D1E9080102F0B8FA20A3D3E937
:40080000002302F0DDFB02460B462046294602F0ADFA1F4BD3F860313BB91D4CF4E95A2302F0F2F8C4E9000120E0012B07D1184CF4E95C2302F0E8F8C4E9000116E0022B56
:4008400009D1134C02460B46F4E95A0102F0DAF8C4E900010AE0032B08D10D4C02460B46F4E95C0102F0CEF8C4E90001FFF760FE38BD00BFAFF30080182D4454FB2109400D
:400880000000000000A6AC40D084FF1FBC550000F881FF1FD080FF1F38B501E0FFF7F8FD01F064FC0128F9D0FFF7DEFD4FF4FA7000F026FF00F070FF044601F0AFF82044EA
:4008C00000EBD070401002F0EBF904460D4622A3D3E900232449D1E9080102F047FA20A3D3E9002302F06CFB02460B462046294602F03CFA1D4BD3F860313BB91B4CF4E976
:400900005A2302F081F8C4E9000120E0012B07D1164CF4E95C2302F077F8C4E9000116E0022B09D1114C02460B46F4E95A0102F069F8C4E900010AE0032B08D10B4C024694
:400940000B46F4E95C0102F05DF8C4E90001FFF7EFFD38BDAFF30080182D4454FB2109400000000000A6AC40D080FF1FF881FF1F70B505460E460DE000F00EFF1E4C60604D
:4009800001F04CF8A060012E02D1FFF7BDFD01E0FFF7A6FD184B5B68002BB8BF5B42AB4206DC154B9B68002BB8BF5B429D42E3DAFFF75AFD012E0ED10F4BD3F86031032B25
:4009C00004D100220C4BC3F8602111E001330A4AC2F860310CE0084BD3F8603123B90322054BC3F8602103E0013B034AC2F86031FFF79EFD70BD00BFF881FF1F38B50120A8
:400A000001F090FB012001F075FB012001F0A2FB0A2000F075FE01F031FB0024664B5C64204601F073FB204601F088FB142000F067FE012001F058FB012000F061FE204667
:400A400001F052FB5C4B5B6C002BFBD001F0CCFA0246594DC5F87C01584C5949204603F067F9204600F0BAFF01F0A4FA642000F047FE01F003FB00246C64012001F046FB69
:400A8000012001F05BFB142000F03AFE012001F02BFB012000F034FE204601F025FB464B5B6C002BFBD001F09FFA0246424DC5F88001424C4349204603F03AF9204600F097
:400AC0008DFF01F077FA642000F01AFE01F0D6FA00246C64204601F019FB012001F02EFB142000F00DFE012001F0FEFA012000F007FE204601F0F8FA2F4B5B6C002BFBD052
:400B000001F072FA02462C4CC4F884012B4D2E49284603F00DF9284600F060FF01F04AFAD4F87C31D4F8802193420FDDD4F8842193420BDD0120C4F8880101F029FB4FF47C
:400B40007A7000F0DDFD002001F022FB1A4BD3F88021D3F87C319A4212DD174BD3F884319A420DDD0222144BC3F88821012001F003FB4FF47A7000F0C3FD002001F0FCFAFC
:400B80000D4BD3F88421D3F87C319A4212DD0A4BD3F880319A420DDD0322074BC3F88821012001F001FB4FF47A7000F0A9FD002001F0FAFA38BD00BFF881FF1FD084FF1F25
:400BC000CC550000D8550000E455000008B50021682001F043FE6B2001F09CFE002001F099FE01F07BFE012000F08AFD0021682001F034FE1B2001F08DFE082001F08AFEF2
:400C000001F06CFE012000F07BFD0021682001F025FE1A2001F07EFE052001F07BFE01F05DFE012000F06CFD08BD00BF000000002DE9F84F62B6DFF858B3C5A3D3E90023F5
:400C4000DBE9080102F092F804460D46DFF824A30AF5C873C3E90045BDA3D3E90023DBE90A0102F083F80022BB4B02F07FF806460F460AF5CC73C3E90067DBE90C89224606
:400C80002B464046494602F09BF90AF5AC73C3E9000142464B463046394602F067F822462B4602F08DF90022AC4B01F0ADFE0AF5D07ACAE90001AA4801F002F8A94801F03C
:400CC00005FA00F0D5FF01F067F8A74801F0D6F801F05AF9A54801F0F1FBA54801F096F801F0BEFB01F0CEFA01F03CFB00F08AFD002000F059FD00F0C7FE002000F096FEF8
:400D000000F03CFE002001F025FA01F02BFCFFF75DFFDBF8080002F03BFB80B201F044FBDBF8080002F034FB80B201F043FB4FF4FA6000F0E5FC8F4BDB6C012BFBD18E49CF
:400D40008E4803F019F818B98D4800F047FE79E28C498A4803F010F8D8B146E201213220FFF7F6FB834C2546F5E9680102F098FA0021FFF7FDFDFFF777FCD5E9000102F085
:400D80008FFA0121FFF7F4FDD4F8A8310133C4F8A831784BD3F8A831002BDFD00022754B1A644FF4FA7000F0ABFC14E0FFF75CFC4FF4FA7000F0A4FC6E4C04F5D073D3E91D
:400DC000000102F06DFA0121FFF7D2FDD4F8A8310133C4F8A831674BD3F8A831012BE5D04FF47A7000F08CFC16E0FFF7BDFC664B664A106818609188927999809A711846CC
:400E000000F0ECFD4FF4FA7000F07AFC594AD2F8A8310133C2F8A831564BD3F8A831022BE3D04FF4FA7000F06BFC12E001210820FFF78EFB4F4C04F5D073D3E9000102F04F
:400E40002FFA0021FFF794FDD4F8A8310133C4F8A831484BD3F8A831032BE7D04FF4FA7000F04EFC07E0FFF717FD424AD2F8A8310133C2F8A8313F4BD3F8A831042BF2D02A
:400E80004FF4FA7000F03CFC23E000210220FFF75FFB4FF4FA7000F033FCFFF7AFFD354BD3F88831012B03D1012001F071F90AE0022B03D1012001F05FF904E0032B02D19F
:400EC000012001F071F92B4AD2F8A8310133C2F8A831284BD3F8A831052BD6D04FF4FA7000F00EFC1CE001211220FFF731FB284C208F01F0EFF94FF4FA7000F001FCA08FCC
:400F000001F078F94FF4FA7000F0FAFBB4F8400001F0E0F9174AD2F8A8310133C2F8A831144BD3F8A831062BDDD04FF4FA7000F0E7FB3FE000213220FFF70AFB4FF4FA70A2
:400F400000F0DEFB0B4BD3F8AC311BBB002522E0182D4454FB2109400000D03F0000594089000000B901000001010000CD01000009020000F881FF1F10560000F083FF1F17
:400F80002056000028560000D084FF1F30560000D080FF1F0125AF4C04F5D073D3E9000102F07EF92946FFF7E3FCD4F8A8310133C4F8A831A74BD3F8A831072BBAD04FF40D
:400FC000FA7000F09DFB0022A24B1A6410E0FFF74BFBA04C04F5D073D3E9000102F060F90121FFF7C5FCD4F8A8310133C4F8A831984BD3F8A831082BE9D04FF4FA7000F0BF
:401000007FFB0022934B1A640DE000214620FFF79FFA4FF4FA7000F073FB8E4AD2F8A8310133C2F8A8318B4BD3F8A831092BECD003E00133874AC2F8A831864BD3F8A8310E
:401040000A2BF6D04FF4FA7000F05AFB03E00133804AC2F8A8317F4BD3F8A8310B2BF6D04FF4FA7000F04CFB20E07B4C208F01F031F94FF47A7000F043FBB4F8440001F0F4
:40108000B9F84FF4FA7000F03BFBB4F8400001F021F94FF4FA7000F033FBA08F01F0AAF86C4AD2F8A8310133C2F8A831694BD3F8A8310C2BD9D04FF4FA7000F021FB15E022
:4010C00001211420FFF744FA4FF4FA7000F018FB614B188F01F0FEF84FF4FA7000F010FB5C4AD2F8A8310133C2F8A831594BD3F8A8310D2BE4D04FF4FA7000F001FB16E001
:4011000000211420FFF724FA4FF4FA7000F0F8FA514BB3F8400001F0DDF84FF4FA7000F0EFFA4C4AD2F8A8310133C2F8A831494BD3F8A8310E2BE3D04FF4FA7000F0E0FA49
:4011400021E0444BD3F8AC310BB9012500E00025404C04F5D073D3E9000102F0A1F82946FFF706FC4FF4FA7000F0CAFA01213220FFF7EEF94FF4FA7000F0C2FAD4F8A83121
:401180000133C4F8A831334BD3F8A8310F2BD8D04FF4FA7000F0B4FA21E02E4BD3F8AC310BB9012500E000252A4C04F5D073D3E9000102F075F82946FFF7DAFB4FF4FA7051
:4011C00000F09EFA01213220FFF7C2F94FF4FA7000F096FAD4F8A8310133C4F8A8311D4BD3F8A831102BD8D02CE01C491C4802F0DDFD1C4B186012E0164DD5F8B04104EB36
:40120000840293001848184402F0C0FD0134C5F8B0411249002002F0C9FD124B1860114B19680029E8D1104C204600F0D7FB04F1140000F0D3FB04F1280000F0CFFB0B480B
:4012400000F0CCFB034B00229A64C3F8B021DA6471E500BFF881FF1FD080FF1F38560000F083FF1F7086FF1F7486FF1F3C560000FEE700BFF0B40022174611E050F8276001
:40128000F3B226F0FF0608E001EB420511F812406D78A5550132013BDBB2002BF4D10137282FEBD9F0BC704708B50A46002102F0C6F808BDF8B5174B1B78DBB2164E347895
:4012C000E4B2164F3D78EDB203F00701144A11701B090132137044F00303337045F003033B704023A2F23272137002F2CC7213700232137002F21D2213702022094B1A70C8
:401300000A2000F013FA3D7034704422064B1A70F8BD00BFCF010049F8460040F94600406E5800402B5B00407658004008B502F07BF808BD38B517223A4B1A8018233A49A6
:401340000B7002310A80394A1370EF2102321180023213704FF49C71023211800232137040F2DF11023211800232137047F22F522F4B1A80192502331D7004222D492E4859
:40138000FFF7D4FF02222D4B1A7008224FF040231A70032103F500731970294B1B78DBB228490B70284B1A8041F25122023B1A8000240CE0254B1B7803F0010343EA440447
:4013C00004F003044FF4F07001F0FEFA013D0DB1032CEFD115B90320FFF74AFF1C4B4FF480721A8007221A7000221A490A704820023108701A700222033B1A7004220A3377
:401400001A70154A137843F03F031370013A137843F001031370013A137843F08003137038BD00BF804000408240004086400040944000402C120048004100400043004067
:4014400008010049A146004022420040254200400440004006400040A243004038B572B6424A137843F00403137000240CE0404D630019194A0011462A4408469188285868
:40148000FFF712FF0134E4B2092CF0D900240CE03748A20011194B000344B3F84420196CD86BFFF743FF0134E4B2012CF0D931494FF09040FFF7DEFE2F4A304B1A60304A5C
:4014C00003F5D0631A602F4B2F4A13602F498032116002F5C07213602D4A2E4B1A602E4A137843F0020313701032137843F0020313702A4C237843F040032370A2F5863291
:40150000513A137843F010031370082224492548FFF70CFF0A2224492448FFF707FF082223492448FFF702FF082223492348FFF7FDFE0A2222492348FFF7F8FE224A1378F6
:4015400043F008031370214D61232B70FFF7F2FE81232B7001221E4B1A70FFF7ABFE0E2221461C48FFF7E2FE38BD00BFE846004048560000A40000480404004458020140DF
:40158000040404C4C4C404C4580A0140C4C4040404040484D80E014003500140A0430040FC1100480251004004120048C051004010120048125100401812004822510040A1
:4015C0002012004830510040224300400048004004000840B043004008B501F0F9FE03680C2B00D1FEE7FEE708B5094B1A681044084BC31AB3F5007F02DC054B186005E059
:4016000001F0E6FE0C2303604FF0FF32104608BD2881FF1FD086FF1F08B5104E104D16E029686B68AC68002204E051F8040B43F8040B0432A242F8D1E868002203E0002196
:4016400043F8041B04328242F9D11035013E002EE6D101F0C3FEFFF7EBFAFEE7010000002058000008B5104A104B1A60104A136843F40073136000230AE0032B03D80D4AAD
:4016800052F8231000E00C490C4A42F8231001332F2BF2D90A4B1A780A4B1A70074A0A4B1A60FFF7DBFE08BD0004FA050CED00E014ED00E000000000D91500000080FF1F99
:4016C000BC760040C080FF1F08ED00E0044A137803F0DF03400100F0200018431070704710510040044A137803F0EF03000100F010001843107070471051004001BE7047AB
:4017000010B5044605E0084B186801F05DF9A4F50044B4F5004FF6D8034B586800FB04F001F052F910BD00BF2C81FF1F08B5034B1B7A00FB03F001F047F908BD2C81FF1F19
:4017400070B504460E46074B1D681F2802D90020FFF7D4FF04F01F04103455F8240045F8246070BD08ED00E038B504460D46072902D90020FFF7C2FF1F2C02D90020FFF78D
:40178000BDFF04F01F0000F1604000F564406D01EDB2057038BD00BF08B500F05FF8A0F5004000B208BD00BF08B5002803DB80B280F4004002E0A0F5004080B200F048F829
:4017C00008BD00BF024B187800F00F00704700BF61640040014B1870704700BF8164004008B50F20FFF7F6FFFFF7ECFF01F0F4F8034A137843F01003137001F0F1F808BDCA
:401800009164004008B500F07BF84FF4004000F01FF8044B1B7813B90122024B1A70FFF7DFFF08BDD083FF1F024A137843F080031370704770640040014B1870704700BFF2
:401840008F640040014B1878704700BF6F640040014B1880704700BF00680040024B1B78024B188880B270470064004080680040014B188880B2704780680040014B18806B
:40188000704700BF40680040014B1880704700BF6068004008B501E0FFF7EAFFFFF7D2FF10F0400FF8D108BD08B5134B1A7802F0F8021A701A7802F0FC021A70FFF7EAFF39
:4018C0004FF40040FFF7DAFF4FF40040FFF7C0FF0020FFF7B1FFFFF7B5FF4FF40040FFF7D3FF01F079F8054A137843F01003137001F076F808BD00BF706400409F64004064
:4019000008B5054B1B7823B9FFF7CEFF0122024B1A70FFF789FF08BDD183FF1F7222084B1A70202203331A700622A3F5B2731A70472210331A70002250331A70704700BFFC
:401940008865004010B501F047F804460A4A137843F0200313700332137843F010031370A2F58272137843F01003137000F048F8204601F035F810BD9865004008B5054B10
:401980001B7823B9FFF7CAFF0122024B1A70FFF7D9FF08BDD283FF1F084B1B78DBB213F0200F06D0064A1078C0B213F01E0F02D17047002070470020704700BF6B650040FD
:4019C0004B650040034B1B7813F0040FFAD1024B18707047676400404364004038B5074B1B782BB938BDFFF7EDFF0134A4B201E005460024285D0028F5D138BDD283FF1F74
:401A0000054A137843F0080313701032137843F008031370704700BFA243004008B500F05FF8A0F5004000B208BD00BF08B5002803DB80B280F4004002E0A0F5004080B241
:401A400000F048F808BD00BF024B187800F00F00704700BF66640040014B1870704700BF8664004008B50F20FFF7F6FFFFF7ECFF00F0B2FF034A137843F01003137000F0F8
:401A8000AFFF08BD9664004008B500F07BF84FF4004000F01FF8044B1B7813B90122024B1A70FFF7DFFF08BDD483FF1F024A137843F080031370704773640040014B187067
:401AC000704700BF82640040014B1878704700BF62640040014B1880704700BF08680040024B1B78024B188880B270470464004088680040014B188880B270478868004055
:401B0000014B1880704700BF48680040014B1880704700BF6868004008B501E0FFF7EAFFFFF7D2FF10F0400FF8D108BD08B5134B1A7802F0F8021A701A7802F0FC021A70A1
:401B4000FFF7EAFF4FF40040FFF7DAFF4FF40040FFF7C0FF0020FFF7B1FFFFF7B5FF4FF40040FFF7D3FF00F037FF054A137843F01003137000F034FF08BD00BF73640040BA
:401B80009264004008B5054B1B7823B9FFF7CEFF0122024B1A70FFF789FF08BDD583FF1F044A137803F0FD03400000F0020018431070704730510040044A137803F0FB03E2
:401BC000800000F0040018431070704730510040024A137843F080031370704774650040014B1870704700BF8A650040014B1878704700BF6A65004008B50146014800F027
:401C0000F3FE08BD28650040024B186820F07F40704700BF4865004008B50146014800F0E3FE08BD0865004008B501E0FFF7ECFFFFF7DCFF10F0080FF8D108BD08B54EF69C
:401C40005F20FFF7D9FF4EF65F20FFF7E5FF00F0C3FE064A137843F01003137000F0C0FEFFF7E2FF0120FFF7BBFF08BD9A65004008B5054B1B7823B9FFF7E0FF0122024B0A
:401C80001A70FFF7A5FF08BDD683FF1F014B1B685864704708ED00E04001C0B2014B1870704700BF01E400E00222014B1A60704700E100E00222014B1A60704780E100E0A7
:401CC00010B50446FFF7F6FF2046FFF7DFFF0720FFF7E2FFFFF7E8FF10BD00BF084A137843F0040313701032137843F00403137002F66532137843F001031370704700BFDB
:401D0000A3430040014B1870704700BF1B4F0040014B1878704700BF1B4F0040014B1880704700BF1C4F0040014B1880704700BF1E4F004008B5154A137803F00103137060
:401D40000232137803F0FC031370114B1A7802F0CF021A701A7842F030021A701A7802F0F0021A701A7842F00F021A70094A137843F0010313700920FFF7D0FF0920FFF770
:401D8000D3FF0820FFF7BEFF08BD00BF184F0040234F0040194F004008B5054B1B7823B9FFF7C8FF0122024B1A70FFF797FF08BDD783FF1F044A137803F0FB03800000F0BB
:401DC0000400184310707047C0510040024B1B68C3F88C00704700BF08ED00E04001C0B2014B1870704700BF13E400E04FF40022014B1A60704700BF00E100E04FF40022FF
:401E0000014B1A60704700BF80E100E010B50446FFF7F4FF2046FFF7D9FF0720FFF7DEFFFFF7E4FF10BD00BF014B1878704700BF69640040024B1B78024B188880B2704785
:401E40000864004090680040014B1B689864704708ED00E04001C0B2014B1870704700BF02E400E00422014B1A60704700E100E00422014B1A60704780E100E010B504460D
:401E8000FFF7F6FF2046FFF7DFFF0720FFF7E2FFFFF7E8FF10BD00BF024B1878C0F34010704700BF31510040024B1878C0F3C000704700BFC1510040024A137843F08003D9
:401EC000137070477D640040014B1880704700BF1C680040014B1880704700BF9C680040014B1880704700BF5C680040014B1870704700BF8C640040014B1878704700BFA1
:401F00006C640040014B188880B27047BC68004008B501E0FFF7F6FFFFF7EEFF10F0100FF8D108BD08B5164A137803F0C00343F0090313702132137843F001031370013254
:401F4000137843F0010313704CF24F30FFF7BCFF4CF24F30FFF7BEFF46F2A710FFF7C0FF0120FFF7C3FF00F037FD064A137843F01003137000F034FDFFF7CAFF08BD00BF95
:401F80007D6400409C64004008B5054B1B7823B9FFF7C8FF0122024B1A70FFF78DFF08BDD883FF1F024A137843F08003137070477B640040024A137803F07F031370704761
:401FC0007B640040014B1870704700BF8A640040014B1878704700BF6A640040014B1860704700BF0A640040014B1868704700BF4A640040014B1860704700BF2A640040CA
:40200000014B1860704700BF3A64004008B501E0FFF7EAFFFFF7DCFF10F0400FF8D108BD08B5144A137803F0F80343F001031370137803F0FC0343F008031370FFF7E6FFF6
:402040006FF00100FFF7D6FF0020FFF7C7FF0020FFF7B8FFFFF7BCFF8020FFF7D1FF00F0BBFC054A137843F01003137000F0B8FC08BD00BF7B6400409A64004008B5054B99
:402080001B7823B9FFF7CCFF0122024B1A70FFF789FF08BDD983FF1F014B1B68D864704708ED00E04001C0B2014B1870704700BF03E400E00822014B1A60704700E100E076
:4020C0000822014B1A60704780E100E010B50446FFF7F6FF2046FFF7DFFF0720FFF7E2FFFFF7E8FF10BD00BF014B1870704700BF79650040044A137803F0EF03000100F046
:40210000100018431070704720510040044A137803F0F703C00000F0080018431070704720510040044A137803F0DF03400100F0200018431070704720510040044A137870
:4021400003F07F03C001C0B218431070704700BF20510040044A137803F0BF03800100F0400018431070704720510040014B1878C009704731510040044A137803F0F7034F
:40218000C00000F0080018431070704700510040044A137803F0FB03800000F0040018431070704700510040044A137803F0EF03000100F010001843107070470051004001
:4021C000084A137843F0020313701032137843F00203137002F65932137843F001031370704700BFA3430040014B1880704700BF104F0040014B1880704700BF124F004067
:40220000014B1870704700BF0F4F004008B51A4A137843F0020313700232137803F08F0343F040031370154B1A7802F0CF021A701A7842F030021A701A7802F0F0021A7053
:402240001A7842F00F021A7040F2E730FFF7CCFF4FF47570FFF7CEFF0020FFF7D1FF084A137843F00203137002F66A32137843F00103137008BD00BF0C4F0040174F0040EE
:40228000A343004008B5054B1B7823B9FFF7BEFF0122024B1A70FFF793FF08BDDA83FF1F084A137843F0010313701032137843F00103137002F64D32137843F0010313702D
:4022C000704700BFA3430040014B1880704700BF044F0040014B1880704700BF064F0040014B1870704700BF034F004008B51A4A137843F0020313700232137803F08F03DF
:4023000043F040031370154B1A7802F0CF021A701A7842F030021A701A7802F0F0021A701A7842F00F021A7040F28920FFF7CCFF40F26720FFF7CEFF0020FFF7D1FF084A36
:40234000137843F00103137002F65E32137843F00103137008BD00BF004F00400B4F0040A343004008B5054B1B7823B9FFF7BEFF0122024B1A70FFF793FF08BDDB83FF1F86
:40238000024A137843F080031370704776650040014B1880704700BF0C6A0040014B1880704700BF8C6A0040014B1880704700BF4C6A0040014B1880704700BF6C6A0040DB
:4023C000014B1870704700BF86650040014B1878704700BF66650040014B188880B27047AC6A004008B501E0FFF7F6FFFFF7EEFF10F0100FF8D108BD10B5174A137803F023
:40240000C00343F009031370144C237843F0010323702132137843F00103137046F2A810FFF7B6FF46F2A810FFF7B8FF43F2D400FFF7BAFF43F2D400FFF7BCFF0020FFF7FA
:40244000BFFF00F0C9FA237843F01003237000F0C7FAFFF7C7FF10BD766500409665004008B5054B1B7823B9FFF7C6FF0122024B1A70FFF785FF08BDDC83FF1F014B187026
:40248000704700BF7C640040014B1B681865704708ED00E04001C0B2014B1870704700BF04E400E01022014B1A60704700E100E01022014B1A60704780E100E010B504467A
:4024C000FFF7F6FF2046FFF7DFFF0720FFF7E2FFFFF7E8FF10BD00BF38B50222114B1A7081220E3B1A70082202331A700F2511331D70002401331C704FF400420A4B1A60BD
:4025000007212846FFF730F908492846FFF718F91022074B1A70074B1C70074B1C70074B1C7038BDD649004080E100E08D250000B086FF1FB686FF1FB886FF1FB486FF1FCF
:4025400008B500F049FA064A137843F0040313701032137843F00403137000F041FA08BDA543004008B5074B1B7823B9FFF7B4FF0122044B1A70FFF7E3FF4FF40042024B64
:402580001A6008BDDD83FF1F00E100E038B5A54B1C78A54B1B7813F0400F00F03A81E4B214F0010F00F01D819F4B1B78453B052B00F21481DFE813F0060082001201120148
:4025C0000600DF0004F0DF0504F00A04082C42D1954B1B78DBB2452B35D1944B1B7813F0FF0F10D0924B1B681B78DBB2914A137004228C4B1A7001228F4B1A7046228A4BD3
:402600001A702C46EDE08D4B1B7813F0020F0DD08B4A137843F00A0313706022824B1A704FF40042874B1A602C46DAE0864A137843F0100313701022844B1A700422023B6A
:402640001A702C46CDE00022764B1A704A22764B1A702C46C5E00A2C2BD1794A137843F0A0031370754B1B7813F0020F14D06E4B1B7813F0080F01D0092300E00A23704A28
:4026800011780B4313706022674B1A704FF400426C4B1A602C46A4E06B4A137843F0100313701022694B1A700422023B1A702C4697E00020FFF722F82C4692E014F0020FDE
:4026C00036D15D4B1A78D2B2584B1B78DBB29A4210D2594A1378DBB255490968CB5CDBB254490B7004214F4B197013780133DBB2137076E0514B1B7813F0020F0CD0504AD8
:40270000137843F00A0313706022474B1A704FF400424C4B1A6064E04B4A137843F0100313701022494B1A700422023B1A7058E0424B1B7813F0020F0CD0414A137843F01C
:402740009A0313706022384B1A704FF400423D4B1A6046E03C4A137843F01003137010223A4B1A700422023B1A70354A137843F09003137035E0364A1378DBB23549086807
:402780002C490978C9B2C15413780133DBB213701278D2B2304B1B78DBB29A4203D21022204B1A701DE0254B1B7813F0020F0CD0234A137843F00903137060221A4B1A7028
:4027C0004FF400421F4B1A600BE01F4A137843F0100313700022134B1A7002E00020FEF78DFF14F0200F1CD00F4B1B7813F0080F01D0012300E00223114A11780B43137066
:40280000114A137803F0EF0313701022064B1A7038BD054B1B7813F0100F02D11022024B1A7038BDD7490040B086FF1FB786FF1FBC86FF1FD8490040B486FF1FB586FF1FF1
:40284000B686FF1F80E100E0D6490040D9490040B886FF1FC086FF1FC486FF1F1A4B1B78DBB2102B29D1194B1B7813F0080F26D14FF40042164B1A604000C0B229B140F0F6
:4028800001004922104B1A7002E045220E4B1A70104B1870012201331A700F4B1B7813F0010FFAD00C4B1B7803F00A030A2B08D11022054B1A700320704702207047012035
:4028C00070470020704700BFB086FF1FD949004080E100E0D8490040D74900400A4B1B7813F0040F0ED01023074A13700421023A1170064A1370064B1B7813F0210FFAD05A
:402900000020704702207047D9490040B086FF1FD7490040114B1B7813F0040F1BD0104B18700422013B1A7046220E4B1A700E4B1B7813F0010FFAD00B4B1B7813F0020F01
:4029400004D16022074B1A70002070476022054B1A70032070470220704700BFD9490040D8490040B086FF1FD7490040114B1B7813F0040F1BD0104B1B78DBB2492B05D153
:4029800000220E4B1A704A220B4B1A700B4B1B7813F0010FFAD00A4B1B78DBB218B11021064A117004E06021034A117000E0002318467047D9490040B086FF1FD74900405F
:4029C000D8490040000000000230800803D000BF01380046FCD17047EFF3108072B6704780F31088704700BFCBB20370C1F307234370C1F307418170704700BF81F00041BF
:402A000002E000BF83F0004330B54FEA41044FEA430594EA050F08BF90EA020F1FBF54EA000C55EA020C7FEA645C7FEA655C00F0E2804FEA5454D4EB5555B8BF6D420CDD04
:402A40002C4480EA020281EA030382EA000083EA010180EA020281EA0303362D88BF30BD11F0004F4FEA01314FF4801C4CEA113102D0404261EB410113F0004F4FEA033301
:402A80004CEA133302D0524263EB430394EA050F00F0A780A4F10104D5F1200E0DDB02FA0EFC22FA05F2801841F1000103FA0EF2801843FA05F359410EE0A5F120050EF191
:402AC000200E012A03FA0EFC28BF4CF0020C43FA05F3C01851EBE37101F0004507D54FF0000EDCF1000C7EEB00006EEB0101B1F5801F1BD3B1F5001F0CD349085FEA30000B
:402B00004FEA3C0C04F101044FEA445212F5800F80F09A80BCF1004F08BF5FEA500C50F1000041EB045141EA050130BD5FEA4C0C404141EB010111F4801FA4F10104E9D19B
:402B400091F0000F04BF01460020B1FA81F308BF2033A3F10B03B3F120020CDA0C3208DD02F1140CC2F10C0201FA0CF021FA02F10CE002F11402D8BFC2F1200C01FA02F1BF
:402B800020FA0CFCDCBF41EA0C019040E41AA2BF01EB0451294330BD6FEA04041F3C1CDA0C340EDC04F11404C4F1200220FA04F001FA02F340EA030021FA04F345EA030127
:402BC00030BDC4F10C04C4F1200220FA02F001FA04F340EA0300294630BD21FA04F0294630BD94F0000F83F4801306BF81F480110134013D4EE77FEA645C18BF7FEA655C20
:402C000029D094EA050F08BF90EA020F05D054EA000C04BF1946104630BD91EA030F1EBF0021002030BD5FEA545C05D14000494128BF41F0004130BD14F580043CBF01F53E
:402C4000801130BD01F0004545F0FE4141F470014FF0000030BD7FEA645C1ABF194610467FEA655C1CBF0B46024650EA013406BF52EA033591EA030F41F4002130BD00BFCE
:402C800090F0000F04BF0021704730B54FF4806404F132044FF000054FF0000150E700BF90F0000F04BF0021704730B54FF4806404F1320410F0004548BF40424FF00001CA
:402CC0003EE700BF42004FEAE2014FEA31014FEA02701FBF12F07F4393F07F4F81F06051704792F0000F14BF93F07F4F704730B54FF4607401F0004521F0004120E700BFFA
:402D000050EA010208BF704730B54FF000050AE050EA010208BF704730B511F0004502D5404261EB41014FF4806404F132045FEA915C3FF4DCAE4FF003025FEADC0C18BF67
:402D400003325FEADC0C18BF033202EBDC02C2F1200300FA03FC20FA02F001FA03FE40EA0E0021FA02F11444C1E600BF70B54FF0FF0C4CF4E06C1CEA11541DBF1CEA13558B
:402D800094EA0C0F95EA0C0F00F0DEF82C4481EA030621EA4C5123EA4C5350EA013518BF52EA033541F4801143F4801338D0A0FB02CE4FF00005E1FB02E506F00042E0FB0A
:402DC00003E54FF00006E1FB03569CF0000F18BF4EF0010EA4F1FF04B6F5007F64F5407404D25FEA4E0E6D4146EB060642EAC62141EA55514FEAC52040EA5E504FEACE2E6E
:402E0000B4F1FD0C88BFBCF5E06F1ED8BEF1004F08BF5FEA500E50F1000041EB045170BD06F0004646EA010140EA020081EA0301B4EB5C04C2BFD4EB0C0541EA045170BD46
:402E400041F480114FF0000E013C00F3AB8014F1360FDEBF002001F0004170BDC4F10004203C35DA0C341BDC04F11404C4F1200500FA05F320FA04F001FA05F240EA02001E
:402E800001F0004221F0004110EBD37021FA04F642EB06015EEA430E08BF20EAD37070BDC4F10C04C4F1200500FA04F320FA05F001FA04F240EA020001F0004110EBD37000
:402EC00041F100015EEA430E08BF20EAD37070BDC4F1200500FA05F24EEA020E20FA04F301FA05F243EA020321FA04F001F0004121FA04F220EA020000EBD3705EEA430E58
:402F000008BF20EAD37070BD94F0000F0FD101F00046400041EB010111F4801F08BF013CF7D041EA060195F0000F18BF704703F00046520043EB030313F4801F08BF013D0B
:402F4000F7D043EA0603704794EA0C0F0CEA135518BF95EA0C0F0CD050EA410618BF52EA4306D1D181EA030101F000414FF0000070BD50EA410606BF1046194652EA43064D
:402F800019D094EA0C0F02D150EA013613D195EA0C0F05D152EA03361CBF104619460AD181EA030101F0004141F0FE4141F470014FF0000070BD41F0FE4141F4780170BDA9
:402FC00070B54FF0FF0C4CF4E06C1CEA11541DBF1CEA135594EA0C0F95EA0C0F00F0A7F8A4EB050481EA030E52EA03354FEA013100F088804FEA03334FF0805545EA13139C
:4030000043EA12634FEA022245EA111545EA10654FEA00260EF000419D4208BF964244F1FD0404F5407402D25B084FEA3202B61A65EB03055B084FEA32024FF480104FF4E7
:40304000002CB6EB020E75EB030E22BFB61A754640EA0C005B084FEA3202B6EB020E75EB030E22BFB61A754640EA5C005B084FEA3202B6EB020E75EB030E22BFB61A75461E
:4030800040EA9C005B084FEA3202B6EB020E75EB030E22BFB61A754640EADC0055EA060E18D04FEA051545EA16754FEA06164FEAC30343EA52734FEAC2025FEA1C1CC0D149
:4030C00011F4801F0BD141EA00014FF000004FF0004CB6E711F4801F04BF01430020B4F1FD0C88BFBCF5E06F3FF6AFAEB5EB030C04BFB6EB020C5FEA500C50F1000041EB38
:40310000045170BD0EF0004E4EEA113114EB5C04C2BFD4EB0C0541EA045170BD41F480114FF0000E013C90E645EA060E8DE60CEA135594EA0C0F08BF95EA0C0F3FF43BAFF9
:4031400094EA0C0F0AD150EA01347FF434AF95EA0C0F7FF425AF104619462CE795EA0C0F06D152EA03353FF4FDAE1046194622E750EA410618BF52EA43067FF4C5AE50EAEF
:4031800041047FF40DAF52EA43057FF4EBAE12E74FF0FF3C06E000BF4FF0010C02E000BF4FF0010C4DF804CD4FEA410C7FEA6C5C4FEA430C18BF7FEA6C5C1BD001B050EA87
:4031C000410C0CBF52EA430C91EA030F02BF90EA020F0020704710F1000F91EA030F58BF994208BF90422CBFD8176FEAE37040F0010070474FEA410C7FEA6C5C02D150EA22
:40320000013C07D14FEA430C7FEA6C5CD6D152EA033CD3D05DF8040B704700BF8446104662468C461946634600E000BF01B5FFF7B7FF002848BF10F1000F01BD4DF808ED47
:40324000FFF7F4FF0CBF012000205DF808FB00BF4DF808EDFFF7EAFF34BF012000205DF808FB00BF4DF808EDFFF7E0FF94BF012000205DF808FB00BF4DF808EDFFF7CEFF27
:4032800094BF012000205DF808FB00BF4DF808EDFFF7C4FF34BF012000205DF808FB00BF4FEA410212F5001215D211D56FF47873B3EB625212D94FEAC12343F0004343EA78
:4032C000505311F0004F23FA02F018BF404270474FF00000704750EA013005D111F0004008BF6FF0004070474FF00000704700BF4FEA4102B2F1E04324BFB3F5001CDCF1BC
:40330000FE5C0DD901F0004C4FEAC0024CEA5070B2F1004F40EB830008BF20F00100704711F0804F21D113F13872BCBF01F00040704741F480114FEA5252C2F11802C2F1FA
:40334000200C10FA0CF320FA02F018BF40F001004FEAC1234FEAD32303FA0CFC40EA0C0023FA02F34FEA4303CCE77FEA625307D150EA01331EBF4FF0FE4040F44000704750
:4033800001F0004040F0FE4040F40000704700BF42000ED2B2F1FE4F0BD34FF09E03B3EB126209D44FEA002343F0004323FA02F070474FF00000704712F1610F01D14202EE
:4033C00002D14FF0FF3070474FF00000704700BF014B1868704700BF9C81FF1F0E4B70B51E460E4C0025E41AA410A54204D056F8253098470135F8E702F000FA084B094CAA
:403400001E46E41AA4100025A54204D056F8253098470135F8E770BD0858000008580000085800001058000010B5431E0A44914204D011F8014B03F8014FF8E710BD03469A
:403440000244934202D003F8011BFAE770472DE9F04788B0149F002B1E461299B8BF03F1004327F02007B6BF1E4600232D23462F1446109DDDF84CA00B7003D0452F03D133
:40348000013501E0032300E0022307AA049206AA03928DE828042246334600F071FD472F804602D1119BDB0728D5462F08EB050911D198F80030302B0AD1002200232046CB
:4034C0003146FFF7BBFE18B9C5F10105CAF80050DAF8003099440022002320463146FFF7ADFE08B9302202E0CDF81C9006E0079B994503D9591C07911A70F8E74046079B1F
:40350000159AC8EB0303136008B0BDE8F087034673B50029B8BF494203F8022BB4BF2D222B22092942701ADD0DF1070216460A2591FBF5F405FB1411092C01F1300102F8B0
:40354000011D2146F4DC3031541E02F8011CB4421A460AD214F8012B03F8012BF7E71A463024214402F8024B5970101A02B070BD2DE9F04F91B00C46DDF8688016461F4605
:40358000054601F095FA03681846099300F006FC00230E93D8F800300A90073323F0070303F1080294F81890D4F800B0C8F80020D3E90023C4E91223D4F84CA0D4F8488099
:4035C0002AF000430B934FF0FF32A74B40460B9901F0C2FFA0B94FF0FF32A34B40460B99FFF740FE60B90022002340465146FFF72FFE10B12D2384F843309C4B9C4A0AE028
:40360000424653464046514601F0A6FF002800F09281984B984AB9F1470F8CBF90469846032323612BF0040323604FF0000A3DE0B9F1670F00F08A81B9F1470F00F0868100
:4036400023600193636800210DF13302059002920093424653460691CDF81090CDF80CE02846FFF7F4FE09F0DF03472B804600F08481B9F1650F0D9900F28D8101394A469E
:4036800004F150000D91FFF742FF0E9A82468318012A236100F37C812268D10700F178819DF8333013B12D2384F84330009733460FAA2146284600F09FF9013002D14FF096
:4036C000FF3096E123685A0501D4236965E0B9F1650F40F2D580D4E9120100220023FFF7ADFD78B30123654A31462846B8470130E5D00E9B0D9A9A420BDB2368D80708D41A
:4037000023689B0740F111814FF0000804F1190906E10A9B099A31462846B8470130CED04FF0000804F11A090E9B013B9845E7DA01234A4631462846B8470130BFD008F126
:403740000108F1E70D9B002B29DC01234B4A31462846B8470130B2D00D9B23B90E9B13B92368D907CCD50A9B099A31462846B8470130A4D04FF0000904F11A0A0D9B5B42C4
:40378000994509DA0123524631462846B847013095D009F10109F1E70E9B4246A7E00E9AA36D9A42A8BF1A46002A914606DC4FF0000A29EAE97904F11A0B11E013463146A7
:4037C00042462846B8470130F1D178E701235A4631462846B84701303FF471AF0AF1010AA36DC9EB03029245F0DB08EB03090D9A0E9B9A420FDB2368DA070CD40E9B0D9A34
:403800009844C9EB08089B1A9845A8BF9846B8F1000F08DC0FE00A9B099A31462846B8470130EBD14BE743464A4631462846B84701303FF444AF4FF0000928EAE87804F138
:403840001A0A09E00123524631462846B84701303FF435AF09F101090D9A0E9B9B1AC8EB03039945EEDB4BE7FFFFEF7F9A5600009E560000A2560000A6560000AA56000074
:403880000E9A012A01DCDB0738D50123424631462846B84701303FF412AF0A9B099A31462846B84701303FF40AAFD4E9120100220023FFF7C3FC20B14FF0000804F11A0971
:4038C0000EE00E9B08F10102013B19E001234A4631462846B84701303FF4F1AE08F101080E9B013B9845F1DB534604F1500231462846B84701307FF403AFE0E64246012349
:4039000031462846B8470130EED1D8E601234A4631462846B84701303FF4D1AE08F10108E3680F9A9B1A9845F0DBE0680F9B9842B8BF18465DE062680EA8531C0DF1340E1A
:403940004BF480637FF474AE062201E012B90122626075E6002106910DF133018DE80C00236005904246CDF81090CDF80CE0029153462846FFF76BFD80460D9BD81C02DB24
:40398000626893421DDDA9F102095FFA89F970E60133236184E6B9F1660F14D10029636807DD216113B92268D2071DD501330B4419E013B92268D00701D5023313E001232C
:4039C00011E04FF067090D9B0E9A934205DB22682361D10708D5013305E0002BD4BFC3F102030123134423610D9B4FF0000AA36556E611B0BDE8F08F2DE9F04791461F462D
:403A00000A698B6806469342B8BF1346C9F8003091F843200C46DDF8208012B10133C9F800302368990642BFD9F800300233C9F80030256815F0060510D104F1190A07E0D4
:403A40000123524639463046C04701301AD00135E368D9F800209B1A9D42F1DB94F843302268003318BF012392060FD5E118302081F843005A1C94F845102244023382F8FD
:403A8000431003E04FF0FF30BDE8F08704F1430239463046C0470130F4D02268D9F80050E36802F00602042A08BF5D1B2269A3680CBF25EAE57500259342C4BF9B1AED18BD
:403AC0004FF000091A344D4509D00123224639463046C0470130D5D009F10109F3E70020BDE8F0872DE9F04317460A7E85B06E2A984606460C460C9B01F1430E00F0AE80CE
:403B000011D8632A22D009D8002A00F0BB80582A40F0CA8081F84520834955E0642A1ED0692A1CD0C0E0732A00F0B08009D86F2A2ED0702A40F0B8800A6842F020020A600A
:403B40003EE0752A24D0782A3AD0ADE01A6801F14205111D1960136884F84230A8E021681A6811F0800F02D0111D196008E011F0400F02F10401196002D0B2F9003000E0BE
:403B80001368002B3CDA2D225B4284F8432037E021681A6811F0800F02D0111D196007E011F0400F02F10401196001D0138800E01368227E5C496F2A14BF0A2208221BE0E2
:403BC00078225A4984F845202268186812F0800F00F104051D6003D1550601D5038800E00368D00744BF42F0200222601BB9226822F0200222601022002084F8430001E004
:403C000049490A226568002DA56008DB206820F0040020602BB9002D7DD175460CE0002B79D07546B3FBF2F002FB1033CB5C05F8013D03460028F5D1082A0BD12368DA07B0
:403C400008D5236962689A42DEBF302305F8013C05F1FF35C5EB0E0323612EE008681A6810F0800F496903D0101D1860136808E010F0400F02F104001860136801D01980DD
:403C800000E0196000232361754616E01A68111D1960156800216268284600F015FF08B1401B6060636804E004F1420584F8422001232361002384F84330CDF800803B4633
:403CC00003AA21463046FFF797FE013002D14FF0FF3026E023692A4639463046C0470130F5D023689B0710D5002504F1190907E001234A4639463046C0470130E7D0013546
:403D0000E368039A9B1A9D42F2DBE068039B9842B8BF184605E00B7804F1420584F842308AE705B0BDE8F083AC560000BD5600000EB400B54FF402719CB0ADF814106FF01F
:403D40000041049107914FF6FF711DAB02900690084853F8042BADF81610006802A9019301F0A8FA029B00221A701CB05DF804EB03B070479C81FF1F10F8012B11F8013BEA
:403D8000012A28BF9A42F7D0D01A7047034611F8012B03F8012B002AF9D17047034613F8012B002AFBD1181A01387047174B2DE9F0411D680646AC6D0F46FCB9502000F0C8
:403DC0007BFEA8658460AB6D046044601C61DC60AB6D9C615C61AB6DDC629C62AB6D5C631C63AB6DDC639C63AB6D5C641C64AB6DDC649C64AB6D1C77AB6D5C62AA6D3946E7
:403E00003046BDE8F041012300F002B89C81FF1FF0B548B9106838B9F0BD17F8016B5EB1B542FAD12BB1204604460F4614F8015BF3E714600370F0BD4DB915602846F0BDD8
:403E400017F8016BB54207D0002EF9D11C4623460F4613F8015BF3E715B10021217000E02B461360F0BD2DE9F74F03690C6980469C427FDC013C01F114074FEA840E00F175
:403E8000140606EB0E0357F82450019356F824300135B3FBF5F507EB0E09C5B34FF0000A3846B446D34650F8043B9AB205FB02A21B0C4FEA124A05FB03A392B2C2EB0B0BE4
:403EC000BCF800204FEA134A5A441FFA83FBDCF800308145CBEB134303EB224392B242EA03424FEA234B4CF8042BDCD256F80E306BB9019B043B9E421A4602D3C8F81040CD
:403F000005E01268043B002AF8D1013CF3E7404600F0F5FF00282BDB304601354FF0000E57F8042B036891B2C1EB0E0E120C99B27144C2EB134303EB214389B24FEA234EFC
:403F4000B94541EA034340F8043BE9D256F8242006EB840362B9043B9E421A4602D3C8F8104005E01268043B002AF8D1013CF3E7284600E0002003B0BDE8F08F000000002A
:403F80002DE9F04F456A95B08246219CCDE9022345B9102000F090FDCAF82400456085600560C560DAF82430196859B15A68012393404A608B60504600F0C9FDDAF8243042
:403FC00000221A60039BA04A002BBDBF01232360039B0023BCBF23F000430393DDF80C80A8BF236028F000431B0D1B0593421DD142F20F73209A1360029B43B9934A944B3E
:40400000C8F31300002814BF1846104600E09048229B002B00F04685C37813B100F1080300E0C31C229A136000F03CBDDDE902450022002320462946FFF700F9074658B16A
:40404000209A01231360229B002B00F01E8581481860013800F026BD12AB019313AB009322462B46504600F0C5FFC8F30A56049056B1C5F3130343F07F51204641F44011EF
:40408000A6F2FF3611971DE0139B129E1E4406F23243202B0ADD029A06F21240C3F1400322FA00F008FA03F3184304E0C3F12000029B03FA00F0FEF7E3FD0123A1F1F871BD
:4040C000013E11930022644BFEF79CFC58A3D3E90023FEF74BFE58A3D3E90023FEF794FC044630460D46FEF7DBFD55A3D3E90023FEF73CFE02460B4620462946FEF784FC3F
:4041000004460D46FFF7CCF800228346002320462946FFF79DF858B15846FEF7C1FD02460B4620462946FFF789F808B90BF1FF3BBBF1160F0DD8DDE90223484901EBCB019A
:40414000D1E90001FFF7A2F830B10BF1FF3B002300E00123109300E01090129B9E1B731E079343BFC3F10008002307934FF00008BBF1000F06DB079BCDF82CB05B44079328
:40418000002705E00023CBEB0808CBF100070B931E9B092B28D8052BC4BF043B1E931E9BC8BF0025A3F10203D8BF0125032B20D8DFE803F0060E0204012302E0012308E052
:4041C00000230A931F9B002B1DDD9946059321E000230A931F9B0BEB030909F10103012B0593B8BF012315E0012500231E930A9501E001230A934FF0FF390022CDF814909D
:4042000012231F9206E04FF001094B46CDF81490CDF87C90DAF8244000226260042101F114029A421CD86268490001326260F6E761436F63A787D23FB3C8608B288AC63FD0
:40424000FB799F501344D33F0000F07FCE560000D7560000AB5600000000F83FE85600006168504600F03EFCDAF8243020601B680693059B0E2B00F25B81002D00F0588154
:40428000DDE90234BBF1000FCDE90E3430DD9F4A0BF00F034FEA2B1502EBC303E80618CBCDE908340CD5DDE90E01994B05F00F05D3E90823FEF784FE0324CDE9020100E09C
:4042C0000224934E6DB1E90708D5DDE90801D6E90023FEF74BFDCDE9080101346D100836F0E7DDE90823DDE90201FEF769FE20E0CBF1000505B3DDE90E01844B05F00F021F
:4043000003EBC203D3E90023FEF730FDCDE902017F4E2D110023022455B1EA0705D5D6E90023FEF723FD013401236D100836F3E71BB1CDE9020100E00224109BE3B1DDE976
:4043400002560022734B28463146FEF781FF98B1059B8BB1B9F1000F40F3E6800BF1FF330893314600226C4B2846FEF7FFFC0134CDE902014E4602E0059ECDF820B02046BB
:40438000FEF78EFCDDE90223FEF7F0FC634B0022FEF73AFBA1F1507304460C931D46D6B9DDE9020100225E4BFEF72CFB22460C9BCDE90201FEF76AFF002840F03F820C99F4
:4043C000224601F10043DDE90201FEF741FF002840F02B82A8E00A9A4C4B711E002A49D003EBC103D3E9002300204E49FEF7E8FD22462B46FEF706FBCDE90C01069CDDE96C
:404400000201FEF74DFF0546FEF74AFC02460B46DDE90201FEF7F6FADDE90C23303504F8015BCDE90201FEF713FF002840F01D83DDE9022300203749FEF7E4FADDE90C23AE
:40444000FEF706FF002840F0D180069BE31AB3426ADADDE90C0100222F4BFEF787FC0022CDE90C01DDE902012B4BFEF77FFCCDE90201C4E703EBC1012246D1E900012B469F
:40448000FEF774FC069BCDE90C011D469C19DDE90201FEF705FF0646FEF702FC02460B46DDE90201FEF7AEFA303605F8016BAC42CDE902014FF0000222D11A4BDDE90C0139
:4044C000FEF7A2FA02460B46DDE90201FEF7DEFE002840F08B80DDE90C2300201149FEF791FA02460B46DDE90201FEF7B1FED8B114F8013C621E302B40F0B7821446F7E752
:40450000054BFEF733FCCDE90201C0E7E8560000C05700000000F03F0000244000001C40000014400000E03FDDE90E34CDE90234139B002B7CDBBBF10E0F79DCAB4B03EBCA
:40454000CB03D3E900671F9B002B14DA059B002B11DC40F06C810022A54B30463946FEF705FCDDE90223FEF787FE059D2E46002840F05F8165E1069CDDE9028932463B46C0
:4045800040464946FEF71CFDFEF78AFE0546FEF787FB32463B46FEF7E9FB0B46024649464046FEF72FFA05F1300E069B04F801EBC3EB040E059B73452DD102460B46FEF79A
:4045C00023FA8046894602460B4630463946FEF73FFE78B942464B4630463946FEF72EFE002800F04482EB0704D440E2DDF820B000E01C4614F8012C631E392A07D1069AA3
:404600009A42F6D1069930220BF1010B0A701A7801321A702BE20022764BFEF7A7FB0022002380468946FEF709FE0028A6D01EE20A9A002A2BD01E9A012A0ADC119A12B11A
:4046400003F2334302E0129BC3F136033D46444613E0059B5D1EAF42BFBF0B9BEA1B9B180B93059BB6BF2F467D1B0025002BA7BF4446059BC3EB08040023079A01211A44CD
:4046800050469844079200F001FB064602E03D4644460A9E5CB1079B002B08DDA342A8BF2346079AC3EB0808E41AD31A0793002F1DDD0A9BABB18DB131462A46504600F0F3
:4046C0007FFB049A01460646504600F0E8FA04990890504600F03BFA089B04937A1B06D000E03A460499504600F06AFB04900121504600F0CBFA0B9B05465BB31A46014683
:40470000504600F05DFB1E9B0546012B18DC029B83B9039BC3F3130373B9039B23F000473F0D3F054FB1079B08F1010801330793012702E0002700E0029F0B9B73B100E0B2
:4047400000272B6905EB8303186900F052FAC0F1200004E01E9B012BD9DD0B9F0120079B184410F01F0008D0C0F12003042B02DDC0F11C0002E006D018461C30079B8044C4
:40478000034404440793B8F1000F05DD42460499504600F063FB0490079B002B05DD29461A46504600F05AFB0546109B23B32946049800F0A4FB00281EDA00230A220499CE
:4047C000504600F0DBF90A9B0BF1FF3B0490002B00F05F81314600230A22504600F0CEF9B9F1000F06463FDC3BE000BFE85600000000144000002440059B002B2BDC1E9B67
:40480000022B28DDDDF81490B9F1000F11D129464B460522504600F0B1F901460546049800F06DFB00280CDC03E0354600E000252E461F9B069C6FEA030B09E03546DDF872
:4048400020B0069B069A5C1C312313700BF1010B05960026F7E00A9BDDF8149023B9069CB2E01E9B022BCFDC002C05DD31462246504600F0F3FA06469FB17168504600F01E
:4048800031F90446326906F10C01023292000C30FEF7CAFD01222146504600F0DFFA059000E00596029B069F03F00103079329460498FFF7D8FA3146044600F13008049802
:4048C00000F01DFB059A02902946504600F033FBC36802463BB901460A90049800F00FFB0A9A034600E00123114650460A9300F02EF90A9B53B91E9A42B9079A32B9B8F153
:40490000390F2AD0029B002B1CDC1DE0029A002A04DB1BD11E9ACAB9079ABAB9002B13DD01220499504600F099FA2946049000F0E6FA002803DC07D118F0010F04D0B8F15D
:40494000390F0AD004F131087C1C0CE0002B07F101040BDDB8F1390F03D139233B70013756E008F1010887F800806CE0069B2746E31A4B4504F8018C3BD000230A220499B1
:40498000504600F0FBF8059B04909E424FF00A024FF000033146504604D100F0EFF80646059084E700F0EAF8002306460A220599504600F0E3F8059079E700230A2204998B
:4049C000504600F0DBF8049029460498FFF74BFA069B00F1300804F8018BE31A4B45ECDB069B0596B9F1010FACBF4B4401331F46002601220499504600F030FA29460490BC
:404A000000F07DFA002803DC15D118F0010F12D03C4614F8013C621E392B09D1069B934204D10BF1010B3123069A02E01446F0E70133137007E03C4614F8013C621E302B01
:404A400001D11446F8E72946504600F080F8059B6BB12EB19E4203D03146504600F077F80599504600F073F801E0DDF820B00499504600F06CF80023209A23700BF10103F8
:404A80001360229B1BB11C6001E008480AE0069808E0B9F1000F3FF7E2AE1E9B022B7FF7DEAEB1E615B0BDE8F08F00BFAA56000000487047A081FF1F024B0146186800F0F5
:404AC00041BB00BF9C81FF1F10B5C9B202449042034605D01C7801308C42F8D1184610BD002010BD70B5456A04460E463DB91020FFF7E2FF6062456085600560C560656AC2
:404B0000EB6843B1636ADB6853F8260078B1026843F8262017E021220421204600F0B8FA636AE860DB68002BECD1002070BD012101FA06F56A1D9200204600F0A9FA002853
:404B4000F3D04660856000230361C36070BD70B5446A06460D463CB91020FFF7ADFF7062446084600460C4603DB1736A6A68DB6853F82210296043F8225070BD2DE9F041EE
:404B800006460C460D691F4601F1140E0023DEF80000013381B202FB0171000C0F0C02FB007089B201EB00419D424FEA10474EF8041BECDCD7B1A3689D4212DB6168304663
:404BC0000131FFF78FFF8046226904F10C01023292000C30FEF728FC21463046FFF7B7FF444604EB850301355F6125612046BDE8F081030C1B0413B90004102300E00023DB
:404C000010F07F4F04BF0002083310F0704F04BF0001043310F0404F04BF80000233002803DB420003D5581C70471846704720207047036813F007020BD0D90722D49A07C5
:404C40004BBF5B089B08036003604CBF01200220704799B209B91B0C102213F0FF0F04BF1B0A0832190704BF1B090432990704BF9B080232D90702D45B0805D001320360C5
:404C800010467047002070472020704710B50C460121FFF727FF01224461026110BD2DE9F74F14460A69236988469A42BEBF0B46A0461C46D8F81070D4F81090D8F8083093
:404CC000D8F8041007EB09069E42C8BF0131FFF709FF00F114052B4605EB860C0022634502D243F8042BFAE704F1140208F1140102EB890301EB87070093009B01929342B0
:404D000057D9B2F800B0BBF1000F23D08946AE464FF0000859F8044BBEF800A0A3B20BFB03A34FEA144ADEF8004043444FEA14480BFB0A84F24604EB13449BB243EA04439E
:404D40004F454FEA14484AF8043B01D9D646E1E7CEF80480019B0432B3F802A0BAF1000F21D02C4689462B684FF00008B9F800E0B4F802B09BB20AFB0EBEA346F04443EA45
:404D800008434BF8043B59F8043BB4F804E01B0C0AFB03E34F4503EB18434FEA134801D95C46E3E763600435A7E75CF8043D13B9013E002EF9DC066103B0BDE8F08F0000D2
:404DC0002DE9F843154612F0030206460F4607D0214C013A002354F82220FFF7CFFE0746AD1036D0746A3CB91020FFF765FE7062446084600460C460D6F82480D8F8084094
:404E00004CB940F271213046FFF740FF04460023C8F8080003604FF00008EB070AD5394622463046FFF73BFF814639463046FFF78EFE4F466D100CD0206808B10446ECE737
:404E4000224621463046FFF72AFF2060C0F80080F4E73846BDE8F883B05700002DE9F0470C460746914626694FEA621A56444968A368751CAB4202DA01315B00FAE73846F3
:404E8000FFF730FE002380461A4600F11401534503DA41F823200133F9E72AEAEA73206901EB830319F01F0904F1140101EB800E14D0C9F1200C002208689A4600FA09F02A
:404EC000024343F8042B51F8042B8E4522FA0CF2F2D8CAF8042042B1B51C06E0043B51F8042B8E4543F8042FF9D8013D3846C8F810502146FFF72BFE4046BDE8F08703690B
:404F00000A6910B59B1A11D192001430143183180A4453F8044D52F8041D8C4202D007D3012010BD9842F4D3002010BD184610BD4FF0FF3010BD2DE9F8430C4607461146F4
:404F400020461546FFF7DBFF061E08D131463846FFF7C8FD012303614661BDE8F883BCBF23462C4638466168BABF1D4601260026FFF7B8FD2B69C660266905F1140904F1E2
:404F8000140101EB860709EB830800F114054FF0000C51F8042B59F8044B93B29C44A3B2240CC3EB0C03C4EB124202EB23429BB24FEA224CC84543EA02428E4645F8042B09
:404FC000E7D8BE450ED25EF8041B8AB26244131403EB114392B242EA03424FEA234C45F8042BEEE755F8043D0BB9013EFAE70661BDE8F8832DE9F3411C4601219046089E6E
:40500000099DFFF76FFDC4F31302C4F30A5407460CB142F480120192B8F1000F19D002A840F8088DFFF705FE009B48B1019AC0F1200102FA01F10B43C2407B61019200E083
:405040007B61019B002B14BF02210121BB61396107E001A8FFF7EDFD019B01217B613961203034B1A4F2334404443460C0F1350009E0A0F2324007EB810330601869FFF7AD
:40508000B8FDC0EB41102860384602B0BDE8F08138B502FB01F4214600F054F8054618B122460021FEF7CBF9284638BD38B50546002944D051F8043C0C1F002BB8BFE4186F
:4050C00000F017FA1E4A1368114613B96360146030E0A3420DD92268A018834201BF18685B681218226063600C6023E0A24203D813465A68002AF9D118681918A1420BD171
:405100002168014458188242196013D110685268014419605A600DE002D90C232B6009E021686018824201BF106852680918216062605C602846BDE8384000F0DBB938BD20
:40514000E483FF1F70B5CD1C25F0030508350C2D38BF0C25002D064601DBA94202D90C23336046E000F0C5F9234B1C681A462146A1B10B685B1B0ED40B2B03D90B60CC18F9
:40518000CD501EE08C420BBF63684B681360636018BF0C4615E00C464968E9E7174C23681BB9304600F07AF920602946304600F075F9431C18D0C41C24F00304A0420DD137
:4051C0002560304600F096F904F10B00231D20F00700C31A0ED05A42E25070BD211A304600F05CF90130EBD10C233360304600F081F9002070BD00BFE483FF1FE083FF1F91
:405200002DE9F0478E6882469E420C46914698463ED88A8912F4906F3AD02568096902236F1A656905EB450595FBF3F57B1C43449D4238BF1D4653050FD52946FFF782FF9E
:40524000064698B13A462169FEF7EEF8A38923F4906343F08003A38113E02A4600F04BF9064670B921695046FFF720FF0C23CAF80030A3894FF0FF3043F04003A381BDE869
:40528000F08726613E44266046466561ED1BA560464528BF464649463246206800F00EF9A36800209B1BA36023681E442660BDE8F08700002DE9F04F9DB003938B89804680
:4052C0001C060D4616460DD50B695BB94021FFF739FF2860286118B90C23C8F80030CDE040236B610023099320238DF82930DFF89CB130238DF82A3037463C4614F8013B8A
:405300001BB9B7EB060910D003E0252BF9D02746F3E74B46324629464046FFF771FF013000F0A780099B4B4409933B78002B00F0A08000234FF0FF32049307930592069368
:405340008DF853301A930126052221784E48FFF7BBFB671C049B38B14B4A3C46801A06FA00F018430490EFE7D90644BF20228DF853201A0744BF2B228DF8532022782A2A6B
:4053800003D0079A00210A200BE0039A111D12680391002A10DA524243F00200079204900BE027463B780134303B092B03D800FB02320121F5E701B107923B782E2B1ED133
:4053C0007B782A2B0AD1039B02371A1D1B680392002BB8BF4FF0FF33059310E0002319460593781C0A2407463A780130303A092A03D804FB01210123F5E703B105910322B5
:4054000039782248FFF760FB40B14023CBEB000003FA00F0049B013718430490397806221B487E1C8DF82810FFF74EFB88B1194B33B9039B073323F007030833039314E02E
:4054400003AB00932A46144B04A94046FEF790F807E003AB00932A460F4B04A94046FEF741FBB0F1FF3F824603D0099B5344099342E7AB895B0601D4099801E04FF0FF3042
:405480001DB0BDE8F08F00BFE8570000EE570000F2570000713500000152000038B5064C0023054608462360FCF79EF8431C02D1236803B12B6038BDC886FF1F884210B583
:4054C00001EB020301D8421E0BE09842FBD28118D21AD34204D013F8014D01F8014DF8E710BD994204D011F8014B02F8014FF8E710BD70477047F8B5074615460E4621B94B
:405500001146BDE8F840FFF71DBE1AB9FFF7CEFD2846F8BD00F015F885420ED929463846FFF710FE044650B131462A46FDF77CFF31463846FFF7BAFD01E03046F8BD20465E
:40554000F8BD51F8040C0028BEBF091851F8043CC0180438704700004FEA410C7FEA6C5C02D150EA013C0AD14FEA430C7FEA6C5C02D152EA033C02D14FF0000070474FF018
:40558000010070470000000046726F6E74206469737420313A20256C660A000043616C6962726174696E670A0000000048656164696E673A20256C660A0000006D6F76697A
:4055C0006E6720746F20736C697400007265643A2025640A00000000677265656E3A2025640A0000626C75653A2025640A000000766F6C742856293A20256C660A00000075
:405600006469737428636D293A20256C660A000041726520796F752072656164793F0000526561647920200053746172740000007374657020320000200000005265636541
:405640006976656420200000C84900401900004F00402400405100403000F05100401000000001400010001401408006001B0140000100400140000A004C014000020050A0
:405680000140200060520040741100480600801A01407C11004880004300494E4600696E66004E414E006E616E0030003031323334353637383941424344454600303132B8
:4056C0003334353637383961626364656600496E66696E697479004E614E00504F534958002E000000000000000000000000F03F00000000000024400000000000005940A7
:405700000000000000408F40000000000088C34000000000006AF8400000000080842E4100000000D01263410000000084D797410000000065CDCD41000000205FA002425E
:40574000000000E876483742000000A2941A6D42000040E59C30A2420000901EC4BCD64200003426F56B0C430080E03779C3414300A0D8855734764300C84E676DC1AB43B6
:40578000003D9160E458E143408CB5781DAF154450EFE2D6E41A4B4492D54D06CFF08044F64AE1C7022DB544B49DD9794378EA4405000000190000007D0000000000000045
:4057C0000080E03779C34143176E05B5B5B89346F5F93FE9034F384D321D30F94877825A3CBF737FDD4F1575232D302B2000686C4C0065666745464700000000F8B500BFCF
:40580000F8BC08BC9E4670474D00000065160000F8B500BFF8BC08BC9E4670472900000030580000C880FF1F10010000F80400000000000000000000000000000000144096
:4058400000409C4600409C4601000000000000009A9999999999B93F9A99999999991540CDCCCCCCCC4C36400000000000A6AC4067020000AC0300000D020000D403000019
:4058800000409C4500409C450000000000001440D086FF1F0000E02EC05D00001800000000366E0100000000000000000000000000000000000000000000000000000000F6
:4058C00000000000985600000000000000000000000000000000000000000000000000000000000000000000000000000000000000000000000000000000000000000000BA
:40590000000000003C81FF1FE1560000ED570000ED570000ED570000ED570000ED570000ED570000ED570000ED570000ED570000FFFFFFFFFFFFFFFFFFFFFFFFFFFF0000FF
:405940000000000000000000000000000000000000000000000000000000000000000000000000000000000000000000000000000000000000000000000000000000000027
:4059800000000000000000000000000000000000000000000000000000000000000000000000000000000000000000000000000000000000000000000000000000000000E7
:4059C00000000000000000000000000000000000000000000000000000000000000000000000000000000000000000000000000000000000000000000000000000000000A7
:405A00000000000000000000000000000000000000000000000000000000000000000000000000000000000000000000000000000000000000000000000000000000000066
:020000040003F7
:0200000480007A
:40000000064F00400152004008640040046500405E000140400101404B0201404E030140670401404C05014054060140560701405D08014054090140690A0140490B0140FE
:40004000690C0140520D0140620E0140400F01404B1401404815014067160140521701405D18014049190140231A0140541B0140074001400A4101400E4201401143014082
:400080000545014003460140064701400D4801401B490140134C0140114D01400B5001400351014001400A4B0D40164B1950221B1901810F826F860F870F890F8A778C0D10
:4000C0008F6F860F88728A0D8B3802030404080109060F011105120113021502170419031C042106230125072804300432023601370738023E414054410249FF4AFF4BFF4D
:400100004DA04F0150185280580459045A045B045F016040628064406540668068406A806C406D206E808202830187018804950298049E049F02A001A401A901B101B20220
:40014000B404B601B702B880BE10BF41C054C102C54EC632C70CC81FC9FFCAFFCBFFCDAFCE07CF01D018D40FD804D904DA04DB04DF01E040E280E440E540E680E840EA8055
:40018000EC40ED20EE800012014403110520074009400B400D200E0111201660181019401A421D041E09200221402440270128802A082D20300832023310350436803740DA
:4001C00039903C043E014004412042C04520468049404A044B104D024E215550566057085C405D045F1273408220831085408D30C05EC2C9C432CA23CC57CECCD0A5D218BB
:40020000D6F0E006E4010166030804100602081809800A040C180E020F78115D1320193B1A011D661E201F10221E241626082780280E29402B083020317832013307341E54
:40024000378039083F40540F580459045B045F05860388048A088C0A8E049301940EA00CA40CA602A701A806AD01B20EB501B601BF10C052C103C6ECC70BC81CC9FFCAFF50
:40028000CBFFCEF0CF44D00CD280D804D904DA04DB04DD03DF01E6C0EA40EB020040012804C0051006200B200C800E0410101101120C14101501160419881C101D101E4055
:4002C0001F1020082602275229A82A202D102E042F20310237513C903D0240204110448047014801510452505D405E285F026608670471027A107B207E088C2091409510CD
:40030000988099049F10A040A101A520A682A901AA08ACC8AF02B202B502B708C0E7C2C4C47ECA6ACCB1CEB0D006D208D6F0D860DE20E680EA02EE0301090306047308948C
:4003400009200A600C300D040EC90F08150117021A0F1CFD1D061E021F1920CF211F2230251027062C9E2E60332034FF371F3E103F044062410549FF4AFF4BFF4DA04F011B
:400380005018580459045A045C105F016040628064406540668068406A806C406D206E808308872089028A048B048D08900291029304970E990E9D0E9E02A001A301AB10C6
:4003C000AE01B202B320B401B51EB604B701BE10C062C105C54CC620C73EC83BC9FFCAFFCBFFCDAFCE07CF01D018D804D904DA04DF01E040E280E440E540E680E840EA807A
:40040000EC40ED20EE8000A0011003100410088009200C800E40110212021601170119201E2921402244242025202709290A2D202E023008324034803602371839423A1002
:400440003CA03D023E04400C440848044A014B504E804F54560B57227D087F20840186108810910992409320948095309704988099049A509B109C309E2CA064A101A20276
:40048000A481A520A684A720AD01C047C293C499CAA3CCFACEFDD024D23CE020EA08010202020304040205080B100D020F041101130E1501190E1E0226012708290E2F015D
:4004C0003002311E320133013E013F04540F580459045B045C025F018194836084738573860C888089CF8B308D9E8E558F60902A9244930F9608987399FD9A049B02A00379
:40050000A244A680A930ABC9B080B20FB3FFB430B640B820BA08BE51BF04C002C604C9FFCA07CBFFCC40CD20CEF0CF05D008D401D804D904DA04DB04DC03DD33DF01E040ED
:40054000E1A8E240E32000800108030805040680082809200A800E0210201240130A170819891B201E401F08231024102502260129102A202B042E802F1530103102321089
:40058000341035043601388039013A063B6C3D013F58432048405280580159A05A085C125E405F048441851988129020910992099320948495629604980199049A409C30DF
:4005C0009D029E24A020A104A210A302A499A601AD08B410B540C037C28EC42CCA74CCE5CEFFD004D6FFE240E440E682E810EC20EE8801230204031C05800602077F0A0161
:400600000E01122014031575178A1A3C1C241E1821FF220125132610272C28142A282D052E082F4A323C330F340335F040644103420249FF4AFF4BFF4F0150185804590474
:400640005A045C115D015F016040624064406540668068806A806C806E80800683018C06900296019A04B201B301B606B880BE40C064C101C202C5ECC720C823C9FFCAFF5A
:40068000CBFFCD83CE03CF01D018D403D604D804D904DA04DB04DD11DF05E040E240E440E540E680E880EA80EC80EE8000020201041406820A480B200E020FA414121512CF
:4006C00018011A221C141F082208262027142D042F813601370538023E0C3F0141014204438044204502464849054B104F10510359055A805B105E205F10602062026320B4
:400700007B8086208A128B408E208F409002911092CC930194019502962298129A819B019D809E20A401A618A708AA04AF20B288B308B701C0F9C2FEC4F0CAD0CC40CEC151
:40074000D0EDD224D60FD801DE01E240E440E680EC30EE8407020A08120518041B01260A29013008310132023401350236043D023E4040314102420549FF4AFF4BFF4DA067
:400780004F0150185417580459045A045B045C225D225F056040628064406540668068406A506BA86C406D206E506FA880018210840886808B028C998E669301960F9702EE
:4007C000980499019A409D029E0FA101A701A855AAAAAC02AE20AF02B301B40FB6F0B702B920BB80BD80BE10BF14C025C103C204C9FFCAFFCBFFCDAFCE07CF01D018D280E8
:40080000D804D904DA04DB04DC21DD22DF01E040E280E440E540E680E840EA50EBA8EC40ED20EE50EFA8001006A007010A480C100E2A10201402151019401A481B441E0625
:400840001F2020802220240425082640271A28402B442C022E093020350936603A083C10400541084440471849404E0159A05B04616475017A807E80880289019012911042
:40088000928195039622992C9A019B059C409F1AA022A120A280A441A608A708AD04C0B2C2EAC4C4CAD4CCF4CE22D0EED218D60ED80EDE81E020E480002004020604080146
:4008C0000A060C01120313031A081D011E10203028082E203008310232033404350136303C083E113F1040254103420449FF4AFF4BFF4DAF4E074F0150185405560458043C
:4009000059045A045B045C225D225F056040628064406540668068406A506BA86C406D206E506FA88308850287018B0495019601970299019B02AB08AD01AF02B303B50461
:40094000B601B708BB08BF40C025C103C204C50EC6C5C702C83DC9FFCAFFCBFFCDAFCE07CF01D018D280D804D904DA04DB04DD22DF01E040E280E440E540E680E840EA5006
:40098000EBA8EC40ED20EE50EFA8000202C004100508061007420A200C020E010F081645180219401C501E05200421042240274429402B082C082D20321836023740392A08
:4009C0003C803E4040804220431044C04620471849844D804E015048512052035D025E4467806D106F0170027E8089108B408C409454950199029A14A020A304A401AA0145
:400A0000AB08AC01AD08AE20B301B440B560B604B704C0F0C2D4C4D0CA0CCC96CE07D0E7D218D6D0D880DE80E690E850EC20050207051201150417021D021F042502270417
:400A40003201330637013B084035410249FF4AFF4BFF4DA04F045018580459045A045D025F01604062C06440654066C068C06AC06CC06EC080408103830C840B860487200E
:400A800088078C0C8E018F10910A9305940895079601990F9A209C0C9E02A120A20FA650A90CAB03AD05AF0AB010B110B20FB440B50FB620B720BE10BF40C035C106C5D139
:400AC000C620C80BC9FFCAFFCBFFCDAFCE0FCF04D018D40FD804D904DA04DB04DD02DF05E040E2C0E440E540E6C0E8C0EAC0ECC0EEC004080501070908200A840D080E0654
:400B00001501170419081D011E081F482108224024882620274229082C012F48310832403620370938043D413E04401042204320462048014A024C204D024E024F205610D0
:400B400057305C605E085F02652066087D0881048208830886048F44C0F0C2E8C430CAB2CCEACED2D046D238D6F0D860DE40E210E41000200401051C061609300A400B0CBE
:400B80000D020E03101C1203164017011801193C1A0E1C201D281F14210C22082330261C2701282029142B28300F32203301341A353C364037023A223E403F405280580476
:400BC00059045B045C035D905F01800C811083028501880A8B1E8C019406972099169B089D189F04A320A40CA518A702A801A90FAD01B001B11EB20EB501B720B80AB92052
:400C0000BF10D804D904DF010080011802400580074809680A880E201120128013041504160819011A891B081E201F0520022230231824842580274029102A062C802D84F0
:400C40002F16321833403628374039803B283D083E0A3F2072808401868189188B188D8091809324948496A0970A99189A469D01A0C0A154A288A312A520A820B140B40278
:400C8000B620C0DFC22FC46ECAF7CC7ECEEEE00AE210E409EA25EE0408040A0813011408160418041A081B011F022404260A2A012B042D043001320C3302340235013704FA
:400CC0003A083F104020410549FF4AFF4BFF4DA04F04501852805407580459045A045B045F01604062C06440654066C068C06AC06CC06EC080018206851489408C018E02D2
:400D00008F039802992C9A019B119C019D109E0AA11CA322A530A70CA909AB10B008B403B560B604B71FB920BA20C020C105C50DC605C721C835C9FFCAFFCBFFCDAFCE0F6F
:400D4000CF04D018D283D804D904DA04DB04DC30DD10DF01E040E2C0E440E540E6C0E8C0EAC0ECC0EEC0018204200A090D080E041420160419921A081B101C201D081E44CD
:400D80002140230426482738280829092E402F08312032803602376039A8431047204A224E025080520653085C025EA05F0864086704680C694072807740864088048A806F
:400DC0008D5090209128920193209484954096A4970A99089A029C089D10A040A104A290A302A498A520A903B120B302C049C263C460CA37CCBCCE0ED024D218D6F0E2083D
:400E0000E404E608E804EC0EEE1000010502068009060A400C110D780E0C1010117F151E16021761182019501E401F79217922402306240825062779280929282A142B80C4
:400E40002C042D04318032FF331E3507376038083B28403249FF4AFF4BFF4F01501856025711580459045A045B045C315D395F016040624064406540668068806A806C807B
:400E80006E8085018901910192019901B301B401BB02BF04C032C9FFCAFFCBFFCD83CE03CF01D018D804D904DA04DB04DC30DD09DF01E040E240E440E540E680E880EA805B
:400EC000EC80EE8004140680070108010E020FA41412151016401B201C101E20220323102409250427542C802DA02F103201331034803622370438083B203C403E284128DC
:400F0000452046105F1068016C026E1474087580762D840289048B048C808E118F19900491109504978698129AC09B01A358A401A610A820A980AB80AF10B602C0F0C2F847
:400F4000C4F0CAF0CCF5CE76D066D620E060E424E618EC08EE100B011A011B012601310136013E40403245EC4620480B49FF4AFF4BFF4D834E034F0150185401580459042B
:400F80005A045B045C905D995F016040624064406540668068806A806C806E8004080605074009200C0A0E0812101480162819801C801E081F1821012440262127112D109A
:400FC0002F08312036213A103D023E143F80412842804301448045044620471049054C024D184E015120574059855C0164046680678084048508861088C089088D218E08AF
:40100000900992169440950297A09A059B409C809D209E10A008A104A528A620AB20AC01B101B204C0F0C272C474CA20CCA4CEF4D0E6D230D68BD8B0E020E280E489E6205E
:40104000EA27EE2032023380348037083B80CCF0CE100C1063028B0897809C809F08A602A780C280D640010807203E105B085F088810978098109C80A602A781C030CE20A4
:40108000D6C01B011F046B088B408FC09610978099089B089C80A501A602A781B328B501C630DA40014002208820C00AE6049140A220A4208F20A420A940B220E202EA0484
:4010C0008020850896109C809F02A501A740A908AF06B602E420E610EC70070209010F80122014205A8075087B0282208E4099089C209F02A302A501A740AA10AB02B0804C
:40110000C080C230C430D480DC80DE20E480EAA00A040C20132814401F2052087B107C0880088440A301A420A720AF01C203C40EC601D404DE03122075087B0183108508EF
:401140008A088E20A301A608A710AB28AE04C408DC01DE04E208E401000F08090A0F0C070E05100B11011A0B1B011C0B1D0100FF010303C082A0000043000000004404A220
:401180001CCE610008CE0000100000017F02001C180000005C8822620000000000004300670018000400000100000000200E58301FC00001020020000000004434050600DE
:4011C000020E0C0005FFFFFF62A0F0410C0000001800040004040404333300010000000000004002001030100010101200000000000000000000000000000000803D3D0041
:4012000020000000830048A4A700A30000000000C03F3F000400000005F8F800000000008000388707000100400000000E00180100000000000000000000000000000000F0
:40124000000000000000000000000000000000000000000000000000000000000000000000000000000000000000000000000000000000000000000000000000000000006E
:40128000000000000000000000000000000000000000000000000000000000000000000000000000000000000000000000000000000000000000000000000000000000002E
:4012C00000000000000000000000000000000000000000000000000000000000000000000000000000000000000000000000000000000000000000000000000000000000EE
:4013000000000000000000000000000000000000000000000000000000000000000000000000000000000000000000000000000000000000000000000000000000000000AD
:0200000490006A
:0400000000004005B7
:0200000490105A
:04000000BC90ACAF55
:0200000490303A
:0200000052317B
:0200000490402A
:4000000000000000000000000000000000000000000000000000000000000000000000000000000000000000000000000000000000000000000000000000000000000000C0
:400040000000000000000000000000000000000000000000000000000000000000000000000000000000000000000000000000000000000000000000000000000000000080
:400080000000000000000000000000000000000000000000000000000000000000000000000000000000000000000000000000000000000000000000000000000000000040
:4000C0000000000000000000000000000000000000000000000000000000000000000000000000000000000000000000000000000000000000000000000000000000000000
:0200000490501A
:0C00000000012E16106900012E3F629ACC
:00000001FF