:400000000080002011000000D1060000D106000008B5044B1A6803F53F5302331A6000F077FB00BFFA46004010B5054C237833B9044B13B10448AFF300800123237010BD57
:400040009881FF1F00000000543E0000084B10B51BB108490848AFF300800848036803B910BD074B002BFBD0BDE81040184700BF000000009C81FF1F543E0000C880FF1F3E
:4000800000000000F8B5164B1B68012B27D1144C60680028B8BF4042A368002BB8BF5B42C01A01F051F9C4E904010E4DD5E9002301F0B0F906460F46A86801F057F93246F1
:4000C0003B4600F0F5FF01F0B7FBE86001F088FD80B200F03FFED4E90423C4E90623F8BDB881FF1FD080FF1F10B500F01DFF00F033FF0E4C2084C0F57F43FF330C4880FB3E
:4001000003201844DB17C3EB601001F09FFC606201F02CF9074C02460B460749204602F02FFA204600F092FC10BD00BFB881FF1F09CB3D8D4882FF1F583E000010B5002443
:40014000074B1C60204600F03DFB204600F046FB204600F05DFD204600F066FD10BD00BFB881FF1F10B50124074B1C60002000F029FB204600F032FB002000F049FD204615
:4001800000F052FD10BD00BFB881FF1F10B50124074B1C60204600F015FB002000F01EFB204600F035FD002000F03EFD10BD00BFB881FF1F10B50124074B1C60002000F058
:4001C00001FB204600F00AFB204600F021FD002000F02AFD10BD00BFB881FF1F10B50124074B1C60204600F0EDFA002000F0F6FA002000F00DFD204600F016FD10BD00BF16
:40020000B881FF1F0000000070B505460E461EE000F010FB3C4C606000F038FCA060012E02D1FFF79FFF01E0FFF7B0FF322000F0E1FA08E0012000F005FF0A2000F0F0FA04
:40024000002000F0FFFE00F009FF0028F2D02E4B5B68002BB8BF5B42AB420DDC2A4B9B68002BB8BF5B429D4206DB2849264B586A01F0ACFC0028CBD1FFF760FF00F0DAFAAD
:40028000044600F003FC204400EBD070401001F05BF81BA3D3E9002301F0BCF81A4B9B6A3BB9194CD4E90C2300F002FFC4E90C0120E0012B07D1144CD4E90E2300F0F8FE0E
:4002C000C4E90E0116E0022B09D10F4C02460B46D4E90C0100F0EAFEC4E90C010AE0032B08D1094C02460B46D4E90E0100F0DEFEC4E90E01044A136C0133136470BD00BF5E
:40030000269071E403F3723FB881FF1F0000204170B505460E460DE000F08CFA1D4C606000F0B4FBA060012E02D1FFF757FF01E0FFF740FF174B5B68002BB8BF5B42AB42AF
:4003400006DC144B9B68002BB8BF5B429D42E3DAFFF7F4FE012E0BD10E4B9B6A032B03D100220C4B9A620DE001330A4A936209E0084B9B6A1BB90322064B9A6202E0013B87
:40038000044A9362002000F05DFA002000F086FB70BD00BFB881FF1F10B562B6274800F0A7FD00F07DFD00F017FE254800F03CFE00F0A8FC00F016FD00F072FA002000F0D6
:4003C00041FA00F099FB002000F068FB00F024FB1C4CA06801F004FC80B200F04BFCA06801F0FEFB80B200F0B5FC4FF4FA6000F001FA04E0012141F2E300FFF705FF124B32
:400400001B6C002BF6D04FF4FA7000F0F3F9002000F018FA002000F041FB0B4B00225A609A6004E0012140F6D540FFF771FF064B1B6C012BF6D0002010BD00BF850000006F
:40044000E9000000D080FF1FB881FF1FFEE700BFF0B40022174611E050F82760F3B226F0FF0608E001EB420511F812406D78A5550132013BDBB2002BF4D10137202FEBD9FB
:40048000F0BC7047064B1B78DBB203F00701054A11701B09013213704422034B1A707047CF0100496E5800407658004008B50A46002101F0ECFB08BD38B517222A4B1A80A1
:4004C00018232A490B7002310A8002310B7002310A80274A1370332102321180023213700222244B1A7008224FF040231A70032103F500731970204B1B78DBB21F490B70EE
:400500001F4B1A8041F25122023B1A80002419250CE01C4B1B7803F0010343EA440404F003044FF4F07000F0A3FD013D0DB1032CEFD115B90320FFF789FF134B4FF480726B
:400540001A8007221A70002210490A704820023108701A700222033B1A700D4A137843F00F03137038BD00BF80400040824000408A4000400043004008010049A14600404A
:4005800022420040254200400440004006400040A243004008B501F06FFB08BD38B572B63A4A137843F00403137000240CE0384D630019194A0011462A44084691882858E3
:4005C000FFF774FF0134E4B20A2CF0D900240CE02F48A20011194B000344B3F84C20996C586CFFF7D7FF0134E4B2012CF0D929494FF09040FFF72CFF274A284B1A6002F57F
:40060000802203F5D0631A6002F1004203F558631A60234A137843F0020313701032137843F0020313701F4C237843F040032370A2F58632513A137843F0100313700A226D
:4006400019491A48FFF7A6FF082219491948FFF7A1FF082218491948FFF79CFF184A137843F008031370174D61232B70FFF724FF81232B700122144B1A70FFF703FF0E225E
:4006800021461248FFF786FF38BD00BFE84600406C3E000084000048040400C45800014003500140A0430040800C0048C05100408C0C004812510040940C004832510040F7
:4006C000224300400048004004000840B043004008B501F0A5FA03680C2B00D1FEE7FEE708B5094B1A681044084BC31AB3F5007F02DC054B186005E001F092FA0C230360EC
:400700004FF0FF32104608BDE880FF1F7882FF1F08B5104E104D16E029686B68AC68002204E051F8040B43F8040B0432A242F8D1E868002203E0002143F8041B0432824255
:40074000F9D11035013E002EE6D101F06FFAFFF723FEFEE7010000004840000008B5104A104B1A60104A136843F40073136000230AE0032B03D80D4A52F8231000E00C496A
:400780000C4A42F8231001332F2BF2D90A4B1A780A4B1A70074A0A4B1A60FFF7FFFE08BD0004FA050CED00E014ED00E000000000D10600000080FF1FBC760040C080FF1F7D
:4007C00008ED00E0044A137803F0DF03400100F0200018431070704710510040044A137803F0EF03000100F010001843107070471051004010B5044605E0084B186800F049
:4008000037FCA4F50044B4F5004FF6D8034B586800FB04F000F02CFC10BD00BFEC80FF1F08B5034B1B7A00FB03F000F021FC08BDEC80FF1F08B500F05FF8A0F5004000B242
:4008400008BD00BF08B5002803DB80B280F4004002E0A0F5004080B200F048F808BD00BF024B187800F00F00704700BF64640040014B1870704700BF8464004008B50F20F6
:40088000FFF7F6FFFFF7ECFF00F0FAFB034A137843F01003137000F0F7FB08BD9464004008B500F07BF84FF4004000F01FF8044B1B7813B90122024B1A70FFF7DFFF08BD1C
:4008C0002082FF1F024A137843F080031370704778650040014B1870704700BF84650040014B1878704700BF64650040014B1880704700BF10680040024B1B78024B1888A7
:4009000080B270470864004090680040014B188880B2704790680040014B1880704700BF50680040014B1880704700BF7068004008B501E0FFF7EAFFFFF7D2FF10F0400F86
:40094000F8D108BD08B5134B1A7802F0F8021A701A7802F0FC021A70FFF7EAFF4FF40040FFF7DAFF4FF40040FFF7C0FF0020FFF7B1FFFFF7B5FF4FF40040FFF7D3FF00F0A6
:400980007FFB054A137843F01003137000F07CFB08BD00BF786500409465004008B5054B1B7823B9FFF7CEFF0122024B1A70FFF789FF08BD2182FF1F7222084B1A702022E9
:4009C00003F580731A700622613B1A70472210331A70002253331A70704700BF8964004010B500F04DFB04460A4A137843F02003137002F58072137843F0100313700232B9
:400A0000137843F01003137000F032F8204600F03BFB10BD9964004008B5054B1B7823B9FFF7CAFF0122024B1A70FFF7D9FF08BD2282FF1F034B1B7813F0040FFAD1024B19
:400A4000187070476B6500404B65004038B5074B1B782BB938BDFFF7EDFF0134A4B201E005460024285D0028F5D138BD2282FF1F054A137843F0080313701032137843F00A
:400A800008031370704700BFA243004008B500F05FF8A0F5004000B208BD00BF08B5002803DB80B280F4004002E0A0F5004080B200F048F808BD00BF024B187800F00F00DC
:400AC000704700BF63640040014B1870704700BF8364004008B50F20FFF7F6FFFFF7ECFF00F0CEFA034A137843F01003137000F0CBFA08BD9364004008B500F07BF84FF4E3
:400B0000004000F01FF8044B1B7813B90122024B1A70FFF7DFFF08BD2482FF1F024A137843F080031370704771640040014B1870704700BF80640040014B1878704700BFCD
:400B400060640040014B1880704700BF04680040024B1B78024B188880B270470264004084680040014B188880B2704784680040014B1880704700BF44680040014B1880B8
:400B8000704700BF6468004008B501E0FFF7EAFFFFF7D2FF10F0400FF8D108BD08B5134B1A7802F0F8021A701A7802F0FC021A70FFF7EAFF4FF40040FFF7DAFF4FF40040AF
:400BC000FFF7C0FF0020FFF7B1FFFFF7B5FF4FF40040FFF7D3FF00F053FA054A137843F01003137000F050FA08BD00BF716400409064004008B5054B1B7823B9FFF7CEFF5F
:400C00000122024B1A70FFF789FF08BD2582FF1F044A137803F0FD03400000F0020018431070704730510040044A137803F0FB03800000F0040018431070704730510040D0
:400C4000084A137843F0010313701032137843F00103137002F64D32137843F001031370704700BFA3430040014B1880704700BF044F0040014B1880704700BF064F004022
:400C8000014B1870704700BF034F004008B51A4A137843F0020313700232137803F08F0343F010031370154B1A7802F0CF021A701A7842F030021A701A7802F0F0021A7025
:400CC0001A7842F00F021A7046F2A810FFF7CCFF43F2D400FFF7CEFF0020FFF7D1FF084A137843F00103137002F65E32137843F00103137008BD00BF004F00400B4F004021
:400D0000A343004008B5054B1B7823B9FFF7BEFF0122024B1A70FFF793FF08BD2682FF1F084A137843F0020313701032137843F00203137002F65932137843F00103137069
:400D4000704700BFA3430040014B1880704700BF104F0040014B1880704700BF124F0040014B1870704700BF0F4F004008B51A4A137843F0020313700232137803F08F0350
:400D800043F010031370154B1A7802F0CF021A701A7842F030021A701A7802F0F0021A701A7842F00F021A7046F2A810FFF7CCFF43F2D400FFF7CEFF0020FFF7D1FF084A97
:400DC000137843F00203137002F66A32137843F00103137008BD00BF0C4F0040174F0040A343004008B5054B1B7823B9FFF7BEFF0122024B1A70FFF793FF08BD2782FF1FAC
:400E0000024A137843F080031370704775650040014B1870704700BF86640040014B1878704700BF6664004008B50146014800F02FF908BD24650040024B186820F07F4072
:400E4000704700BF4465004008B50146014800F01FF908BD0465004008B501E0FFF7ECFFFFF7DCFF10F0080FF8D108BD08B54EF65F20FFF7D9FF4EF65F20FFF7E5FF00F080
:400E8000FFF8064A137843F01003137000F0FCF8FFF7E2FF0120FFF7BBFF08BD9664004008B5054B1B7823B9FFF7E0FF0122024B1A70FFF7A5FF08BD2882FF1F014B1B68CB
:400EC0001864704708ED00E04001C0B2014B1870704700BF00E400E00122014B1A60704700E100E00122014B1A60704780E100E010B50446FFF7F6FF2046FFF7DFFF07208C
:400F0000FFF7E2FFFFF7E8FF10BD00BF024A137843F080031370704777640040014B1870704700BF87640040014B1878704700BF67640040014B1880704700BF4C6800406F
:400F4000014B188880B270478C680040014B1880704700BF0C680040024B1B78024B188880B27047066400408C68004000F00300044B1A7802F0FC021A701A78104318700B
:400F8000704700BF7764004008B501E0FFF7D8FFFFF7CAFF10F0080FF8D108BD08B54FF6FF70FFF7C7FF4FF6FF70FFF7CFFF00F067F8084A137843F01003137000F064F8EB
:400FC0000020FFF7D3FFFFF7DFFF0220FFF7A6FF08BD00BF9764004008B5054B1B7823B9FFF7DCFF0122024B1A70FFF78FFF08BD2982FF1F014B1B685864704708ED00E049
:401000004001C0B2014B1870704700BF01E400E00222014B1A60704700E100E00222014B1A60704780E100E010B50446FFF7F6FF2046FFF7DFFF0720FFF7E2FFFFF7E8FF9B
:4010400010BD00BF044A137803F0BF03800100F0400018431070704730510040024B1878C0F34010704700BF31510040000000000230800803D000BF01380046FCD17047EB
:40108000EFF3108072B6704780F31088704700BFCBB20370C1F307234370C1F307418170704700BF81F0004102E000BF83F0004330B54FEA41044FEA430594EA050F08BF34
:4010C00090EA020F1FBF54EA000C55EA020C7FEA645C7FEA655C00F0E2804FEA5454D4EB5555B8BF6D420CDD2C4480EA020281EA030382EA000083EA010180EA020281EAEF
:401100000303362D88BF30BD11F0004F4FEA01314FF4801C4CEA113102D0404261EB410113F0004F4FEA03334CEA133302D0524263EB430394EA050F00F0A780A4F10104A4
:40114000D5F1200E0DDB02FA0EFC22FA05F2801841F1000103FA0EF2801843FA05F359410EE0A5F120050EF1200E012A03FA0EFC28BF4CF0020C43FA05F3C01851EBE37175
:4011800001F0004507D54FF0000EDCF1000C7EEB00006EEB0101B1F5801F1BD3B1F5001F0CD349085FEA30004FEA3C0C04F101044FEA445212F5800F80F09A80BCF1004F2C
:4011C00008BF5FEA500C50F1000041EB045141EA050130BD5FEA4C0C404141EB010111F4801FA4F10104E9D191F0000F04BF01460020B1FA81F308BF2033A3F10B03B3F122
:4012000020020CDA0C3208DD02F1140CC2F10C0201FA0CF021FA02F10CE002F11402D8BFC2F1200C01FA02F120FA0CFCDCBF41EA0C019040E41AA2BF01EB0451294330BD93
:401240006FEA04041F3C1CDA0C340EDC04F11404C4F1200220FA04F001FA02F340EA030021FA04F345EA030130BDC4F10C04C4F1200220FA02F001FA04F340EA030029461B
:4012800030BD21FA04F0294630BD94F0000F83F4801306BF81F480110134013D4EE77FEA645C18BF7FEA655C29D094EA050F08BF90EA020F05D054EA000C04BF1946104628
:4012C00030BD91EA030F1EBF0021002030BD5FEA545C05D14000494128BF41F0004130BD14F580043CBF01F5801130BD01F0004545F0FE4141F470014FF0000030BD7FEAA9
:40130000645C1ABF194610467FEA655C1CBF0B46024650EA013406BF52EA033591EA030F41F4002130BD00BF90F0000F04BF0021704730B54FF4806404F132044FF00005E5
:401340004FF0000150E700BF90F0000F04BF0021704730B54FF4806404F1320410F0004548BF40424FF000013EE700BF42004FEAE2014FEA31014FEA02701FBF12F07F43CE
:4013800093F07F4F81F06051704792F0000F14BF93F07F4F704730B54FF4607401F0004521F0004120E700BF50EA010208BF704730B54FF000050AE050EA010208BF7047C4
:4013C00030B511F0004502D5404261EB41014FF4806404F132045FEA915C3FF4DCAE4FF003025FEADC0C18BF03325FEADC0C18BF033202EBDC02C2F1200300FA03FC20FA24
:4014000002F001FA03FE40EA0E0021FA02F11444C1E600BF70B54FF0FF0C4CF4E06C1CEA11541DBF1CEA135594EA0C0F95EA0C0F00F0DEF82C4481EA030621EA4C5123EA78
:401440004C5350EA013518BF52EA033541F4801143F4801338D0A0FB02CE4FF00005E1FB02E506F00042E0FB03E54FF00006E1FB03569CF0000F18BF4EF0010EA4F1FF043C
:40148000B6F5007F64F5407404D25FEA4E0E6D4146EB060642EAC62141EA55514FEAC52040EA5E504FEACE2EB4F1FD0C88BFBCF5E06F1ED8BEF1004F08BF5FEA500E50F1E8
:4014C000000041EB045170BD06F0004646EA010140EA020081EA0301B4EB5C04C2BFD4EB0C0541EA045170BD41F480114FF0000E013C00F3AB8014F1360FDEBF002001F0D2
:40150000004170BDC4F10004203C35DA0C341BDC04F11404C4F1200500FA05F320FA04F001FA05F240EA020001F0004221F0004110EBD37021FA04F642EB06015EEA430E38
:4015400008BF20EAD37070BDC4F10C04C4F1200500FA04F320FA05F001FA04F240EA020001F0004110EBD37041F100015EEA430E08BF20EAD37070BDC4F1200500FA05F226
:401580004EEA020E20FA04F301FA05F243EA020321FA04F001F0004121FA04F220EA020000EBD3705EEA430E08BF20EAD37070BD94F0000F0FD101F00046400041EB010130
:4015C00011F4801F08BF013CF7D041EA060195F0000F18BF704703F00046520043EB030313F4801F08BF013DF7D043EA0603704794EA0C0F0CEA135518BF95EA0C0F0CD0C6
:4016000050EA410618BF52EA4306D1D181EA030101F000414FF0000070BD50EA410606BF1046194652EA430619D094EA0C0F02D150EA013613D195EA0C0F05D152EA03360F
:401640001CBF104619460AD181EA030101F0004141F0FE4141F470014FF0000070BD41F0FE4141F4780170BD70B54FF0FF0C4CF4E06C1CEA11541DBF1CEA135594EA0C0F48
:4016800095EA0C0F00F0A7F8A4EB050481EA030E52EA03354FEA013100F088804FEA03334FF0805545EA131343EA12634FEA022245EA111545EA10654FEA00260EF00041A8
:4016C0009D4208BF964244F1FD0404F5407402D25B084FEA3202B61A65EB03055B084FEA32024FF480104FF4002CB6EB020E75EB030E22BFB61A754640EA0C005B084FEA4B
:401700003202B6EB020E75EB030E22BFB61A754640EA5C005B084FEA3202B6EB020E75EB030E22BFB61A754640EA9C005B084FEA3202B6EB020E75EB030E22BFB61A7546DF
:4017400040EADC0055EA060E18D04FEA051545EA16754FEA06164FEAC30343EA52734FEAC2025FEA1C1CC0D111F4801F0BD141EA00014FF000004FF0004CB6E711F4801F0F
:4017800004BF01430020B4F1FD0C88BFBCF5E06F3FF6AFAEB5EB030C04BFB6EB020C5FEA500C50F1000041EB045170BD0EF0004E4EEA113114EB5C04C2BFD4EB0C0541EA25
:4017C000045170BD41F480114FF0000E013C90E645EA060E8DE60CEA135594EA0C0F08BF95EA0C0F3FF43BAF94EA0C0F0AD150EA01347FF434AF95EA0C0F7FF425AF104606
:4018000019462CE795EA0C0F06D152EA03353FF4FDAE1046194622E750EA410618BF52EA43067FF4C5AE50EA41047FF40DAF52EA43057FF4EBAE12E74FEA4102B2F1E04379
:4018400024BFB3F5001CDCF1FE5C0DD901F0004C4FEAC0024CEA5070B2F1004F40EB830008BF20F00100704711F0804F21D113F13872BCBF01F00040704741F480114FEA85
:401880005252C2F11802C2F1200C10FA0CF320FA02F018BF40F001004FEAC1234FEAD32303FA0CFC40EA0C0023FA02F34FEA4303CCE77FEA625307D150EA01331EBF4FF070
:4018C000FE4040F44000704701F0004040F0FE4040F40000704700BF80F0004002E000BF81F0004142001FBF5FEA410392EA030F7FEA226C7FEA236C6AD04FEA1262D2EB65
:401900001363C1BFD218414048404140B8BF5B42192B88BF704710F0004F40F4000020F07F4018BF404211F0004F41F4000121F07F4118BF494292EA030F3FD0A2F1010250
:4019400041FA03FC10EB0C00C3F1200301FA03F100F0004302D5494260EB4000B0F5000F13D3B0F1807F06D340084FEA310102F10102FE2A51D2B1F1004F40EBC25008BF44
:4019800020F0010040EA03007047490040EB000010F4000FA2F10102EDD1B0FA80FCACF1080CB2EB0C0200FA0CF0AABF00EBC25052421843BCBFD0401843704792F0000F5C
:4019C00081F4000106BF80F400000132013BB5E74FEA41037FEA226C18BF7FEA236C21D092EA030F04D092F0000F08BF0846704790EA010F1CBF0020704712F07F4F04D159
:401A0000400028BF40F00040704712F100723CBF00F50000704700F0004343F0FE4040F4000070477FEA226216BF08467FEA23630146420206BF5FEA412390EA010F40F4F3
:401A4000800070474FF0000304E000BF10F0004348BF40425FEA000C08BF704743F0964301464FF000001CE050EA010208BF70474FF000030AE000BF50EA010208BF7047BC
:401A800011F0004302D5404261EB41015FEA010C02BF84460146002043F0B64308BFA3F18053A3F50003BCFA8CF2083AA3EBC25310DB01FA02FC634400FA02FCC2F120024D
:401AC000BCF1004F20FA02F243EB020008BF20F00100704702F1200201FA02FCC2F1200250EA4C0021FA02F243EB020008BF20EADC7070474FF0FF3C06E000BF4FF0010C36
:401B000002E000BF4FF0010C4DF804CD4FEA40024FEA41037FEA226C18BF7FEA236C11D001B052EA530C18BF90EA010F58BFB2EB030088BFC81738BF6FEAE17018BF40F0D1
:401B4000010070477FEA226C02D15FEA402C05D17FEA236CE4D15FEA412CE1D05DF8040B704700BF844608466146FFE70FB5FFF7C9FF002848BF10F1000F0FBD4DF808EDFE
:401B8000FFF7F4FF0CBF012000205DF808FB00BF4DF808EDFFF7EAFF34BF012000205DF808FB00BF4DF808EDFFF7E0FF94BF012000205DF808FB00BF4DF808EDFFF7D2FFFA
:401BC00094BF012000205DF808FB00BF4DF808EDFFF7C8FF34BF012000205DF808FB00BF42000ED2B2F1FE4F0BD34FF09E03B3EB126209D44FEA002343F0004323FA02F058
:401C000070474FF00000704712F1610F01D1420202D14FF0FF3070474FF00000704700BF014B1868704700BF5C81FF1F0E4B70B51E460E4C0025E41AA410A54204D056F868
:401C4000253098470135F8E702F0ECF9084B094C1E46E41AA4100025A54204D056F8253098470135F8E770BD3040000030400000304000003840000010B5431E0A449142D3
:401C800004D011F8014B03F8014FF8E710BD03460244934202D003F8011BFAE770472DE9F04788B0149F002B1E461299B8BF03F1004327F02007B6BF1E4600232D23462F00
:401CC0001446109DDDF84CA00B7003D0452F03D1013501E0032300E0022307AA049206AA03928DE828042246334600F001FD472F804602D1119BDB0728D5462F08EB050938
:401D000011D198F80030302B0AD1002200232046314602F02FF818B9C5F10105CAF80050DAF800309944002200232046314602F021F808B9302202E0CDF81C9006E0079BF7
:401D4000994503D9591C07911A70F8E74046079B159AC8EB0303136008B0BDE8F087034673B50029B8BF494203F8022BB4BF2D222B22092942701ADD0DF1070216460A251C
:401D800091FBF5F405FB1411092C01F1300102F8011D2146F4DC3031541E02F8011CB4421A460AD214F8012B03F8012BF7E71A463024214402F8024B5970101A02B070BD57
:401DC0002DE9F04F91B00C46DDF8688016461F46054601F025FA03681846099300F0F4FB00230E93D8F800300A90073323F0070303F1080294F81890D4F800B0C8F800209B
:401E0000D3E90023C4E91223D4F84CA0D4F848802AF000430B934FF0FF32A74B40460B9901F0DAFFA0B94FF0FF32A34B40460B9901F0B4FF60B9002200234046514601F053
:401E4000A3FF10B12D2384F843309C4B9C4A0AE0424653464046514601F0BEFF002800F09281984B984AB9F1470F8CBF90469846032323612BF0040323604FF0000A3DE079
:401E8000B9F1670F00F08A81B9F1470F00F0868123600193636800210DF13302059002920093424653460691CDF81090CDF80CE02846FFF7F4FE09F0DF03472B804600F0F7
:401EC0008481B9F1650F0D9900F28D8101394A4604F150000D91FFF742FF0E9A82468318012A236100F37C812268D10700F178819DF8333013B12D2384F843300097334634
:401F00000FAA2146284600F09FF9013002D14FF0FF3096E123685A0501D4236965E0B9F1650F40F2D580D4E912010022002301F021FF78B30123654A31462846B847013034
:401F4000E5D00E9B0D9A9A420BDB2368D80708D423689B0740F111814FF0000804F1190906E10A9B099A31462846B8470130CED04FF0000804F11A090E9B013B9845E7DA42
:401F800001234A4631462846B8470130BFD008F10108F1E70D9B002B29DC01234B4A31462846B8470130B2D00D9B23B90E9B13B92368D907CCD50A9B099A31462846B84796
:401FC0000130A4D04FF0000904F11A0A0D9B5B42994509DA0123524631462846B847013095D009F10109F1E70E9B4246A7E00E9AA36D9A42A8BF1A46002A914606DC4FF08E
:40200000000A29EAE97904F11A0B11E01346314642462846B8470130F1D178E701235A4631462846B84701303FF471AF0AF1010AA36DC9EB03029245F0DB08EB03090D9ABC
:402040000E9B9A420FDB2368DA070CD40E9B0D9A9844C9EB08089B1A9845A8BF9846B8F1000F08DC0FE00A9B099A31462846B8470130EBD14BE743464A4631462846B8470B
:4020800001303FF444AF4FF0000928EAE87804F11A0A09E00123524631462846B84701303FF435AF09F101090D9A0E9B9B1AC8EB03039945EEDB4BE7FFFFEF7FC63E00001A
:4020C000CA3E0000CE3E0000D23E0000D63E00000E9A012A01DCDB0738D50123424631462846B84701303FF412AF0A9B099A31462846B84701303FF40AAFD4E91201002219
:40210000002301F037FE20B14FF0000804F11A090EE00E9B08F10102013B19E001234A4631462846B84701303FF4F1AE08F101080E9B013B9845F1DB534604F150023146DC
:402140002846B84701307FF403AFE0E64246012331462846B8470130EED1D8E601234A4631462846B84701303FF4D1AE08F10108E3680F9A9B1A9845F0DBE0680F9B9842FE
:40218000B8BF18465DE062680EA8531C0DF1340E4BF480637FF474AE062201E012B90122626075E6002106910DF133018DE80C00236005904246CDF81090CDF80CE002915F
:4021C00053462846FFF76BFD80460D9BD81C02DB626893421DDDA9F102095FFA89F970E60133236184E6B9F1660F14D10029636807DD216113B92268D2071DD501330B44A8
:4022000019E013B92268D00701D5023313E0012311E04FF067090D9B0E9A934205DB22682361D10708D5013305E0002BD4BFC3F102030123134423610D9B4FF0000AA36566
:4022400056E611B0BDE8F08F2DE9F04791461F460A698B6806469342B8BF1346C9F8003091F843200C46DDF8208012B10133C9F800302368990642BFD9F800300233C9F8AF
:402280000030256815F0060510D104F1190A07E00123524639463046C04701301AD00135E368D9F800209B1A9D42F1DB94F843302268003318BF012392060FD5E118302050
:4022C00081F843005A1C94F845102244023382F8431003E04FF0FF30BDE8F08704F1430239463046C0470130F4D02268D9F80050E36802F00602042A08BF5D1B2269A368D8
:402300000CBF25EAE57500259342C4BF9B1AED184FF000091A344D4509D00123224639463046C0470130D5D009F10109F3E70020BDE8F0872DE9F04317460A7E85B06E2ABE
:40234000984606460C460C9B01F1430E00F0AE8011D8632A22D009D8002A00F0BB80582A40F0CA8081F84520834955E0642A1ED0692A1CD0C0E0732A00F0B08009D86F2A8E
:402380002ED0702A40F0B8800A6842F020020A603EE0752A24D0782A3AD0ADE01A6801F14205111D1960136884F84230A8E021681A6811F0800F02D0111D196008E011F0B3
:4023C000400F02F10401196002D0B2F9003000E01368002B3CDA2D225B4284F8432037E021681A6811F0800F02D0111D196007E011F0400F02F10401196001D0138800E0EA
:402400001368227E5C496F2A14BF0A2208221BE078225A4984F845202268186812F0800F00F104051D6003D1550601D5038800E00368D00744BF42F0200222601BB9226806
:4024400022F0200222601022002084F8430001E049490A226568002DA56008DB206820F0040020602BB9002D7DD175460CE0002B79D07546B3FBF2F002FB1033CB5C05F8CF
:40248000013D03460028F5D1082A0BD12368DA0708D5236962689A42DEBF302305F8013C05F1FF35C5EB0E0323612EE008681A6810F0800F496903D0101D1860136808E069
:4024C00010F0400F02F104001860136801D0198000E0196000232361754616E01A68111D1960156800216268284600F0A5FE08B1401B6060636804E004F1420584F8422059
:4025000001232361002384F84330CDF800803B4603AA21463046FFF797FE013002D14FF0FF3026E023692A4639463046C0470130F5D023689B0710D5002504F1190907E06B
:4025400001234A4639463046C0470130E7D00135E368039A9B1A9D42F2DBE068039B9842B8BF184605E00B7804F1420584F842308AE705B0BDE8F083D83E0000E93E0000A2
:402580000EB400B54FF402719CB0ADF814106FF00041049107914FF6FF711DAB02900690084853F8042BADF81610006802A9019301F038FA029B00221A701CB05DF804EBAF
:4025C00003B070475C81FF1F034613F8012B002AFBD1181A013870472DE9F74F03690C6980469C427FDC013C01F114074FEA840E00F1140606EB0E0357F82450019356F8DB
:4026000024300135B3FBF5F507EB0E09C5B34FF0000A3846B446D34650F8043B9AB205FB02A21B0C4FEA124A05FB03A392B2C2EB0B0BBCF800204FEA134A5A441FFA83FB9E
:40264000DCF800308145CBEB134303EB224392B242EA03424FEA234B4CF8042BDCD256F80E306BB9019B043B9E421A4602D3C8F8104005E01268043B002AF8D1013CF3E75C
:40268000404600F0F4FF00282BDB304601354FF0000E57F8042B036891B2C1EB0E0E120C99B27144C2EB134303EB214389B24FEA234EB94541EA034340F8043BE9D256F84F
:4026C000242006EB840362B9043B9E421A4602D3C8F8104005E01268043B002AF8D1013CF3E7284600E0002003B0BDE8F08F00002DE9F04F456A95B08246219CCDE9022309
:4027000045B9102000F090FDCAF82400456085600560C560DAF82430196859B15A68012393404A608B60504600F0C9FDDAF8243000221A60039BA04A002BBDBF0123236011
:40274000039B0023BCBF23F000430393DDF80C80A8BF236028F000431B0D1B0593421DD142F20F73209A1360029B43B9934A944BC8F31300002814BF1846104600E0904813
:40278000229B002B00F04685C37813B100F1080300E0C31C229A136000F03CBDDDE90245002200232046294601F0E4FA074658B1209A01231360229B002B00F01E858148C3
:4027C0001860013800F026BD12AB019313AB009322462B46504600F0C5FFC8F30A56049056B1C5F3130343F07F51204641F44011A6F2FF3611971DE0139B129E1E4406F2F3
:402800003243202B0ADD029A06F21240C3F1400322FA00F008FA03F3184304E0C3F12000029B03FA00F0FEF77FFD0123A1F1F871013E11930022644BFEF738FC58A3D3E94F
:402840000023FEF7E7FD58A3D3E90023FEF730FC044630460D46FEF777FD55A3D3E90023FEF7D8FD02460B4620462946FEF720FC04460D4601F0C6FA002283460023204603
:40288000294601F081FA58B15846FEF75DFD02460B462046294601F06DFA08B90BF1FF3BBBF1160F0DD8DDE90223484901EBCB01D1E9000101F086FA30B10BF1FF3B00233A
:4028C00000E00123109300E01090129B9E1B731E079343BFC3F10008002307934FF00008BBF1000F06DB079BCDF82CB05B440793002705E00023CBEB0808CBF100070B93F0
:402900001E9B092B28D8052BC4BF043B1E931E9BC8BF0025A3F10203D8BF0125032B20D8DFE803F0060E0204012302E0012308E000230A931F9B002B1DDD9946059321E029
:4029400000230A931F9B0BEB030909F10103012B0593B8BF012315E0012500231E930A9501E001230A934FF0FF390022CDF8149012231F9206E04FF001094B46CDF814903D
:40298000CDF87C90DAF8244000226260042101F114029A421CD86268490001326260F6E761436F63A787D23FB3C8608B288AC63FFB799F501344D33F0000F07FFA3E000005
:4029C000033F0000D73E00000000F83F103F00006168504600F03EFCDAF8243020601B680693059B0E2B00F25B81002D00F05881DDE90234BBF1000FCDE90E3430DD9F4A6D
:402A00000BF00F034FEA2B1502EBC303E80618CBCDE908340CD5DDE90E01994B05F00F05D3E90823FEF720FE0324CDE9020100E00224934E6DB1E90708D5DDE90801D6E9BD
:402A40000023FEF7E7FCCDE9080101346D100836F0E7DDE90823DDE90201FEF705FE20E0CBF1000505B3DDE90E01844B05F00F0203EBC203D3E90023FEF7CCFCCDE90201F8
:402A80007F4E2D110023022455B1EA0705D5D6E90023FEF7BFFC013401236D100836F3E71BB1CDE9020100E00224109BE3B1DDE902560022734B2846314601F065F998B12C
:402AC000059B8BB1B9F1000F40F3E6800BF1FF330893314600226C4B2846FEF79BFC0134CDE902014E4602E0059ECDF820B02046FEF72AFCDDE90223FEF78CFC634B002240
:402B0000FEF7D6FAA1F1507304460C931D46D6B9DDE9020100225E4BFEF7C8FA22460C9BCDE9020101F04EF9002840F03F820C99224601F10043DDE9020101F025F90028FA
:402B400040F02B82A8E00A9A4C4B711E002A49D003EBC103D3E9002300204E49FEF784FD22462B46FEF7A2FACDE90C01069CDDE9020101F047F90546FEF7E6FB02460B46A2
:402B8000DDE90201FEF792FADDE90C23303504F8015BCDE9020101F0F7F8002840F01D83DDE9022300203749FEF780FADDE90C2301F0EAF8002840F0D180069BE31AB3428A
:402BC0006ADADDE90C0100222F4BFEF723FC0022CDE90C01DDE902012B4BFEF71BFCCDE90201C4E703EBC1012246D1E900012B46FEF710FC069BCDE90C011D469C19DDE9F3
:402C0000020101F0FFF80646FEF79EFB02460B46DDE90201FEF74AFA303605F8016BAC42CDE902014FF0000222D11A4BDDE90C01FEF73EFA02460B46DDE9020101F0C2F818
:402C4000002840F08B80DDE90C2300201149FEF72DFA02460B46DDE9020101F095F8D8B114F8013C621E302B40F0B7821446F7E7054BFEF7CFFBCDE90201C0E7103F00007A
:402C8000E83F00000000F03F0000244000001C40000014400000E03FDDE90E34CDE90234139B002B7CDBBBF10E0F79DCAB4B03EBCB03D3E900671F9B002B14DA059B002BD6
:402CC00011DC40F06C810022A54B30463946FEF7A1FBDDE9022301F06BF8059D2E46002840F05F8165E1069CDDE9028932463B4640464946FEF7B8FC01F084F80546FEF708
:402D000023FB32463B46FEF785FB0B46024649464046FEF7CBF905F1300E069B04F801EBC3EB040E059B73452DD102460B46FEF7BFF98046894602460B463046394601F073
:402D400023F878B942464B463046394601F012F8002800F04482EB0704D440E2DDF820B000E01C4614F8012C631E392A07D1069A9A42F6D1069930220BF1010B0A701A7810
:402D800001321A702BE20022764BFEF743FB002200238046894600F0EDFF0028A6D01EE20A9A002A2BD01E9A012A0ADC119A12B103F2334302E0129BC3F136033D464446EB
:402DC00013E0059B5D1EAF42BFBF0B9BEA1B9B180B93059BB6BF2F467D1B0025002BA7BF4446059BC3EB08040023079A01211A4450469844079200F001FB064602E03D46B2
:402E000044460A9E5CB1079B002B08DDA342A8BF2346079AC3EB0808E41AD31A0793002F1DDD0A9BABB18DB131462A46504600F07FFB049A01460646504600F0E8FA049983
:402E40000890504600F03BFA089B04937A1B06D000E03A460499504600F06AFB04900121504600F0CBFA0B9B05465BB31A460146504600F05DFB1E9B0546012B18DC029B2C
:402E800083B9039BC3F3130373B9039B23F000473F0D3F054FB1079B08F1010801330793012702E0002700E0029F0B9B73B100E000272B6905EB8303186900F052FAC0F14B
:402EC000200004E01E9B012BD9DD0B9F0120079B184410F01F0008D0C0F12003042B02DDC0F11C0002E006D018461C30079B8044034404440793B8F1000F05DD4246049914
:402F0000504600F063FB0490079B002B05DD29461A46504600F05AFB0546109B23B32946049800F0A4FB00281EDA00230A220499504600F0DBF90A9B0BF1FF3B0490002B5A
:402F400000F05F81314600230A22504600F0CEF9B9F1000F06463FDC3BE000BF103F00000000144000002440059B002B2BDC1E9B022B28DDDDF81490B9F1000F11D129462D
:402F80004B460522504600F0B1F901460546049800F06DFB00280CDC03E0354600E000252E461F9B069C6FEA030B09E03546DDF820B0069B069A5C1C312313700BF1010B58
:402FC00005960026F7E00A9BDDF8149023B9069CB2E01E9B022BCFDC002C05DD31462246504600F0F3FA06469FB17168504600F031F90446326906F10C01023292000C300A
:40300000FEF73AFE01222146504600F0DFFA059000E00596029B069F03F00103079329460498FFF7D9FA3146044600F13008049800F01DFB059A02902946504600F033FBE1
:40304000C36802463BB901460A90049800F00FFB0A9A034600E00123114650460A9300F02EF90A9B53B91E9A42B9079A32B9B8F1390F2AD0029B002B1CDC1DE0029A002A82
:4030800004DB1BD11E9ACAB9079ABAB9002B13DD01220499504600F099FA2946049000F0E6FA002803DC07D118F0010F04D0B8F1390F0AD004F131087C1C0CE0002B07F1C4
:4030C00001040BDDB8F1390F03D139233B70013756E008F1010887F800806CE0069B2746E31A4B4504F8018C3BD000230A220499504600F0FBF8059B04909E424FF00A0269
:403100004FF000033146504604D100F0EFF80646059084E700F0EAF8002306460A220599504600F0E3F8059079E700230A220499504600F0DBF8049029460498FFF74CFAC7
:40314000069B00F1300804F8018BE31A4B45ECDB069B0596B9F1010FACBF4B4401331F46002601220499504600F030FA2946049000F07DFA002803DC15D118F0010F12D039
:403180003C4614F8013C621E392B09D1069B934204D10BF1010B3123069A02E01446F0E70133137007E03C4614F8013C621E302B01D11446F8E72946504600F080F8059BD0
:4031C0006BB12EB19E4203D03146504600F077F80599504600F073F801E0DDF820B00499504600F06CF80023209A23700BF101031360229B1BB11C6001E008480AE0069878
:4032000008E0B9F1000F3FF7E2AE1E9B022B7FF7DEAEB1E615B0BDE8F08F00BFD63E0000004870476081FF1F024B0146186800F041BB00BF5C81FF1F10B5C9B202449042DC
:40324000034605D01C7801308C42F8D1184610BD002010BD70B5456A04460E463DB91020FFF7E2FF6062456085600560C560656AEB6843B1636ADB6853F8260078B102684D
:4032800043F8262017E021220421204600F0B8FA636AE860DB68002BECD1002070BD012101FA06F56A1D9200204600F0A9FA0028F3D04660856000230361C36070BD70B5FD
:4032C000446A06460D463CB91020FFF7ADFF7062446084600460C4603DB1736A6A68DB6853F82210296043F8225070BD2DE9F04106460C460D691F4601F1140E0023DEF84B
:403300000000013381B202FB0171000C0F0C02FB007089B201EB00419D424FEA10474EF8041BECDCD7B1A3689D4212DB616830460131FFF78FFF8046226904F10C01023244
:4033400092000C30FEF798FC21463046FFF7B7FF444604EB850301355F6125612046BDE8F081030C1B0413B90004102300E0002310F07F4F04BF0002083310F0704F04BFF0
:403380000001043310F0404F04BF80000233002803DB420003D5581C70471846704720207047036813F007020BD0D90722D49A074BBF5B089B08036003604CBF012002208A
:4033C000704799B209B91B0C102213F0FF0F04BF1B0A0832190704BF1B090432990704BF9B080232D90702D45B0805D00132036010467047002070472020704710B50C4690
:403400000121FFF727FF01224461026110BD2DE9F74F14460A69236988469A42BEBF0B46A0461C46D8F81070D4F81090D8F80830D8F8041007EB09069E42C8BF0131FFF7A9
:4034400009FF00F114052B4605EB860C0022634502D243F8042BFAE704F1140208F1140102EB890301EB87070093009B0192934257D9B2F800B0BBF1000F23D08946AE46C1
:403480004FF0000859F8044BBEF800A0A3B20BFB03A34FEA144ADEF8004043444FEA14480BFB0A84F24604EB13449BB243EA04434F454FEA14484AF8043B01D9D646E1E7CA
:4034C000CEF80480019B0432B3F802A0BAF1000F21D02C4689462B684FF00008B9F800E0B4F802B09BB20AFB0EBEA346F04443EA08434BF8043B59F8043BB4F804E01B0C32
:403500000AFB03E34F4503EB18434FEA134801D95C46E3E763600435A7E75CF8043D13B9013E002EF9DC066103B0BDE8F08F00002DE9F843154612F0030206460F4607D053
:40354000214C013A002354F82220FFF7CFFE0746AD1036D0746A3CB91020FFF765FE7062446084600460C460D6F82480D8F808404CB940F271213046FFF740FF0446002376
:40358000C8F8080003604FF00008EB070AD5394622463046FFF73BFF814639463046FFF78EFE4F466D100CD0206808B10446ECE7224621463046FFF72AFF2060C0F8008095
:4035C000F4E73846BDE8F883D83F00002DE9F0470C460746914626694FEA621A56444968A368751CAB4202DA01315B00FAE73846FFF730FE002380461A4600F1140153458D
:4036000003DA41F823200133F9E72AEAEA73206901EB830319F01F0904F1140101EB800E14D0C9F1200C002208689A4600FA09F0024343F8042B51F8042B8E4522FA0CF2B9
:40364000F2D8CAF8042042B1B51C06E0043B51F8042B8E4543F8042FF9D8013D3846C8F810502146FFF72BFE4046BDE8F08703690A6910B59B1A11D1920014301431831832
:403680000A4453F8044D52F8041D8C4202D007D3012010BD9842F4D3002010BD184610BD4FF0FF3010BD2DE9F8430C460746114620461546FFF7DBFF061E08D1314638468F
:4036C000FFF7C8FD012303614661BDE8F883BCBF23462C4638466168BABF1D4601260026FFF7B8FD2B69C660266905F1140904F1140101EB860709EB830800F114054FF0A8
:40370000000C51F8042B59F8044B93B29C44A3B2240CC3EB0C03C4EB124202EB23429BB24FEA224CC84543EA02428E4645F8042BE7D8BE450ED25EF8041B8AB262441314D7
:4037400003EB114392B242EA03424FEA234C45F8042BEEE755F8043D0BB9013EFAE70661BDE8F8832DE9F3411C4601219046089E099DFFF76FFDC4F31302C4F30A540746F0
:403780000CB142F480120192B8F1000F19D002A840F8088DFFF705FE009B48B1019AC0F1200102FA01F10B43C2407B61019200E07B61019B002B14BF02210121BB613961E1
:4037C00007E001A8FFF7EDFD019B01217B613961203034B1A4F2334404443460C0F1350009E0A0F2324007EB810330601869FFF7B8FDC0EB41102860384602B0BDE8F08138
:4038000038B502FB01F4214600F054F8054618B122460021FEF73BFA284638BD38B50546002944D051F8043C0C1F002BB8BFE41800F017FA1E4A1368114613B963601460D7
:4038400030E0A3420DD92268A018834201BF18685B681218226063600C6023E0A24203D813465A68002AF9D118681918A1420BD12168014458188242196013D110685268B6
:40388000014419605A600DE002D90C232B6009E021686018824201BF106852680918216062605C602846BDE8384000F0DBB938BD3082FF1F70B5CD1C25F0030508350C2DD9
:4038C00038BF0C25002D064601DBA94202D90C23336046E000F0C5F9234B1C681A462146A1B10B685B1B0ED40B2B03D90B60CC18CD501EE08C420BBF63684B681360636051
:4039000018BF0C4615E00C464968E9E7174C23681BB9304600F07AF920602946304600F075F9431C18D0C41C24F00304A0420DD12560304600F096F904F10B00231D20F06C
:403940000700C31A0ED05A42E25070BD211A304600F05CF90130EBD10C233360304600F081F9002070BD00BF3082FF1F2C82FF1F2DE9F0478E6882469E420C46914698466B
:403980003ED88A8912F4906F3AD02568096902236F1A656905EB450595FBF3F57B1C43449D4238BF1D4653050FD52946FFF782FF064698B13A462169FEF75EF9A38923F4FB
:4039C000906343F08003A38113E02A4600F04BF9064670B921695046FFF720FF0C23CAF80030A3894FF0FF3043F04003A381BDE8F08726613E44266046466561ED1BA5605A
:403A0000464528BF464649463246206800F00EF9A36800209B1BA36023681E442660BDE8F08700002DE9F04F9DB003938B8980461C060D4616460DD50B695BB94021FFF7EB
:403A400039FF2860286118B90C23C8F80030CDE040236B610023099320238DF82930DFF89CB130238DF82A3037463C4614F8013B1BB9B7EB060910D003E0252BF9D02746E6
:403A8000F3E74B46324629464046FFF771FF013000F0A780099B4B4409933B78002B00F0A08000234FF0FF3204930793059206938DF853301A930126052221784E48FFF7A7
:403AC000BBFB671C049B38B14B4A3C46801A06FA00F018430490EFE7D90644BF20228DF853201A0744BF2B228DF8532022782A2A03D0079A00210A200BE0039A111D12683D
:403B00000391002A10DA524243F00200079204900BE027463B780134303B092B03D800FB02320121F5E701B107923B782E2B1ED17B782A2B0AD1039B02371A1D1B68039271
:403B4000002BB8BF4FF0FF33059310E0002319460593781C0A2407463A780130303A092A03D804FB01210123F5E703B10591032239782248FFF760FB40B14023CBEB000020
:403B800003FA00F0049B013718430490397806221B487E1C8DF82810FFF74EFB88B1194B33B9039B073323F007030833039314E003AB00932A46144B04A94046FEF700F90C
:403BC00007E003AB00932A460F4B04A94046FEF7B1FBB0F1FF3F824603D0099B5344099342E7AB895B0601D4099801E04FF0FF301DB0BDE8F08F00BF1040000016400000D5
:403C00001A400000C11D00007139000038B5064C0023054608462360FCF762FD431C02D1236803B12B6038BD7082FF1F884210B501EB020301D8421E0BE09842FBD28118ED
:403C4000D21AD34204D013F8014D01F8014DF8E710BD994204D011F8014B02F8014FF8E710BD70477047F8B5074615460E4621B91146BDE8F840FFF71DBE1AB9FFF7CEFD9F
:403C80002846F8BD00F015F885420ED929463846FFF710FE044650B131462A46FDF7ECFF31463846FFF7BAFD01E03046F8BD2046F8BD51F8040C0028BEBF091851F8043CC3
:403CC000C0180438704700004FF0FF3C06E000BF4FF0010C02E000BF4FF0010C4DF804CD4FEA410C7FEA6C5C4FEA430C18BF7FEA6C5C1BD001B050EA410C0CBF52EA430CCB
:403D000091EA030F02BF90EA020F0020704710F1000F91EA030F58BF994208BF90422CBFD8176FEAE37040F0010070474FEA410C7FEA6C5C02D150EA013C07D14FEA430CDC
:403D40007FEA6C5CD6D152EA033CD3D05DF8040B704700BF8446104662468C461946634600E000BF01B5FFF7B7FF002848BF10F1000F01BD4DF808EDFFF7F4FF0CBF0120C4
:403D800000205DF808FB00BF4DF808EDFFF7EAFF34BF012000205DF808FB00BF4DF808EDFFF7E0FF94BF012000205DF808FB00BF4DF808EDFFF7CEFF94BF012000205DF8C8
:403DC00008FB00BF4DF808EDFFF7C4FF34BF012000205DF808FB00BF4FEA410C7FEA6C5C02D150EA013C0AD14FEA430C7FEA6C5C02D152EA033C02D14FF0000070474FF0D8
:403E0000010070474FEA410212F5001215D211D56FF47873B3EB625212D94FEAC12343F0004343EA505311F0004F23FA02F018BF404270474FF00000704750EA013005D1D4
:403E400011F0004008BF6FF0004070474FF00000704700BF0000000066726F6E7420646973743A20256C660A00000000004F0040180000510040100020510040100040513D
:403E800000403000F0510040100000000140800800090140000700140140000800400140000A004C01400002005001402000000060520040F80B0048060080080140000CA7
:403EC000004880004300494E4600696E66004E414E006E616E00300030313233343536373839414243444546003031323334353637383961626364656600496E66696E69F2
:403F00007479004E614E00504F534958002E0000000000000000F03F000000000000244000000000000059400000000000408F40000000000088C34000000000006AF8406E
:403F40000000000080842E4100000000D01263410000000084D797410000000065CDCD41000000205FA00242000000E876483742000000A2941A6D42000040E59C30A2427F
:403F80000000901EC4BCD64200003426F56B0C430080E03779C3414300A0D8855734764300C84E676DC1AB43003D9160E458E143408CB5781DAF154450EFE2D6E41A4B4451
:403FC00092D54D06CFF08044F64AE1C7022DB544B49DD9794378EA4405000000190000007D000000000000000080E03779C34143176E05B5B5B89346F5F93FE9034F384D84
:40400000321D30F94877825A3CBF737FDD4F1575232D302B2000686C4C0065666745464700000000F8B500BFF8BC08BC9E4670474D0000005D070000F8B500BFF8BC08BCC7
:404040009E4670472900000058400000C880FF1FD0000000E00000000000000000000000000000000000494000B0B34600B0B34600000000000014407882FF1F0000E02E79
:40408000C05D00001800000000366E010000000000000000000000000000000000000000000000000000000000000000C43E00000000000000000000000000000000000024
:4040C0000000000000000000000000000000000000000000000000000000000000000000000000000000000000000000FC80FF1F0D3F0000154000001540000015400000DB
:40410000154000001540000015400000154000001540000015400000FFFFFFFFFFFFFFFFFFFFFFFFFFFF00000000000000000000000000000000000000000000000000008F
:40414000000000000000000000000000000000000000000000000000000000000000000000000000000000000000000000000000000000000000000000000000000000003F
:4041800000000000000000000000000000000000000000000000000000000000000000000000000000000000000000000000000000000000000000000000000000000000FF
:4041C00000000000000000000000000000000000000000000000000000000000000000000000000000000000000000000000000000000000000000000000000000000000BF
:40420000000000000000000000000000000000000000000000000000000000000000000000000000000000000000000000000000000000000000000000000000000000007E
:020000040003F7
:0200000480007A
:40000000034F00400452004006640040036500404A000140360101406702014041030140520401403E050140580601404C0701401F080140340901405F1401404F15014087
:400040005B160140551701405B18014042190140651A0140561B01400440014003410140064201400443014002470140054801400F490140094C0140094D01400B500140CA
:400080000151014001200A4B164B0804090418011901806F830F840F860D870F8972846F89388B0F0101030208020A01120414011502160217011C101F10210122102302A2
:4000C0002401260A29012B062C012E022F08300431043208330334033508361037103A203B083E40540F580459045B045C225D205F058310850C890A8B048D268E019101D3
:400100009712990C9B029D20A120A301A510A904AA02AB08AD0EB001B120B30EB402B510B701B808B902BE04BF51D280D804D904DB04DC22DD20DF010120060209800A20D2
:400140000B4010411220172019621A201C201D011F102189222023402408260A2721280329122D202E422F1030403108344035013648371039023C023D803E103F04582090
:4001800059085B816104621074017A8088108948C082C20DC44DCAFDCCFACEF1D60FD806DE01E680020F04FD06020830090E0AC90B1010CF113B1230149E150816601710AD
:4001C000189419201A601F3820732740293D2D062F20317834FF370739803E104065410149FF4AFF4BFF4DA04F015018580459045A045C205D025F016040628064406540C2
:40020000668068406A806C406D206E8088048C028F04920C930398029D029F01A201AD07B002B104B208B404B502B601B701B802BE10BF51C065C101C53EC6C4C702C81F53
:40024000C9FFCAFFCBFFCDAFCE07CF01D018D40FD804D904DA04DB04DC02DD22DF01E040E280E440E540E680E840EA80EC40ED20EE8000900520062007540B880E580F0458
:4002800010801702181019811B101F102250238025402680274229802E602F103101334035203604374238803E1043404740484849044A424C0C4E0250C052105304580883
:4002C0005AA1812184208623870490089650970499209C229D149E129F90A108A202A540A6C0C073C27AC418CA78CCF9CE28D018D23CD60F012003040473053007040901C5
:400300000A0F0CFD0E020F01111C1430154016C9170218CF1A301B3C1D301F08209E2140226029012C942D2C2E602F1030FF314033023501373C39023E013F10540F58040A
:4003400059045B045C205D205F01815083A084BB85078644880889A08AF18B508F0F90CC9170921294CC9530962197C0988099F09A1F9D0C9F01A077A10BA304A508A7019C
:40038000A90CAB02ADC0AF30B00FB2F0B3F0B50FD804D904DC22DF010004012003030714080409180B280E5811401281170219021E502294234024082510271029202B4237
:4003C0002C502E402F1430103101328033083684371238183A013B403C043D423E145AA45B0178407B02800481019010965097809B069C829D109F10A109A310A604AC084F
:40040000AE80B480C067C276C419CAFDCCFFCEFFD60FEA101E0222012E01300134023E0140434101420549FF4AFF4BFF4F015018540158045A045B045C025D915F0160406F
:40044000624064406540668068806A806C806E80800781038607870189088F08900193019404960897019B04A304A407A702A802AA08AB08AE07B007B304B503B608B708C3
:40048000BE40BF40C043C101C205C5ECC702C813C9FFCAFFCBFFCD83CE03CF01D018D283D403D604D804D904DA04DB04DC11DD11DF05E040E240E440E540E680E880EA802C
:4004C000EC80EE800210038009080A400D80122D13801640174019401A401D101E802268281029202A013020310833013410362038103A063B4041084240438145084602F4
:40050000470149054A024E03510859455A205D015E805F04608069906A106B0873807B8087408D809010920893409404954096809780980499029C829D30A110A280A310A1
:40054000A604A74AC00CC28CC497CA07CC07CE0FD0DBD218D6DFD801DE01E20800011C012401280136013B203E404043410549FF4AFF4BFF4DA04F015018580459045A0422
:400580005C305D025F016040628064406540668068406A806C406D206E80002002010402050109100A400B100F0210A8160417241A401B211D4020202201232425102704BE
:4005C00029012A052B0533A63402370138283A8240024108450847014B494F4052485310594069146A8070BC720286408A84C013C28EC46ECA0FCC0FCE0FD0CAD218D60813
:40060000E2100210060807010A0E0B100C0E0D061110140819031F08200221052204230225072601280E29022B042C022D062E042F0130013310341E350737083F0440546F
:4006400049FF4AFF4BFF4F015018540F580459045A045B045C225D295F056040624064406540668068806A806C806E808C018E029401960A98029A019C019E069F01A6106B
:40068000AF01B004B210B403B501B608BA20C014C9FFCAFFCBFFCD83CE03CF01D018D280D804D904DA04DB04DC92DD99DF01E040E240E440E540E680E880EA80EC80EE80DE
:4006C00001220312044008040E1911481288161019211C401E19200421402204262028042A042B822E80308031113780382439404002414042804510468447904801589194
:400700005A0860086108740177C07A887B8088808A108C048D088E2090209140989D99129A809C029D209F40A114A288A302A604A890A944AB50B020B210B404B608C08F0E
:40074000C2E4C42FCA1FCC1DCE0ED091D208D60FD806DE04E210E4A0EA04EC20EE040106031006180B030F0F1105120F170E180F1B191E04220F2401250F260228022A01AC
:400780002C072E102F0F321F331F3A083B08401445EC4602480749FF4AFF4BFF4D834E034F015018580459045A045C115D095F016040624064406540668068806A806C8019
:4007C0006E8080AC813C82508476890C8B308CFA8F3C9114920193289450950296A0990C9B309C309EC09F02A33CA401A514A728A8CCA93CAA30AB01AE01B0F0B101B30235
:40080000B40EB53CB601B820BE40BF04D804D904DC12DF010004028003020504080409400A400B800C200D400E42102011201203150216021718180419101A021B021D0434
:40084000210922122340271029042A112C202E4031813204331035053601371039103A023B803E123F40468047404D014F0456C07DC0841185888708919092589404954181
:4008800096229704980C99029A029B089C029D209E509F40A110A280A310A420A604A74AAC08B120B202B380C02DC2DDC4F7CA57CCEFCEBDD090E602E880EC40EE0800145A
:4008C000046C0501061108700A0C0B0C105C120213041480150216031D04200922102502262028102D023108321F33023480350136603704388039083E503F5440014704FB
:4009000049FF4A074BFF4C404D204EF04F0550085280580459045A045B045C235D235F01604061A862406320841B886089018A1B8B068C12907892039501961B9702987B07
:400940009C1B9D029E609F01A040A420A860A901AB0AAC09AE04B003B304B404B508B678B703BA80BB80D418D804D904DB04DC23DD30DF01006405100640071009100A412B
:400980000B100E9010A8114014401614180219011A051D801E101F20211022842508274929202D802F103284350236083740380239223C083E2045805614570859016306C7
:4009C00075028710911492C293259402960497109B049F01A0B8A110A208A508A784AF04B352C077C23FC47FCA54CCDACE64D010D601D80CE820EC400122035105E709E74C
:400A00000D440F3119011B0E1D801E0122022A013001316033803402350737183E013F404046410342054401460E470C481449FF4AFF4BFF4C624DA04EF04F41500C58048E
:400A400059045A045C325D035F016640670269106A306B106D106E106F12831C84338604870388338A0C900A92349501970E980399019A149B169E08A440A615AB08AD1CA9
:400A8000AF03B210B31AB40FB660B70FB880BA20BB88BE04C023C106C50CC60BC70EC815C9FFCAFFCBFFCEF0CF44D00CD401D804D904DA04DB04DC33DD33DF01E6C0EA401F
:400AC000EB0204080510071008200A020B040C400EC10F0410081280161019201B011C201D301E012044214022102310264427102E402F08325035103604384239143D0816
:400B00003E0141414304452446104B504C044E014F4450085380540456405C205D805F0A82808720881489808B028C018D408E208F059116928293019444954097109A1082
:400B40009B0C9C409D309E609F10A328A404A640A785AA88B580C060C2D1C42ACA30CC6CCECFD06BD22CD6F0E448E614EC40324037408A40CC3096809A409F406240664005
:400B800096809A40B740D6C019011F029680C6308E01E20896809C40A302B040B501070108400B800C0857028B418E4096809C40A302A408B008C080C270D62008200E023E
:400BC0005402A002A601B402C203D604EC0212807401802084018E809820C408DE04E202000E010108040A060B010C0C100E11011A061B011C0C000F80800000400000005C
:400C000000100000001800000C08030003000C040C000323003F02000F0000400000004008270018043C00020C040000001C00210E38001F014000002000020800000010AA
:400C40001305000000EC24031FFFFFFF00AF070118000000000002100404040433320001400080004040800040008000402080000000000000000000000000000000000076
:400C8000800040808000800000000000C03F3F00040000003847470001000000000000000000000000000000000000000000000000000000000000000000000000000000EB
:400CC00000000000000000000000000000000000000000000000000000000000000000000000000000000000000000000000000000000000000000000000000000000000F4
:400D000000000000000000000000000000000000000000000000000000000000000000000000000000000000000000000000000000000000000000000000000000000000B3
:400D40000000000000000000000000000000000000000000000000000000000000000000000000000000000000000000000000000000000000000000000000000000000073
:400D80000000000000000000000000000000000000000000000000000000000000000000000000000000000000000000000000000000000000000000000000000000000033
:0200000490006A
:0400000000004005B7
:0200000490105A
:04000000BC90ACAF55
:0200000490303A
:0200000021AC31
:0200000490402A
:4000000000000000000000000000000000000000000000000000000000000000000000000000000000000000000000000000000000000000000000000000000000000000C0
:400040000000000000000000000000000000000000000000000000000000000000000000000000000000000000000000000000000000000000000000000000000000000080
:400080000000000000000000000000000000000000000000000000000000000000000000000000000000000000000000000000000000000000000000000000000000000040
:4000C0000000000000000000000000000000000000000000000000000000000000000000000000000000000000000000000000000000000000000000000000000000000000
:0200000490501A
:0C00000000012E16106900012E3332158D
:00000001FF