:400000000080002011000000610900006109000008B5044B1A6803F53F5302331A6000F0BFFC00BFFA46004010B5054C237833B9044B13B10448AFF300800123237010BDE8
:400040009881FF1F00000000BC3D0000084B10B51BB108490848AFF300800848036803B910BD074B002BFBD0BDE81040184700BF000000009C81FF1FBC3D0000C880FF1F70
:4000800000000000F8B5164B1B68012B27D1144C60680028B8BF4042A368002BB8BF5B42C01A01F041FCC4E904010E4DD5E9002301F0A0FC06460F46A86801F047FC324618
:4000C0003B4601F0E5FA01F0A7FEE86002F078F880B200F069FFD4E90423C4E90623F8BDB881FF1FD080FF1F08B501F047F801F05DF8084B1880C0F57F43FF33064880FB21
:4001000003201844DB17C3EB601001F08FFF034B186008BD6082FF1F09CB3D8D6C82FF1F08B501F02BF801F041F8084B1880C0F57F43FF33064880FB03201844DB17C3EB05
:40014000601001F073FF034B186008BD6882FF1F09CB3D8D3082FF1F08B501F00FF801F025F8084B1880C0F57F43FF33064880FB03201844DB17C3EB601001F057FF034B67
:40018000186008BD3482FF1F09CB3D8D6C82FF1F08B500F0F3FF01F009F8084B1884C0F57F43FF33064880FB03201844DB17C3EB601001F03BFF034B186008BDB881FF1FF6
:4001C00009CB3D8D6C82FF1F10B50024074B1C60204600F03FFC204600F048FC204600F041FE204600F04AFE10BD00BFB881FF1F10B50124074B1C60002000F02BFC204608
:4002000000F034FC002000F02DFE204600F036FE10BD00BFB881FF1F10B50124074B1C60204600F017FC002000F020FC204600F019FE002000F022FE10BD00BFB881FF1F29
:4002400010B50124074B1C60002000F003FC204600F00CFC204600F005FE002000F00EFE10BD00BFB881FF1F10B50124074B1C60204600F0EFFB002000F0F8FB002000F0F6
:40028000F1FD204600F0FAFD10BD00BFB881FF1F70B505460E461EE000F014FC3C4C606000F01EFDA060012E02D1FFF7A1FF01E0FFF7B2FF322000F0E5FB08E0012000F0D0
:4002C000EBFF0A2000F0F4FB002000F0E5FF00F0EFFF0028F2D02E4B5B68002BB8BF5B42AB420DDC2A4B9B68002BB8BF5B429D4206DB2849284B186801F058FF0028CBD117
:40030000FFF762FF00F0DEFB044600F0E9FC204400EBD070401001F007FB1BA3D3E9002301F068FB1A4B5B6A3BB9194CD4E90A2301F0AEF9C4E90A0120E0012B07D1144C9A
:40034000D4E90C2301F0A4F9C4E90C0116E0022B09D10F4C02460B46D4E90A0101F096F9C4E90A010AE0032B08D1094C02460B46D4E90C0101F08AF9C4E90C01044A936B35
:400380000133936370BD00BF269071E403F3723FB881FF1F000020416C82FF1F0000000070B505460E461EE000F08CFB3C4C606000F096FCA060012E02D1FFF719FF01E0BD
:4003C000FFF72AFF322000F05DFB08E0012001F033F90A2000F06CFB002001F02DF900F0D9FF0028F2D02E4B5B68002BB8BF5B42AB420DDC2A4B9B68002BB8BF5B429D42CD
:4004000006DB2849284B186801F0B2FE0028CBD1FFF7DAFE00F056FB044600F061FC204400EBD070401001F07FFA1BA3D3E9002301F0E0FA1A4B5B6A3BB9194CD4E90A234E
:4004400001F026F9C4E90A0120E0012B07D1144CD4E90C2301F01CF9C4E90C0116E0022B09D10F4C02460B46D4E90A0101F00EF9C4E90A010AE0032B08D1094C02460B465C
:40048000D4E90C0101F002F9C4E90C01044A936B0133936370BD00BF269071E403F3723FB881FF1F0000F0416482FF1F70B505460E460DE000F006FB1C4C606000F010FC66
:4004C000A060012E02D1FFF7CFFE01E0FFF7B8FE164B5B68002BB8BF5B42AB4206DC134B9B68002BB8BF5B429D42E3DAFFF76CFE012E0BD10D4B5B6A032B03D100220B4B3A
:400500005A620DE00133094A536209E0074B5B6A1BB90322054B5A6202E0013B034A5362024A936B0133936370BD00BFB881FF1F10B562B6524800F005FE00F0DBFD00F0D8
:4005400075FE00F019FF00F0AFFF01F03FF84D4800F094FE4C4800F03DFF4C4800F0CCFF4B4801F05BF800F0F7FC00F065FD00F0DFFA002000F0AEFA00F0E8FB002000F0A4
:40058000B7FB00F091FB434CA06801F019FE80B200F09AFCA06801F013FE80B200F004FD4FF4FA6000F06EFA04E0012146F25250FFF76EFE384B9B6B002BF6D04FF4FA702B
:4005C00000F060FA002000F085FA002000F090FB314B00225A609A6004E0012140F6D540FFF764FF2C4B9B6B012BF6D04FF4FA7000F048FA002000F06DFA002000F078FB43
:40060000254B00225A609A6004E0012146F25250FFF7C6FE204B9B6B022BF6D04FF4FA7000F030FA002000F055FA002000F060FB194B00225A609A6004E0012140F67100FE
:40064000FFF7AEFE144B9B6B032BF6D04FF4FA7000F018FA002000F03DFA002000F048FB0D4B00225A609A6004E0002140F6D540FFF71CFF084B9B6B042BF6D0002010BD6C
:4006800085000000E9000000590100009101000021010000D080FF1FB881FF1FFEE700BFF0B40022174611E050F82760F3B226F0FF0608E001EB420511F812406D78A5555D
:4006C0000132013BDBB2002BF4D10137282FEBD9F0BC7047064B1B78DBB203F00701054A11701B09013213704422034B1A707047CF0100496E5800407658004008B50A4613
:40070000002101F0B4FD08BD38B517222C4B1A8018232C490B7002310A8002310B7002310A80294A137033210232118002321370EF2102321180023213700222234B1A7039
:4007400008224FF040231A70032103F5007319701F4B1B78DBB21F490B701F4B1A8041F25122023B1A80002419250CE01B4B1B7803F0010343EA440404F003044FF4F070CC
:4007800000F066FF013D0DB1032CEFD115B90320FFF784FF124B4FF480721A8007221A70002210490A704820023108701A700222033B1A700C4A137843F01F03137038BD84
:4007C00080400040824000408A4000400043004008010049A146004022420040254200400440004006400040A243004008B501F033FD08BD38B572B6444A137843F004036C
:40080000137000240CE0424D630019194A0011462A44084691882858FFF770FF0134E4B20A2CF0D900240CE03948A20011194B000344B3F84C20996C586CFFF7D7FF01340C
:40084000E4B2032CF0D933494FF09040FFF728FF314B324A136002F580621360304902F52072116002F50072136001F1004102F5C062116002F58062136002F55C522B3231
:40088000137843F0020313701032137843F002031370244C237843F040032370A2F58632513A137843F01003137008221E491F48FFF79CFF0A221E491E48FFF797FF0822F0
:4008C0001D491E48FFF792FF08221D491D48FFF78DFF08221C491D48FFF788FF1C4A137843F0080313701B4D61232B70FFF70CFF81232B700122184B1A70FFF7EBFE0E2225
:4009000021461648FFF772FF38BD00BFE8460040C03D0000A4000048040404845806014004040444A0430040681300480251004070130048C05100407C13004812510040F2
:4009400084130048225100408C13004832510040224300400048004004000840B043004008B501F04DFC03680C2B00D1FEE7FEE708B5094B1A681044084BC31AB3F5007F1D
:4009800002DC054B186005E001F03AFC0C2303604FF0FF32104608BDE880FF1F8882FF1F08B5104E104D16E029686B68AC68002204E051F8040B43F8040B0432A242F8D149
:4009C000E868002203E0002143F8041B04328242F9D11035013E002EE6D101F017FCFFF7A7FDFEE7010000007C3F000008B5104A104B1A60104A136843F4007313600023BA
:400A00000AE0032B03D80D4A52F8231000E00C490C4A42F8231001332F2BF2D90A4B1A780A4B1A70074A0A4B1A60FFF7E3FE08BD0004FA050CED00E014ED00E0000000005F
:400A4000610900000080FF1FBC760040C080FF1F08ED00E0044A137803F0DF03400100F0200018431070704710510040044A137803F0EF03000100F0100018431070704746
:400A80001051004010B5044605E0084B186800F0DFFDA4F50044B4F5004FF6D8034B586800FB04F000F0D4FD10BD00BFEC80FF1F08B5034B1B7A00FB03F000F0C9FD08BD82
:400AC000EC80FF1F08B500F05FF8A0F5004000B208BD00BF08B5002803DB80B280F4004002E0A0F5004080B200F048F808BD00BF024B187800F00F00704700BF60640040C1
:400B0000014B1870704700BF8064004008B50F20FFF7F6FFFFF7ECFF00F0A2FD034A137843F01003137000F09FFD08BD9064004008B500F07BF84FF4004000F01FF8044BE1
:400B40001B7813B90122024B1A70FFF7DFFF08BD1882FF1F024A137843F08003137070477F640040014B1870704700BF8F640040014B1878704700BF6F640040014B18801B
:400B8000704700BF1C680040024B1B78024B188880B270470E6400409C680040014B188880B270479C680040014B1880704700BF5C680040014B1880704700BF7C6800405A
:400BC00008B501E0FFF7EAFFFFF7D2FF10F0400FF8D108BD08B5134B1A7802F0F8021A701A7802F0FC021A70FFF7EAFF4FF40040FFF7DAFF4FF40040FFF7C0FF0020FFF726
:400C0000B1FFFFF7B5FF4FF40040FFF7D3FF00F027FD054A137843F01003137000F024FD08BD00BF7F6400409F64004008B5054B1B7823B9FFF7CEFF0122024B1A70FFF72E
:400C400089FF08BD1982FF1F7222084B1A702022A3F207131A700622613B1A70472210331A70002253331A70704700BF8865004010B500F0F5FC04460A4A137843F0200304
:400C80001370A2F20712137843F0100313700232137843F01003137000F014F8204600F0E3FC10BD9865004008B5054B1B7823B9FFF7CAFF0122024B1A70FFF7D9FF08BD25
:400CC0001A82FF1F054A137843F0080313701032137843F008031370704700BFA243004008B500F05FF8A0F5004000B208BD00BF08B5002803DB80B280F4004002E0A0F547
:400D0000004080B200F048F808BD00BF024B187800F00F00704700BF68640040014B1870704700BF8864004008B50F20FFF7F6FFFFF7ECFF00F094FC034A137843F0100363
:400D4000137000F091FC08BD9864004008B500F07BF84FF4004000F01FF8044B1B7813B90122024B1A70FFF7DFFF08BD1C82FF1F024A137843F080031370704779650040E6
:400D8000014B1870704700BF89650040014B1878704700BF69650040014B1880704700BF10680040024B1B78024B188880B270470864004090680040014B188880B27047DA
:400DC00090680040014B1880704700BF50680040014B1880704700BF7068004008B501E0FFF7EAFFFFF7D2FF10F0400FF8D108BD08B5134B1A7802F0F8021A701A7802F02F
:400E0000FC021A70FFF7EAFF4FF40040FFF7DAFF4FF40040FFF7C0FF0020FFF7B1FFFFF7B5FF4FF40040FFF7D3FF00F019FC054A137843F01003137000F016FC08BD00BFD8
:400E4000796500409965004008B5054B1B7823B9FFF7CEFF0122024B1A70FFF789FF08BD1D82FF1F044A137803F0FD03400000F0020018431070704730510040044A1378B3
:400E800003F0FB03800000F0040018431070704730510040084A137843F0010313701032137843F00103137002F64D32137843F001031370704700BFA3430040014B188020
:400EC000704700BF044F0040014B1880704700BF064F0040014B1870704700BF034F004008B51A4A137843F0020313700232137803F08F0343F010031370154B1A7802F0C6
:400F0000CF021A701A7842F030021A701A7802F0F0021A701A7842F00F021A7046F2A810FFF7CCFF43F2D400FFF7CEFF0020FFF7D1FF084A137843F00103137002F65E32F5
:400F4000137843F00103137008BD00BF004F00400B4F0040A343004008B5054B1B7823B9FFF7BEFF0122024B1A70FFF793FF08BD1E82FF1F084A137843F00203137010324B
:400F8000137843F00203137002F65932137843F001031370704700BFA3430040014B1880704700BF104F0040014B1880704700BF124F0040014B1870704700BF0F4F0040AB
:400FC00008B51A4A137843F0020313700232137803F08F0343F010031370154B1A7802F0CF021A701A7842F030021A701A7802F0F0021A701A7842F00F021A7046F2A8106F
:40100000FFF7CCFF43F2D400FFF7CEFF0020FFF7D1FF084A137843F00203137002F66A32137843F00103137008BD00BF0C4F0040174F0040A343004008B5054B1B7823B965
:40104000FFF7BEFF0122024B1A70FFF793FF08BD1F82FF1F024A137843F08003137070477B640040014B1870704700BF89640040014B1878704700BF6964004008B50146F7
:40108000014800F0F5FA08BD28650040024B186820F07F40704700BF4865004008B50146014800F0E5FA08BD0865004008B501E0FFF7ECFFFFF7DCFF10F0080FF8D108BDF4
:4010C00008B54EF65F20FFF7D9FF4EF65F20FFF7E5FF00F0C5FA064A137843F01003137000F0C2FAFFF7E2FF0120FFF7BBFF08BD9964004008B5054B1B7823B9FFF7E0FF0B
:401100000122024B1A70FFF7A5FF08BD2082FF1F014B1B681864704708ED00E04001C0B2014B1870704700BF00E400E00122014B1A60704700E100E00122014B1A607047FD
:4011400080E100E010B50446FFF7F6FF2046FFF7DFFF0720FFF7E2FFFFF7E8FF10BD00BF024A137843F08003137070477D640040014B1870704700BF8A640040014B187857
:40118000704700BF6A640040014B1880704700BF54680040014B188880B2704794680040014B1880704700BF14680040024B1B78024B188880B270470A640040946800408E
:4011C00000F00300044B1A7802F0FC021A701A7810431870704700BF7D64004008B501E0FFF7D8FFFFF7CAFF10F0080FF8D108BD08B54FF6FF70FFF7C7FF4FF6FF70FFF7F7
:40120000CFFF00F02DFA084A137843F01003137000F02AFA0020FFF7D3FFFFF7DFFF0220FFF7A6FF08BD00BF9A64004008B5054B1B7823B9FFF7DCFF0122024B1A70FFF797
:401240008FFF08BD2182FF1F014B1B685864704708ED00E04001C0B2014B1870704700BF01E400E00222014B1A60704700E100E00222014B1A60704780E100E010B504462E
:40128000FFF7F6FF2046FFF7DFFF0720FFF7E2FFFFF7E8FF10BD00BF044A137803F0F703C00000F0080018431070704720510040024B1878C0F30010704700BF2151004019
:4012C000024A137843F080031370704776640040014B1870704700BF86640040014B1878704700BF66640040014B1880704700BF4C680040014B188880B270478C680040E6
:40130000014B1880704700BF0C68004000F00300044B1A7802F0FC021A701A7810431870704700BF7664004008B501E0FFF7E2FFFFF7D4FF10F0080FF8D108BD08B54FF66F
:40134000FF70FFF7D1FF4FF6FF70FFF7D9FF00F087F9084A137843F01003137000F084F90020FFF7D3FFFFF7DFFF0220FFF7B0FF08BD00BF9664004008B5054B1B7823B976
:40138000FFF7DCFF0122024B1A70FFF799FF08BD2282FF1F014B1878C009704701510040014B1B689864704708ED00E04001C0B2014B1870704700BF02E400E00422014BD3
:4013C0001A60704700E100E00422014B1A60704780E100E010B50446FFF7F6FF2046FFF7DFFF0720FFF7E2FFFFF7E8FF10BD00BF024A137843F0800313707047756500409B
:40140000014B1870704700BF85650040014B1878704700BF65650040014B1880704700BF486A0040014B188880B27047886A0040014B1880704700BF086A004000F003008A
:40144000044B1A7802F0FC021A701A7810431870704700BF7565004008B501E0FFF7E2FFFFF7D4FF10F0080FF8D108BD08B54FF6FF70FFF7D1FF4FF6FF70FFF7D9FF00F088
:40148000EFF8084A137843F01003137000F0ECF80020FFF7D3FFFFF7DFFF0220FFF7B0FF08BD00BF9565004008B5054B1B7823B9FFF7DCFF0122024B1A70FFF799FF08BDF0
:4014C0002382FF1F014B1B68D864704708ED00E04001C0B2014B1870704700BF03E400E00822014B1A60704700E100E00822014B1A60704780E100E010B50446FFF7F6FF84
:401500002046FFF7DFFF0720FFF7E2FFFFF7E8FF10BD00BF024A137843F08003137070477A650040014B1870704700BF8D640040014B1878704700BF6D640040014B188062
:40154000704700BF58680040014B188880B2704798680040014B1880704700BF1868004000F00300044B1A7802F0FC021A701A7810431870704700BF7A65004008B501E0D8
:40158000FFF7E2FFFFF7D4FF10F0080FF8D108BD08B54FF6FF70FFF7D1FF4FF6FF70FFF7D9FF00F05DF8084A137843F01003137000F05AF80020FFF7D3FFFFF7DFFF022022
:4015C000FFF7B0FF08BD00BF9D64004008B5054B1B7823B9FFF7DCFF0122024B1A70FFF799FF08BD2482FF1F014B1B681865704708ED00E04001C0B2014B1870704700BF4E
:4016000004E400E01022014B1A60704700E100E01022014B1A60704780E100E010B50446FFF7F6FF2046FFF7DFFF0720FFF7E2FFFFF7E8FF10BD00BF044A137803F0BF0359
:40164000800100F04000184310707047005100400230800803D000BF01380046FCD17047EFF3108072B6704780F31088704700BFCBB20370C1F307234370C1F30741817007
:40168000704700BF81F0004102E000BF83F0004330B54FEA41044FEA430594EA050F08BF90EA020F1FBF54EA000C55EA020C7FEA645C7FEA655C00F0E2804FEA5454D4EB29
:4016C0005555B8BF6D420CDD2C4480EA020281EA030382EA000083EA010180EA020281EA0303362D88BF30BD11F0004F4FEA01314FF4801C4CEA113102D0404261EB41019D
:4017000013F0004F4FEA03334CEA133302D0524263EB430394EA050F00F0A780A4F10104D5F1200E0DDB02FA0EFC22FA05F2801841F1000103FA0EF2801843FA05F359410B
:401740000EE0A5F120050EF1200E012A03FA0EFC28BF4CF0020C43FA05F3C01851EBE37101F0004507D54FF0000EDCF1000C7EEB00006EEB0101B1F5801F1BD3B1F5001F9F
:401780000CD349085FEA30004FEA3C0C04F101044FEA445212F5800F80F09A80BCF1004F08BF5FEA500C50F1000041EB045141EA050130BD5FEA4C0C404141EB010111F479
:4017C000801FA4F10104E9D191F0000F04BF01460020B1FA81F308BF2033A3F10B03B3F120020CDA0C3208DD02F1140CC2F10C0201FA0CF021FA02F10CE002F11402D8BF2D
:40180000C2F1200C01FA02F120FA0CFCDCBF41EA0C019040E41AA2BF01EB0451294330BD6FEA04041F3C1CDA0C340EDC04F11404C4F1200220FA04F001FA02F340EA030032
:4018400021FA04F345EA030130BDC4F10C04C4F1200220FA02F001FA04F340EA0300294630BD21FA04F0294630BD94F0000F83F4801306BF81F480110134013D4EE77FEA2F
:40188000645C18BF7FEA655C29D094EA050F08BF90EA020F05D054EA000C04BF1946104630BD91EA030F1EBF0021002030BD5FEA545C05D14000494128BF41F0004130BD8F
:4018C00014F580043CBF01F5801130BD01F0004545F0FE4141F470014FF0000030BD7FEA645C1ABF194610467FEA655C1CBF0B46024650EA013406BF52EA033591EA030FE6
:4019000041F4002130BD00BF90F0000F04BF0021704730B54FF4806404F132044FF000054FF0000150E700BF90F0000F04BF0021704730B54FF4806404F1320410F0004524
:4019400048BF40424FF000013EE700BF42004FEAE2014FEA31014FEA02701FBF12F07F4393F07F4F81F06051704792F0000F14BF93F07F4F704730B54FF4607401F00045DC
:4019800021F0004120E700BF50EA010208BF704730B54FF000050AE050EA010208BF704730B511F0004502D5404261EB41014FF4806404F132045FEA915C3FF4DCAE4FF0F0
:4019C00003025FEADC0C18BF03325FEADC0C18BF033202EBDC02C2F1200300FA03FC20FA02F001FA03FE40EA0E0021FA02F11444C1E600BF70B54FF0FF0C4CF4E06C1CEAC1
:401A000011541DBF1CEA135594EA0C0F95EA0C0F00F0DEF82C4481EA030621EA4C5123EA4C5350EA013518BF52EA033541F4801143F4801338D0A0FB02CE4FF00005E1FBE8
:401A400002E506F00042E0FB03E54FF00006E1FB03569CF0000F18BF4EF0010EA4F1FF04B6F5007F64F5407404D25FEA4E0E6D4146EB060642EAC62141EA55514FEAC52014
:401A800040EA5E504FEACE2EB4F1FD0C88BFBCF5E06F1ED8BEF1004F08BF5FEA500E50F1000041EB045170BD06F0004646EA010140EA020081EA0301B4EB5C04C2BFD4EB8B
:401AC0000C0541EA045170BD41F480114FF0000E013C00F3AB8014F1360FDEBF002001F0004170BDC4F10004203C35DA0C341BDC04F11404C4F1200500FA05F320FA04F012
:401B000001FA05F240EA020001F0004221F0004110EBD37021FA04F642EB06015EEA430E08BF20EAD37070BDC4F10C04C4F1200500FA04F320FA05F001FA04F240EA0200E5
:401B400001F0004110EBD37041F100015EEA430E08BF20EAD37070BDC4F1200500FA05F24EEA020E20FA04F301FA05F243EA020321FA04F001F0004121FA04F220EA020042
:401B800000EBD3705EEA430E08BF20EAD37070BD94F0000F0FD101F00046400041EB010111F4801F08BF013CF7D041EA060195F0000F18BF704703F00046520043EB030383
:401BC00013F4801F08BF013DF7D043EA0603704794EA0C0F0CEA135518BF95EA0C0F0CD050EA410618BF52EA4306D1D181EA030101F000414FF0000070BD50EA410606BF70
:401C00001046194652EA430619D094EA0C0F02D150EA013613D195EA0C0F05D152EA03361CBF104619460AD181EA030101F0004141F0FE4141F470014FF0000070BD41F01C
:401C4000FE4141F4780170BD70B54FF0FF0C4CF4E06C1CEA11541DBF1CEA135594EA0C0F95EA0C0F00F0A7F8A4EB050481EA030E52EA03354FEA013100F088804FEA03337E
:401C80004FF0805545EA131343EA12634FEA022245EA111545EA10654FEA00260EF000419D4208BF964244F1FD0404F5407402D25B084FEA3202B61A65EB03055B084FEA5C
:401CC00032024FF480104FF4002CB6EB020E75EB030E22BFB61A754640EA0C005B084FEA3202B6EB020E75EB030E22BFB61A754640EA5C005B084FEA3202B6EB020E75EBE5
:401D0000030E22BFB61A754640EA9C005B084FEA3202B6EB020E75EB030E22BFB61A754640EADC0055EA060E18D04FEA051545EA16754FEA06164FEAC30343EA52734FEA35
:401D4000C2025FEA1C1CC0D111F4801F0BD141EA00014FF000004FF0004CB6E711F4801F04BF01430020B4F1FD0C88BFBCF5E06F3FF6AFAEB5EB030C04BFB6EB020C5FEABE
:401D8000500C50F1000041EB045170BD0EF0004E4EEA113114EB5C04C2BFD4EB0C0541EA045170BD41F480114FF0000E013C90E645EA060E8DE60CEA135594EA0C0F08BF7B
:401DC00095EA0C0F3FF43BAF94EA0C0F0AD150EA01347FF434AF95EA0C0F7FF425AF104619462CE795EA0C0F06D152EA03353FF4FDAE1046194622E750EA410618BF52EA35
:401E000043067FF4C5AE50EA41047FF40DAF52EA43057FF4EBAE12E74FEA4102B2F1E04324BFB3F5001CDCF1FE5C0DD901F0004C4FEAC0024CEA5070B2F1004F40EB830078
:401E400008BF20F00100704711F0804F21D113F13872BCBF01F00040704741F480114FEA5252C2F11802C2F1200C10FA0CF320FA02F018BF40F001004FEAC1234FEAD32348
:401E800003FA0CFC40EA0C0023FA02F34FEA4303CCE77FEA625307D150EA01331EBF4FF0FE4040F44000704701F0004040F0FE4040F40000704700BF80F0004002E000BF20
:401EC00081F0004142001FBF5FEA410392EA030F7FEA226C7FEA236C6AD04FEA1262D2EB1363C1BFD218414048404140B8BF5B42192B88BF704710F0004F40F4000020F00F
:401F00007F4018BF404211F0004F41F4000121F07F4118BF494292EA030F3FD0A2F1010241FA03FC10EB0C00C3F1200301FA03F100F0004302D5494260EB4000B0F5000FC2
:401F400013D3B0F1807F06D340084FEA310102F10102FE2A51D2B1F1004F40EBC25008BF20F0010040EA03007047490040EB000010F4000FA2F10102EDD1B0FA80FCACF186
:401F8000080CB2EB0C0200FA0CF0AABF00EBC25052421843BCBFD0401843704792F0000F81F4000106BF80F400000132013BB5E74FEA41037FEA226C18BF7FEA236C21D0FB
:401FC00092EA030F04D092F0000F08BF0846704790EA010F1CBF0020704712F07F4F04D1400028BF40F00040704712F100723CBF00F50000704700F0004343F0FE4040F4FF
:40200000000070477FEA226216BF08467FEA23630146420206BF5FEA412390EA010F40F4800070474FF0000304E000BF10F0004348BF40425FEA000C08BF704743F0964368
:4020400001464FF000001CE050EA010208BF70474FF000030AE000BF50EA010208BF704711F0004302D5404261EB41015FEA010C02BF84460146002043F0B64308BFA3F183
:402080008053A3F50003BCFA8CF2083AA3EBC25310DB01FA02FC634400FA02FCC2F12002BCF1004F20FA02F243EB020008BF20F00100704702F1200201FA02FCC2F1200295
:4020C00050EA4C0021FA02F243EB020008BF20EADC7070474FF0FF3C06E000BF4FF0010C02E000BF4FF0010C4DF804CD4FEA40024FEA41037FEA226C18BF7FEA236C11D03A
:4021000001B052EA530C18BF90EA010F58BFB2EB030088BFC81738BF6FEAE17018BF40F0010070477FEA226C02D15FEA402C05D17FEA236CE4D15FEA412CE1D05DF8040BE8
:40214000704700BF844608466146FFE70FB5FFF7C9FF002848BF10F1000F0FBD4DF808EDFFF7F4FF0CBF012000205DF808FB00BF4DF808EDFFF7EAFF34BF012000205DF8CF
:4021800008FB00BF4DF808EDFFF7E0FF94BF012000205DF808FB00BF4DF808EDFFF7D2FF94BF012000205DF808FB00BF4DF808EDFFF7C8FF34BF012000205DF808FB00BFB5
:4021C00042000ED2B2F1FE4F0BD34FF09E03B3EB126209D44FEA002343F0004323FA02F070474FF00000704712F1610F01D1420202D14FF0FF3070474FF00000704700BF5C
:40220000014B1868704700BF5C81FF1F0E4B70B51E460E4C0025E41AA410A54204D056F8253098470135F8E701F096FE084B094C1E46E41AA4100025A54204D056F8253036
:4022400098470135F8E770BD643F0000643F0000643F00006C3F000010B5431E0A44914204D011F8014B03F8014FF8E710BD03460244934202D003F8011BFAE770472DE947
:40228000F04788B0149F002B1E461299B8BF03F1004327F02007B6BF1E4600232D23462F1446109DDDF84CA00B7003D0452F03D1013501E0032300E0022307AA049206AA7E
:4022C00003928DE828042246334600F0B9FB472F804602D1119BDB0728D5462F08EB050911D198F80030302B0AD1002200232046314601F0F3FC18B9C5F10105CAF800509A
:40230000DAF800309944002200232046314601F0E5FC08B9302202E0CDF81C9006E0079B994503D9591C07911A70F8E74046079B159AC8EB0303136008B0BDE8F08703468C
:4023400073B50029B8BF494203F8022BB4BF2D222B22092942701ADD0DF1070216460A2591FBF5F405FB1411092C01F1300102F8011D2146F4DC3031541E02F8011CB44245
:402380001A460AD214F8012B03F8012BF7E71A463024214402F8024B5970101A02B070BD2DE9F04F91B00C46DDF8688016461F46054601F0DDF803681846099300F0AAFA02
:4023C00000230E93D8F800300A90073323F0070303F1080294F81890D4F800B0C8F80020D3E90023C4E91223D4F84CA0D4F848802AF000430B934FF0FF32A74B40460B9906
:4024000001F09EFCA0B94FF0FF32A34B40460B9901F078FC60B9002200234046514601F067FC10B12D2384F843309C4B9C4A0AE0424653464046514601F082FC002800F080
:402440009281984B984AB9F1470F8CBF90469846032323612BF0040323604FF0000A3DE0B9F1670F00F08A81B9F1470F00F0868123600193636800210DF13302059002925F
:402480000093424653460691CDF81090CDF80CE02846FFF7F4FE09F0DF03472B804600F08481B9F1650F0D9900F28D8101394A4604F150000D91FFF742FF0E9A82468318AA
:4024C000012A236100F37C812268D10700F178819DF8333013B12D2384F84330009733460FAA2146284600F09FF9013002D14FF0FF3096E123685A0501D4236965E0B9F1AD
:40250000650F40F2D580D4E912010022002301F0E5FB78B30123654A31462846B8470130E5D00E9B0D9A9A420BDB2368D80708D423689B0740F111814FF0000804F119094C
:4025400006E10A9B099A31462846B8470130CED04FF0000804F11A090E9B013B9845E7DA01234A4631462846B8470130BFD008F10108F1E70D9B002B29DC01234B4A31465D
:402580002846B8470130B2D00D9B23B90E9B13B92368D907CCD50A9B099A31462846B8470130A4D04FF0000904F11A0A0D9B5B42994509DA0123524631462846B8470130ED
:4025C00095D009F10109F1E70E9B4246A7E00E9AA36D9A42A8BF1A46002A914606DC4FF0000A29EAE97904F11A0B11E01346314642462846B8470130F1D178E701235A4600
:4026000031462846B84701303FF471AF0AF1010AA36DC9EB03029245F0DB08EB03090D9A0E9B9A420FDB2368DA070CD40E9B0D9A9844C9EB08089B1A9845A8BF9846B8F1F0
:40264000000F08DC0FE00A9B099A31462846B8470130EBD14BE743464A4631462846B84701303FF444AF4FF0000928EAE87804F11A0A09E00123524631462846B84701304C
:402680003FF435AF09F101090D9A0E9B9B1AC8EB03039945EEDB4BE7FFFFEF7F2E3E0000323E0000363E00003A3E00003E3E00000E9A012A01DCDB0738D5012342463146F6
:4026C0002846B84701303FF412AF0A9B099A31462846B84701303FF40AAFD4E912010022002301F0FBFA20B14FF0000804F11A090EE00E9B08F10102013B19E001234A4658
:4027000031462846B84701303FF4F1AE08F101080E9B013B9845F1DB534604F1500231462846B84701307FF403AFE0E64246012331462846B8470130EED1D8E601234A4650
:4027400031462846B84701303FF4D1AE08F10108E3680F9A9B1A9845F0DBE0680F9B9842B8BF18465DE062680EA8531C0DF1340E4BF480637FF474AE062201E012B9012284
:40278000626075E6002106910DF133018DE80C00236005904246CDF81090CDF80CE0029153462846FFF76BFD80460D9BD81C02DB626893421DDDA9F102095FFA89F970E635
:4027C0000133236184E6B9F1660F14D10029636807DD216113B92268D2071DD501330B4419E013B92268D00701D5023313E0012311E04FF067090D9B0E9A934205DB22683E
:402800002361D10708D5013305E0002BD4BFC3F102030123134423610D9B4FF0000AA36556E611B0BDE8F08F2DE9F04791461F460A698B6806469342B8BF1346C9F80030E5
:4028400091F843200C46DDF8208012B10133C9F800302368990642BFD9F800300233C9F80030256815F0060510D104F1190A07E00123524639463046C04701301AD00135E5
:40288000E368D9F800209B1A9D42F1DB94F843302268003318BF012392060FD5E118302081F843005A1C94F845102244023382F8431003E04FF0FF30BDE8F08704F14302DE
:4028C00039463046C0470130F4D02268D9F80050E36802F00602042A08BF5D1B2269A3680CBF25EAE57500259342C4BF9B1AED184FF000091A344D4509D00123224639467D
:402900003046C0470130D5D009F10109F3E70020BDE8F087034613F8012B002AFBD1181A013870472DE9F74F03690C6980469C427FDC013C01F114074FEA840E00F1140636
:4029400006EB0E0357F82450019356F824300135B3FBF5F507EB0E09C5B34FF0000A3846B446D34650F8043B9AB205FB02A21B0C4FEA124A05FB03A392B2C2EB0B0BBCF89F
:4029800000204FEA134A5A441FFA83FBDCF800308145CBEB134303EB224392B242EA03424FEA234B4CF8042BDCD256F80E306BB9019B043B9E421A4602D3C8F8104005E0F1
:4029C0001268043B002AF8D1013CF3E7404600F0E8FF00282BDB304601354FF0000E57F8042B036891B2C1EB0E0E120C99B27144C2EB134303EB214389B24FEA234EB94546
:402A000041EA034340F8043BE9D256F8242006EB840362B9043B9E421A4602D3C8F8104005E01268043B002AF8D1013CF3E7284600E0002003B0BDE8F08F0000000000007D
:402A40002DE9F04F456A95B08246219CCDE9022345B9102000F090FDCAF82400456085600560C560DAF82430196859B15A68012393404A608B60504600F0BBFDDAF82430A5
:402A800000221A60039BA04A002BBDBF01232360039B0023BCBF23F000430393DDF80C80A8BF236028F000431B0D1B0593421DD142F20F73209A1360029B43B9934A944B93
:402AC000C8F31300002814BF1846104600E09048229B002B00F04685C37813B100F1080300E0C31C229A136000F03CBDDDE90245002200232046294601F0F0F8074658B1D6
:402B0000209A01231360229B002B00F01E8581481860013800F026BD12AB019313AB009322462B46504600F0B7FFC8F30A56049056B1C5F3130343F07F51204641F4401152
:402B4000A6F2FF3611971DE0139B129E1E4406F23243202B0ADD029A06F21240C3F1400322FA00F008FA03F3184304E0C3F12000029B03FA00F0FEF7C7FE0123A1F1F8712D
:402B8000013E11930022644BFEF780FD58A3D3E90023FEF72FFF58A3D3E90023FEF778FD044630460D46FEF7BFFE55A3D3E90023FEF720FF02460B4620462946FEF768FD36
:402BC00004460D4601F0D2F80022834600232046294601F08DF858B15846FEF7A5FE02460B462046294601F079F808B90BF1FF3BBBF1160F0DD8DDE90223484901EBCB0134
:402C0000D1E9000101F092F830B10BF1FF3B002300E00123109300E01090129B9E1B731E079343BFC3F10008002307934FF00008BBF1000F06DB079BCDF82CB05B44079392
:402C4000002705E00023CBEB0808CBF100070B931E9B092B28D8052BC4BF043B1E931E9BC8BF0025A3F10203D8BF0125032B20D8DFE803F0060E0204012302E0012308E0A7
:402C800000230A931F9B002B1DDD9946059321E000230A931F9B0BEB030909F10103012B0593B8BF012315E0012500231E930A9501E001230A934FF0FF390022CDF81490F2
:402CC00012231F9206E04FF001094B46CDF81490CDF87C90DAF8244000226260042101F114029A421CD86268490001326260F6E761436F63A787D23FB3C8608B288AC63F26
:402D0000FB799F501344D33F0000F07F403E0000493E00003F3E00000000F83F583E00006168504600F030FCDAF8243020601B680693059B0E2B00F25B81002D00F058812F
:402D4000DDE90234BBF1000FCDE90E3430DD9F4A0BF00F034FEA2B1502EBC303E80618CBCDE908340CD5DDE90E01994B05F00F05D3E90823FEF768FF0324CDE9020100E00C
:402D80000224934E6DB1E90708D5DDE90801D6E90023FEF72FFECDE9080101346D100836F0E7DDE90823DDE90201FEF74DFF20E0CBF1000505B3DDE90E01844B05F00F02AA
:402DC00003EBC203D3E90023FEF714FECDE902017F4E2D110023022455B1EA0705D5D6E90023FEF707FE013401236D100836F3E71BB1CDE9020100E00224109BE3B1DDE902
:402E000002560022734B2846314600F071FF98B1059B8BB1B9F1000F40F3E6800BF1FF330893314600226C4B2846FEF7E3FD0134CDE902014E4602E0059ECDF820B0204640
:402E4000FEF772FDDDE90223FEF7D4FD634B0022FEF71EFCA1F1507304460C931D46D6B9DDE9020100225E4BFEF710FC22460C9BCDE9020100F05AFF002840F03F820C99CA
:402E8000224601F10043DDE9020100F031FF002840F02B82A8E00A9A4C4B711E002A49D003EBC103D3E9002300204E49FEF7CCFE22462B46FEF7EAFBCDE90C01069CDDE90D
:402EC000020100F053FF0546FEF72EFD02460B46DDE90201FEF7DAFBDDE90C23303504F8015BCDE9020100F003FF002840F01D83DDE9022300203749FEF7C8FBDDE90C2369
:402F000000F0F6FE002840F0D180069BE31AB3426ADADDE90C0100222F4BFEF76BFD0022CDE90C01DDE902012B4BFEF763FDCDE90201C4E703EBC1012246D1E900012B4640
:402F4000FEF758FD069BCDE90C011D469C19DDE9020100F00BFF0646FEF7E6FC02460B46DDE90201FEF792FB303605F8016BAC42CDE902014FF0000222D11A4BDDE90C01DF
:402F8000FEF786FB02460B46DDE9020100F0CEFE002840F08B80DDE90C2300201149FEF775FB02460B46DDE9020100F0A1FED8B114F8013C621E302B40F0B7821446F7E707
:402FC000054BFEF717FDCDE90201C0E7583E0000303F00000000F03F0000244000001C40000014400000E03FDDE90E34CDE90234139B002B7CDBBBF10E0F79DCAB4B03EB8B
:40300000CB03D3E900671F9B002B14DA059B002B11DC40F06C810022A54B30463946FEF7E9FCDDE9022300F077FE059D2E46002840F05F8165E1069CDDE9028932463B4646
:4030400040464946FEF700FE00F090FE0546FEF76BFC32463B46FEF7CDFC0B46024649464046FEF713FB05F1300E069B04F801EBC3EB040E059B73452DD102460B46FEF75A
:4030800007FB8046894602460B463046394600F02FFE78B942464B463046394600F01EFE002800F04482EB0704D440E2DDF820B000E01C4614F8012C631E392A07D1069A3D
:4030C0009A42F6D1069930220BF1010B0A701A7801321A702BE20022764BFEF78BFC002200238046894600F0F9FD0028A6D01EE20A9A002A2BD01E9A012A0ADC119A12B1A1
:4031000003F2334302E0129BC3F136033D46444613E0059B5D1EAF42BFBF0B9BEA1B9B180B93059BB6BF2F467D1B0025002BA7BF4446059BC3EB08040023079A01211A4422
:4031400050469844079200F0F3FA064602E03D4644460A9E5CB1079B002B08DDA342A8BF2346079AC3EB0808E41AD31A0793002F1DDD0A9BABB18DB131462A46504600F057
:4031800071FB049A01460646504600F0DAFA04990890504600F02DFA089B04937A1B06D000E03A460499504600F05CFB04900121504600F0BDFA0B9B05465BB31A4601461E
:4031C000504600F04FFB1E9B0546012B18DC029B83B9039BC3F3130373B9039B23F000473F0D3F054FB1079B08F1010801330793012702E0002700E0029F0B9B73B100E016
:4032000000272B6905EB8303186900F044FAC0F1200004E01E9B012BD9DD0B9F0120079B184410F01F0008D0C0F12003042B02DDC0F11C0002E006D018461C30079B804427
:40324000034404440793B8F1000F05DD42460499504600F055FB0490079B002B05DD29461A46504600F04CFB0546109B23B32946049800F096FB00281EDA00230A2204994D
:40328000504600F0CDF90A9B0BF1FF3B0490002B00F05F81314600230A22504600F0C0F9B9F1000F06463FDC3BE000BF583E00000000144000002440059B002B2BDC1E9B80
:4032C000022B28DDDDF81490B9F1000F11D129464B460522504600F0A3F901460546049800F05FFB00280CDC03E0354600E000252E461F9B069C6FEA030B09E03546DDF8E4
:4033000020B0069B069A5C1C312313700BF1010B05960026F7E00A9BDDF8149023B9069CB2E01E9B022BCFDC002C05DD31462246504600F0E5FA06469FB17168504600F081
:4033400023F90446326906F10C01023292000C30FEF782FF01222146504600F0D1FA059000E00596029B069F03F00103079329460498FFF7D7FA3146044600F130080498BA
:4033800000F00FFB059A02902946504600F025FBC36802463BB901460A90049800F001FB0A9A034600E00123114650460A9300F020F90A9B53B91E9A42B9079A32B9B8F1E0
:4033C000390F2AD0029B002B1CDC1DE0029A002A04DB1BD11E9ACAB9079ABAB9002B13DD01220499504600F08BFA2946049000F0D8FA002803DC07D118F0010F04D0B8F1CF
:40340000390F0AD004F131087C1C0CE0002B07F101040BDDB8F1390F03D139233B70013756E008F1010887F800806CE0069B2746E31A4B4504F8018C3BD000230A22049906
:40344000504600F0EDF8059B04909E424FF00A024FF000033146504604D100F0E1F80646059084E700F0DCF8002306460A220599504600F0D5F8059079E700230A22049918
:40348000504600F0CDF8049029460498FFF74AFA069B00F1300804F8018BE31A4B45ECDB069B0596B9F1010FACBF4B4401331F46002601220499504600F022FA294604902E
:4034C00000F06FFA002803DC15D118F0010F12D03C4614F8013C621E392B09D1069B934204D10BF1010B3123069A02E01446F0E70133137007E03C4614F8013C621E302B65
:4035000001D11446F8E72946504600F072F8059B6BB12EB19E4203D03146504600F069F80599504600F065F801E0DDF820B00499504600F05EF80023209A23700BF1010385
:403540001360229B1BB11C6001E008480AE0069808E0B9F1000F3FF7E2AE1E9B022B7FF7DEAEB1E615B0BDE8F08F00BF3E3E0000004870476081FF1F024B0146186800F00E
:40358000E7BA00BF5C81FF1F70B5456A04460E463DB91020FFF7F0FF6062456085600560C560656AEB6843B1636ADB6853F8260078B1026843F8262017E0212204212046ED
:4035C00000F0B8FA636AE860DB68002BECD1002070BD012101FA06F56A1D9200204600F0A9FA0028F3D04660856000230361C36070BD70B5446A06460D463CB91020FFF798
:40360000BBFF7062446084600460C4603DB1736A6A68DB6853F82210296043F8225070BD2DE9F04106460C460D691F4601F1140E0023DEF80000013381B202FB0171000C7F
:403640000F0C02FB007089B201EB00419D424FEA10474EF8041BECDCD7B1A3689D4212DB616830460131FFF78FFF8046226904F10C01023292000C30FEF7EEFD2146304658
:40368000FFF7B7FF444604EB850301355F6125612046BDE8F081030C1B0413B90004102300E0002310F07F4F04BF0002083310F0704F04BF0001043310F0404F04BF8000D7
:4036C0000233002803DB420003D5581C70471846704720207047036813F007020BD0D90722D49A074BBF5B089B08036003604CBF01200220704799B209B91B0C102213F031
:40370000FF0F04BF1B0A0832190704BF1B090432990704BF9B080232D90702D45B0805D00132036010467047002070472020704710B50C460121FFF727FF01224461026103
:4037400010BD2DE9F74F14460A69236988469A42BEBF0B46A0461C46D8F81070D4F81090D8F80830D8F8041007EB09069E42C8BF0131FFF709FF00F114052B4605EB860CCA
:403780000022634502D243F8042BFAE704F1140208F1140102EB890301EB87070093009B0192934257D9B2F800B0BBF1000F23D08946AE464FF0000859F8044BBEF800A046
:4037C000A3B20BFB03A34FEA144ADEF8004043444FEA14480BFB0A84F24604EB13449BB243EA04434F454FEA14484AF8043B01D9D646E1E7CEF80480019B0432B3F802A05B
:40380000BAF1000F21D02C4689462B684FF00008B9F800E0B4F802B09BB20AFB0EBEA346F04443EA08434BF8043B59F8043BB4F804E01B0C0AFB03E34F4503EB18434FEA56
:40384000134801D95C46E3E763600435A7E75CF8043D13B9013E002EF9DC066103B0BDE8F08F00002DE9F843154612F0030206460F4607D0214C013A002354F82220FFF7C2
:40388000CFFE0746AD1036D0746A3CB91020FFF773FE7062446084600460C460D6F82480D8F808404CB940F271213046FFF740FF04460023C8F8080003604FF00008EB0710
:4038C0000AD5394622463046FFF73BFF814639463046FFF78EFE4F466D100CD0206808B10446ECE7224621463046FFF72AFF2060C0F80080F4E73846BDE8F883203F0000DE
:403900002DE9F0470C460746914626694FEA621A56444968A368751CAB4202DA01315B00FAE73846FFF730FE002380461A4600F11401534503DA41F823200133F9E72AEA58
:40394000EA73206901EB830319F01F0904F1140101EB800E14D0C9F1200C002208689A4600FA09F0024343F8042B51F8042B8E4522FA0CF2F2D8CAF8042042B1B51C06E09D
:40398000043B51F8042B8E4543F8042FF9D8013D3846C8F810502146FFF72BFE4046BDE8F08703690A6910B59B1A11D192001430143183180A4453F8044D52F8041D8C4226
:4039C00002D007D3012010BD9842F4D3002010BD184610BD4FF0FF3010BD2DE9F8430C460746114620461546FFF7DBFF061E08D131463846FFF7C8FD012303614661BDE8E0
:403A0000F883BCBF23462C4638466168BABF1D4601260026FFF7B8FD2B69C660266905F1140904F1140101EB860709EB830800F114054FF0000C51F8042B59F8044B93B28A
:403A40009C44A3B2240CC3EB0C03C4EB124202EB23429BB24FEA224CC84543EA02428E4645F8042BE7D8BE450ED25EF8041B8AB26244131403EB114392B242EA03424FEACD
:403A8000234C45F8042BEEE755F8043D0BB9013EFAE70661BDE8F8832DE9F3411C4601219046089E099DFFF76FFDC4F31302C4F30A5407460CB142F480120192B8F1000F0D
:403AC00019D002A840F8088DFFF705FE009B48B1019AC0F1200102FA01F10B43C2407B61019200E07B61019B002B14BF02210121BB61396107E001A8FFF7EDFD019B012140
:403B00007B613961203034B1A4F2334404443460C0F1350009E0A0F2324007EB810330601869FFF7B8FDC0EB41102860384602B0BDE8F08138B502FB01F4214600F008F8EC
:403B4000054618B122460021FEF791FB284638BD70B5CD1C25F0030508350C2D38BF0C25002D064601DBA94202D90C23336046E000F05CF8234B1C681A462146A1B10B6836
:403B80005B1B0ED40B2B03D90B60CC18CD501EE08C420BBF63684B681360636018BF0C4615E00C464968E9E7174C23681BB9304600F02CF820602946304600F027F8431CD5
:403BC00018D0C41C24F00304A0420DD12560304600F02DF804F10B00231D20F00700C31A0ED05A42E25070BD211A304600F00EF80130EBD10C233360304600F018F8002019
:403C000070BD00BF2C82FF1F2882FF1F38B5064C0023054608462360FCF7AAFE431C02D1236803B12B6038BD8482FF1F704770474FF0FF3C06E000BF4FF0010C02E000BF5C
:403C40004FF0010C4DF804CD4FEA410C7FEA6C5C4FEA430C18BF7FEA6C5C1BD001B050EA410C0CBF52EA430C91EA030F02BF90EA020F0020704710F1000F91EA030F58BFBE
:403C8000994208BF90422CBFD8176FEAE37040F0010070474FEA410C7FEA6C5C02D150EA013C07D14FEA430C7FEA6C5CD6D152EA033CD3D05DF8040B704700BF84461046D1
:403CC00062468C461946634600E000BF01B5FFF7B7FF002848BF10F1000F01BD4DF808EDFFF7F4FF0CBF012000205DF808FB00BF4DF808EDFFF7EAFF34BF012000205DF85C
:403D000008FB00BF4DF808EDFFF7E0FF94BF012000205DF808FB00BF4DF808EDFFF7CEFF94BF012000205DF808FB00BF4DF808EDFFF7C4FF34BF012000205DF808FB00BF21
:403D40004FEA410C7FEA6C5C02D150EA013C0AD14FEA430C7FEA6C5C02D152EA033C02D14FF0000070474FF0010070474FEA410212F5001215D211D56FF47873B3EB62529E
:403D800012D94FEAC12343F0004343EA505311F0004F23FA02F018BF404270474FF00000704750EA013005D111F0004008BF6FF0004070474FF00000704700BF00000000FC
:403DC000004F00401800405100403000F05100401000000001400002800201400008000B0140000500140140800000150140000700400140000A004C01400002005001404E
:403E00002000000060520040E0110048060000020140E81100488000800A014068120048800080140140E812004880004300494E4600696E66004E414E006E616E003000E2
:403E4000496E66696E697479004E614E00504F534958002E00000000000000000000F03F000000000000244000000000000059400000000000408F40000000000088C34074
:403E800000000000006AF8400000000080842E4100000000D01263410000000084D797410000000065CDCD41000000205FA00242000000E876483742000000A2941A6D4273
:403EC000000040E59C30A2420000901EC4BCD64200003426F56B0C430080E03779C3414300A0D8855734764300C84E676DC1AB43003D9160E458E143408CB5781DAF1544C1
:403F000050EFE2D6E41A4B4492D54D06CFF08044F64AE1C7022DB544B49DD9794378EA4405000000190000007D000000000000000080E03779C34143176E05B5B5B89346AD
:403F4000F5F93FE9034F384D321D30F94877825A3CBF737FDD4F1575F8B500BFF8BC08BC9E4670474D000000ED090000F8B500BFF8BC08BC9E46704729000000903F000065
:403F8000C880FF1FD0000000F0000000000000000000000000000000000000000000494000B0B34600B0B34600000000000014408882FF1F0000E02EC05D00001800000041
:403FC00000366E0100000000000000000000000000000000000000000000000000000000000000002C3E0000000000000000000000000000000000000000000000000000B2
:40400000000000000000000000000000000000000000000000000000000000000000000000000000FC80FF1F533E0000543E0000543E0000543E0000543E0000543E00007B
:40404000543E0000543E0000543E0000543E0000FFFFFFFFFFFFFFFFFFFFFFFFFFFF0000000000000000000000000000000000000000000000000000000000000000000006
:404080000000000000000000000000000000000000000000000000000000000000000000000000000000000000000000000000000000000000000000000000000000000000
:4040C00000000000000000000000000000000000000000000000000000000000000000000000000000000000000000000000000000000000000000000000000000000000C0
:40410000000000000000000000000000000000000000000000000000000000000000000000000000000000000000000000000000000000000000000000000000000000007F
:40414000000000000000000000000000000000000000000000000000000000000000000000000000000000000000000000000000000000000000000000000000000000003F
:020000040003F7
:0200000480007A
:40000000034F0040045200400A640040046500406A0001403E0101403302014055030140790401405C050140680601404E0701406E080140580901402D0A0140510B0140F4
:400040006C0C0140550D0140690E0140340F0140281401405115014070160140501701406418014053190140661A01405A1B014007400140114101400D4201400C43014039
:4000800006450140084601400447014007480140104901400B4C0140084D01400C5001400251014001200A4B164B0101080409041801800F8138830F8577860F880F890D6D
:4000C0008A0F8D0F8F6F850F870D8872896F00400104028003080603071008020B200CB80D020E400F1D106C130314D41503162018C019041B081D10222024F8291C2D1C46
:40010000301C31013201333C34E03502360238023E403F114006454049FF4A074BFF4C404D204EF04F055008540F580459045A045B045C225D235F01604061A8624063207E
:400140008D7795CC972399BF9A019B409D859F1AA201A503A7FCADCAAF15B30FB401B5F0B880BE50C053C102C204C406C50CC60EC805C9FFCAFFCBFFCC62CDA0CEF0CF4190
:40018000D00CD418D804D904DA04DB04DC20DD33DF01E640E702E910EA30EB10ED10EE10EF1201880281030804080610081809040A400F081040130816401A4A1B0A1E02CB
:4001C0001F2020202210238024042504272828082B022C102D803018310232A03680372838243A013B803E4045084648482049224F68544058045A205B815F0266106702A8
:4002000083218404870289088D02C00FC24EC41CCA5CCC7FCE1FD0E0D234D68FD8308494850186608A0F8C9E8E609073910294FD9602A030A2C9A4CFA630AF06B104B2FF16
:40024000B301B502BE04BF14C012C105C202C9FFCAFFCBFFCDAFCE07CF01D018D401D804D904DA04DB04DC40DD34DF01E040E280E440E540E680E840EA50EBA8EC40ED2007
:40028000EE50EFA800280180022004120501061309040A400C800E140F0111011280130C171018201C101E8821222204240927522B012C802E8031023505376039043B0847
:4002C0003C803E164001412044404524462047024A014E02580259105A886C016E1476807A03830487408A408D0492409428974099029B089DA09E40A070A104A201A508A2
:40030000A6A0A710A808AB02AC10AE08AF61B040B205B640C0F7C2ECC44CCA98CCF1CEF2D0ACD218D60FE640E808EA01EE03031C042A0644087309030A0C0B100E080F2F10
:4003400017091B2F1C031E442073220426552707292F2D0A3040311F320F3430372038203A083B023E113F4040124105420249FF4AFF4BFF4DAF4E074F0150185280580452
:4003800059045A045B045C135D445F016040628064406540668068406A506BA86C406D206E506FA88103830C850F860F87108E0F90019202930F940295059601970A990F38
:4003C0009A18A204A40FA70FA807A903AA10AB0CAD05AF0AB110B41FB50FBA20C042C105C202C54CC602C75EC83FC9FFCAFFCBFFCDAFCE07CF01D018D417D804D904DA045C
:40040000DB04DC11DD44DF01E040E280E440E540E680E840EA50EBA8EC40ED20EE50EFA80094048007100B020C180D010E0410201280151416801720183019201A801E0446
:400440002101230224802611281029042B062C082E802F2230083330350436013720388039123A023B203D043E023F0840014120444045204A024E024F05561557805C2094
:400480005E886644670472408520864088248B808C1090019501968097CB984099029A209DA09E11A020A120A246A304A404A508A711A910AA01AB01AC02AD04AF04B32007
:4004C000C0A7C271C47CCA7ECCE6CECDD0ACD218D670D870E802EC2000010202074E0D0E0F201108131114011504160A1711180219021A011B101C011E06293E2E102F4E6E
:40050000300431013210330E34033540360837303A203F0140254106420449FF4AFF4BFF4F015018528354035604580459045A045B045C125D115F0560406240644065409B
:40054000668068806A806C806E808202851C8602870289108B0C8D098F1092049B039D0C9E019F11A110AD14B403B51FB604BE10C021C106C205C5ECC720C823C9FFCAFF1A
:40058000CBFFCD83CE03CF01D018D804D904DA04DC34DD01DF01E040E240E440E540E680E880EA80EC80EE80008101440541070208400A400E1514011A021B101C081D012E
:4005C0001E15212024402540271829822D202E803120328036023718382439403D803F0841404310471249604B054D204E0252025C405E205F0567806C086F027680798006
:400600007A027F1090209240940497EA99029B029F10A020A210A304A44CA508A680A713A980AE20B101C01CC2E9C480CA39CCECCE5ED0ACD23CD6F0D880DE40E440E60468
:40064000E808EA06000304F005020604070108AC0A500D031470168818A01A041C801E3C224024DE28032F0330013101323C3302340236E038223E103F054062410349FF51
:400680004AFF4BFF4DA04F015018540F580459045A045B045C025D225F016040628064406540668068406A806C406D206E808104840E86208C048E118F0C94089611983EE2
:4006C00099019C029E109F03AA4EAE4EAF01B001B108B230B301B40EB502B640B704BE01BF44C032C106C53EC6C4C702C81FC9FFCAFFCBFFCDAFCE07CF01D018D401D804D7
:40070000D904DA04DB04DC21DD92DF01E040E280E440E540E680E840EA80EC40ED20EE80018804280502060808A009080E200F0610021310144015041604171419A81A8061
:400740001DA01E201F01210522942340244027202A802F0130403180321035403680388039023C283D083F6041244524481449024E045040521459055A405C405D045F229E
:400780008110888089208E288F029028931494109692978098209A409B049C809E28A001A10CA208A501A610A709A804A901AD01AE02B010B204B601B708C075C2E7C473A2
:4007C000CA18CC0CCE59D066D224D6FBE440EE80000F062F08030A0C0B010C050E0A162F18031A0C1C051E0A2C2F2E1031013210340F36203E4040244106420549FF4AFF79
:400800004BFF4F01501854035604580459045A045B045C215D115F056040624064406540668068806A806C806E80015002800320058509200A210C080D820E04120115056D
:400840001740180219501A201C241D861F012101242027442E082F01361037043A203D203F06428043324680471049604A044C014D2A5702591A5A40620274017640780829
:4008800089048B108C088E8C90089150924193049430950296B29780982099809C809F0CA008A13CA320A501A690A70BAC28AE02C0BFC2F7C4B1CA50CC60CEE4D0A5D23CAB
:4008C000D60FD801DE02E020E440EE080184031004CF0501063007F208FD09C00A020B24149E1577166018941A601B071C301EC921C123122473270829B72A0F2B40330FC5
:4009000034FF35F03E1040424101420549FF4AFF4BFF4F015018580459045A045C205D015F016040624064406540668068806A806C806E80860F871C8B098D0A8E04960F6B
:4009400098019A029B0F9D039E189F10A007A210A307A40FA50FA802AA01AB0FB51FB61FBA80BB20C043C101C205C5ECC702C813C9FFCAFFCBFFCD83CE03CF01D018D283F2
:40098000D403D604D804D904DA04DB04DC11DD11DF05E040E240E440E540E680E880EA80EC80EE800140021003200428052009200A210D100E200F0610101110128013084B
:4009C00017141A011B401F102004212024082514271028102A102B402D202F9032903714380439503D203F064080410842024480460649054A024E035108520459055A908A
:400A000062016950700278208A108BC08D018E01912092409410950299809F08A320A402A680A70AA810AB04AD20AF08B306B584C065C2E7C46ECAE7CC6CCEEED0BBD218D9
:400A4000D60FD801DE04E210E6C0E8A0EC400101030A040E062009020B010C080E111501170618021A101C041D011E111F02203E264E2E4E300132303308340E35033640E8
:400A800037043B203E014031410249FF4AFF4BFF4DA04F015018580459045A045C215D025F016040628064406540668068406A806C406D206E80800883018C0191019504AC
:400AC0009C03A30CA403A60CAB03B004B104B202B301B408B508B601B702B888BE50BF05C031C102C52CC630C74EC83BC9FFCAFFCBFFCDAFCE07CF01D018D280D40FD804AD
:400B0000D904DA04DB04DC22DD22DF05E040E280E440E540E680E840EA80EC40ED20EE800108030205810A050F02100212801308162019081A451B201D811E182110224401
:400B40002440250827052E022F043244370539223C0241A845A84F06562A5C405D105E085F026608670474017D0889108B018E10C095C283C42DCAA0CCCACE85D07ED6F007
:400B8000D860DE40E280E610060215011706180119011B021D021F012501270A320233083401350437033B803E1040234106420449FF4AFF4BFF4F015018580459045A04AC
:400BC0005C225D015F016040624064406540668068806A806C806E800220075909200C800E1815101702180419081E601F202002218822102640271429082C802E202F20EF
:400C000031883210350237143F2042E0431046A0471049204A044D214F0456205D015EA05F0467806C046D106F03750277407D02812183108401874088E089048C058E20D1
:400C40009210940995049B0A9C409D209F10A020A120A480A501A702AD80B298B701C0F4C2E2C450CAE2CCEECE20D0E7D224D6F0D880DE80E010E488EA0801030204031038
:400C80000402060108070A100B07131C1618170F1B0F1C0F2001210F22022320260F2A0F2B092D0A321F3520371F3A083B804050410449FF4AFF4BFF4DA04F0450185804D6
:400CC00059045A045C115D045F01604062C06440654066C068C06AC06CC06EC08220840485B08609870D89058B988FB0941899029B0C9D059E239F38A320A540A804A94057
:400D0000AA12AD40B003B103B204B340B420B53CB618B7A8B808B902BBA0BE10C050C101C5D0C602C701C817C9FFCAFFCBFFCDAFCE0FCF04D018D405D604D804D904DA04D5
:400D4000DB04DC34DD44DF01E040E2C0E440E540E6C0E8C0EAC0ECC0EEC0010802400408052006A00A220C800E101008171A19401A241B011E10208421082288270A280133
:400D800029062A102C802EA02F0230203280371A382439403D023E104140464049094A024E0350085140524059415A04608081048401874088808B0490209140920294050B
:400DC0009504974A99029C409D80A020A120A440A508A680A701AC01B120B310C07CC2A5C472CABFCCECCEAED088D218D60BD801E222E603E820EA02EC40014102010504D7
:400E0000090C0D1F0E010FE0118217C319C31DF31F0C251C27E329FF2D083001312033C034013510370F39023B803E013F10404149FF4AFF4BFF4F0150185602571258045D
:400E400059045A045B045C395D395F016040624064406540668068806A806C806E808406861887038A1F8D018E1F941F981E99089C069E18A30CA40AA614AC0AAE14B10276
:400E8000B21EB308B504B601B701BE40BF44C054C9FFCAFFCBFFCD83CE03CF01D018D280D40FD804D904DA04DB04DC21DD29DF05E040E240E440E540E680E880EA80EC8075
:400EC000EE8000480120064108200A010B10114012201A121D101E4021402214234024142501264029022D802F183210365037463A043B403C803E283F0140024145430400
:400F000046414801580259405A085B105C04621063206C046D206E046F0172807580762879048004864087018A809104931094109652978098A099629A549B109D159E8098
:400F4000A001A208A310A402A501A709C097C207C405CA71CCF4CEFAD091D208D64FD806DE02E280EA02EC400603071809010B020E0F0F0F1304140F16201806190F1A10D9
:400F80001E0F2219230F2507260E27102C052D022F013020351F361F3A803B20405445EC4720482349FF4AFF4BFF4D834E034F0150185283580459045A045B045C115D19E9
:400FC0005F016040624064406540668068806A806C806E80806781128218832984188537880889378C10901C912492619311947F985C99019A229B06A004A663AA04B03837
:40100000B308B41FB507B658B730BA2AC064C101C5E0C7BCC832C9FFCAFFCBFFCEF0CF44D00CD804D904DA04DC33DD03DF01E6C0EA40EB02004805800628074008A00A2046
:401040000B100E5811401262150816801710184019401A011C801E581F58200422202610271228A029402A40321236103702384439203D203E043F014101460247014801F9
:4010800049054E8851015201570668046960700287018A108B038E808F0191089204931094409542960197A198A099809A2A9B409D059E019F02A001A110A208A446A6B0BB
:4010C000A70FAF02B104B206B704C0F5C277C47DCA0BCCA5CEEED091D228E2A0E460E610E880EA40EC80EE2031103302360837803820CCF0CE1008110E0831805A80820470
:4011000087028C1094209D109F80A608A702C2D0CC10D480E210E4205B025F0298109B029D109F80A580A608AA40AB02B001D6C0EE8019011C8081108F0898109D10A580B5
:40114000A608AF80C630E620EA40060208400A400C02C001C20E88028E0292409A02A002AC40E202E601A420B020B640EE0689809F08A040A580A608B010B5010708098162
:401180000D0454408180860889048D019F08A040A608C080C270D440E210E4800B040C2054029704A002A420AF04B402C203D604EC02102075018C208D01C408DE04E402D3
:4011C000E608001E0101081C0A1E0C060D010E06101E11011A1E1C0E1D0100FF010F0000808000004000000018184403000703080101001260000C800006001104004880E6
:401200001C0020604020100000100004000000007C000000000000207C40021F018000200000000000001150420502000000000000FFFFFF00A0000118008700000000008D
:4012400004040404444400014000800040408000400050A8402050A8000000000000000000000000000000003005080A02033D0C006C00031C0000000100020030370400F7
:40128000006A8005010042002C001000205F040000000000010002804080030F3C70800000200800000000002406050000EC002023FFFFFF0083030118008000000000001A
:4012C000040404042291000140004000404080008000800080008000000000000000000000000000000000000000200000001F00001F1F000A001400000000070A071410D3
:401300001E0100081F0020000600180700020028060418280000000001001E072018002000000000000001402306040000EC20000BFFFFFF00830301180083000300040085
:4013400004040404111100054000400040408000800080008000800000000000000000000000000000000000906F6F002F000000800040808000800000000000C03F3F009B
:4013800004000000304848000000000038474700010000000000000000000000000000000000000000000000000000000000000000000000000000000000000000000000A2
:4013C00000000000000000000000000000000000000000000000000000000000000000000000000000000000000000000000000000000000000000000000000000000000ED
:4014000000000000000000000000000000000000000000000000000000000000000000000000000000000000000000000000000000000000000000000000000000000000AC
:40144000000000000000000000000000000000000000000000000000000000000000000000000000000000000000000000000000000000000000000000000000000000006C
:40148000000000000000000000000000000000000000000000000000000000000000000000000000000000000000000000000000000000000000000000000000000000002C
:0200000490006A
:0400000000004005B7
:0200000490105A
:04000000BC90ACAF55
:0200000490303A
:020000007C7210
:0200000490402A
:4000000000000000000000000000000000000000000000000000000000000000000000000000000000000000000000000000000000000000000000000000000000000000C0
:400040000000000000000000000000000000000000000000000000000000000000000000000000000000000000000000000000000000000000000000000000000000000080
:400080000000000000000000000000000000000000000000000000000000000000000000000000000000000000000000000000000000000000000000000000000000000040
:4000C0000000000000000000000000000000000000000000000000000000000000000000000000000000000000000000000000000000000000000000000000000000000000
:0200000490501A
:0C00000000012E16106900012E358CDB6B
:00000001FF