:400000000080002011000000CD200000CD20000008B5044B1A6803F53F5302331A6002F075F800BFFA46004010B5054C237833B9044B13B10448AFF300800123237010BD2E
:40004000F881FF1F00000000B87C0000084B10B51BB108490848AFF300800848036803B910BD074B002BFBD0BDE81040184700BF00000000FC81FF1FB87C0000C880FF1F3A
:40008000000000000122014B1A6070471882FF1F0122014B5A6070471882FF1F2DE9F84F3B4B9B68012B71D102F01AFB02F0EEF8DFF8DCA0CAF80C0002F02AFACAF8100014
:4000C000DAF80C30002BB8BF5B420028B8BF4042181A04F015FE04460D46CAE90645DFF8BCB0DBE9006732463B4604F06FFEDAE9082304F0B9FC80468946CAE90889DAE9C3
:400100000A232046294604F0ADFC32463B4604F087FF06460F46CAE90C67DBE902232046294604F053FE04460D46DBE904234046494604F04BFE02460B462046294604F0A7
:4001400093FC04460D46DBE906233046394604F03DFE02460B462046294604F085FC05F00DF9CBF820000B4905F018FC10B10A4ACBF82020094B186A05F024FC80B202F0FD
:40018000C3FE034BD3E90601C3E90A01BDE8F88F1882FF1F0050C34600A08C46D080FF1F38B502F095FB02F0ABFB2D4CA063C0F57F43FF332B4880FB03201844DB17C3EB60
:4001C000601004F09DFD02460B46C4E91023264D2649284606F0CAF8284602F079F9A36C2BB9D4E91001224BC3E9000118E0012B06D11B4BD3E910011E4BC3E900010FE0A0
:40020000022B05D1164BD3E91001C3E9140107E0032B05D1124BD3E91001174BC3E900010022164B1249D1E9000105F04BF818B101220B4B9A6502E00022094B9A6500221D
:400240000F4B0749D1E9140105F046F818B10122034BDA6538BD0022014BDA6538BD00BF1882FF1F09CB3D8D9C86FF1FC07C00000089FF1F0085FF1F3088FF1F00002440AD
:400280000000344008B502F0DFFB0122014B1A6608BD00BF1882FF1F08B502F0F7F8094B1870212806D0084A536E0849C8540133536608BD044B5A6E0020044988540122C8
:4002C0009A6608BDD085FF1F1882FF1F0885FF1F10B50024074B9C60204601F071FF204601F07AFF204602F0D5F9204602F0DEF910BD00BF1882FF1F10B50124074B9C60C4
:40030000002001F05DFF204601F066FF002002F0C1F9204602F0CAF910BD00BF1882FF1F10B50124074B9C60204601F049FF002001F052FF204602F0ADF9002002F0B6F971
:4003400010BD00BF1882FF1F10B50124074B9C60002001F035FF204601F03EFF204602F099F9002002F0A2F910BD00BF1882FF1F10B50124074B9C60204601F021FF00207E
:4003800001F02AFF002002F085F9204602F08EF910BD00BF1882FF1F08B5002001F07EFF002002F0BDF8024B0022DA601A6108BD1882FF1FF8B50746334C206B05F002FBC7
:4003C00080B202F09BFD206B05F0FCFA80B202F09BFD2E4BD3F87831032B54D8DFE803F002090406002605E0B42603E04FF4877600E05A26254BD3E92A45304604F080FC10
:4004000002460B462046294604F02CFB04F08EFFB6B97B42984204DBB84202DCFFF758FF21E0002809DD0022194B2046294604F05DFF10B1FFF79CFF11E0FFF785FF0EE043
:400440007B42984204DBB84202DCFFF741FF0AE0002802DDFFF778FF01E0FFF789FF322001F0C8FEC6E7C82001F0C4FE064C606B05F0A8FA80B202F041FD606B05F0A2FA78
:4004800080B202F041FDF8BDD080FF1F1882FF1F0080664000000000F8B501F0F7FE044602F036F8204404F02BFC04460D4630A3D3E900233249D1E90E0104F087FC2EA382
:4004C000D3E9002304F0ACFD02460B462046294604F07CFC06460F462A4C02460B462A49204605F043FF204601F0F2FF274BD3F878314BB9254CF4E960233046394604F0FA
:40050000B3FAC4E9000122E0012B09D11F4CF4E962233046394604F0A7FAC4E9000116E0022B09D1194C32463B46F4E9600104F099FAC4E900010AE0032B08D1134C3246BD
:400540003B46F4E9620104F08DFAC4E9000101F0DFFF02460D4B18610D4C0E49204605F005FF204601F0B4FFFFF716FFF8BD00BF182D4454FB2109400000000000A6AC403D
:40058000D080FF1F9C86FF1FF87C00001882FF1FD485FF1F147D000070B505460E460DE001F074FE264CE06001F0B2FF2061012E02D1FFF7DDFE01E0FFF7C6FE204BDB6854
:4005C000002BB8BF5B42AB4206DC1D4B1B69002BB8BF5B429D42E3DAFFF77AFE012E0ED1174BD3F87831032B04D10022144BC3F8782111E00133124AC2F878310CE0104BD1
:40060000D3F8783123B903220D4BC3F8782103E0013B0B4AC2F87831322001F0EBFD01F077FF0246064B1861064C0749204605F09DFE204601F04CFFFFF7AEFE70BD00BF56
:400640001882FF1FD485FF1F347D0000000000002DE970430024002515E002F0F7FF012003F000F80028FAD003F00EF8002807DD04F08EFF0146284604F0D6FE054601342A
:40068000142001F0B7FD0A2CE7DD2B49284605F087F82A4905F084F8054604F043FB804689461FA3D3E9002304F0DCF91EA3D3E9002304F0B5FC1EA3D3E9002303F0F2F8EF
:4006C00004F05CFE0646C82001F094FD1C4C42464B461C49204605F049FE204601F0F8FE304604F01FFB02460B461749204605F03DFE204601F0ECFE4FF07F51284605F05B
:4007000057F928B10122114BC3F89021BDE8708300220E4BC3F89021BDE87083AFF300809A9999999999C93F6844696FF00542401A578E1A578EEABF0000204100004C423C
:400740009C86FF1F547D0000647D00001882FF1F10B502201D4B986402F03CFC322001F049FD1FE0FFF7C8FD194C1A4B07CB20606160A2601A889B78A281A373204601F0F3
:40078000A7FE642001F036FD08E0012002F086F80A2001F045FD002002F080F802F026F90028F2D0094BDB6D002BDBD0FFF790FD4FF4FA7001F01EFD0320FFF7FBFDFFF7DC
:4007C0006BFE0022014BDA6510BD00BF1882FF1F9C86FF1F747D000008B50021682002F0E9FD6B2002F042FE002002F03FFE02F021FE012001F0FEFC0021682002F0DAFD95
:400800001B2002F033FE082002F030FE02F012FE012001F0EFFC0021682002F0CBFD1A2002F024FE052002F021FE02F003FE012001F0E0FC08BD00BF2DE9F04F83B00C46ED
:4008400091461E460C9FDFF8B0A20AF5CC7504F057FAD5E9002304F0B9FA04F067FD05464FF00008CAF84880404602F0B3FB322001F0C0FCCAF85880CAF89081CAF8A08173
:40088000CAF8A481CAF8A881CDE101F0FFFCDFF868A2CAF80C0001F03BFECAF81000904B186A04F03FFADFF864B202460B468D49584605F05BFD584601F00AFEDAF81020B7
:4008C0008949584605F052FD584601F001FEDAF80C208649584605F049FD584601F0F8FDDFF82CB2DAF80C208149584605F03EFD584601F0EDFDDAF810207E49584605F06C
:4009000035FD584601F0E4FD02F0D8F940B9B9F1010F05D1FFF7DCFC0122CAF8A02191E1012E0ED1744B1B68012B0AD1724B5B68012B06D1FFF7CCFC01226F4BC3F8A421EE
:4009400080E1012F6DD13EE0FFF746FF41F2883001F050FC0022694B6949D1E9000104F0C5FC18B14FF0030A012402E04FF0050A0024DFF86CB1DBF8300005F023F880B268
:4009800002F0BCFADBF8300005F01CF880B202F0BBFA00220092134621465046FFF74CFF4FF4FA7001F026FC0320FFF703FD4FF4FA7001F01FFCFFF74BFE4F4AD2F8A83152
:4009C0000133C2F8A8314C4BD3F8903123B94A4AD2F8AC21002AB7D0012B06D1464AD2F8AC2112B9FFF774FC2CE1012B0BD1424AD2F8AC21012A06D1FFF76AFC00223E4BB9
:400A0000C3F8B0211EE143B93B4BD3F8AC31012B03D10122384BC3F8B0214FF4FA7001F0E9FB354B9B6D012B25D1B8F1000F22D1012C20D1FFF74CFC4FF4FA7001F0DAFB29
:400A4000FFF72AFD40F6C41001F0D4FB08F101084FF4FA7001F0CEFB08E0012001F01EFF0A2001F0DDFB002001F018FF01F0C4FF0028F2D0D7E0012B40F0BD80B8F1010F4D
:400A800040F0B980012C40F0B6801D4BD3E9004500221C4B2046294604F00AFCC8B90EA3D3E900232046294604F020FC88B9164BD3E900450022134B2046294604F0F8FBA4
:400AC00038B905A3D3E900232046294604F00EFC00B3FFF7FDFBB5E00000000000E06940D080FF1F847D0000947D0000A87D0000BC7D0000CC7D00001882FF1F00004E407F
:400B0000A083FF1F00003E409883FF1FD485FF1FD089FF1F534CF4E96E0104F007FC0121FFF73AFD4FF4FA7001F064FBFFF710FE4FF4FA7001F05EFB009733464A460121E4
:400B40001420FFF779FE4FF4FA7001F053FBD4E9000104F0EBFB0021FFF71EFD4FF4FA7001F048FB009733464A4601211E20FFF763FE4FF4FA7001F03DFBFFF7E9FD4FF4F1
:400B8000FA7001F037FB009733464A4601211420FFF752FE4FF4FA7001F02CFBD4E9000104F0C4FB0021FFF7F7FC4FF4FA7001F021FB009733464A4601211420FFF73CFE4C
:400BC0004FF4FA7001F016FBD4E9000104F0AEFB0121FFF7E1FC4FF4FA7001F00BFB009733464A4601211420FFF726FE4FF4FA7001F000FB26E0012C02D1FFF77DFB01E054
:400C0000FFF78EFB322001F0F5FA08E0012001F045FE0A2001F004FB002001F03FFE01F0EBFE0028F2D00F4BDB68002BB8BF5B429D4207DB0B4B1B69002BB8BF5B429D4205
:400C4000BFF623AEFFF744FB4FF4FA7001F0D2FAFFF722FC034B00221A605A6003B0BDE8F08F00BF1882FF1F38B5012002F002F8012001F0E7FF012002F014F80A2001F01D
:400C8000B9FA01F0A3FF0024674B1C66204601F0E5FF204601F0FAFF142001F0ABFA012001F0CAFF012001F0A5FA204601F0C4FF5D4B1B6E002BFBD001F03EFF02465A4D57
:400CC000C5F8C001594C5A49204605F04FFB204601F0FEFB01F016FF642001F08BFA01F075FF00242C66012001F0B8FF012001F0CDFF142001F07EFA012001F09DFF01200B
:400D000001F078FA204601F097FF474B1B6E002BFBD001F011FF0246434DC5F8C401434C4449204605F022FB204601F0D1FB01F0E9FE642001F05EFA01F048FF00242C66AD
:400D4000204601F08BFF012001F0A0FF142001F051FA012001F070FF012001F04BFA204601F06AFF304B1B6E002BFBD001F0E4FE02462D4CC4F8C8012C4D2F49284605F072
:400D8000F5FA284601F0A4FB01F0BCFED4F8C031D4F8C42193420FDDD4F8C82193420BDD0120C4F8CC0101F09DFF4FF47A7001F021FA002001F096FF1B4BD3F8C421D3F803
:400DC000C0319A4212DD184BD3F8C8319A420DDD0222154BC3F8CC21012001F077FF4FF47A7001F007FA002001F070FF0E4BD3F8C821D3F8C0319A4212DD0B4BD3F8C4314D
:400E00009A420DDD0322084BC3F8CC21012001F075FF4FF47A7001F0EDF9002001F06EFF002001F03FFF38BD1882FF1F9C86FF1FDC7D0000E87D0000F47D000010B582B062
:400E4000002002F0ADFC012002F0B6FC41F2707001F0D0F9002400942346224621460A20FFF7EAFC4FF4FA7001F0C4F9204602F097FC204602F0A0FC02B010BD2DE9F0412F
:400E800082B007460026484BC3F8A061344684E00A2C2CDD444BD3F87831012B02D14FF0000801E04FF001083F4DF5E96E0104F03DFA4146FFF770FB4FF4FA7001F09AF992
:400EC000002400942346012211460C20FFF7B4FC4FF4FA7001F08EF9D5E9000104F026FA4146FFF759FB4FF4FA7001F083F900230093012211461420FFF79EFC4FF4FA7001
:400F000001F078F9284BD3F8A031012B44D100220092134601210220FFF78EFC4FF4FA7001F068F9FFF7A0FE1F4BD3F8CC31012B0DD1012001F0D6FE4FF47A7001F05AF908
:400F4000002001F0CFFE194801F0C2FA1EE0022B0DD1012001F0BAFE4FF47A7001F04AF9002001F0B3FE124801F0B2FA0EE0032B0CD1012001F0C2FE4FF47A7001F03AF97C
:400F8000002001F0BBFE0B4801F0A2FA064BD3F8CC31BB4200D101260134002E3FF478AF02B0BDE8F08100BF1882FF1F007E0000087E0000147E000010B582B0002200923C
:400FC000134601211120FFF737FC4FF4FA7001F011F90B4CB4F8400001F026FF4FF47A7001F008F9B4F8440001F0AEFE4FF47A7001F000F9B4F8480001F016FF02B010BDDF
:40100000D080FF1F10B50D4CB4F8400001F00CFF4FF47A7001F0EEF8B4F84C0001F094FE4FF4FA7001F0E6F8B4F8480001F0FCFE4FF4FA7001F0DEF810BD00BFD080FF1FF4
:4010400010B5204BD3F87821831A83EAE371A1EBE371022917D11B4CF4E96E0104F066F90021FFF799FA4FF4FA7001F0C3F8D4E9000104F05BF90021FFF78EFA4FF4FA7030
:4010800001F0B8F810BD012B0CD10F4BD3E9000104F04CF90121FFF77FFA4FF4FA7001F0A9F810BD82420BD0074BD3E9000104F03DF90021FFF770FA4FF4FA7001F09AF843
:4010C00010BD00BF1882FF1FD083FF1F000000002DE9F04F83B062B6DFF86CB3BEA3D3E90023DBE90E0103F071FE04460D46DFF810A30AF5E873C3E90045B7A3D3E9002385
:40110000DBE9140103F062FE0022B54B03F05EFE06460F460AF5EC73C3E90067DBE9168922462B464046494603F07AFF0AF5CC73C3E9000142464B463046394603F046FE13
:4011400022462B4603F06CFF0022A64B03F08AFC0AF5DC73C3E90001A34801F02BFBA34801F05CFD01F0FEFA01F00AFCA04801F02FFC01F0B1FC9F4801F04CFF002001F0C4
:401180008DFB01F019FF01F027FE01F095FE01F0B3F8002001F082F801F0F0F9002001F0BFF901F065F9002001F07CFD02F040FA01F084FF01F064FB0024CAF85840CAF831
:4011C0005C4002F0DFFA8C4802F044FB8B4802F019FBDBF8340004F0F5FB80B201F08EFEDBF8340004F0EEFB80B201F08DFECAF8E041CAF8E441CAF89041CAF8A041CAF8BC
:40120000E841CAF8AC41CAF8B041CAF86840CAF8A841CAF8EC417A4B9B6E012BFBD17949794805F0C7F820B9784801F051F900F081BD7749744805F0BDF8002840F04D85D0
:40124000744804F0DFFB02466D4BC3F8F001724C7249204605F08AF8204601F039F9ACE2674B03F5C47200206D49C2E9000103F5C07300206B49C3E9000157E0604BD3F810
:40128000F031012B29D1684804F0BCFB5C4BC3F8F401012801D0042807D10122584BC3F8F821624801F014F936E0022801D0052807D10222524BC3F8F8215D4801F008F9B3
:4012C0002AE0032801D0062826D103224C4BC3F8F821584801F0FCF81EE0022B1CD15649564805F067F820B90122454BC3F8F82112E05349514805F05DF820B90222404BAC
:40130000C3F8F82108E04F494C4805F053F818B903223B4BC3F8F8214FF4FA7000F06AFF374AD2F8FC310133C2F8FC31344BD3F8FC31002BA2D0BCE0002400942346224663
:4013400001211E20FFF778FA4FF4FA7000F052FF2B4D05F5DC73D3E9000103F0E7FF2146FFF71AF94FF4FA7000F044FFD5F8F031032B6BD101210091234622463220FFF7EC
:401380005BFA4FF4FA7000F035FFD5F8A831032B01D0062B04D10322194BC3F8F82115E0042B01D0072B04D10222154BC3F8F8210CE0052B01D0082B04D10122104BC3F87D
:4013C000F82103E002220E4BC3F8F8214FF4FA7000F010FF41E000BF182D4454FB2109400000D03F000059409D00000085020000A1010000990200008500000091000000B3
:401400001882FF1F1C7E00000885FF1F2C7E0000387E0000C48AFF1F9C86FF1F407E00000040554000002E409C8AFF1F547E0000647E0000787E0000887E0000B08AFF1F56
:401440008C7E0000947E0000D080FF1F00220092134601213220FFF7EFF94FF4FA7000F0C9FEAB4C2546F5E96E0103F05FFF0121FFF792F84FF4FA7000F0BCFE0022009272
:40148000134601213220FFF7D7F94FF4FA7000F0B1FED5E9000103F049FF0121FFF77CF84FF4FA7000F0A6FED4F8FC310133C4F8FC31974BD3F8FC31012B3FF43DAF13E058
:4014C000934CD4F8F801FFF7D9FC4FF4FA7000F091FEFFF771FD4FF47A7000F08BFED4F8FC310133C4F8FC31894BD3F8FC31022BE6D079E00120FFF7A3FD4FF4FA7000F0D5
:4015000079FE834D00242C606C60C5F8A4410094012322462146C820FFF78EF94FF4FA7000F068FE00942346224601210520FFF783F94FF4FA7000F05DFE2E460022754BEB
:40154000F6E96E0103F08EFA03F0F0FE2146FFF723F84FF4FA7000F04DFE2C606C60C5F8A4410094012322462146C820FFF764F94FF4FA7000F03EFE05F5C4710022664BCA
:40158000C1E9002305F5C071C1E9002300220023C5E92A2300942346224601211920FFF74BF94FF4FA7000F025FED6E9000103F0BDFE0121FEF7F0FF4FF4FA7000F01AFE43
:4015C0002C606C60C5F8A44100940123224621461E20FFF731F94FF4FA7000F00BFED5F8FC310133C5F8FC31494BD3F8FC31032B80D047E0464BD3F8F031012B18D1444CFB
:40160000D4F8F43103EB83030F33C4F8EC314FF4FA7000F0EFFDD4F8EC010022009213460121FFF709F94FF4FA7000F0E3FD16E00123009300231A4619465020FFF7FCF85B
:401640004FF4FA7000F0D6FD002100910B460A460520FFF7F1F84FF4FA7000F0CBFD2C4C04F5DC73D3E9000103F060FE0021FEF793FF4FF4FA7000F0BDFDD4F8FC31013344
:40168000C4F8FC31224BD3F8FC31042BB2D014E0FFF7B8FC4FF4FA7000F0ACFDFFF7CEFB4FF4FA7000F0A6FD194B0122C3F8AC21D3F8FC210132C3F8FC21154BD3F8FC31EE
:4016C000052BE5D01EE0124C04F5DC73D3E9000103F02CFE0021FEF75FFF4FF4FA7000F089FD0123009300231A4619460A20FFF7A3F84FF4FA7000F07DFDD4F8FC31013358
:40170000C4F8FC31024BD3F8FC31062BDBD03CE01882FF1F0000694000002E40AF4D05F5C473D3E900230020AD4903F09BF903F0FDFD00240094234622462146FFF77CF8C4
:401740004FF4FA7000F056FD05F5DC73D3E9000103F0ECFD0121FEF71FFF4FF4FA7000F049FD2C606C60C5F8A44100940123224621463C20FFF760F84FF4FA7000F03AFD80
:40178000D5F8FC310133C5F8FC31944BD3F8FC31072BC3D0914BD3F8B031012B09D18F4AD2F8F0310133C2F8F03141F2883000F021FD0022894BC3F8FC218A4B1B6E002BC4
:4017C0003FF44EAD84E2854B03F5C47200208649C2E9000103F5C07300208449C3E9000157E07E4BD3F8F031012B29D1804804F009F97A4BC3F8F401012801D0042807D1B4
:401800000122764BC3F8F8217A4800F061FE36E0022801D0052807D10222704BC3F8F821754800F055FE2AE0032801D0062826D103226A4BC3F8F821704800F049FE1EE050
:40184000022B1CD16E496F4804F0B4FD20B90122624BC3F8F82112E06B496A4804F0AAFD20B902225D4BC3F8F82108E06749654804F0A0FD18B90322584BC3F8F8214FF4CC
:40188000FA7000F0B7FC554AD2F8FC310133C2F8FC31524BD3F8FC31002BA2D07DE000220092134601211E20FEF7C6FF4FF4FA7000F0A0FC494C04F5DC73D3E9000103F0EE
:4018C00035FD0121FEF768FE4FF4FA7000F092FCD4F8F031032B30D10121009100231A463220FEF7A9FF4FF4FA7000F083FCD4F8A831032B01D0062B04D10322374BC3F8A5
:40190000F82115E0042B01D0072B04D10222334BC3F8F8210CE0052B01D0082B04D101222E4BC3F8F82103E002222C4BC3F8F8214FF4FA7000F05EFC06E00022009213467B
:4019400001213220FEF778FF244D2E46F6E96E0103F0ECFC0021FEF71FFE4FF4FA7000F049FC002400942346224601213220FEF763FF4FF4FA7000F03DFCD6E9000103F087
:40198000D5FC2146FEF708FE4FF4FA7000F032FCD5F8FC310133C5F8FC31104BD3F8FC31012B3FF47CAF13E00C4CD4F8F801FFF765FA4FF4FA7000F01DFCFFF7FDFA4FF4E9
:4019C000FA7000F017FCD4F8FC310133C4F8FC31024BD3F8FC31022BE6D096E01882FF1F00405540D080FF1F0000634000002E409C8AFF1F547E0000647E0000787E0000CC
:401A0000887E0000B08AFF1F8C7E0000947E00000320FFF715FB4FF4FA7000F0EBFBCC4D00242C606C60C5F8A4410094012322462146C820FEF700FF4FF4FA7000F0DAFB74
:401A400000942346224601210520FEF7F5FE4FF4FA7000F0CFFB2E460022BE4BF6E96E0103F000F803F062FC0121FEF795FD4FF4FA7000F0BFFB2C606C60C5F8A4410094B4
:401A8000012322462146C820FEF7D6FE4FF4FA7000F0B0FB05F5C473ABA1D1E90001C3E9000105F5C0730020AB49C3E9000100220023C5E92A230094234622460121192067
:401AC000FEF7BAFE4FF4FA7000F094FBD6E9000103F02CFC2146FEF75FFD4FF4FA7000F089FB2C606C60C5F8A44100940123224621461E20FEF7A0FE4FF4FA7000F07AFBF5
:401B0000D5F8FC310133C5F8FC31914BD3F8FC31032B3FF47DAF46E08D4BD3F8F031012B17D18B4CD4F8F43103EB83030F33C4F8EC31C82000F05EFBD4F8EC010022009239
:401B400013460121FEF778FE4FF4FA7000F052FB16E00123009300231A4619465020FEF76BFE4FF4FA7000F045FB002100910B460A460520FEF760FE4FF4FA7000F03AFBBE
:401B8000734C04F5DC73D3E9000103F0CFFB0121FEF702FD4FF4FA7000F02CFBD4F8FC310133C4F8FC316A4BD3F8FC31042BB3D014E0FFF727FA4FF4FA7000F01BFBFFF7A1
:401BC0003DF94FF4FA7000F015FB614B0122C3F8AC21D3F8FC210132C3F8FC215C4BD3F8FC31052BE5D01DE0594C04F5DC73D3E9000103F09BFB0021FEF7CEFC4FF4FA7077
:401C000000F0F8FA0121009100231A460A20FEF713FE4FF4FA7000F0EDFAD4F8FC310133C4F8FC314A4BD3F8FC31062BDCD037E0474D05F5C47144A3D3E90023D1E90001FD
:401C400002F010FF03F072FB00240094234622460121FEF7F1FD4FF4FA7000F0CBFA05F5DC73D3E9000103F061FB0121FEF794FC4FF4FA7000F0BEFA2C606C60C5F8A441C8
:401C800000940123224621463C20FEF7D5FD4FF4FA7000F0AFFAD5F8FC310133C5F8FC312B4BD3F8FC31072BC2D0294BD3F8B031012B09D1264AD2F8F0310133C2F8F0315A
:401CC00041F2883000F096FA0022214BC3F8FC21224B1B6E012B2DD175E52149214804F083FB214B186012E0194DD5F8004204EB840293001D48184404F066FB0134C5F8F9
:401D000000421749002004F06FFB174B1860164B19680029E8D1154C204600F0D9FB04F1140000F0D5FB04F1280000F0D1FB104800F0CEFB064B00225A66C3F800229A6697
:401D4000FFF769BAAFF300800000000000C06B401882FF1F0000694000002E40D080FF1F9C7E00000885FF1F988AFF1F9C8AFF1FA07E0000FEE700BFF0B40022174611E061
:401D800050F82760F3B226F0FF0608E001EB420511F812406D78A5550132013BDBB2002BF4D10137292FEBD9F0BC704708B50A46002103F062FE08BDF8B5174B1B78DBB227
:401DC000164E3478E4B2164F3D78EDB203F00701144A11701B090132137044F00303337045F003033B704023A2F26272137002F2F47213700232137002F21D221370202233
:401E0000094B1A700A2000F00BFA3D7034704422064B1A70F8BD00BFCF010049F8460040F94600406E580040235B00407658004008B503F017FE08BD38B517223C4B1A80E6
:401E400018233C490B7002310A8002310B7002310A80394A1370EF2102321180023213704FF49C71023211800232137040F2DF11023211800232137047F22F522F4B1A8035
:401E8000192502331D7004222D492E48FFF7D0FF02222D4B1A7008224FF040231A70032103F500731970294B1B78DBB228490B70284B1A8041F25122023B1A8000240CE09D
:401EC000254B1B7803F0010343EA440404F003044FF4F07001F0CCFC013D0DB1032CEFD115B90320FFF746FF1C4B4FF480721A8007221A7000221A490A704820023108700A
:401F00001A700222033B1A7004220A331A70154A137843F07F031370013A137843F001031370013A137843F08003137038BD00BF80400040824000408A40004098400040C5
:401F400098120048004100400043004008010049A146004022420040254200400440004006400040A243004038B572B6404A137843F00403137000240CE03E4D6300191961
:401F80004A0011462A44084691882858FFF70EFF0134E4B2072CF0D900240BE03549A3001819420088180622416B006BFFF740FF0134E4B2002CF1D02F494FF09040FFF775
:401FC000DBFE2E4B2E4A13602E4902F56072116002F50862136002F586422B32137843F0020313701032137843F002031370264C237843F040032370A2F58632513A1378BA
:4020000043F010031370082220492148FFF710FF0A2220492048FFF70BFF08221F492048FFF706FF0A221F491F48FFF701FF08221E491F48FFF7FCFE08221E491E48FFF71E
:40204000F7FE1E4A137843F0080313701C4D61232B70FFF7F1FE81232B700122194B1A70FFF7AAFE0E2221461748FFF7E1FE38BDE8460040AC7E0000A80000480404048484
:40208000D800014004040444A0430040601200480251004068120048C051004074120048F25100407C12004810510040881200482251004090120048325100402243004085
:4020C0000048004004000840B043004008B503F09DFC03680C2B00D1FEE7FEE708B5094B1A681044084BC31AB3F5007F02DC054B186005E003F08AFC0C2303604FF0FF320F
:40210000104608BD3C81FF1F008BFF1F08B5104E104D16E029686B68AC68002204E051F8040B43F8040B0432A242F8D1E868002203E0002143F8041B04328242F9D11035B6
:40214000013E002EE6D103F067FCFEF7C1FFFEE7010000008881000008B5104A104B1A60104A136843F40073136000230AE0032B03D80D4A52F8231000E00C490C4A42F8B4
:40218000231001332F2BF2D90A4B1A780A4B1A70074A0A4B1A60FFF7E7FE08BD0004FA050CED00E014ED00E000000000CD2000000080FF1FBC760040C080FF1F08ED00E020
:4021C000044A137803F0FD03400000F0020018431070704700510040044A137803F0FE0300F0010018431070704700BF0051004001BE704710B5044605E0084B186801F0F0
:4022000037FBA4F50044B4F5004FF6D8034B586800FB04F001F02CFB10BD00BF4081FF1F08B5034B1B7A00FB03F001F021FB08BD4081FF1F70B504460E46074B1D681F2829
:4022400002D90020FFF7D4FF04F01F04103455F8240045F8246070BD08ED00E038B504460D46072902D90020FFF7C2FF1F2C02D90020FFF7BDFF04F01F0000F1604000F50E
:4022800064406D01EDB2057038BD00BF08B500F05FF8A0F5004000B208BD00BF08B5002803DB80B280F4004002E0A0F5004080B200F048F808BD00BF024B187800F00F0013
:4022C000704700BF63640040014B1870704700BF8364004008B50F20FFF7F6FFFFF7ECFF01F0CEFA034A137843F01003137001F0CBFA08BD9364004008B500F07BF84FF4C9
:40230000004000F01FF8044B1B7813B90122024B1A70FFF7DFFF08BD1C84FF1F024A137843F080031370704773640040014B1870704700BF81640040014B1878704700BFB8
:4023400061640040014B1880704700BF00680040024B1B78024B188880B270470064004080680040014B188880B2704780680040014B1880704700BF40680040014B1880B1
:40238000704700BF6068004008B501E0FFF7EAFFFFF7D2FF10F0400FF8D108BD08B5134B1A7802F0F8021A701A7802F0FC021A70FFF7EAFF4FF40040FFF7DAFF4FF400409B
:4023C000FFF7C0FF0020FFF7B1FFFFF7B5FF4FF40040FFF7D3FF01F053FA054A137843F01003137001F050FA08BD00BF736400409164004008B5054B1B7823B9FFF7CEFF42
:402400000122024B1A70FFF789FF08BD1D84FF1F7222084B1A70202201331A700622A3F5B0731A70472210331A70002255331A70704700BF8965004010B501F021FA044699
:402440000A4A137843F0200313700132137843F010031370FB3A137843F01003137000F049F8204601F010FA10BD00BF9965004008B5054B1B7823B9FFF7CAFF0122024B8D
:402480001A70FFF7D9FF08BD1E84FF1F084B1B78DBB213F0200F06D0064A1078C0B213F01E0F02D17047002070470020704700BF6A6500404B650040034B1B7813F0040F5D
:4024C000FAD1024B187070476F6400404B64004038B5074B1B782BB938BDFFF7EDFF0134A4B201E005460024285D0028F5D138BD1E84FF1F054A137843F01003137010320E
:40250000137843F010031370704700BFA243004008B500F05FF8A0F5004000B208BD00BF08B5002803DB80B280F4004002E0A0F5004080B200F048F808BD00BF024B18787A
:4025400000F00F00704700BF67640040014B1870704700BF8764004008B50F20FFF7F6FFFFF7ECFF01F08CF9034A137843F01003137001F089F908BD9764004008B500F077
:402580007BF84FF4004000F01FF8044B1B7813B90122024B1A70FFF7DFFF08BD2084FF1F024A137843F080031370704778640040014B1870704700BF84640040014B1878EA
:4025C000704700BF64640040014B1880704700BF10680040024B1B78024B188880B270470864004090680040014B188880B2704790680040014B1880704700BF5068004052
:40260000014B1880704700BF7068004008B501E0FFF7EAFFFFF7D2FF10F0400FF8D108BD08B5134B1A7802F0F8021A701A7802F0FC021A70FFF7EAFF4FF40040FFF7DAFFA7
:402640004FF40040FFF7C0FF0020FFF7B1FFFFF7B5FF4FF40040FFF7D3FF01F011F9054A137843F01003137001F00EF908BD00BF786400409464004008B5054B1B7823B97D
:40268000FFF7CEFF0122024B1A70FFF789FF08BD2184FF1F044A137803F0DF03400100F02000184310707047F0510040044A137803F0FD03400000F00200184310707047B5
:4026C000F0510040024A137843F080031370704779640040014B1870704700BF8A640040014B1878704700BF6A64004008B50146014801F0CDF808BD28650040024B18683B
:4027000020F07F40704700BF4865004008B50146014801F0BDF808BD0865004008B501E0FFF7ECFFFFF7DCFF10F0080FF8D108BD08B54EF65F20FFF7D9FF4EF65F20FFF706
:40274000E5FF01F09DF8064A137843F01003137001F09AF8FFF7E2FF0120FFF7BBFF08BD9A64004008B5054B1B7823B9FFF7E0FF0122024B1A70FFF7A5FF08BD2284FF1FAF
:40278000014B1B685864704708ED00E04001C0B2014B1870704700BF01E400E00222014B1A60704700E100E00222014B1A60704780E100E010B50446FFF7F6FF2046FFF7A6
:4027C000DFFF0720FFF7E2FFFFF7E8FF10BD00BF084A137843F0040313701032137843F00403137002F66532137843F001031370704700BFA3430040014B1870704700BFB6
:402800001B4F0040014B1880704700BF1C4F0040014B1880704700BF1E4F004008B5154A137803F0010313700232137803F0FC031370114B1A7802F0CF021A701A7842F08E
:4028400030021A701A7802F0F0021A701A7842F00F021A70094A137843F0010313700920FFF7D0FF0920FFF7D3FF0820FFF7C4FF08BD00BF184F0040234F0040194F004060
:4028800008B5054B1B7823B9FFF7C8FF0122024B1A70FFF79DFF08BD2384FF1F044A137803F07F03C001C0B218431070704700BF00510040024A137843F08003137070479F
:4028C0007C640040014B1870704700BF8D640040014B1878704700BF6D640040014B1880704700BF58680040014B188880B2704798680040014B1880704700BF1868004051
:40290000024B1B78024B188880B270470C6400409868004000F00300044B1A7802F0FC021A701A7810431870704700BF7C64004008B501E0FFF7D8FFFFF7CAFF10F0080F5F
:40294000F8D108BD08B54FF6FF70FFF7C7FF4FF6FF70FFF7CFFF00F093FF084A137843F01003137000F090FF0020FFF7D3FFFFF7DFFF0220FFF7A6FF08BD00BF9D6400403F
:4029800008B5054B1B7823B9FFF7DCFF0122024B1A70FFF78FFF08BD2484FF1F014B1B689864704708ED00E04001C0B2014B1870704700BF02E400E00422014B1A60704704
:4029C00000E100E00422014B1A60704780E100E010B50446FFF7F6FF2046FFF7DFFF0620FFF7E2FFFFF7E8FF10BD00BF014B1878C009704711510040024B1878C0F30010FA
:402A0000704700BF11510040024A137843F08003137070477B650040014B1880704700BF0C680040014B1880704700BF8C680040014B1880704700BF4C680040014B1870D9
:402A4000704700BF87650040014B1878704700BF67650040014B188880B27047AC68004008B501E0FFF7F6FFFFF7EEFF10F0100FF8D108BD08B5164A137803F0C00343F083
:402A800009031370E53A137843F0010313700132137843F0010313704CF24F30FFF7BCFF4CF24F30FFF7BEFF46F2A710FFF7C0FF0120FFF7C3FF00F0E3FE064A137843F071
:402AC0001003137000F0E0FEFFF7CAFF08BD00BF7B6500409765004008B5054B1B7823B9FFF7C8FF0122024B1A70FFF78DFF08BD2584FF1F024A137843F0800313707047CB
:402B000077650040024A137803F07F031370704777650040014B1870704700BF84650040014B1878704700BF64650040014B1860704700BF04650040014B1868704700BFE4
:402B400044650040014B1860704700BF24650040014B1860704700BF3465004008B501E0FFF7EAFFFFF7DCFF10F0400FF8D108BD08B5144A137803F0F80343F001031370DD
:402B8000137803F0FC0343F008031370FFF7E6FF6FF00100FFF7D6FF0020FFF7C7FF0020FFF7B8FFFFF7BCFF8020FFF7D1FF00F067FE054A137843F01003137000F064FEC7
:402BC00008BD00BF776500409465004008B5054B1B7823B9FFF7CCFF0122024B1A70FFF789FF08BD2684FF1F014B1B68D864704708ED00E04001C0B2014B1870704700BF26
:402C000003E400E00822014B1A60704700E100E00822014B1A60704780E100E010B50446FFF7F6FF2046FFF7DFFF0720FFF7E2FFFFF7E8FF10BD00BF014B1870704700BF98
:402C400074650040044A137803F0EF03000100F0100018431070704730510040044A137803F0DF03400100F0200018431070704730510040044A137803F0F703C00000F061
:402C8000080018431070704730510040044A137803F0BF03800100F0400018431070704730510040044A137803F0FB03800000F0040018431070704730510040024B1878B9
:402CC000C0F38000704700BF11510040044A137803F0F703C00000F0080018431070704700510040044A137803F0FB03800000F0040018431070704700510040044A1378AE
:402D000003F0EF03000100F0100018431070704700510040084A137843F0020313701032137843F00203137002F65932137843F001031370704700BFA3430040014B188022
:402D4000704700BF104F0040014B1880704700BF124F0040014B1870704700BF0F4F004008B51A4A137843F0020313700232137803F08F0343F040031370154B1A7802F0D3
:402D8000CF021A701A7842F030021A701A7802F0F0021A701A7842F00F021A7040F2E730FFF7CCFF4FF47570FFF7CEFF0020FFF7D1FF084A137843F00203137002F66A32D2
:402DC000137843F00103137008BD00BF0C4F0040174F0040A343004008B5054B1B7823B9FFF7BEFF0122024B1A70FFF793FF08BD2784FF1F084A137843F00103137010328B
:402E0000137843F00103137002F64D32137843F001031370704700BFA3430040014B1880704700BF044F0040014B1880704700BF064F0040014B1870704700BF034F00403D
:402E400008B51A4A137843F0020313700232137803F08F0343F040031370154B1A7802F0CF021A701A7842F030021A701A7802F0F0021A701A7842F00F021A7040F28920B5
:402E8000FFF7CCFF40F20D20FFF7CEFF0020FFF7D1FF084A137843F00103137002F65E32137843F00103137008BD00BF004F00400B4F0040A343004008B5054B1B7823B996
:402EC000FFF7BEFF0122024B1A70FFF793FF08BD2884FF1F024A137843F080031370704778650040014B1880704700BF08680040014B1880704700BF88680040014B1880B2
:402F0000704700BF48680040014B1880704700BF68680040014B1870704700BF86640040014B1878704700BF66640040014B188880B27047A868004008B501E0FFF7F6FF43
:402F4000FFF7EEFF10F0100FF8D108BD08B5184A137803F0C00343F009031370E43A137843F0010313700132137843F00103137046F2A810FFF7B6FF46F2A810FFF7B8FF8C
:402F800043F2D400FFF7BAFF43F2D400FFF7BCFF0020FFF7BFFF00F073FC064A137843F01003137000F070FCFFF7C6FF08BD00BF786500409664004008B5054B1B7823B95A
:402FC000FFF7C4FF0122024B1A70FFF783FF08BD2984FF1F014B1870704700BF7E640040014B1B681865704708ED00E04001C0B2014B1870704700BF04E400E01022014B8F
:403000001A60704700E100E01022014B1A60704780E100E010B50446FFF7F6FF2046FFF7DFFF0720FFF7E2FFFFF7E8FF10BD00BF38B50222114B1A7081220E3B1A7008227C
:4030400002331A700F2511331D70002401331C704FF400420A4B1A6007212846FFF7FEF808492846FFF7E6F81022074B1A70074B1C70074B1C70074B1C7038BDD649004043
:4030800080E100E0E5300000D88AFF1FDE8AFF1FE08AFF1FDC8AFF1F08B500F0F1FB064A137843F0040313701032137843F00403137000F0E9FB08BDA543004008B5074B1D
:4030C0001B7823B9FFF7B4FF0122044B1A70FFF7E3FF4FF40042024B1A6008BD2A84FF1F00E100E038B5A54B1C78A54B1B7813F0400F00F03A81E4B214F0010F00F01D811D
:403100009F4B1B78453B052B00F21481DFE813F006008200120112010600DF0004F0DF0504F00A04082C42D1954B1B78DBB2452B35D1944B1B7813F0FF0F10D0924B1B6824
:403140001B78DBB2914A137004228C4B1A7001228F4B1A7046228A4B1A702C46EDE08D4B1B7813F0020F0DD08B4A137843F00A0313706022824B1A704FF40042874B1A6094
:403180002C46DAE0864A137843F0100313701022844B1A700422023B1A702C46CDE00022764B1A704A22764B1A702C46C5E00A2C2BD1794A137843F0A0031370754B1B78C1
:4031C00013F0020F14D06E4B1B7813F0080F01D0092300E00A23704A11780B4313706022674B1A704FF400426C4B1A602C46A4E06B4A137843F0100313701022694B1A7070
:403200000422023B1A702C4697E00020FEF7F0FF2C4692E014F0020F36D15D4B1A78D2B2584B1B78DBB29A4210D2594A1378DBB255490968CB5CDBB254490B7004214F4B20
:40324000197013780133DBB2137076E0514B1B7813F0020F0CD0504A137843F00A0313706022474B1A704FF400424C4B1A6064E04B4A137843F0100313701022494B1A70E8
:403280000422023B1A7058E0424B1B7813F0020F0CD0414A137843F09A0313706022384B1A704FF400423D4B1A6046E03C4A137843F01003137010223A4B1A700422023BB6
:4032C0001A70354A137843F09003137035E0364A1378DBB2354908682C490978C9B2C15413780133DBB213701278D2B2304B1B78DBB29A4203D21022204B1A701DE0254B13
:403300001B7813F0020F0CD0234A137843F00903137060221A4B1A704FF400421F4B1A600BE01F4A137843F0100313700022134B1A7002E00020FEF75BFF14F0200F1CD054
:403340000F4B1B7813F0080F01D0012300E00223114A11780B431370114A137803F0EF0313701022064B1A7038BD054B1B7813F0100F02D11022024B1A7038BDD749004011
:40338000D88AFF1FDF8AFF1FE48AFF1FD8490040DC8AFF1FDD8AFF1FDE8AFF1F80E100E0D6490040D9490040E08AFF1FE88AFF1FEC8AFF1F1A4B1B78DBB2102B29D1194BBE
:4033C0001B7813F0080F26D14FF40042164B1A604000C0B229B140F001004922104B1A7002E045220E4B1A70104B1870012201331A700F4B1B7813F0010FFAD00C4B1B7818
:4034000003F00A030A2B08D11022054B1A700320704702207047012070470020704700BFD88AFF1FD949004080E100E0D8490040D74900400A4B1B7813F0040F0ED010235E
:40344000074A13700421023A1170064A1370064B1B7813F0210FFAD00020704702207047D9490040D88AFF1FD7490040114B1B7813F0040F1BD0104B18700422013B1A7031
:4034800046220E4B1A700E4B1B7813F0010FFAD00B4B1B7813F0020F04D16022074B1A70002070476022054B1A70032070470220704700BFD9490040D8490040D88AFF1FE0
:4034C000D749004008B50A280FD00C2802D0082806D102E04FF4805209E04FF4807206E00020FEF785FE002201E04FF480620021094B198042F2107303FB02F303F6C4134E
:40350000064A82FB0302DB17C3EBE223044A1360044B198008BD00BFF08AFF1FAD8BDB68F48AFF1FF28AFF1F10B500F0A9F904461E4A137843F0010313701032137843F050
:40354000010313701A3A137843F0010313701032137843F00103137002F5AA521232137843F0030313701822114B1A70013B1A7842F040021A701A7802F0FC021A70CE223E
:40358000053B1A700222A3F597530C3B1A70094A137843F0080313700A20FEF741FE0122054B1A60204600F06FF910BDAB43004006590040275B004080E200E010B5044675
:4035C0000A280DD00C2802D0082804D101E0C22207E0422205E00020FEF70AFEC22200E08222034B1A702046FFF76CFF10BD00BF0259004008B5102000F054F80721002000
:40360000FEF72CFE07490020FEF714FE064A137843F0060313700820FFF7D0FF0022034B1A8008BDA136000001590040F88AFF1F08B5054B1B7823B9FFF7DCFF0122024BD0
:403640001A70FFF771FF08BD2B84FF1F044B1A7802F0FB021A701A7842F001021A7070470059004010B5074B1B7813F0010401D10028F8D024B10120FEF7D2FD014B1B78C0
:40368000204610BD01590040034B1B78034A108800B2181A40B27047A05B0040F28AFF1F704700BF034B1A7800F0F80010431870704700BF02410040024A137843F0800376
:4036C0001370704772640040014B1880704700BF1C680040014B1880704700BF9C680040014B1880704700BF5C680040014B1870704700BF8E640040014B1878704700BF92
:403700006E640040014B188880B27047BC68004008B501E0FFF7F6FFFFF7EEFF10F0100FF8D108BD10B5154A137803F0C00343F009031370124C237843F0010323702D32DC
:40374000137843F00103137046F2A810FFF7BCFF46F2A810FFF7BEFF43F2D400FFF7C0FF0020FFF7C3FF00F08BF8237843F01003237000F089F8FFF7CBFF10BD726400402F
:403780009E64004008B5054B1B7823B9FFF7CAFF0122024B1A70FFF78FFF08BD2C84FF1F044A137803F0DF03400100F0200018431070704720510040044A137803F0EF037B
:4037C000000100F0100018431070704720510040014B1B689865704708ED00E04001C0B2014B1870704700BF06E400E04022014B1A60704700E100E04022014B1A607047E7
:4038000080E100E010B50446FFF7F6FF2046FFF7DFFF0720FFF7E2FFFFF7E8FF10BD00BF014B1B685865704708ED00E04001C0B2014B1870704700BF05E400E02022014B40
:403840001A60704700E100E02022014B1A60704780E100E010B50446FFF7F6FF2046FFF7DFFF0720FFF7E2FFFFF7E8FF10BD00BF0230800803D000BF01380046FCD170476C
:40388000EFF3108072B6704780F31088704700BFCBB20370C1F307234370C1F307418170704700BF2DE9F04F8DB006460F4614461D4600F091F9DFF81093CDE9000199F925
:4038C0000080B8F1FF3F46D022462B462046294601F016FD834600283DD132463B463046394601F00DFD8246002874D1304639460022002301F0D2FC002833D00022002313
:403900002046294601F0CAFC8346B8B1A94A012300200021CDF828A0CDE90467CDE90645CDE9080103920293B8F1000F6CD0A24B0022104619460DB0BDE8F08F204629466B
:4039400000F074FF38B1002200232046294601F0AFFC00286AD1DDE90023104619460DB0BDE8F08FDDE9000100F060FF804600287DD0DDE900014FF0000A4FF0000B524620
:403980005B4601F08BFC0028E5D03046394600F04DFF0028DFD02046294600F047FF0028D9D099F90030834804210022022BCDE90467CDE90645CDE908AB039002910A92DF
:4039C00004D002A800F038FF002847D102F01EF82223036042E0002200232046294601F05DFC0028B7D0744B724800220121B8F1020FCDF828B0CDE90467CDE90645CDE911
:403A0000082303900291A8D002A800F015FF00287ED00A9B43B301F0F9FFDDE908230A990160104619460DB0BDE8F08F614999F900300122CDF828B0CDE90467CDE906453C
:403A400003910292002B68D05C490020022BCDE9080166D101F0DAFF212303600A9B1BB101F0D4FF0A9B0360DDE9082375E73046394600F0DBFE00283FF47BAF20462946C0
:403A800000F0D4FE00283FF474AFDDE900231046194601F035FC00286FD1464B99F90080039303230A90CDE90467CDE906450293B8F1000F3BD1DFF814B14FF0604A002283
:403AC000002330463946CDE908AB01F0F1FB00283FF477AF00223A4B2046294601F076F904460D4600F0B0FE02460B462046294601F0D4FB00283DD1324B4FF06042CDE958
:403B0000082399F90080B8F1020F7FF45AAF5DE701F07CFF212303607BE700230024CDE9083402A800F088FE002897D192E7DFF8A0B04FF0000A0022002330463946CDE997
:403B400008AB01F0B5FB0028DDD000221C4B2046294601F03BF904460D4600F075FE02460B462046294601F099FB18B9134B0022CDE9082399F90080C5E70E4A99F900903C
:403B80000123CDF82880CDE90467CDE9064503920293B9F1000FC0D0002200231046194601F03EFAB9F1020FCDE908013FF452AFB7E700BFE87E00000000F03F0000F0FF2D
:403BC0000000E03FFFFFEFC75081FF1FFFFFEF470000F07F000000002DE9F04F23F0004858EA020993B03CD0714C21F00046A64283460D460CDD06F1404606F5801656EAC5
:403C00000B0038D183466B49584613B0BDE8F08F9A4696462BD0A045EDDC654CA04578D0002D0F468146CDE9002376DB0024BEF1000F27D15E4B984500F08B805D4B9845D8
:403C400052D0BAF1804F00F0C9835B4B9A4519D1002D17DB4846394613B0BDE8F04F00F01DBDCB465846534913B0BDE8F08F0028C1D1B045D1DD514813B0BDE8F04F00F0A1
:403C8000DDBD00244846394600F0CCFDBBF1000F1CD0ED0F013D54EA050370D0484B984540F3948003F10473984540F30D84454B9E4270DDBAF1000F70DD3BA3D3E90023D5
:403CC0001046194601F082F883469DE726B1394B25F040429A42DCD1BAF1000FC0F2B783002D08DB83468FE7BAF1000FC0F25E84CB46394688E706F1404606F5801656EA4C
:403D0000040300F08384012CECD101F1004183467AE7BEF1000F83D06DE72B4B98452CDCA3F15473984581DD4FEA2853A3F2FF33142B40F35384C3F134032EFA03F202FA20
:403D400003F39E457FF472AF02F00102C2F102046DE706F1404303F5801353EA0B0300F03A83184B9E4240F36783BAF1000F15DBDDE900349B46214646E7022457E74A466A
:403D800048463B46394600F06DFE02460B4601F047F9834638E7BAF1000F8EDB4FF0000B594631E7AFF300809C7500883CE4377E0000F07F0000F03F0000E03FD47C0000A7
:403DC0000000E041FFFFEF3FFFFF3F43B6F5801F4FF0000205DAD04B00F0F8FF0E466FF03402DFF844E33315C6F31306A3F2FF3346F07F57764503EB020A47F4401740F33C
:403E0000C983C64B00229E4240F304840023CDE90823CDE90C23C24B0022CDE906230AF1010AA7F5801700263946DDE90623CDE90A0100F017FEDDE9062380468946DDE994
:403E40000A0100F011FE02460B460020B44901F0E7F80A4601461346CDE90E1202464946404600F0B3FF8C4683467B1043F0005303F5002399190020CDE904BC06460F463D
:403E80004FF0000B6146584632463B46CDE910BCCDE9020100F09AFF02460B464046494600F0E0FDDDE90623804689463046394600F0D8FD02460B46DDE90A0100F0D2FDD4
:403EC000DDE9022300F082FF02460B464046494600F0C8FDDDE90E2300F078FFDDE90478CDE906013A4643463846414600F06EFF77A3D3E9002306460F4600F067FF76A332
:403F0000D3E9002300F0B0FD32463B4600F05EFF73A3D3E9002300F0A7FD32463B4600F055FF71A3D3E9002300F09EFD32463B4600F04CFF6EA3D3E9002300F095FD32465D
:403F40003B4600F043FF6CA3D3E9002300F08CFD3246804689463B463046394600F036FF02460B464046494600F030FFDDE9022306460F46DDE9040100F076FDDDE9062309
:403F800000F024FF32463B4600F06EFDDDE902678046894632463B463046394600F016FF0022604BCDE90A0100F05EFD42464B4600F05AFDDDE910BC0F46DDE902015A465A
:403FC0003B46CDE90EBC5E4600F000FF0022CDE90201544B3046394600F044FDDDE90A2300F040FD02460B464046494600F03AFDDDE9042300F0EAFE324680468946DDE900
:4040000006013B4600F0E2FE02460B464046494600F02AFD8046894602460B46DDE9020100F022FDDDE90EBC35A3D3E900235846CDE906BC5E460F4600F0C8FEDDE9022366
:40404000CDE904013046394600F00CFD02460B464046494600F006FD2BA3D3E9002300F0B5FE2BA3D3E90023804689463046394600F0ACFE02460B464046494600F0F4FC47
:40408000DDE90C2300F0F0FC80465046894600F037FE06460F46DDE9040142464B4600F0E3FCDDE9082300F0DFFC32463B4600F0DBFCDDE906BC324658463B46DA468B46FF
:4040C00000F0D0FCDDE9082330E000BFAFF30080EF4E454A287ECA3F65DBC9934A86CD3F01411DA96074D13F4D268F515555D53FFFAB6FDBB66DDB3F033333333333E33FDD
:40410000000000E009C7EE3FFD033ADC09C7EE3FF5015B14E02F3EBE0000404379B60B000000F03F000008408E98030000F09AFCDDE9042300F096FC02460B46404649461F
:4041400000F090FC80468946DDE90012013C54EA050314BFD64CD74C0023CDE904340B461446CDE9023400230293DDE9024508462B461146224600F075FC52465B4600F046
:4041800025FEDDE9002306460F464046494600F01DFE02460B463046394600F065FC06460F4622462B4650465946CDE9006700F00DFE0B460246804689463046394600F079
:4041C00053FCBD4B064699420D460C4640F30E8101F13F4303F5E003034340F0F081A0A3D3E90023DDE9000100F03EFC424682468B464B463046294600F034FC02460B4641
:404200005046594601F072F8002840F0D8812F463B154FF48012A3F2FE3342FA03F32344C3F30A52A54EA2F2FF321641C3F3130B0020C2F1140523EA06014BF4801B02462D
:404240000B46002C4BFA05FB40464946B8BFCBF1000B00F007FC02460B4680468946DDE9000100F001FC4FEA0B5A00247EA3D3E9002320460D4600F0A9FD424606460F461A
:404280004B462046294600F0EDFB02460B46DDE9000100F0E7FB76A3D3E9002300F096FD75A3D3E90023804689462046294600F08DFD02460B464046494600F0D5FB804604
:4042C000894602460B463046394600F0CDFB32463B4604460D4600F0C5FB02460B464046494600F0BFFB2246804689462B462046294600F06BFD62A3D3E9002306460F46EB
:4043000000F064FD60A3D3E9002300F0ABFB32463B4600F05BFD5EA3D3E9002300F0A4FB32463B4600F052FD5BA3D3E9002300F099FB32463B4600F049FD59A3D3E9002361
:4043400000F092FB32463B4600F040FD02460B462046294600F086FB06460F4602460B462046294600F032FD0022CDE900014FF080433046394600F075FB02460B46DDE9FE
:40438000000100F04DFE424606460F464B462046294600F01BFD42464B4600F065FB02460B463046394600F05DFB22462B4600F059FB02460B4600203D4900F053FB8A4483
:4043C000BAF5801FC0F237815146DDE9042300F0FDFC834618E4F346354915E44A4648463B46394600F0F2FC83460DE4344B21F000479F4240F30181324B0B4403430CD111
:4044000042464B4600F02EFB02460B46DDE9000100F058FF00283FF4FBAE23A3D3E90023DDE9040100F0D2FC1FA3D3E9002300F0CDFC8346FFF7E8BBBAF1000FBFF6AEACEC
:40444000DDE900349B4604F10041FFF7DDBB02460B460020164900F0E3FD41E4AFF30080FE822B654715973C00000000432EE63FEF39FAFE422EE63F396CA80C615C20BEF0
:40448000D0A4BE726937663EF16BD2C541BDBB3E2CDE25AF6A56113F93BDBE166CC1663F3E5555555555C53F59F3F8C21F6EA5010000F03F0000F0BFFFFF8F40FFFF0F006A
:4044C000FFCB904000346F3F6F4B9E427FF763AC6E4B9E423FF7EEAB00226C4B00F0C2FA5BA3D3E9002306460F4600F06FFC5AA3D3E90023804689463046394600F066FCA3
:40450000002282468B46624B3046394600F05EFC02460B4652A1D1E9000100F0A3FA32463B4600F053FC02460B460020594900F099FA3246CDE902013B463046394600F053
:4045400045FC02460B46DDE9020100F03FFC46A3D3E9002300F03AFC02460B465046594600F080FA02460B4606460F464046494600F07AFA42464B46002082468B4600F0D2
:4045800071FA02460B463046394600F06BFA80468946D9E500220023CDE90823CDE90C233A4B00220026CDE906233DE44A463B460020364900F034FD8346FFF725BB2CA343
:4045C000D3E90023DDE9040100F000FC28A3D3E9002300F0FBFB8346FFF716BBBEF1000F7FF44FABC3F1140348FA03F202FA03F3984524D07446FFF721BB264B9F423FF701
:4046000007AEDDE902349A469B462EE602460B46FFF7B9BB204B4FF48026CDE9062316A3D3E90023CDE9082315A3D3E90023CDE90C23FFF7F9BB5A4600F096F9C5E602F063
:404640000102C2F10204FFF7F9BA00BFAFF30080000000604715F73F44DF5DF80BAE543E555555555555D53FFE822B654715F73F9C7500883CE4377E0000004003B8E23F01
:4046800006D0CF43EBFD4C3EFEFFEF3F0000F03F0000D03F0000E03F0000F83F2DE9F0415F4E0C46B6460E407645054600F0988000290B46024674DD5FEA215E7FD0AEF279
:4046C000FF3EC3F313031EF0010F43F4801363D100273E4603EBD2710B444FEA6E0E520016204FF4001174189C424FEAD2754FEA420202DC1B1B66180F44013805EB43031E
:404700004FEA5101EFD1844620244FF0004109E020D003EBD275013C4FEA51012B444FEA420220D09E4201EB0C05F1DA002D05EB010C09DBB0469542A3EB060300D9013BBF
:404740004646521B0844E4E7BCF1000FF2DB06F10108F0E7954217D8002D05EB010C49DB98460023ECE7134310D140087B1003F17F5303F50013FA0703EB0E57394648BF2C
:4047800040F00040BDE8F0813346C2E7411C35D000F001031844E8E75B0003EBD273520096E721F000460643ECD079BB8E46D30AAEF1150E5205002BF9D0DD0221D4002130
:4047C00000E001465B00DC0201F10100F9D5C0F1200422FA04F42343C1EB0E0E82406EE702460B4600F0F2FA2A46234600F03CF9BDE8F081BCF1000FA9DAB1E7013720466C
:40480000B4E720244FF0FF310020E2E702460B4600F028F902460B4600F002FCB2E700BF0000F07F21F00041704700BF41F0004101F58010C00F70470020704700200149C2
:40484000704700BF0000F87FF0B5C1F30A5EAEF2FF36132E83B002460B460C464FEAD17507462EDC002E49DB3D49314103EA010010432BD049080B4053EA02070CD04FF4F9
:404880008023132E24EA010143FA06F444EA01040CBF4FF000470027324B214603EBC505D5E90045384622462B4600F0DDF8CDE90001DDE9000122462B4600F0D3F803B0A2
:4048C000F0BD332E06DDB6F5806F45D01046194603B0F0BDAEF2134E4FF0FF3121FA0EF10842F3D049080842D6D04FF0804320EA010143FA0EFE4EEA0107CDE721F000418E
:4049000001431946E4D0C3F3130343EA000CCCF1000343EA0C0C134B640C4FEA1C3C0CF4002C03EBC5036404D3E900674CEA040132463B4600F098F8CDE90001DDE9000118
:4049400032463B4600F08EF8024621F0004141EAC57310461946BBE700F086F8B8E700BFFFFF0F00F07E0000F8B5C1F30A5604460D460B46174606BB21F00043034325D0D1
:4049800000222F4B00F022FA2E4A044697420D460B462ADBC1F30A56363E40F2FE723E44964228DC002E12DD23F0FF4323F4E00343EA065520462946F8BD40F2FF7296428A
:4049C000EBD102460B4600F04FF8F8BDF8BD16F1350F1DDA4CF250339F420CDC14A1D1E9000122462B4600F031F811A3D3E9002300F0ECF9F8BD22460FA1D1E900012B4632
:404A000000F024F80CA3D3E9002300F0DFF9F8BD23F0FF4323F4E003363643EA0655204629460022084B00F0D1F9F8BDAFF3008059F3F8C21F6EA5019C7500883CE4377E9A
:404A400000005043B03CFFFF0000903C03F0004321F0004242EA0301704700BF81F0004102E000BF83F0004330B54FEA41044FEA430594EA050F08BF90EA020F1FBF54EAD1
:404A8000000C55EA020C7FEA645C7FEA655C00F0E2804FEA5454D4EB5555B8BF6D420CDD2C4480EA020281EA030382EA000083EA010180EA020281EA0303362D88BF30BDFF
:404AC00011F0004F4FEA01314FF4801C4CEA113102D0404261EB410113F0004F4FEA03334CEA133302D0524263EB430394EA050F00F0A780A4F10104D5F1200E0DDB02FA70
:404B00000EFC22FA05F2801841F1000103FA0EF2801843FA05F359410EE0A5F120050EF1200E012A03FA0EFC28BF4CF0020C43FA05F3C01851EBE37101F0004507D54FF002
:404B4000000EDCF1000C7EEB00006EEB0101B1F5801F1BD3B1F5001F0CD349085FEA30004FEA3C0C04F101044FEA445212F5800F80F09A80BCF1004F08BF5FEA500C50F1D6
:404B8000000041EB045141EA050130BD5FEA4C0C404141EB010111F4801FA4F10104E9D191F0000F04BF01460020B1FA81F308BF2033A3F10B03B3F120020CDA0C3208DDAA
:404BC00002F1140CC2F10C0201FA0CF021FA02F10CE002F11402D8BFC2F1200C01FA02F120FA0CFCDCBF41EA0C019040E41AA2BF01EB0451294330BD6FEA04041F3C1CDA13
:404C00000C340EDC04F11404C4F1200220FA04F001FA02F340EA030021FA04F345EA030130BDC4F10C04C4F1200220FA02F001FA04F340EA0300294630BD21FA04F0294668
:404C400030BD94F0000F83F4801306BF81F480110134013D4EE77FEA645C18BF7FEA655C29D094EA050F08BF90EA020F05D054EA000C04BF1946104630BD91EA030F1EBF42
:404C80000021002030BD5FEA545C05D14000494128BF41F0004130BD14F580043CBF01F5801130BD01F0004545F0FE4141F470014FF0000030BD7FEA645C1ABF19461046B8
:404CC0007FEA655C1CBF0B46024650EA013406BF52EA033591EA030F41F4002130BD00BF90F0000F04BF0021704730B54FF4806404F132044FF000054FF0000150E700BF04
:404D000090F0000F04BF0021704730B54FF4806404F1320410F0004548BF40424FF000013EE700BF42004FEAE2014FEA31014FEA02701FBF12F07F4393F07F4F81F0605197
:404D4000704792F0000F14BF93F07F4F704730B54FF4607401F0004521F0004120E700BF50EA010208BF704730B54FF000050AE050EA010208BF704730B511F0004502D53B
:404D8000404261EB41014FF4806404F132045FEA915C3FF4DCAE4FF003025FEADC0C18BF03325FEADC0C18BF033202EBDC02C2F1200300FA03FC20FA02F001FA03FE40EA14
:404DC0000E0021FA02F11444C1E600BF70B54FF0FF0C4CF4E06C1CEA11541DBF1CEA135594EA0C0F95EA0C0F00F0DEF82C4481EA030621EA4C5123EA4C5350EA013518BFB1
:404E000052EA033541F4801143F4801338D0A0FB02CE4FF00005E1FB02E506F00042E0FB03E54FF00006E1FB03569CF0000F18BF4EF0010EA4F1FF04B6F5007F64F54074F1
:404E400004D25FEA4E0E6D4146EB060642EAC62141EA55514FEAC52040EA5E504FEACE2EB4F1FD0C88BFBCF5E06F1ED8BEF1004F08BF5FEA500E50F1000041EB045170BD77
:404E800006F0004646EA010140EA020081EA0301B4EB5C04C2BFD4EB0C0541EA045170BD41F480114FF0000E013C00F3AB8014F1360FDEBF002001F0004170BDC4F100045F
:404EC000203C35DA0C341BDC04F11404C4F1200500FA05F320FA04F001FA05F240EA020001F0004221F0004110EBD37021FA04F642EB06015EEA430E08BF20EAD37070BD25
:404F0000C4F10C04C4F1200500FA04F320FA05F001FA04F240EA020001F0004110EBD37041F100015EEA430E08BF20EAD37070BDC4F1200500FA05F24EEA020E20FA04F314
:404F400001FA05F243EA020321FA04F001F0004121FA04F220EA020000EBD3705EEA430E08BF20EAD37070BD94F0000F0FD101F00046400041EB010111F4801F08BF013CE7
:404F8000F7D041EA060195F0000F18BF704703F00046520043EB030313F4801F08BF013DF7D043EA0603704794EA0C0F0CEA135518BF95EA0C0F0CD050EA410618BF52EAE0
:404FC0004306D1D181EA030101F000414FF0000070BD50EA410606BF1046194652EA430619D094EA0C0F02D150EA013613D195EA0C0F05D152EA03361CBF104619460AD13F
:4050000081EA030101F0004141F0FE4141F470014FF0000070BD41F0FE4141F4780170BD70B54FF0FF0C4CF4E06C1CEA11541DBF1CEA135594EA0C0F95EA0C0F00F0A7F890
:40504000A4EB050481EA030E52EA03354FEA013100F088804FEA03334FF0805545EA131343EA12634FEA022245EA111545EA10654FEA00260EF000419D4208BF964244F124
:40508000FD0404F5407402D25B084FEA3202B61A65EB03055B084FEA32024FF480104FF4002CB6EB020E75EB030E22BFB61A754640EA0C005B084FEA3202B6EB020E75EBBF
:4050C000030E22BFB61A754640EA5C005B084FEA3202B6EB020E75EB030E22BFB61A754640EA9C005B084FEA3202B6EB020E75EB030E22BFB61A754640EADC0055EA060ED2
:4051000018D04FEA051545EA16754FEA06164FEAC30343EA52734FEAC2025FEA1C1CC0D111F4801F0BD141EA00014FF000004FF0004CB6E711F4801F04BF01430020B4F1A2
:40514000FD0C88BFBCF5E06F3FF6AFAEB5EB030C04BFB6EB020C5FEA500C50F1000041EB045170BD0EF0004E4EEA113114EB5C04C2BFD4EB0C0541EA045170BD41F48011AF
:405180004FF0000E013C90E645EA060E8DE60CEA135594EA0C0F08BF95EA0C0F3FF43BAF94EA0C0F0AD150EA01347FF434AF95EA0C0F7FF425AF104619462CE795EA0C0F48
:4051C00006D152EA03353FF4FDAE1046194622E750EA410618BF52EA43067FF4C5AE50EA41047FF40DAF52EA43057FF4EBAE12E74FF0FF3C06E000BF4FF0010C02E000BFC2
:405200004FF0010C4DF804CD4FEA410C7FEA6C5C4FEA430C18BF7FEA6C5C1BD001B050EA410C0CBF52EA430C91EA030F02BF90EA020F0020704710F1000F91EA030F58BFE8
:40524000994208BF90422CBFD8176FEAE37040F0010070474FEA410C7FEA6C5C02D150EA013C07D14FEA430C7FEA6C5CD6D152EA033CD3D05DF8040B704700BF84461046FB
:4052800062468C461946634600E000BF01B5FFF7B7FF002848BF10F1000F01BD4DF808EDFFF7F4FF0CBF012000205DF808FB00BF4DF808EDFFF7EAFF34BF012000205DF886
:4052C00008FB00BF4DF808EDFFF7E0FF94BF012000205DF808FB00BF4DF808EDFFF7CEFF94BF012000205DF808FB00BF4DF808EDFFF7C4FF34BF012000205DF808FB00BF4C
:405300004FEA410C7FEA6C5C02D150EA013C0AD14FEA430C7FEA6C5C02D152EA033C02D14FF0000070474FF0010070474FEA410212F5001215D211D56FF47873B3EB6252C8
:4053400012D94FEAC12343F0004343EA505311F0004F23FA02F018BF404270474FF00000704750EA013005D111F0004008BF6FF0004070474FF00000704700BF4FEA4102AA
:40538000B2F1E04324BFB3F5001CDCF1FE5C0DD901F0004C4FEAC0024CEA5070B2F1004F40EB830008BF20F00100704711F0804F21D113F13872BCBF01F00040704741F40E
:4053C00080114FEA5252C2F11802C2F1200C10FA0CF320FA02F018BF40F001004FEAC1234FEAD32303FA0CFC40EA0C0023FA02F34FEA4303CCE77FEA625307D150EA013347
:405400001EBF4FF0FE4040F44000704701F0004040F0FE4040F40000704700BF80F0004002E000BF81F0004142001FBF5FEA410392EA030F7FEA226C7FEA236C6AD04FEAFE
:405440001262D2EB1363C1BFD218414048404140B8BF5B42192B88BF704710F0004F40F4000020F07F4018BF404211F0004F41F4000121F07F4118BF494292EA030F3FD03A
:40548000A2F1010241FA03FC10EB0C00C3F1200301FA03F100F0004302D5494260EB4000B0F5000F13D3B0F1807F06D340084FEA310102F10102FE2A51D2B1F1004F40EB0C
:4054C000C25008BF20F0010040EA03007047490040EB000010F4000FA2F10102EDD1B0FA80FCACF1080CB2EB0C0200FA0CF0AABF00EBC25052421843BCBFD0401843704799
:4055000092F0000F81F4000106BF80F400000132013BB5E74FEA41037FEA226C18BF7FEA236C21D092EA030F04D092F0000F08BF0846704790EA010F1CBF0020704712F0EF
:405540007F4F04D1400028BF40F00040704712F100723CBF00F50000704700F0004343F0FE4040F4000070477FEA226216BF08467FEA23630146420206BF5FEA412390EA19
:40558000010F40F4800070474FF0000304E000BF10F0004348BF40425FEA000C08BF704743F0964301464FF000001CE050EA010208BF70474FF000030AE000BF50EA01027B
:4055C00008BF704711F0004302D5404261EB41015FEA010C02BF84460146002043F0B64308BFA3F18053A3F50003BCFA8CF2083AA3EBC25310DB01FA02FC634400FA02FC29
:40560000C2F12002BCF1004F20FA02F243EB020008BF20F00100704702F1200201FA02FCC2F1200250EA4C0021FA02F243EB020008BF20EADC7070474FF0FF0C1CEAD052DE
:405640001EBF1CEAD15392EA0C0F93EA0C0F6FD01A4480EA010C400218BF5FEA41211ED04FF0006343EA501043EA5111A0FB01310CF00040B1F5000F3EBF490041EAD371FD
:405680005B0040EA010062F17F02FD2A1DD8B3F1004F40EBC25008BF20F00100704790F0000F0CF0004C08BF49024CEA502040EA51207F3AC2BFD2F1FF0340EAC250704799
:4056C00040F400004FF00003013A5DDC12F1190FDCBF00F000407047C2F10002410021FA02F1C2F1200200FA02FC5FEA310040F1000053EA4C0308BF20EADC70704792F0B5
:40570000000F00F0004C02BF400010F4000F013AF9D040EA0C0093F0000F01F0004C02BF490011F4000F013BF9D041EA0C018FE70CEAD15392EA0C0F18BF93EA0C0F0AD036
:4057400030F0004C18BF31F0004CD8D180EA010000F00040704790F0000F17BF90F0004F084691F0000F91F0004F14D092EA0C0F01D142020FD193EA0C0F03D14B0218BF9B
:40578000084608D180EA010000F0004040F0FE4040F40000704740F0FE4040F4400070474FF0FF0C1CEAD0521EBF1CEAD15392EA0C0F93EA0C0F69D0A2EB030280EA010C4B
:4057C00049024FEA402037D04FF0805343EA111143EA10130CF000408B4238BF5B0042F17D024FF4000C8B4224BF5B1A40EA0C00B3EB510F24BFA3EB510340EA5C00B3EB6F
:40580000910F24BFA3EB910340EA9C00B3EBD10F24BFA3EBD10340EADC001B0118BF5FEA1C1CE0D1FD2A3FF650AF8B4240EBC25008BF20F0010070470CF0004C4CEA50202D
:405840007F32C2BFD2F1FF0340EAC250704740F400004FF00003013A37E792F0000F00F0004C02BF400010F4000F013AF9D040EA0C0093F0000F01F0004C02BF490011F476
:40588000000F013BF9D041EA0C0195E70CEAD15392EA0C0F08D142027FF47DAF93EA0C0F7FF470AF084676E793EA0C0F04D14B023FF44CAF08466EE730F0004C18BF31F0EF
:4058C000004CCAD130F000427FF45CAF31F000437FF43CAF5FE700BF4FF0FF3C06E000BF4FF0010C02E000BF4FF0010C4DF804CD4FEA40024FEA41037FEA226C18BF7FEA7D
:40590000236C11D001B052EA530C18BF90EA010F58BFB2EB030088BFC81738BF6FEAE17018BF40F0010070477FEA226C02D15FEA402C05D17FEA236CE4D15FEA412CE1D0A4
:405940005DF8040B704700BF844608466146FFE70FB5FFF7C9FF002848BF10F1000F0FBD4DF808EDFFF7F4FF0CBF012000205DF808FB00BF4DF808EDFFF7EAFF34BF0120A8
:4059800000205DF808FB00BF4DF808EDFFF7E0FF94BF012000205DF808FB00BF4DF808EDFFF7D2FF94BF012000205DF808FB00BF4DF808EDFFF7C8FF34BF012000205DF8CA
:4059C00008FB00BF42000ED2B2F1FE4F0BD34FF09E03B3EB126209D44FEA002343F0004323FA02F070474FF00000704712F1610F01D1420202D14FF0FF3070474FF00000D8
:405A0000704700BF0A22002100F0D2BD014B1868704700BFB481FF1F0E4B70B51E460E4C0025E41AA410A54204D056F8253098470135F8E702F096FB084B094C1E46E41A9D
:405A4000A4100025A54204D056F8253098470135F8E770BD7081000070810000708100007881000010B5431E0A44914204D011F8014B03F8014FF8E710BD03460244934237
:405A800002D003F8011BFAE770472DE9F04788B0149F002B1E461299B8BF03F1004327F02007B6BF1E4600232D23462F1446109DDDF84CA00B7003D0452F03D1013501E0D1
:405AC000032300E0022307AA049206AA03928DE828042246334600F003FE472F804602D1119BDB0728D5462F08EB050911D198F80030302B0AD10022002320463146FFF77C
:405B0000CDFB18B9C5F10105CAF80050DAF8003099440022002320463146FFF7BFFB08B9302202E0CDF81C9006E0079B994503D9591C07911A70F8E74046079B159AC8EBA5
:405B40000303136008B0BDE8F087034673B50029B8BF494203F8022BB4BF2D222B22092942701ADD0DF1070216460A2591FBF5F405FB1411092C01F1300102F8011D214627
:405B8000F4DC3031541E02F8011CB4421A460AD214F8012B03F8012BF7E71A463024214402F8024B5970101A02B070BD2DE9F04F91B00C46DDF8688016461F46054601F0E8
:405BC00027FB03681846099300F006FC00230E93D8F800300A90073323F0070303F1080294F81890D4F800B0C8F80020D3E90023C4E91223D4F84CA0D4F848802AF000437F
:405C00000B934FF0FF32A74B40460B99FFF778FBA0B94FF0FF32A34B40460B99FFF752FB60B90022002340465146FFF741FB10B12D2384F843309C4B9C4A0AE04246534628
:405C400040465146FFF75CFB002800F09281984B984AB9F1470F8CBF90469846032323612BF0040323604FF0000A3DE0B9F1670F00F08A81B9F1470F00F0868123600193ED
:405C8000636800210DF13302059002920093424653460691CDF81090CDF80CE02846FFF7F4FE09F0DF03472B804600F08481B9F1650F0D9900F28D8101394A4604F150000A
:405CC0000D91FFF742FF0E9A82468318012A236100F37C812268D10700F178819DF8333013B12D2384F84330009733460FAA2146284600F09FF9013002D14FF0FF3096E1CF
:405D000023685A0501D4236965E0B9F1650F40F2D580D4E9120100220023FFF7BFFA78B30123654A31462846B8470130E5D00E9B0D9A9A420BDB2368D80708D423689B071D
:405D400040F111814FF0000804F1190906E10A9B099A31462846B8470130CED04FF0000804F11A090E9B013B9845E7DA01234A4631462846B8470130BFD008F10108F1E70C
:405D80000D9B002B29DC01234B4A31462846B8470130B2D00D9B23B90E9B13B92368D907CCD50A9B099A31462846B8470130A4D04FF0000904F11A0A0D9B5B42994509DA7E
:405DC0000123524631462846B847013095D009F10109F1E70E9B4246A7E00E9AA36D9A42A8BF1A46002A914606DC4FF0000A29EAE97904F11A0B11E013463146424628460C
:405E0000B8470130F1D178E701235A4631462846B84701303FF471AF0AF1010AA36DC9EB03029245F0DB08EB03090D9A0E9B9A420FDB2368DA070CD40E9B0D9A9844C9EB33
:405E400008089B1A9845A8BF9846B8F1000F08DC0FE00A9B099A31462846B8470130EBD14BE743464A4631462846B84701303FF444AF4FF0000928EAE87804F11A0A09E055
:405E80000123524631462846B84701303FF435AF09F101090D9A0E9B9B1AC8EB03039945EEDB4BE7FFFFEF7F027F0000067F00000A7F00000E7F0000127F00000E9A012A73
:405EC00001DCDB0738D50123424631462846B84701303FF412AF0A9B099A31462846B84701303FF40AAFD4E9120100220023FFF7D5F920B14FF0000804F11A090EE00E9B38
:405F000008F10102013B19E001234A4631462846B84701303FF4F1AE08F101080E9B013B9845F1DB534604F1500231462846B84701307FF403AFE0E6424601233146284694
:405F4000B8470130EED1D8E601234A4631462846B84701303FF4D1AE08F10108E3680F9A9B1A9845F0DBE0680F9B9842B8BF18465DE062680EA8531C0DF1340E4BF4806377
:405F80007FF474AE062201E012B90122626075E6002106910DF133018DE80C00236005904246CDF81090CDF80CE0029153462846FFF76BFD80460D9BD81C02DB6268934241
:405FC0001DDDA9F102095FFA89F970E60133236184E6B9F1660F14D10029636807DD216113B92268D2071DD501330B4419E013B92268D00701D5023313E0012311E04FF035
:4060000067090D9B0E9A934205DB22682361D10708D5013305E0002BD4BFC3F102030123134423610D9B4FF0000AA36556E611B0BDE8F08F2DE9F04791461F460A698B6890
:4060400006469342B8BF1346C9F8003091F843200C46DDF8208012B10133C9F800302368990642BFD9F800300233C9F80030256815F0060510D104F1190A07E00123524618
:4060800039463046C04701301AD00135E368D9F800209B1A9D42F1DB94F843302268003318BF012392060FD5E118302081F843005A1C94F845102244023382F8431003E01D
:4060C0004FF0FF30BDE8F08704F1430239463046C0470130F4D02268D9F80050E36802F00602042A08BF5D1B2269A3680CBF25EAE57500259342C4BF9B1AED184FF0000945
:406100001A344D4509D00123224639463046C0470130D5D009F10109F3E70020BDE8F0872DE9F04317460A7E85B06E2A984606460C460C9B01F1430E00F0AE8011D8632A39
:4061400022D009D8002A00F0BB80582A40F0CA8081F84520834955E0642A1ED0692A1CD0C0E0732A00F0B08009D86F2A2ED0702A40F0B8800A6842F020020A603EE0752A5D
:4061800024D0782A3AD0ADE01A6801F14205111D1960136884F84230A8E021681A6811F0800F02D0111D196008E011F0400F02F10401196002D0B2F9003000E01368002B6F
:4061C0003CDA2D225B4284F8432037E021681A6811F0800F02D0111D196007E011F0400F02F10401196001D0138800E01368227E5C496F2A14BF0A2208221BE078225A49E5
:4062000084F845202268186812F0800F00F104051D6003D1550601D5038800E00368D00744BF42F0200222601BB9226822F0200222601022002084F8430001E049490A221C
:406240006568002DA56008DB206820F0040020602BB9002D7DD175460CE0002B79D07546B3FBF2F002FB1033CB5C05F8013D03460028F5D1082A0BD12368DA0708D523699F
:4062800062689A42DEBF302305F8013C05F1FF35C5EB0E0323612EE008681A6810F0800F496903D0101D1860136808E010F0400F02F104001860136801D0198000E0196087
:4062C00000232361754616E01A68111D1960156800216268284600F0A7FF08B1401B6060636804E004F1420584F8422001232361002384F84330CDF800803B4603AA214680
:406300003046FFF797FE013002D14FF0FF3026E023692A4639463046C0470130F5D023689B0710D5002504F1190907E001234A4639463046C0470130E7D00135E368039A0B
:406340009B1A9D42F2DBE068039B9842B8BF184605E00B7804F1420584F842308AE705B0BDE8F083147F0000257F00000EB400B54FF402719CB0ADF814106FF000410491A9
:4063800007914FF6FF711DAB02900690084853F8042BADF81610006802A9019301F03AFB029B00221A701CB05DF804EB03B07047B481FF1F10F8012B11F8013B012A28BF9D
:4063C0009A42F7D0D01A7047034611F8012B03F8012B002AF9D17047034613F8012B002AFBD1181A01387047174B2DE9F0411D680646AC6D0F46FCB9502000F00DFFA8655B
:406400008460AB6D046044601C61DC60AB6D9C615C61AB6DDC629C62AB6D5C631C63AB6DDC639C63AB6D5C641C64AB6DDC649C64AB6D1C77AB6D5C62AA6D39463046BDE8EB
:40644000F041012300F002B8B481FF1FF0B548B9106838B9F0BD17F8016B5EB1B542FAD12BB1204604460F4614F8015BF3E714600370F0BD4DB915602846F0BD17F8016BFA
:40648000B54207D0002EF9D11C4623460F4613F8015BF3E715B10021217000E02B461360F0BD00002DE9F0470F4680463F48D0F800903D4615F8014B09EB0400407800F009
:4064C000080000F0FF0608B12F46F2E72D2C03D1BD1C7C78012603E02B2C04BF7C78BD1C13B1102B0AD15BE0302C57D1287800F0DF0058284DD16C7810230235002E14BFB8
:406500004FF0004C6FF0004CBCFBF3FA0027384603FB1ACC09EB040E9EF801E01EF0040F01D0303C0BE01EF0030E1BD0BEF1010F0CBF4FF0370E4FF0570ECEEB0404A342D0
:4065400010DDB7F1FF3F0AD0504506D801D1644503DC03FB0040012701E04FF0FF3715F8014BD7E77B1C0CD1002E4FF0220314BF4FF000406FF00040C8F800302AB9BDE85F
:40658000F08706B1404272B107B1691E1160BDE8F0873024002BB1D10823AFE70A23ADE7302CA3D0AAE7BDE8F08700BFB881FF1F13460A46014602480068FFF773BF00BF9E
:4065C000B481FF1F2DE9F74F03690C6980469C427FDC013C01F114074FEA840E00F1140606EB0E0357F82450019356F824300135B3FBF5F507EB0E09C5B34FF0000A3846DB
:40660000B446D34650F8043B9AB205FB02A21B0C4FEA124A05FB03A392B2C2EB0B0BBCF800204FEA134A5A441FFA83FBDCF800308145CBEB134303EB224392B242EA0342EA
:406640004FEA234B4CF8042BDCD256F80E306BB9019B043B9E421A4602D3C8F8104005E01268043B002AF8D1013CF3E7404600F0F6FF00282BDB304601354FF0000E57F819
:40668000042B036891B2C1EB0E0E120C99B27144C2EB134303EB214389B24FEA234EB94541EA034340F8043BE9D256F8242006EB840362B9043B9E421A4602D3C8F81040B3
:4066C00005E01268043B002AF8D1013CF3E7284600E0002003B0BDE8F08F0000000000002DE9F04F456A95B08246219CCDE9022345B9102000F090FDCAF8240045608560E9
:406700000560C560DAF82430196859B15A68012393404A608B60504600F0C9FDDAF8243000221A60039BA04A002BBDBF01232360039B0023BCBF23F000430393DDF80C8063
:40674000A8BF236028F000431B0D1B0593421DD142F20F73209A1360029B43B9934A944BC8F31300002814BF1846104600E09048229B002B00F04685C37813B100F10803BE
:4067800000E0C31C229A136000F03CBDDDE902450022002320462946FEF780FD074658B1209A01231360229B002B00F01E8581481860013800F026BD12AB019313AB009358
:4067C00022462B46504600F0C5FFC8F30A56049056B1C5F3130343F07F51204641F44011A6F2FF3611971DE0139B129E1E4406F23243202B0ADD029A06F21240C3F1400355
:4068000022FA00F008FA03F3184304E0C3F12000029B03FA00F0FEF763FA0123A1F1F871013E11930022644BFEF71CF958A3D3E90023FEF7CBFA58A3D3E90023FEF714F918
:40684000044630460D46FEF75BFA55A3D3E90023FEF7BCFA02460B4620462946FEF704F904460D46FEF762FD00228346002320462946FEF71DFD58B15846FEF741FA0246D7
:406880000B4620462946FEF709FD08B90BF1FF3BBBF1160F0DD8DDE90223484901EBCB01D1E90001FEF722FD30B10BF1FF3B002300E00123109300E01090129B9E1B731EAF
:4068C000079343BFC3F10008002307934FF00008BBF1000F06DB079BCDF82CB05B440793002705E00023CBEB0808CBF100070B931E9B092B28D8052BC4BF043B1E931E9B85
:40690000C8BF0025A3F10203D8BF0125032B20D8DFE803F0060E0204012302E0012308E000230A931F9B002B1DDD9946059321E000230A931F9B0BEB030909F10103012B8C
:406940000593B8BF012315E0012500231E930A9501E001230A934FF0FF390022CDF8149012231F9206E04FF001094B46CDF81490CDF87C90DAF8244000226260042101F1A1
:4069800014029A421CD86268490001326260F6E761436F63A787D23FB3C8608B288AC63FFB799F501344D33F0000F07F3780000040800000137F00000000F83F50800000EF
:4069C0006168504600F03EFCDAF8243020601B680693059B0E2B00F25B81002D00F05881DDE90234BBF1000FCDE90E3430DD9F4A0BF00F034FEA2B1502EBC303E80618CB00
:406A0000CDE908340CD5DDE90E01994B05F00F05D3E90823FEF704FB0324CDE9020100E00224934E6DB1E90708D5DDE90801D6E90023FEF7CBF9CDE9080101346D1008361B
:406A4000F0E7DDE90823DDE90201FEF7E9FA20E0CBF1000505B3DDE90E01844B05F00F0203EBC203D3E90023FEF7B0F9CDE902017F4E2D110023022455B1EA0705D5D6E9BD
:406A80000023FEF7A3F9013401236D100836F3E71BB1CDE9020100E00224109BE3B1DDE902560022734B28463146FEF701FC98B1059B8BB1B9F1000F40F3E6800BF1FF33F0
:406AC0000893314600226C4B2846FEF77FF90134CDE902014E4602E0059ECDF820B02046FEF70EF9DDE90223FEF770F9634B0022FDF7BAFFA1F1507304460C931D46D6B9DC
:406B0000DDE9020100225E4BFDF7ACFF22460C9BCDE90201FEF7EAFB002840F03F820C99224601F10043DDE90201FEF7C1FB002840F02B82A8E00A9A4C4B711E002A49D011
:406B400003EBC103D3E9002300204E49FEF768FA22462B46FDF786FFCDE90C01069CDDE90201FEF7E3FB0546FEF7CAF802460B46DDE90201FDF776FFDDE90C23303504F800
:406B8000015BCDE90201FEF793FB002840F01D83DDE9022300203749FDF764FFDDE90C23FEF786FB002840F0D180069BE31AB3426ADADDE90C0100222F4BFEF707F90022F2
:406BC000CDE90C01DDE902012B4BFEF7FFF8CDE90201C4E703EBC1012246D1E900012B46FEF7F4F8069BCDE90C011D469C19DDE90201FEF79BFB0646FEF782F802460B46FA
:406C0000DDE90201FDF72EFF303605F8016BAC42CDE902014FF0000222D11A4BDDE90C01FDF722FF02460B46DDE90201FEF75EFB002840F08B80DDE90C2300201149FDF7FD
:406C400011FF02460B46DDE90201FEF731FBD8B114F8013C621E302B40F0B7821446F7E7054BFEF7B3F8CDE90201C0E750800000288100000000F03F0000244000001C407B
:406C8000000014400000E03FDDE90E34CDE90234139B002B7CDBBBF10E0F79DCAB4B03EBCB03D3E900671F9B002B14DA059B002B11DC40F06C810022A54B30463946FEF7A6
:406CC00085F8DDE90223FEF707FB059D2E46002840F05F8165E1069CDDE9028932463B4640464946FEF79CF9FEF720FB0546FEF707F832463B46FEF769F80B460246494650
:406D00004046FDF7AFFE05F1300E069B04F801EBC3EB040E059B73452DD102460B46FDF7A3FE8046894602460B4630463946FEF7BFFA78B942464B4630463946FEF7AEFA7E
:406D4000002800F04482EB0704D440E2DDF820B000E01C4614F8012C631E392A07D1069A9A42F6D1069930220BF1010B0A701A7801321A702BE20022764BFEF727F8002242
:406D8000002380468946FEF789FA0028A6D01EE20A9A002A2BD01E9A012A0ADC119A12B103F2334302E0129BC3F136033D46444613E0059B5D1EAF42BFBF0B9BEA1B9B1836
:406DC0000B93059BB6BF2F467D1B0025002BA7BF4446059BC3EB08040023079A01211A4450469844079200F001FB064602E03D4644460A9E5CB1079B002B08DDA342A8BF10
:406E00002346079AC3EB0808E41AD31A0793002F1DDD0A9BABB18DB131462A46504600F07FFB049A01460646504600F0E8FA04990890504600F03BFA089B04937A1B06D088
:406E400000E03A460499504600F06AFB04900121504600F0CBFA0B9B05465BB31A460146504600F05DFB1E9B0546012B18DC029B83B9039BC3F3130373B9039B23F000471A
:406E80003F0D3F054FB1079B08F1010801330793012702E0002700E0029F0B9B73B100E000272B6905EB8303186900F052FAC0F1200004E01E9B012BD9DD0B9F0120079BC9
:406EC000184410F01F0008D0C0F12003042B02DDC0F11C0002E006D018461C30079B8044034404440793B8F1000F05DD42460499504600F063FB0490079B002B05DD29464A
:406F00001A46504600F05AFB0546109B23B32946049800F0A4FB00281EDA00230A220499504600F0DBF90A9B0BF1FF3B0490002B00F05F81314600230A22504600F0CEF9CD
:406F4000B9F1000F06463FDC3BE000BF508000000000144000002440059B002B2BDC1E9B022B28DDDDF81490B9F1000F11D129464B460522504600F0B1F901460546049839
:406F800000F06DFB00280CDC03E0354600E000252E461F9B069C6FEA030B09E03546DDF820B0069B069A5C1C312313700BF1010B05960026F7E00A9BDDF8149023B9069CFA
:406FC000B2E01E9B022BCFDC002C05DD31462246504600F0F3FA06469FB17168504600F031F90446326906F10C01023292000C30FEF738FD01222146504600F0DFFA059056
:4070000000E00596029B069F03F00103079329460498FFF7D7FA3146044600F13008049800F01DFB059A02902946504600F033FBC36802463BB901460A90049800F00FFB70
:407040000A9A034600E00123114650460A9300F02EF90A9B53B91E9A42B9079A32B9B8F1390F2AD0029B002B1CDC1DE0029A002A04DB1BD11E9ACAB9079ABAB9002B13DDEB
:4070800001220499504600F099FA2946049000F0E6FA002803DC07D118F0010F04D0B8F1390F0AD004F131087C1C0CE0002B07F101040BDDB8F1390F03D139233B700137C8
:4070C00056E008F1010887F800806CE0069B2746E31A4B4504F8018C3BD000230A220499504600F0FBF8059B04909E424FF00A024FF000033146504604D100F0EFF80646D3
:40710000059084E700F0EAF8002306460A220599504600F0E3F8059079E700230A220499504600F0DBF8049029460498FFF74AFA069B00F1300804F8018BE31A4B45ECDB2A
:40714000069B0596B9F1010FACBF4B4401331F46002601220499504600F030FA2946049000F07DFA002803DC15D118F0010F12D03C4614F8013C621E392B09D1069B9342A0
:4071800004D10BF1010B3123069A02E01446F0E70133137007E03C4614F8013C621E302B01D11446F8E72946504600F080F8059B6BB12EB19E4203D03146504600F077F875
:4071C0000599504600F073F801E0DDF820B00499504600F06CF80023209A23700BF101031360229B1BB11C6001E008480AE0069808E0B9F1000F3FF7E2AE1E9B022B7FF78F
:40720000DEAEB1E615B0BDE8F08F00BF127F000000487047BC81FF1F024B0146186800F041BB00BFB481FF1F10B5C9B202449042034605D01C7801308C42F8D1184610BD89
