:400000000080002011000000E1130000E113000008B5044B1A6803F53F5302331A6001F0FFF900BFFA46004010B5054C237833B9044B13B10448AFF300800123237010BD96
:40004000E881FF1F00000000D4510000084B10B51BB108490848AFF300800848036803B910BD074B002BFBD0BDE81040184700BF00000000EC81FF1FD4510000C880FF1F78
:400080000000000000000000F8B51B4B1B68012B2CD1194C60680028B8BF4042A368002BB8BF5B42C01A02F023FCC4E90401134DD5E9002302F082FC06460F46A86802F0F8
:4000C00029FC32463B4602F0C7FA09A3D3E9002302F074FC02F034FFE86002F081FF80B202F038F8D4E90423C4E90623F8BD00BF9A9999999999E93F0882FF1FD080FF1F0C
:4001000038B501F061FD01F065FD254C2062C0F57F43FF33234880FB03201844DB17C3EB601002F0E5FB02460B46C4E90A231E4D1E49284603F024FC284601F053FB236B4C
:400140002BB9D4E90A011A4BC3E9000118E0012B06D1134BD3E90A01164BC3E900010FE0022B05D10E4BD3E90A01C3E90E0107E0032B05D10A4BD3E90A010F4BC3E90001B8
:4001800000220E4B0A49D1E9000102F093FE18B10122034B1A6438BD0022014B1A6438BD0882FF1F09CB3D8D8C85FF1FD85100006086FF1FF083FF1F5886FF1F0000244012
:4001C00008B501F069FD0122014B5A6408BD00BF0882FF1F08B501F0E3FA094B1870212806D0084A936C0849C8540133936408BD044B9A6C0020044988540122DA6408BD9A
:40020000C084FF1F0882FF1FF883FF1F10B50024074B1C60204601F05DF9204601F066F9204601F0C1FB204601F0CAFB10BD00BF0882FF1F10B50124074B1C60002001F0D5
:4002400049F9204601F052F9002001F0ADFB204601F0B6FB10BD00BF0882FF1F10B50124074B1C60204601F035F9002001F03EF9204601F099FB002001F0A2FB10BD00BFFB
:400280000882FF1F10B50124074B1C60002001F021F9204601F02AF9204601F085FB002001F08EFB10BD00BF0882FF1F10B50124074B1C60204601F00DF9002001F016F95F
:4002C000002001F071FB204601F07AFB10BD00BF0882FF1F08B5002001F06AF9002001F0A9FA024B00225A609A6008BD0882FF1F70B50E4602F0FCFA3F4BD3E9002302F050
:400300005DFB02F0F5FD05460DE001F049F93B4C606001F087FAA060012E02D1FFF78AFF01E0FFF79BFF354B5B68002BB8BF5B429D4206DB314B9B68002BB8BF5B429D428C
:40034000E3DAFFF763FF01F02BF9044601F06AFA204400EBD070401002F0CAFA04460D4621A3D3E900232649D1E9080102F026FB1FA3D3E9002302F04BFC02460B462046C1
:40038000294602F01BFB1D4BD3F860313BB91B4CF4E95A2302F060F9C4E9000120E0012B07D1164CF4E95C2302F056F9C4E9000116E0022B09D1114C02460B46F4E95A0178
:4003C00002F048F9C4E900010AE0032B08D10B4C02460B46F4E95C0102F03CF9C4E90001FFF778FF70BD00BF182D4454FB2109400000000000A6AC406083FF1F0882FF1F56
:40040000D080FF1F0000000038B51BE0FFF712FF322001F079F811E00024394B1C63204601F0FEFE322001F06FF8012001F0C0FB0A2001F07FF8204601F0BAFB01F004FC3A
:400440000028E9D02E4B1B6C002BDFD0FFF7DEFE01F0A6F8044601F0E5F9204400EBD070401002F045FA04460D4621A3D3E900232449D1E9080102F0A1FA1FA3D3E9002399
:4004800002F0C6FB02460B462046294602F096FA1B4BD3F860313BB9194CF4E95A2302F0DBF8C4E9000120E0012B07D1144CF4E95C2302F0D1F8C4E9000116E0022B09D18B
:4004C0000F4C02460B46F4E95A0102F0C3F8C4E900010AE0032B08D1094C02460B46F4E95C0102F0B7F8C4E90001FFF7F3FE38BD182D4454FB2109400000000000A6AC405D
:400500000882FF1FD080FF1F38B54FF4FA7000F0FBFF27E0FFF78EFE434C444B07CB20606160A2601A889B78A281A373204601F059F9642000F0E8FF10E002203C4B18635F
:4005400001F06EFE322000F0DFFF012001F030FB0A2000F0EFFF002001F02AFB01F06CFB0028EAD0324BD3F87831002BD2D0FFF74DFE01F015F8044601F054F9204400EB75
:40058000D070401002F0B4F904460D4622A3D3E900232849D1E9080102F010FA20A3D3E9002302F035FB02460B462046294602F005FA1F4BD3F860313BB91D4CF4E95A23FB
:4005C00002F04AF8C4E9000120E0012B07D1184CF4E95C2302F040F8C4E9000116E0022B09D1134C02460B46F4E95A0102F032F8C4E900010AE0032B08D10D4C02460B46A3
:40060000F4E95C0102F026F8C4E90001FFF762FE38BD00BFAFF30080182D4454FB2109400000000000A6AC408C85FF1F105200000882FF1FD080FF1F38B501E0FFF7FAFD60
:4006400001F064FC0128F9D0FFF7E0FD4FF4FA7000F05AFF00F0A4FF044601F0E3F8204400EBD070401002F043F904460D4622A3D3E900232449D1E9080102F09FF920A3FA
:40068000D3E9002302F0C4FA02460B462046294602F094F91D4BD3F860313BB91B4CF4E95A2301F0D9FFC4E9000120E0012B07D1164CF4E95C2301F0CFFFC4E9000116E0A9
:4006C000022B09D1114C02460B46F4E95A0101F0C1FFC4E900010AE0032B08D10B4C02460B46F4E95C0101F0B5FFC4E90001FFF7F1FD38BDAFF30080182D4454FB210940BB
:400700000000000000A6AC40D080FF1F0882FF1F10B5274CA06A02F063FC80B201F014FDA06A02F05DFC80B201F014FD214BD3F86031032B3AD8DFE803F0020904060024C6
:4007400005E0B42403E04FF4877400E05A24204602F0CEF802460B461649D1E9220101F079FF02F0C5FB10F1050F14DB052812DCFFF74CFDC82000F0C7FE0D4CA06802F0E1
:400780002FFC80B201F0E0FCA06802F029FC80B201F0E0FC10BD002802DDFFF773FD01E0FFF784FD322000F0AFFED0E710BD00BFD080FF1F0882FF1F10B5274CA06A02F0E3
:4007C0000FFC80B201F0C0FCA06A02F009FC80B201F0C0FC214BD3F86031032B3AD8DFE803F002090406002405E0B42403E04FF4877400E05A24204602F07AF802460B4695
:400800001649D1E9220101F025FF02F071FBB0F1FF3F14DB012812DCFFF7F8FCC82000F073FE0D4CA06802F0DBFB80B201F08CFCA06802F0D5FB80B201F08CFC10BD0028B3
:4008400002DDFFF71FFD01E0FFF730FD322000F05BFED0E710BD00BFD080FF1F0882FF1F70B505460E460DE000F09AFE234C606000F0D8FFA060012E02D1FFF717FD01E073
:40088000FFF700FD1D4B5B68002BB8BF5B42AB4206DC1A4B9B68002BB8BF5B429D42E3DAFFF7B4FC012E0ED1144BD3F86031032B04D10022114BC3F8602111E001330F4A1F
:4008C000C2F860310CE00D4BD3F8603123B903220A4BC3F8602103E0013B084AC2F86031322000F011FEFFF713FF4FF4FA7000F00BFEFFF761FFFFF7EDFC70BD0882FF1FB6
:4009000038B5012001F0DEFA012001F0C3FA012001F0F0FA0A2000F0F7FD01F07FFA0024664B5C64204601F0C1FA204601F0D6FA142000F0E9FD012001F0A6FA012000F002
:40094000E3FD204601F0A0FA5C4B5B6C002BFBD001F01AFA0246594DC5F87C01584C5949204603F00DF8204600F03CFF01F0F2F9642000F0C9FD01F051FA00246C64012079
:4009800001F094FA012001F0A9FA142000F0BCFD012001F079FA012000F0B6FD204601F073FA464B5B6C002BFBD001F0EDF90246424DC5F88001424C4349204602F0E0FF8E
:4009C000204600F00FFF01F0C5F9642000F09CFD01F024FA00246C64204601F067FA012001F07CFA142000F08FFD012001F04CFA012000F089FD204601F046FA2F4B5B6C1D
:400A0000002BFBD001F0C0F902462C4CC4F884012B4D2E49284602F0B3FF284600F0E2FE01F098F9D4F87C31D4F8802193420FDDD4F8842193420BDD0120C4F8880101F028
:400A400077FA4FF47A7000F05FFD002001F070FA1A4BD3F88021D3F87C319A4212DD174BD3F884319A420DDD0222144BC3F88821012001F051FA4FF47A7000F045FD002092
:400A800001F04AFA0D4BD3F88421D3F87C319A4212DD0A4BD3F880319A420DDD0322074BC3F88821012001F04FFA4FF47A7000F02BFD002001F048FA38BD00BF0882FF1F35
:400AC0008C85FF1F205200002C520000385200002DE9F84F62B6DFF810B3B7A3D3E90023DBE9080101F06AFF04460D46DFF8E4A20AF5C873C3E90045AFA3D3E90023DBE9C4
:400B0000100101F05BFF0022AD4B01F057FF06460F460AF5CC73C3E90067DBE9128922462B464046494602F073F80AF5AC73C3E9000142464B463046394601F03FFF2246EC
:400B40002B4602F065F80AF5D07ACAE900019D4800F0BAFF9C4801F089F900F08DFF9B4801F05CF801F0E0F8994801F079FB002001F046FD01F046FB01F054FA01F0C2FAAE
:400B800000F044FD002000F013FD00F081FE002000F050FE00F0F6FD002001F0ABF901F0B3FB00F0F7FFDBF8080002F019FA80B201F0CAFADBF8080002F012FA80B201F037
:400BC000C9FA844BDB6C012BFBD18349834802F0FBFE18B9824800F005FE3FE281497F4802F0F2FE002840F00C82FFF70DFC18E001213220FFF77CFB764CF4E9680102F0C8
:400C000077F90021FFF72CFEFFF7FEFBD4E9000102F06EF90121FFF723FE734A136D01331365714B1B6D002BE2D00022694B1A644FF4FA7000F068FC11E0FFF7E5FB4FF45B
:400C4000FA7000F061FC694BD3E9000102F050F90121FFF705FE644A136D01331365624B1B6D012BE9D04FF47A7000F04DFC14E0FFF74AFC5E4B5F4A106818609188927906
:400C800099809A71184600F0ADFD4FF4FA7000F03BFC554A136D01331365534B1B6D022BE6D04FF4FA7000F02FFC0FE001210820FFF71EFB4D4BD3E9000102F019F90021E6
:400CC000FFF7CEFD484A136D01331365464B1B6D032BEBD04FF4FA7000F016FC05E0FFF7ABFC414A136D013313653F4B1B6D042BF5D04FF4FA7000F007FC21E000210220A1
:400D0000FFF7F6FA4FF4FA7000F0FEFBFFF7F8FD304BD3F88831012B03D1012001F008F90AE0022B03D1012001F0F6F804E0032B02D1012001F008F92B4A136D01331365B6
:400D4000294B1B6D052BD9D04FF4FA7000F0DCFB18E001211220FFF7CBFA234CA08D01F089F94FF4FA7000F0CFFB208E01F012F94FF4FA7000F0C8FBA08E01F07BF9236D80
:400D800001332365184B1B6D062BE2D04FF4FA7000F0BAFB3DE000213220FFF7A9FA4FF4FA7000F0B1FB0B4BD3F8A83123BB002423E000BFAFF30080182D4454FB210940C3
:400DC0000000D03F89000000C101000001010000D50100000882FF1F80520000F883FF1F905200009C520000D080FF1FA883FF1F8C85FF1FA452000001249C4BD3E9000139
:400E000002F076F82146FFF72BFD994A136D01331365974B1B6D072BBDD04FF4FA7000F073FB0022934B1A640DE0FFF7EDFA8F4BD3E9000102F05CF80121FFF711FD8C4A69
:400E4000136D013313658A4B1B6D082BEDD04FF4FA7000F059FB0022864B1A640BE000214620FFF745FA4FF4FA7000F04DFB804A136D013313657E4B1B6D092BEFD002E0EF
:400E800001337B4A13657A4B1B6D0A2BF8D04FF4FA7000F039FB02E00133754A1365744B1B6D0B2BF8D04FF4FA7000F02DFB1BE06F4CA08D01F0DEF84FF47A7000F024FB69
:400EC000208F01F067F84FF4FA7000F01DFBA08E01F0D0F84FF4FA7000F016FB208E01F059F8236D01332365614B1B6D0C2BDFD04FF4FA7000F008FB12E001211420FFF775
:400F0000F7F94FF4FA7000F0FFFA594CA08D01F0B1F84FF4FA7000F0F7FA236D01332365534B1B6D0D2BE8D04FF4FA7000F0ECFA12E000211420FFF7DBF94FF4FA7000F09E
:400F4000E3FA4B4CA08E01F095F84FF4FA7000F0DBFA236D01332365454B1B6D0E2BE8D04FF4FA7000F0D0FA1EE0424BD3F8A8310BB9012400E000243C4BD3E9000101F0D2
:400F8000B7FF2146FFF76CFC4FF4FA7000F0BCFA01213220FFF7ACF94FF4FA7000F0B4FA334A136D01331365314B1B6D0F2BDCD04FF4FA7000F0A8FA1EE02E4BD3F8A8311C
:400FC0000BB9012400E00024284BD3E9000101F08FFF2146FFF744FC4FF4FA7000F094FA01213220FFF784F94FF4FA7000F08CFA1F4A136D013313651D4B1B6D102BDCD017
:401000002CE01D491D4802F0F9FC1D4B186012E0184DD5F8AC4104EB840293001948184402F0DCFC0134C5F8AC411349002002F0E5FC134B1860124B19680029E8D1114C51
:40104000204600F0CFFB04F1140000F0CBFB04F1280000F0C7FB0C4800F0C4FB054B00229A64C3F8AC21DA64ABE500BFA883FF1FD080FF1F0882FF1FAC520000F883FF1F44
:401080003087FF1F3487FF1FB0520000FEE700BFF0B40022174611E050F82760F3B226F0FF0608E001EB420511F812406D78A5550132013BDBB2002BF4D10137282FEBD9A5
:4010C000F0BC704708B50A46002101F0E0FF08BDF8B5174B1B78DBB2164E3478E4B2164F3D78EDB203F00701144A11701B090132137044F00303337045F003033B70402362
:40110000A2F23272137002F2CC7213700232137002F21D2213702022094B1A700A2000F009FA3D7034704422064B1A70F8BD00BFCF010049F8460040F94600406E58004073
:401140002B5B00407658004008B501F095FF08BD38B517223A4B1A8018233A490B7002310A80394A1370EF2102321180023213704FF49C71023211800232137040F2DF11D9
:40118000023211800232137047F22F522F4B1A80192502331D7004222D492E48FFF7D4FF02222D4B1A7008224FF040231A70032103F500731970294B1B78DBB228490B70F6
:4011C000284B1A8041F25122023B1A8000240CE0254B1B7803F0010343EA440404F003044FF4F07001F018FA013D0DB1032CEFD115B90320FFF74AFF1C4B4FF480721A80F4
:4012000007221A7000221A490A704820023108701A700222033B1A7004220A331A70154A137843F03F031370013A137843F001031370013A137843F08003137038BD00BF71
:401240008040004082400040864000409440004038120048004100400043004008010049A146004022420040254200400440004006400040A243004038B572B63F4A1378A0
:4012800043F00403137000240CE03D4D630019194A0011462A44084691882858FFF712FF0134E4B2082CF0D900240CE03448A20011194B000344B3F84020D96B986BFFF74B
:4012C00043FF0134E4B2012CF0D92E494FF09040FFF7DEFE2C4B2D4A136002F5386213602B4A2C4B1A602C4A137843F0020313701032137843F002031370284C237843F042
:4013000040032370A2F58632513A137843F010031370082222492348FFF716FF0A2222492248FFF711FF082221492248FFF70CFF082221492148FFF707FF082220492148A3
:40134000FFF702FF0A2220492048FFF7FDFE204A137843F0080313701E4D61232B70FFF7F7FE81232B7001221B4B1A70FFF7B0FE0E2221461948FFF7E7FE38BDE846004031
:40138000BC520000A400004804040484D8000140C4C40404D818014003500140A0430040001200480251004008120048C051004014120048F25100401C1200481251004068
:4013C00024120048225100402C12004830510040224300400048004004000840B043004008B501F01DFE03680C2B00D1FEE7FEE708B5094B1A681044084BC31AB3F5007F85
:4014000002DC054B186005E001F00AFE0C2303604FF0FF32104608BD3881FF1F9087FF1F08B5104E104D16E029686B68AC68002204E051F8040B43F8040B0432A242F8D18E
:40144000E868002203E0002143F8041B04328242F9D11035013E002EE6D101F0E7FDFFF737FBFEE7010000009054000008B5104A104B1A60104A136843F4007313600023A7
:401480000AE0032B03D80D4A52F8231000E00C490C4A42F8231001332F2BF2D90A4B1A780A4B1A70074A0A4B1A60FFF7E5FE08BD0004FA050CED00E014ED00E000000000D3
:4014C000E11300000080FF1FBC760040C080FF1F08ED00E0044A137803F0DF03400100F0200018431070704710510040044A137803F0EF03000100F0100018431070704732
:401500001051004001BE704710B5044605E0084B186801F081F8A4F50044B4F5004FF6D8034B586800FB04F001F076F810BD00BF3C81FF1F08B5034B1B7A00FB03F001F07E
:401540006BF808BD3C81FF1F70B504460E46074B1D681F2802D90020FFF7D4FF04F01F04103455F8240045F8246070BD08ED00E038B504460D46072902D90020FFF7C2FFC8
:401580001F2C02D90020FFF7BDFF04F01F0000F1604000F564406D01EDB2057038BD00BF08B500F05FF8A0F5004000B208BD00BF08B5002803DB80B280F4004002E0A0F591
:4015C000004080B200F048F808BD00BF024B187800F00F00704700BF64640040014B1870704700BF8464004008B50F20FFF7F6FFFFF7ECFF01F018F8034A137843F0100322
:40160000137001F015F808BD9464004008B500F07BF84FF4004000F01FF8044B1B7813B90122024B1A70FFF7DFFF08BDD883FF1F024A137843F08003137070477F640040DE
:40164000014B1870704700BF8C640040014B1878704700BF6C640040014B1880704700BF1C680040024B1B78024B188880B270470E6400409C680040014B188880B27047EF
:401680009C680040014B1880704700BF5C680040014B1880704700BF7C68004008B501E0FFF7EAFFFFF7D2FF10F0400FF8D108BD08B5134B1A7802F0F8021A701A7802F042
:4016C000FC021A70FFF7EAFF4FF40040FFF7DAFF4FF40040FFF7C0FF0020FFF7B1FFFFF7B5FF4FF40040FFF7D3FF00F09DFF054A137843F01003137000F09AFF08BD00BF02
:401700007F6400409C64004008B5054B1B7823B9FFF7CEFF0122024B1A70FFF789FF08BDD983FF1F7222084B1A702022043B1A700622A3F261131A70472210331A700022C1
:4017400003F5AA731A7070478865004010B500F06BFF04460A4A137843F020031370043A137843F0100313700332137843F01003137000F049F8204600F05AFF10BD00BF3E
:401780009865004008B5054B1B7823B9FFF7CAFF0122024B1A70FFF7D9FF08BDDA83FF1F084B1B78DBB213F0200F06D0064A1078C0B213F01E0F02D1704700207047002033
:4017C000704700BF646500404B650040034B1B7813F0040FFAD1024B18707047676500404765004038B5074B1B782BB938BDFFF7EDFF0134A4B201E005460024285D00281F
:40180000F5D138BDDA83FF1F054A137843F0080313701032137843F008031370704700BFA243004008B500F05FF8A0F5004000B208BD00BF08B5002803DB80B280F40040F6
:4018400002E0A0F5004080B200F048F808BD00BF024B187800F00F00704700BF65640040014B1870704700BF8564004008B50F20FFF7F6FFFFF7ECFF00F0D6FE034A1378A9
:4018800043F01003137000F0D3FE08BD9564004008B500F07BF84FF4004000F01FF8044B1B7813B90122024B1A70FFF7DFFF08BDDC83FF1F024A137843F080031370704771
:4018C00075650040014B1870704700BF86650040014B1878704700BF66650040014B1880704700BF02680040024B1B78024B188880B270470164004082680040014B188887
:4019000080B2704782680040014B1880704700BF42680040014B1880704700BF6268004008B501E0FFF7EAFFFFF7D2FF10F0400FF8D108BD08B5134B1A7802F0F8021A70A8
:401940001A7802F0FC021A70FFF7EAFF4FF40040FFF7DAFF4FF40040FFF7C0FF0020FFF7B1FFFFF7B5FF4FF40040FFF7D3FF00F05BFE054A137843F01003137000F058FE05
:4019800008BD00BF756500409665004008B5054B1B7823B9FFF7CEFF0122024B1A70FFF789FF08BDDD83FF1F044A137803F0FD03400000F002001843107070473051004003
:4019C000044A137803F0FB03800000F0040018431070704730510040024A137843F08003137070477B650040014B1870704700BF89650040014B1878704700BF6965004097
:401A000008B50146014800F017FE08BD28650040024B186820F07F40704700BF4865004008B50146014800F007FE08BD0865004008B501E0FFF7ECFFFFF7DCFF10F0080FA8
:401A4000F8D108BD08B54EF65F20FFF7D9FF4EF65F20FFF7E5FF00F0E7FD064A137843F01003137000F0E4FDFFF7E2FF0120FFF7BBFF08BD9965004008B5054B1B7823B97D
:401A8000FFF7E0FF0122024B1A70FFF7A5FF08BDDE83FF1F014B1B685864704708ED00E04001C0B2014B1870704700BF01E400E00222014B1A60704700E100E00222014BCE
:401AC0001A60704780E100E010B50446FFF7F6FF2046FFF7DFFF0720FFF7E2FFFFF7E8FF10BD00BF084A137843F0040313701032137843F00403137002F66532137843F068
:401B000001031370704700BFA3430040014B1870704700BF1B4F0040014B1880704700BF1C4F0040014B1880704700BF1E4F004008B5154A137803F00103137002321378A2
:401B400003F0FC031370114B1A7802F0CF021A701A7842F030021A701A7802F0F0021A701A7842F00F021A70094A137843F0010313700920FFF7D0FF0920FFF7D3FF082037
:401B8000FFF7C4FF08BD00BF184F0040234F0040194F004008B5054B1B7823B9FFF7C8FF0122024B1A70FFF79DFF08BDDF83FF1F044A137803F0FB03800000F00400184344
:401BC00010707047C0510040014B1878704700BF61640040024B1B78024B188880B270470464004088680040014B1B689864704708ED00E04001C0B2014B1870704700BF24
:401C000002E400E00422014B1A60704700E100E00422014B1A60704780E100E010B50446FFF7F6FF2046FFF7DFFF0620FFF7E2FFFFF7E8FF10BD00BF024B1878C0F340101C
:401C4000704700BF31510040024B1878C0F3C000704700BFC1510040024A137843F080031370704779640040014B1880704700BF18680040014B1880704700BF986800407C
:401C8000014B1880704700BF58680040014B1870704700BF8A640040014B1878704700BF6A640040014B188880B27047B868004008B501E0FFF7F6FFFFF7EEFF10F0100F32
:401CC000F8D108BD08B5164A137803F0C00343F0090313702332137843F0010313700132137843F0010313704CF24F30FFF7BCFF4CF24F30FFF7BEFF46F2A710FFF7C0FFA2
:401D00000120FFF7C3FF00F08FFC064A137843F01003137000F08CFCFFF7CAFF08BD00BF796400409A64004008B5054B1B7823B9FFF7C8FF0122024B1A70FFF78DFF08BD1B
:401D4000E083FF1F024A137843F08003137070477A640040024A137803F07F03137070477A640040014B1870704700BF89640040014B1878704700BF69640040014B1860BF
:401D8000704700BF08640040014B1868704700BF48640040014B1860704700BF28640040014B1860704700BF3864004008B501E0FFF7EAFFFFF7DCFF10F0400FF8D108BD8C
:401DC00008B5144A137803F0F80343F001031370137803F0FC0343F008031370FFF7E6FF6FF00100FFF7D6FF0020FFF7C7FF0020FFF7B8FFFFF7BCFF8020FFF7D1FF00F0A1
:401E000013FC054A137843F01003137000F010FC08BD00BF7A6400409964004008B5054B1B7823B9FFF7CCFF0122024B1A70FFF789FF08BDE183FF1F014B1B68D864704757
:401E400008ED00E04001C0B2014B1870704700BF03E400E00822014B1A60704700E100E00822014B1A60704780E100E010B50446FFF7F6FF2046FFF7DFFF0720FFF7E2FF47
:401E8000FFF7E8FF10BD00BF014B1870704700BF7A650040044A137803F0EF03000100F0100018431070704720510040044A137803F0F703C00000F008001843107070473E
:401EC00020510040044A137803F0DF03400100F0200018431070704720510040044A137803F07F03C001C0B218431070704700BF20510040044A137803F0BF03800100F06D
:401F0000400018431070704720510040014B1878C009704731510040044A137803F0F703C00000F0080018431070704700510040044A137803F0FB03800000F004001843C6
:401F40001070704700510040044A137803F0EF03000100F0100018431070704700510040084A137843F0020313701032137843F00203137002F65932137843F001031370CF
:401F8000704700BFA3430040014B1880704700BF104F0040014B1880704700BF124F0040014B1870704700BF0F4F004008B51A4A137843F0020313700232137803F08F03FE
:401FC00043F040031370154B1A7802F0CF021A701A7842F030021A701A7802F0F0021A701A7842F00F021A7040F2E730FFF7CCFF4FF47570FFF7CEFF0020FFF7D1FF084A9D
:40200000137843F00203137002F66A32137843F00103137008BD00BF0C4F0040174F0040A343004008B5054B1B7823B9FFF7BEFF0122024B1A70FFF793FF08BDE283FF1F9D
:40204000084A137843F0010313701032137843F00103137002F64D32137843F001031370704700BFA3430040014B1880704700BF044F0040014B1880704700BF064F00400E
:40208000014B1870704700BF034F004008B51A4A137843F0020313700232137803F08F0343F040031370154B1A7802F0CF021A701A7842F030021A701A7802F0F0021A70E1
:4020C0001A7842F00F021A7040F28920FFF7CCFF40F20D20FFF7CEFF0020FFF7D1FF084A137843F00103137002F65E32137843F00103137008BD00BF004F00400B4F0040CC
:40210000A343004008B5054B1B7823B9FFF7BEFF0122024B1A70FFF793FF08BDE383FF1F024A137843F080031370704772640040014B1880704700BF086A0040014B1880B2
:40214000704700BF886A0040014B1880704700BF486A0040014B1880704700BF686A0040014B1870704700BF85650040014B1878704700BF65650040014B188880B270475A
:40218000A86A004008B501E0FFF7F6FFFFF7EEFF10F0100FF8D108BD10B5184A137803F0C00343F00903137002F59172137843F001031370124C237843F00103237046F250
:4021C000A810FFF7B5FF46F2A810FFF7B7FF43F2D400FFF7B9FF43F2D400FFF7BBFF0020FFF7BEFF00F020FA237843F01003237000F01EFAFFF7C6FF10BD00BF72640040BB
:402200009565004008B5054B1B7823B9FFF7C4FF0122024B1A70FFF783FF08BDE483FF1F014B1870704700BF75640040014B1B681865704708ED00E04001C0B2014B1870B1
:40224000704700BF04E400E01022014B1A60704700E100E01022014B1A60704780E100E010B50446FFF7F6FF2046FFF7DFFF0720FFF7E2FFFFF7E8FF10BD00BF38B5022214
:40228000114B1A7081220E3B1A70082202331A700F2511331D70002401331C704FF400420A4B1A6007212846FFF762F908492846FFF74AF91022074B1A70074B1C70074B7F
:4022C0001C70074B1C7038BDD649004080E100E0312300007087FF1F7687FF1F7887FF1F7487FF1F08B500F09FF9064A137843F0040313701032137843F00403137000F0CE
:4023000097F908BDA543004008B5074B1B7823B9FFF7B4FF0122044B1A70FFF7E3FF4FF40042024B1A6008BDE583FF1F00E100E038B5A54B1C78A54B1B7813F0400F00F097
:402340003A81E4B214F0010F00F01D819F4B1B78453B052B00F21481DFE813F006008200120112010600DF0004F0DF0504F00A04082C42D1954B1B78DBB2452B35D1944BE3
:402380001B7813F0FF0F10D0924B1B681B78DBB2914A137004228C4B1A7001228F4B1A7046228A4B1A702C46EDE08D4B1B7813F0020F0DD08B4A137843F00A0313706022A6
:4023C000824B1A704FF40042874B1A602C46DAE0864A137843F0100313701022844B1A700422023B1A702C46CDE00022764B1A704A22764B1A702C46C5E00A2C2BD1794A9E
:40240000137843F0A0031370754B1B7813F0020F14D06E4B1B7813F0080F01D0092300E00A23704A11780B4313706022674B1A704FF400426C4B1A602C46A4E06B4A13783F
:4024400043F0100313701022694B1A700422023B1A702C4697E00020FFF754F82C4692E014F0020F36D15D4B1A78D2B2584B1B78DBB29A4210D2594A1378DBB255490968E2
:40248000CB5CDBB254490B7004214F4B197013780133DBB2137076E0514B1B7813F0020F0CD0504A137843F00A0313706022474B1A704FF400424C4B1A6064E04B4A137844
:4024C00043F0100313701022494B1A700422023B1A7058E0424B1B7813F0020F0CD0414A137843F09A0313706022384B1A704FF400423D4B1A6046E03C4A137843F0100392
:40250000137010223A4B1A700422023B1A70354A137843F09003137035E0364A1378DBB2354908682C490978C9B2C15413780133DBB213701278D2B2304B1B78DBB29A4222
:4025400003D21022204B1A701DE0254B1B7813F0020F0CD0234A137843F00903137060221A4B1A704FF400421F4B1A600BE01F4A137843F0100313700022134B1A7002E047
:402580000020FEF7BFFF14F0200F1CD00F4B1B7813F0080F01D0012300E00223114A11780B431370114A137803F0EF0313701022064B1A7038BD054B1B7813F0100F02D14B
:4025C0001022024B1A7038BDD74900407087FF1F7787FF1F7C87FF1FD84900407487FF1F7587FF1F7687FF1F80E100E0D6490040D94900407887FF1F8087FF1F8487FF1F0F
:40260000044A137803F0FD03400000F00200184310707047F05100400230800803D000BF01380046FCD17047EFF3108072B6704780F31088704700BFCBB20370C1F307239A
:402640004370C1F307418170704700BF81F0004102E000BF83F0004330B54FEA41044FEA430594EA050F08BF90EA020F1FBF54EA000C55EA020C7FEA645C7FEA655C00F0BB
:40268000E2804FEA5454D4EB5555B8BF6D420CDD2C4480EA020281EA030382EA000083EA010180EA020281EA0303362D88BF30BD11F0004F4FEA01314FF4801C4CEA1131AD
:4026C00002D0404261EB410113F0004F4FEA03334CEA133302D0524263EB430394EA050F00F0A780A4F10104D5F1200E0DDB02FA0EFC22FA05F2801841F1000103FA0EF2C1
:40270000801843FA05F359410EE0A5F120050EF1200E012A03FA0EFC28BF4CF0020C43FA05F3C01851EBE37101F0004507D54FF0000EDCF1000C7EEB00006EEB0101B1F5BA
:40274000801F1BD3B1F5001F0CD349085FEA30004FEA3C0C04F101044FEA445212F5800F80F09A80BCF1004F08BF5FEA500C50F1000041EB045141EA050130BD5FEA4C0C0B
:40278000404141EB010111F4801FA4F10104E9D191F0000F04BF01460020B1FA81F308BF2033A3F10B03B3F120020CDA0C3208DD02F1140CC2F10C0201FA0CF021FA02F135
:4027C0000CE002F11402D8BFC2F1200C01FA02F120FA0CFCDCBF41EA0C019040E41AA2BF01EB0451294330BD6FEA04041F3C1CDA0C340EDC04F11404C4F1200220FA04F0F4
:4028000001FA02F340EA030021FA04F345EA030130BDC4F10C04C4F1200220FA02F001FA04F340EA0300294630BD21FA04F0294630BD94F0000F83F4801306BF81F4801153
:402840000134013D4EE77FEA645C18BF7FEA655C29D094EA050F08BF90EA020F05D054EA000C04BF1946104630BD91EA030F1EBF0021002030BD5FEA545C05D140004941F4
:4028800028BF41F0004130BD14F580043CBF01F5801130BD01F0004545F0FE4141F470014FF0000030BD7FEA645C1ABF194610467FEA655C1CBF0B46024650EA013406BFD1
:4028C00052EA033591EA030F41F4002130BD00BF90F0000F04BF0021704730B54FF4806404F132044FF000054FF0000150E700BF90F0000F04BF0021704730B54FF48064C4
:4029000004F1320410F0004548BF40424FF000013EE700BF42004FEAE2014FEA31014FEA02701FBF12F07F4393F07F4F81F06051704792F0000F14BF93F07F4F704730B5E9
:402940004FF4607401F0004521F0004120E700BF50EA010208BF704730B54FF000050AE050EA010208BF704730B511F0004502D5404261EB41014FF4806404F132045FEABC
:40298000915C3FF4DCAE4FF003025FEADC0C18BF03325FEADC0C18BF033202EBDC02C2F1200300FA03FC20FA02F001FA03FE40EA0E0021FA02F11444C1E600BF70B54FF0A5
:4029C000FF0C4CF4E06C1CEA11541DBF1CEA135594EA0C0F95EA0C0F00F0DEF82C4481EA030621EA4C5123EA4C5350EA013518BF52EA033541F4801143F4801338D0A0FB6C
:402A000002CE4FF00005E1FB02E506F00042E0FB03E54FF00006E1FB03569CF0000F18BF4EF0010EA4F1FF04B6F5007F64F5407404D25FEA4E0E6D4146EB060642EAC62143
:402A400041EA55514FEAC52040EA5E504FEACE2EB4F1FD0C88BFBCF5E06F1ED8BEF1004F08BF5FEA500E50F1000041EB045170BD06F0004646EA010140EA020081EA03010B
:402A8000B4EB5C04C2BFD4EB0C0541EA045170BD41F480114FF0000E013C00F3AB8014F1360FDEBF002001F0004170BDC4F10004203C35DA0C341BDC04F11404C4F1200503
:402AC00000FA05F320FA04F001FA05F240EA020001F0004221F0004110EBD37021FA04F642EB06015EEA430E08BF20EAD37070BDC4F10C04C4F1200500FA04F320FA05F033
:402B000001FA04F240EA020001F0004110EBD37041F100015EEA430E08BF20EAD37070BDC4F1200500FA05F24EEA020E20FA04F301FA05F243EA020321FA04F001F0004172
:402B400021FA04F220EA020000EBD3705EEA430E08BF20EAD37070BD94F0000F0FD101F00046400041EB010111F4801F08BF013CF7D041EA060195F0000F18BF704703F062
:402B80000046520043EB030313F4801F08BF013DF7D043EA0603704794EA0C0F0CEA135518BF95EA0C0F0CD050EA410618BF52EA4306D1D181EA030101F000414FF0000047
:402BC00070BD50EA410606BF1046194652EA430619D094EA0C0F02D150EA013613D195EA0C0F05D152EA03361CBF104619460AD181EA030101F0004141F0FE4141F4700177
:402C00004FF0000070BD41F0FE4141F4780170BD70B54FF0FF0C4CF4E06C1CEA11541DBF1CEA135594EA0C0F95EA0C0F00F0A7F8A4EB050481EA030E52EA03354FEA013178
:402C400000F088804FEA03334FF0805545EA131343EA12634FEA022245EA111545EA10654FEA00260EF000419D4208BF964244F1FD0404F5407402D25B084FEA3202B61A19
:402C800065EB03055B084FEA32024FF480104FF4002CB6EB020E75EB030E22BFB61A754640EA0C005B084FEA3202B6EB020E75EB030E22BFB61A754640EA5C005B084FEA66
:402CC0003202B6EB020E75EB030E22BFB61A754640EA9C005B084FEA3202B6EB020E75EB030E22BFB61A754640EADC0055EA060E18D04FEA051545EA16754FEA06164FEA12
:402D0000C30343EA52734FEAC2025FEA1C1CC0D111F4801F0BD141EA00014FF000004FF0004CB6E711F4801F04BF01430020B4F1FD0C88BFBCF5E06F3FF6AFAEB5EB030CB8
:402D400004BFB6EB020C5FEA500C50F1000041EB045170BD0EF0004E4EEA113114EB5C04C2BFD4EB0C0541EA045170BD41F480114FF0000E013C90E645EA060E8DE60CEAB8
:402D8000135594EA0C0F08BF95EA0C0F3FF43BAF94EA0C0F0AD150EA01347FF434AF95EA0C0F7FF425AF104619462CE795EA0C0F06D152EA03353FF4FDAE1046194622E731
:402DC00050EA410618BF52EA43067FF4C5AE50EA41047FF40DAF52EA43057FF4EBAE12E74FF0FF3C06E000BF4FF0010C02E000BF4FF0010C4DF804CD4FEA410C7FEA6C5CB4
:402E00004FEA430C18BF7FEA6C5C1BD001B050EA410C0CBF52EA430C91EA030F02BF90EA020F0020704710F1000F91EA030F58BF994208BF90422CBFD8176FEAE37040F0FB
:402E4000010070474FEA410C7FEA6C5C02D150EA013C07D14FEA430C7FEA6C5CD6D152EA033CD3D05DF8040B704700BF8446104662468C461946634600E000BF01B5FFF77C
:402E8000B7FF002848BF10F1000F01BD4DF808EDFFF7F4FF0CBF012000205DF808FB00BF4DF808EDFFF7EAFF34BF012000205DF808FB00BF4DF808EDFFF7E0FF94BF012032
:402EC00000205DF808FB00BF4DF808EDFFF7CEFF94BF012000205DF808FB00BF4DF808EDFFF7C4FF34BF012000205DF808FB00BF4FEA410212F5001215D211D56FF4787305
:402F0000B3EB625212D94FEAC12343F0004343EA505311F0004F23FA02F018BF404270474FF00000704750EA013005D111F0004008BF6FF0004070474FF00000704700BF38
:402F40004FEA4102B2F1E04324BFB3F5001CDCF1FE5C0DD901F0004C4FEAC0024CEA5070B2F1004F40EB830008BF20F00100704711F0804F21D113F13872BCBF01F00040E2
:402F8000704741F480114FEA5252C2F11802C2F1200C10FA0CF320FA02F018BF40F001004FEAC1234FEAD32303FA0CFC40EA0C0023FA02F34FEA4303CCE77FEA625307D12D
:402FC00050EA01331EBF4FF0FE4040F44000704701F0004040F0FE4040F40000704700BF42000ED2B2F1FE4F0BD34FF09E03B3EB126209D44FEA002343F0004323FA02F0F5
:4030000070474FF00000704712F1610F01D1420202D14FF0FF3070474FF00000704700BF014B1868704700BFAC81FF1F0E4B70B51E460E4C0025E41AA410A54204D056F804
:40304000253098470135F8E702F010FA084B094C1E46E41AA4100025A54204D056F8253098470135F8E770BD7854000078540000785400008054000010B5431E0A4491422A
:4030800004D011F8014B03F8014FF8E710BD03460244934202D003F8011BFAE770472DE9F04788B0149F002B1E461299B8BF03F1004327F02007B6BF1E4600232D23462FEC
:4030C0001446109DDDF84CA00B7003D0452F03D1013501E0032300E0022307AA049206AA03928DE828042246334600F071FD472F804602D1119BDB0728D5462F08EB0509B4
:4031000011D198F80030302B0AD10022002320463146FFF7BBFE18B9C5F10105CAF80050DAF8003099440022002320463146FFF7ADFE08B9302202E0CDF81C9006E0079BB7
:40314000994503D9591C07911A70F8E74046079B159AC8EB0303136008B0BDE8F087034673B50029B8BF494203F8022BB4BF2D222B22092942701ADD0DF1070216460A2508
:4031800091FBF5F405FB1411092C01F1300102F8011D2146F4DC3031541E02F8011CB4421A460AD214F8012B03F8012BF7E71A463024214402F8024B5970101A02B070BD43
:4031C0002DE9F04F91B00C46DDF8688016461F46054601F095FA03681846099300F006FC00230E93D8F800300A90073323F0070303F1080294F81890D4F800B0C8F8002004
:40320000D3E90023C4E91223D4F84CA0D4F848802AF000430B934FF0FF32A74B40460B9901F0C2FFA0B94FF0FF32A34B40460B99FFF740FE60B90022002340465146FFF7C2
:403240002FFE10B12D2384F843309C4B9C4A0AE0424653464046514601F0A6FF002800F09281984B984AB9F1470F8CBF90469846032323612BF0040323604FF0000A3DE0F2
:40328000B9F1670F00F08A81B9F1470F00F0868123600193636800210DF13302059002920093424653460691CDF81090CDF80CE02846FFF7F4FE09F0DF03472B804600F0E3
:4032C0008481B9F1650F0D9900F28D8101394A4604F150000D91FFF742FF0E9A82468318012A236100F37C812268D10700F178819DF8333013B12D2384F843300097334620
:403300000FAA2146284600F09FF9013002D14FF0FF3096E123685A0501D4236965E0B9F1650F40F2D580D4E9120100220023FFF7ADFD78B30123654A31462846B847013091
:40334000E5D00E9B0D9A9A420BDB2368D80708D423689B0740F111814FF0000804F1190906E10A9B099A31462846B8470130CED04FF0000804F11A090E9B013B9845E7DA2E
:4033800001234A4631462846B8470130BFD008F10108F1E70D9B002B29DC01234B4A31462846B8470130B2D00D9B23B90E9B13B92368D907CCD50A9B099A31462846B84782
:4033C0000130A4D04FF0000904F11A0A0D9B5B42994509DA0123524631462846B847013095D009F10109F1E70E9B4246A7E00E9AA36D9A42A8BF1A46002A914606DC4FF07A
:40340000000A29EAE97904F11A0B11E01346314642462846B8470130F1D178E701235A4631462846B84701303FF471AF0AF1010AA36DC9EB03029245F0DB08EB03090D9AA8
:403440000E9B9A420FDB2368DA070CD40E9B0D9A9844C9EB08089B1A9845A8BF9846B8F1000F08DC0FE00A9B099A31462846B8470130EBD14BE743464A4631462846B847F7
:4034800001303FF444AF4FF0000928EAE87804F11A0A09E00123524631462846B84701303FF435AF09F101090D9A0E9B9B1AC8EB03039945EEDB4BE7FFFFEF7F0A530000AD
:4034C0000E53000012530000165300001A5300000E9A012A01DCDB0738D50123424631462846B84701303FF412AF0A9B099A31462846B84701303FF40AAFD4E912010022A1
:403500000023FFF7C3FC20B14FF0000804F11A090EE00E9B08F10102013B19E001234A4631462846B84701303FF4F1AE08F101080E9B013B9845F1DB534604F15002314639
:403540002846B84701307FF403AFE0E64246012331462846B8470130EED1D8E601234A4631462846B84701303FF4D1AE08F10108E3680F9A9B1A9845F0DBE0680F9B9842EA
:40358000B8BF18465DE062680EA8531C0DF1340E4BF480637FF474AE062201E012B90122626075E6002106910DF133018DE80C00236005904246CDF81090CDF80CE002914B
:4035C00053462846FFF76BFD80460D9BD81C02DB626893421DDDA9F102095FFA89F970E60133236184E6B9F1660F14D10029636807DD216113B92268D2071DD501330B4494
:4036000019E013B92268D00701D5023313E0012311E04FF067090D9B0E9A934205DB22682361D10708D5013305E0002BD4BFC3F102030123134423610D9B4FF0000AA36552
:4036400056E611B0BDE8F08F2DE9F04791461F460A698B6806469342B8BF1346C9F8003091F843200C46DDF8208012B10133C9F800302368990642BFD9F800300233C9F89B
:403680000030256815F0060510D104F1190A07E00123524639463046C04701301AD00135E368D9F800209B1A9D42F1DB94F843302268003318BF012392060FD5E11830203C
:4036C00081F843005A1C94F845102244023382F8431003E04FF0FF30BDE8F08704F1430239463046C0470130F4D02268D9F80050E36802F00602042A08BF5D1B2269A368C4
:403700000CBF25EAE57500259342C4BF9B1AED184FF000091A344D4509D00123224639463046C0470130D5D009F10109F3E70020BDE8F0872DE9F04317460A7E85B06E2AAA
:40374000984606460C460C9B01F1430E00F0AE8011D8632A22D009D8002A00F0BB80582A40F0CA8081F84520834955E0642A1ED0692A1CD0C0E0732A00F0B08009D86F2A7A
:403780002ED0702A40F0B8800A6842F020020A603EE0752A24D0782A3AD0ADE01A6801F14205111D1960136884F84230A8E021681A6811F0800F02D0111D196008E011F09F
:4037C000400F02F10401196002D0B2F9003000E01368002B3CDA2D225B4284F8432037E021681A6811F0800F02D0111D196007E011F0400F02F10401196001D0138800E0D6
:403800001368227E5C496F2A14BF0A2208221BE078225A4984F845202268186812F0800F00F104051D6003D1550601D5038800E00368D00744BF42F0200222601BB92268F2
:4038400022F0200222601022002084F8430001E049490A226568002DA56008DB206820F0040020602BB9002D7DD175460CE0002B79D07546B3FBF2F002FB1033CB5C05F8BB
:40388000013D03460028F5D1082A0BD12368DA0708D5236962689A42DEBF302305F8013C05F1FF35C5EB0E0323612EE008681A6810F0800F496903D0101D1860136808E055
:4038C00010F0400F02F104001860136801D0198000E0196000232361754616E01A68111D1960156800216268284600F015FF08B1401B6060636804E004F1420584F84220D4
:4039000001232361002384F84330CDF800803B4603AA21463046FFF797FE013002D14FF0FF3026E023692A4639463046C0470130F5D023689B0710D5002504F1190907E057
:4039400001234A4639463046C0470130E7D00135E368039A9B1A9D42F2DBE068039B9842B8BF184605E00B7804F1420584F842308AE705B0BDE8F0831C5300002D530000DC
:403980000EB400B54FF402719CB0ADF814106FF00041049107914FF6FF711DAB02900690084853F8042BADF81610006802A9019301F0A8FA029B00221A701CB05DF804EB2B
:4039C00003B07047AC81FF1F10F8012B11F8013B012A28BF9A42F7D0D01A7047034611F8012B03F8012B002AF9D17047034613F8012B002AFBD1181A01387047174B2DE9E3
:403A0000F0411D680646AC6D0F46FCB9502000F07BFEA8658460AB6D046044601C61DC60AB6D9C615C61AB6DDC629C62AB6D5C631C63AB6DDC639C63AB6D5C641C64AB6D7C
:403A4000DC649C64AB6D1C77AB6D5C62AA6D39463046BDE8F041012300F002B8AC81FF1FF0B548B9106838B9F0BD17F8016B5EB1B542FAD12BB1204604460F4614F8015B39
:403A8000F3E714600370F0BD4DB915602846F0BD17F8016BB54207D0002EF9D11C4623460F4613F8015BF3E715B10021217000E02B461360F0BD2DE9F74F03690C69804674
:403AC0009C427FDC013C01F114074FEA840E00F1140606EB0E0357F82450019356F824300135B3FBF5F507EB0E09C5B34FF0000A3846B446D34650F8043B9AB205FB02A2D2
:403B00001B0C4FEA124A05FB03A392B2C2EB0B0BBCF800204FEA134A5A441FFA83FBDCF800308145CBEB134303EB224392B242EA03424FEA234B4CF8042BDCD256F80E304B
:403B40006BB9019B043B9E421A4602D3C8F8104005E01268043B002AF8D1013CF3E7404600F0F5FF00282BDB304601354FF0000E57F8042B036891B2C1EB0E0E120C99B28B
:403B80007144C2EB134303EB214389B24FEA234EB94541EA034340F8043BE9D256F8242006EB840362B9043B9E421A4602D3C8F8104005E01268043B002AF8D1013CF3E744
:403BC000284600E0002003B0BDE8F08F000000002DE9F04F456A95B08246219CCDE9022345B9102000F090FDCAF82400456085600560C560DAF82430196859B15A6801239B
:403C000093404A608B60504600F0C9FDDAF8243000221A60039BA04A002BBDBF01232360039B0023BCBF23F000430393DDF80C80A8BF236028F000431B0D1B0593421DD15F
:403C400042F20F73209A1360029B43B9934A944BC8F31300002814BF1846104600E09048229B002B00F04685C37813B100F1080300E0C31C229A136000F03CBDDDE9024555
:403C80000022002320462946FFF700F9074658B1209A01231360229B002B00F01E8581481860013800F026BD12AB019313AB009322462B46504600F0C5FFC8F30A56049018
:403CC00056B1C5F3130343F07F51204641F44011A6F2FF3611971DE0139B129E1E4406F23243202B0ADD029A06F21240C3F1400322FA00F008FA03F3184304E0C3F120003B
:403D0000029B03FA00F0FEF7E3FD0123A1F1F871013E11930022644BFEF79CFC58A3D3E90023FEF74BFE58A3D3E90023FEF794FC044630460D46FEF7DBFD55A3D3E9002396
:403D4000FEF73CFE02460B4620462946FEF784FC04460D46FFF7CCF800228346002320462946FFF79DF858B15846FEF7C1FD02460B4620462946FFF789F808B90BF1FF3B36
:403D8000BBF1160F0DD8DDE90223484901EBCB01D1E90001FFF7A2F830B10BF1FF3B002300E00123109300E01090129B9E1B731E079343BFC3F10008002307934FF000081A
:403DC000BBF1000F06DB079BCDF82CB05B440793002705E00023CBEB0808CBF100070B931E9B092B28D8052BC4BF043B1E931E9BC8BF0025A3F10203D8BF0125032B20D8E4
:403E0000DFE803F0060E0204012302E0012308E000230A931F9B002B1DDD9946059321E000230A931F9B0BEB030909F10103012B0593B8BF012315E0012500231E930A951E
:403E400001E001230A934FF0FF390022CDF8149012231F9206E04FF001094B46CDF81490CDF87C90DAF8244000226260042101F114029A421CD86268490001326260F6E7C2
:403E800061436F63A787D23FB3C8608B288AC63FFB799F501344D33F0000F07F3E530000475300001B5300000000F83F585300006168504600F03EFCDAF8243020601B68C8
:403EC0000693059B0E2B00F25B81002D00F05881DDE90234BBF1000FCDE90E3430DD9F4A0BF00F034FEA2B1502EBC303E80618CBCDE908340CD5DDE90E01994B05F00F0548
:403F0000D3E90823FEF784FE0324CDE9020100E00224934E6DB1E90708D5DDE90801D6E90023FEF74BFDCDE9080101346D100836F0E7DDE90823DDE90201FEF769FE20E0E7
:403F4000CBF1000505B3DDE90E01844B05F00F0203EBC203D3E90023FEF730FDCDE902017F4E2D110023022455B1EA0705D5D6E90023FEF723FD013401236D100836F3E7A7
:403F80001BB1CDE9020100E00224109BE3B1DDE902560022734B28463146FEF781FF98B1059B8BB1B9F1000F40F3E6800BF1FF330893314600226C4B2846FEF7FFFC0134BC
:403FC000CDE902014E4602E0059ECDF820B02046FEF78EFCDDE90223FEF7F0FC634B0022FEF73AFBA1F1507304460C931D46D6B9DDE9020100225E4BFEF72CFB22460C9BC0
:40400000CDE90201FEF76AFF002840F03F820C99224601F10043DDE90201FEF741FF002840F02B82A8E00A9A4C4B711E002A49D003EBC103D3E9002300204E49FEF7E8FD54
:4040400022462B46FEF706FBCDE90C01069CDDE90201FEF74DFF0546FEF74AFC02460B46DDE90201FEF7F6FADDE90C23303504F8015BCDE90201FEF713FF002840F01D83CB
:40408000DDE9022300203749FEF7E4FADDE90C23FEF706FF002840F0D180069BE31AB3426ADADDE90C0100222F4BFEF787FC0022CDE90C01DDE902012B4BFEF77FFCCDE902
:4040C0000201C4E703EBC1012246D1E900012B46FEF774FC069BCDE90C011D469C19DDE90201FEF705FF0646FEF702FC02460B46DDE90201FEF7AEFA303605F8016BAC4230
:40410000CDE902014FF0000222D11A4BDDE90C01FEF7A2FA02460B46DDE90201FEF7DEFE002840F08B80DDE90C2300201149FEF791FA02460B46DDE90201FEF7B1FED8B1B5
:4041400014F8013C621E302B40F0B7821446F7E7054BFEF733FCCDE90201C0E758530000305400000000F03F0000244000001C40000014400000E03FDDE90E34CDE9023421
:40418000139B002B7CDBBBF10E0F79DCAB4B03EBCB03D3E900671F9B002B14DA059B002B11DC40F06C810022A54B30463946FEF705FCDDE90223FEF787FE059D2E46002894
:4041C00040F05F8165E1069CDDE9028932463B4640464946FEF71CFDFEF78AFE0546FEF787FB32463B46FEF7E9FB0B46024649464046FEF72FFA05F1300E069B04F801EBC0
:40420000C3EB040E059B73452DD102460B46FEF723FA8046894602460B4630463946FEF73FFE78B942464B4630463946FEF72EFE002800F04482EB0704D440E2DDF820B099
:4042400000E01C4614F8012C631E392A07D1069A9A42F6D1069930220BF1010B0A701A7801321A702BE20022764BFEF7A7FB0022002380468946FEF709FE0028A6D01EE207
:404280000A9A002A2BD01E9A012A0ADC119A12B103F2334302E0129BC3F136033D46444613E0059B5D1EAF42BFBF0B9BEA1B9B180B93059BB6BF2F467D1B0025002BA7BFB9
:4042C0004446059BC3EB08040023079A01211A4450469844079200F001FB064602E03D4644460A9E5CB1079B002B08DDA342A8BF2346079AC3EB0808E41AD31A0793002F35
:404300001DDD0A9BABB18DB131462A46504600F07FFB049A01460646504600F0E8FA04990890504600F03BFA089B04937A1B06D000E03A460499504600F06AFB0490012191
:40434000504600F0CBFA0B9B05465BB31A460146504600F05DFB1E9B0546012B18DC029B83B9039BC3F3130373B9039B23F000473F0D3F054FB1079B08F1010801330793E1
:40438000012702E0002700E0029F0B9B73B100E000272B6905EB8303186900F052FAC0F1200004E01E9B012BD9DD0B9F0120079B184410F01F0008D0C0F12003042B02DDC1
:4043C000C0F11C0002E006D018461C30079B8044034404440793B8F1000F05DD42460499504600F063FB0490079B002B05DD29461A46504600F05AFB0546109B23B3294634
:40440000049800F0A4FB00281EDA00230A220499504600F0DBF90A9B0BF1FF3B0490002B00F05F81314600230A22504600F0CEF9B9F1000F06463FDC3BE000BF58530000C9
:404440000000144000002440059B002B2BDC1E9B022B28DDDDF81490B9F1000F11D129464B460522504600F0B1F901460546049800F06DFB00280CDC03E0354600E0002563
:404480002E461F9B069C6FEA030B09E03546DDF820B0069B069A5C1C312313700BF1010B05960026F7E00A9BDDF8149023B9069CB2E01E9B022BCFDC002C05DD31462246E0
:4044C000504600F0F3FA06469FB17168504600F031F90446326906F10C01023292000C30FEF7CAFD01222146504600F0DFFA059000E00596029B069F03F001030793294642
:404500000498FFF7D8FA3146044600F13008049800F01DFB059A02902946504600F033FBC36802463BB901460A90049800F00FFB0A9A034600E00123114650460A9300F0EC
:404540002EF90A9B53B91E9A42B9079A32B9B8F1390F2AD0029B002B1CDC1DE0029A002A04DB1BD11E9ACAB9079ABAB9002B13DD01220499504600F099FA2946049000F0B5
:40458000E6FA002803DC07D118F0010F04D0B8F1390F0AD004F131087C1C0CE0002B07F101040BDDB8F1390F03D139233B70013756E008F1010887F800806CE0069B27462E
:4045C000E31A4B4504F8018C3BD000230A220499504600F0FBF8059B04909E424FF00A024FF000033146504604D100F0EFF80646059084E700F0EAF8002306460A22059984
:40460000504600F0E3F8059079E700230A220499504600F0DBF8049029460498FFF74BFA069B00F1300804F8018BE31A4B45ECDB069B0596B9F1010FACBF4B4401331F46D6
:40464000002601220499504600F030FA2946049000F07DFA002803DC15D118F0010F12D03C4614F8013C621E392B09D1069B934204D10BF1010B3123069A02E01446F0E770
:404680000133137007E03C4614F8013C621E302B01D11446F8E72946504600F080F8059B6BB12EB19E4203D03146504600F077F80599504600F073F801E0DDF820B00499D2
:4046C000504600F06CF80023209A23700BF101031360229B1BB11C6001E008480AE0069808E0B9F1000F3FF7E2AE1E9B022B7FF7DEAEB1E615B0BDE8F08F00BF1A53000034
:4047000000487047B081FF1F024B0146186800F041BB00BFAC81FF1F10B5C9B202449042034605D01C7801308C42F8D1184610BD002010BD70B5456A04460E463DB910209F
:40474000FFF7E2FF6062456085600560C560656AEB6843B1636ADB6853F8260078B1026843F8262017E021220421204600F0B8FA636AE860DB68002BECD1002070BD0121CB
:4047800001FA06F56A1D9200204600F0A9FA0028F3D04660856000230361C36070BD70B5446A06460D463CB91020FFF7ADFF7062446084600460C4603DB1736A6A68DB68A9
:4047C00053F82210296043F8225070BD2DE9F04106460C460D691F4601F1140E0023DEF80000013381B202FB0171000C0F0C02FB007089B201EB00419D424FEA10474EF885
:40480000041BECDCD7B1A3689D4212DB616830460131FFF78FFF8046226904F10C01023292000C30FEF728FC21463046FFF7B7FF444604EB850301355F6125612046BDE8BE
:40484000F081030C1B0413B90004102300E0002310F07F4F04BF0002083310F0704F04BF0001043310F0404F04BF80000233002803DB420003D5581C704718467047202064
:404880007047036813F007020BD0D90722D49A074BBF5B089B08036003604CBF01200220704799B209B91B0C102213F0FF0F04BF1B0A0832190704BF1B090432990704BF64
:4048C0009B080232D90702D45B0805D00132036010467047002070472020704710B50C460121FFF727FF01224461026110BD2DE9F74F14460A69236988469A42BEBF0B4608
:40490000A0461C46D8F81070D4F81090D8F80830D8F8041007EB09069E42C8BF0131FFF709FF00F114052B4605EB860C0022634502D243F8042BFAE704F1140208F11401F0
:4049400002EB890301EB87070093009B0192934257D9B2F800B0BBF1000F23D08946AE464FF0000859F8044BBEF800A0A3B20BFB03A34FEA144ADEF8004043444FEA1448AC
:404980000BFB0A84F24604EB13449BB243EA04434F454FEA14484AF8043B01D9D646E1E7CEF80480019B0432B3F802A0BAF1000F21D02C4689462B684FF00008B9F800E0FC
:4049C000B4F802B09BB20AFB0EBEA346F04443EA08434BF8043B59F8043BB4F804E01B0C0AFB03E34F4503EB18434FEA134801D95C46E3E763600435A7E75CF8043D13B950
:404A0000013E002EF9DC066103B0BDE8F08F00002DE9F843154612F0030206460F4607D0214C013A002354F82220FFF7CFFE0746AD1036D0746A3CB91020FFF765FE706271
:404A4000446084600460C460D6F82480D8F808404CB940F271213046FFF740FF04460023C8F8080003604FF00008EB070AD5394622463046FFF73BFF814639463046FFF739
:404A80008EFE4F466D100CD0206808B10446ECE7224621463046FFF72AFF2060C0F80080F4E73846BDE8F883205400002DE9F0470C460746914626694FEA621A56444968C3
:404AC000A368751CAB4202DA01315B00FAE73846FFF730FE002380461A4600F11401534503DA41F823200133F9E72AEAEA73206901EB830319F01F0904F1140101EB800ECC
:404B000014D0C9F1200C002208689A4600FA09F0024343F8042B51F8042B8E4522FA0CF2F2D8CAF8042042B1B51C06E0043B51F8042B8E4543F8042FF9D8013D3846C8F893
:404B400010502146FFF72BFE4046BDE8F08703690A6910B59B1A11D192001430143183180A4453F8044D52F8041D8C4202D007D3012010BD9842F4D3002010BD184610BD46
:404B80004FF0FF3010BD2DE9F8430C460746114620461546FFF7DBFF061E08D131463846FFF7C8FD012303614661BDE8F883BCBF23462C4638466168BABF1D460126002620
:404BC000FFF7B8FD2B69C660266905F1140904F1140101EB860709EB830800F114054FF0000C51F8042B59F8044B93B29C44A3B2240CC3EB0C03C4EB124202EB23429BB236
:404C00004FEA224CC84543EA02428E4645F8042BE7D8BE450ED25EF8041B8AB26244131403EB114392B242EA03424FEA234C45F8042BEEE755F8043D0BB9013EFAE7066136
:404C4000BDE8F8832DE9F3411C4601219046089E099DFFF76FFDC4F31302C4F30A5407460CB142F480120192B8F1000F19D002A840F8088DFFF705FE009B48B1019AC0F18B
:404C8000200102FA01F10B43C2407B61019200E07B61019B002B14BF02210121BB61396107E001A8FFF7EDFD019B01217B613961203034B1A4F2334404443460C0F135002D
:404CC00009E0A0F2324007EB810330601869FFF7B8FDC0EB41102860384602B0BDE8F08138B502FB01F4214600F054F8054618B122460021FEF7CBF9284638BD38B5054658
:404D0000002944D051F8043C0C1F002BB8BFE41800F017FA1E4A1368114613B96360146030E0A3420DD92268A018834201BF18685B681218226063600C6023E0A24203D824
:404D400013465A68002AF9D118681918A1420BD12168014458188242196013D110685268014419605A600DE002D90C232B6009E021686018824201BF1068526809182160E7
:404D800062605C602846BDE8384000F0DBB938BDEC83FF1F70B5CD1C25F0030508350C2D38BF0C25002D064601DBA94202D90C23336046E000F0C5F9234B1C681A462146B1
:404DC000A1B10B685B1B0ED40B2B03D90B60CC18CD501EE08C420BBF63684B681360636018BF0C4615E00C464968E9E7174C23681BB9304600F07AF920602946304600F0ED
:404E000075F9431C18D0C41C24F00304A0420DD12560304600F096F904F10B00231D20F00700C31A0ED05A42E25070BD211A304600F05CF90130EBD10C233360304600F070
:404E400081F9002070BD00BFEC83FF1FE883FF1F2DE9F0478E6882469E420C46914698463ED88A8912F4906F3AD02568096902236F1A656905EB450595FBF3F57B1C434421
:404E80009D4238BF1D4653050FD52946FFF782FF064698B13A462169FEF7EEF8A38923F4906343F08003A38113E02A4600F04BF9064670B921695046FFF720FF0C23CAF8DB
:404EC0000030A3894FF0FF3043F04003A381BDE8F08726613E44266046466561ED1BA560464528BF464649463246206800F00EF9A36800209B1BA36023681E442660BDE8C4
:404F0000F08700002DE9F04F9DB003938B8980461C060D4616460DD50B695BB94021FFF739FF2860286118B90C23C8F80030CDE040236B610023099320238DF82930DFF88A
:404F40009CB130238DF82A3037463C4614F8013B1BB9B7EB060910D003E0252BF9D02746F3E74B46324629464046FFF771FF013000F0A780099B4B4409933B78002B00F07A
:404F8000A08000234FF0FF3204930793059206938DF853301A930126052221784E48FFF7BBFB671C049B38B14B4A3C46801A06FA00F018430490EFE7D90644BF20228DF8E5
:404FC00053201A0744BF2B228DF8532022782A2A03D0079A00210A200BE0039A111D12680391002A10DA524243F00200079204900BE027463B780134303B092B03D800FBA5
:4050000002320121F5E701B107923B782E2B1ED17B782A2B0AD1039B02371A1D1B680392002BB8BF4FF0FF33059310E0002319460593781C0A2407463A780130303A092A6B
:4050400003D804FB01210123F5E703B10591032239782248FFF760FB40B14023CBEB000003FA00F0049B013718430490397806221B487E1C8DF82810FFF74EFB88B1194B2D
:4050800033B9039B073323F007030833039314E003AB00932A46144B04A94046FEF790F807E003AB00932A460F4B04A94046FEF741FBB0F1FF3F824603D0099B53440993E3
:4050C00042E7AB895B0601D4099801E04FF0FF301DB0BDE8F08F00BF585400005E54000062540000C1310000514E000038B5064C0023054608462360FCF77AF9431C02D1C2
:40510000236803B12B6038BD8887FF1F884210B501EB020301D8421E0BE09842FBD28118D21AD34204D013F8014D01F8014DF8E710BD994204D011F8014B02F8014FF8E751
:4051400010BD70477047F8B5074615460E4621B91146BDE8F840FFF71DBE1AB9FFF7CEFD2846F8BD00F015F885420ED929463846FFF710FE044650B131462A46FDF77CFF78
:4051800031463846FFF7BAFD01E03046F8BD2046F8BD51F8040C0028BEBF091851F8043CC0180438704700004FEA410C7FEA6C5C02D150EA013C0AD14FEA430C7FEA6C5C1E
:4051C00002D152EA033C02D14FF0000070474FF0010070470000000046726F6E74206469737420313A20256C6620200A0000000043616C6962726174696E670A000000006E
:4052000048656164696E673A20256C660A0000006D6F76696E6720746F20736C697400007265643A2025640A00000000677265656E3A2025640A0000626C75653A20256443
:405240000A000000766F6C742856293A20256C660A0000006469737428636D293A20256C660A000052656420200A0000477265656E20200A00000000426C756520200A00BB
:4052800041726520796F752072656164793F0000526561647920200A000000005374617274000000737465702032000020000000526563656976656420200A00C8490040A8
:4052C0001900004F00402400405100403000000001400010001401408006001B0140000100400140000A004C01400002005001402000000060520040781100480600801A2A
:4053000001408011004880004300494E4600696E66004E414E006E616E00300030313233343536373839414243444546003031323334353637383961626364656600496E71
:4053400066696E697479004E614E00504F534958002E000000000000000000000000F03F000000000000244000000000000059400000000000408F40000000000088C34016
:4053800000000000006AF8400000000080842E4100000000D01263410000000084D797410000000065CDCD41000000205FA00242000000E876483742000000A2941A6D425E
:4053C000000040E59C30A2420000901EC4BCD64200003426F56B0C430080E03779C3414300A0D8855734764300C84E676DC1AB43003D9160E458E143408CB5781DAF1544AC
:4054000050EFE2D6E41A4B4492D54D06CFF08044F64AE1C7022DB544B49DD9794378EA4405000000190000007D000000000000000080E03779C34143176E05B5B5B8934698
:40544000F5F93FE9034F384D321D30F94877825A3CBF737FDD4F1575232D302B2000686C4C0065666745464700000000F8B500BFF8BC08BC9E4670474D0000006D1400004D
:40548000F8B500BFF8BC08BC9E46704729000000A0540000C880FF1F20010000A80500000000000000000000000000000000144000409C4600409C46010000000000000083
:4054C0009A9999999999B93F9A9999999999154000401C4667020000AC0300000D020000D403000000000000CDCCCCCCCC4C36400000000000A6AC40FFFFFFFF00409C4523
:4055000000409C450000000000000000000014409087FF1F0000E02EC05D00001800000000366E0100000000000000000000000000000000000000000000000000000000D9
:4055400000000000085300000000000000000000000000000000000000000000000000000000000000000000000000000000000000000000000000000000000000000000D0
:40558000000000004C81FF1F515300005D5400005D5400005D5400005D5400005D5400005D5400005D5400005D5400005D540000FFFFFFFFFFFFFFFFFFFFFFFFFFFF000031
:4055C00000000000000000000000000000000000000000000000000000000000000000000000000000000000000000000000000000000000000000000000000000000000AB
:40560000000000000000000000000000000000000000000000000000000000000000000000000000000000000000000000000000000000000000000000000000000000006A
:40564000000000000000000000000000000000000000000000000000000000000000000000000000000000000000000000000000000000000000000000000000000000002A
:4056800000000000000000000000000000000000000000000000000000000000000000000000000000000000000000000000000000000000000000000000000000000000EA
:020000040003F7
:0200000480007A
:40000000064F00400252004006640040066500405B00014038010140730201404A0301405B0401405705014047060140490701406308014055090140670A01404D0B0140F6
:40004000620C0140500D0140640E0140350F01405E1401405A15014044160140521701405E18014054190140231A0140531B0140064001400F410140124201400C43014084
:400080000545014003460140044701400A4801401C490140154C01400E4D01400B5001400351014001400A4B0D40164B1950224B09041801810F840F850F89778A0D8C6F6E
:4000C0008438850F866F870F8872890D0123031C08CC0A210D050F4A107714CC15131612172C1CBB1D751E441F8A2408258026F1277F288029FF2A1F320F330F34F037F005
:40010000580459045C105F0180038177820C84C085CC86108713880A8A058C7090C09220940C95BF9603974098B099CA9A409B259C0FA183A2F0A31CA405A60AA880A90555
:40014000AA10ABFAAC07B3F0B4F0B50FB60FC032C104C9FFCAFFCBFFCDA0CF01D018D403D604D804D904DA04DB04DD10DF05E040E280E440E540E680E840EA80EC40ED2072
:40018000EE80012005200642071008010A110D200E511004110414011515182019201A101B041C041E011F4020102280252026042718280829042C802D112F0830083280D4
:4001C000371839823C043E0247265C905D025F0466017C088121841486408A02C0F2C2FDC4F6CAA6CC6ACEC9D0E0D6F0D880DE40E60205CF060F073008010A100D300FC94F
:40020000130F1455159416AA17601A0F1C041E40200821FD22802302240225732620299E2B602C992E6631FF320F34F03E043F01403241044520464C473E483E49FF4AFF8F
:400240004BFF4DAF4E074F0150185280580459045A045B045C015F016040628064406540668068406A806C406D206E808453860C89018A088C208D088E458F10910C933222
:40028000950297049B019C0A9D129E549F0CA053A204A301A403A520A644A70CA93EB040B13EB230B301B40FB808BA20BE01BF04C004C704C9FFCA07CBFFCC40CD20CEF054
:4002C000CF05D008D804D904DA04DC13DD03DF01E040E1A8E240E32000800328040407080A020D200E120F02125014201540162017011A801B281C041D0C21032204274002
:40030000280829042A012C202D202F403018310232803404370239A03F484040472648404D015304555056045702768080208588870989048B408C809020938095869704AD
:40034000981099219C8D9D069F26A280A304A488AA01B120B404B644B708C067C2E1C4BCCAE7CCCFCE5CD0E1E210E6080120031705040B040D0713301501170219301F080E
:40038000250729012B0231103320370F38203E103F0540214106420349FF4AFF4BFF4F015018540F580459045A045B045D015F016040624064406540668068806A806C80B0
:4003C0006E808104830286018B0190029901A002A504AA04AD04B002B201B304B404B502B701B802B908BF44C021C106C203C5ECC720C823C9FFCAFFCBFFCD83CE03CF011F
:40040000D018D40FD804D904DA04DB04DD01DF01E040E240E440E540E680E880EA80EC80EE80050408080B200E401001120115111A081D121E20235324082640272028102E
:4004400029202C302E442F023004311233403510382039043B813D3141284202452846014A084B204D024E084F045603586059095C025E045F506D406E107C027F4084085A
:400480008C209020910592809388944095C096129704984099A99AA49B409C8C9D029E509F26A040A158A32BA428A520AA01AC61AE04B110B520B601B704C020C210C45094
:4004C000CA56CC2FCEAFD07ED224D6FFE220EE0100200320064007020A400B100C080D480F30124013031409161417031A801B041E021F0820012106241027402804292892
:400500002B502C112E0C2F78330634FF3578370138203F40580459045C115F018031820E8431860687028A0C8E138F039240930197069A089B059C2C9E03A106A240A301C5
:40054000B030B440B60FB707B802BA80BB80BE11D283D804D904DB04DC33DD10DF01008202400329040405010602070808020A020B080C810E1811021450155018401A0A14
:400580001B801C0C1D2020022604271A2B802C902E5433293441358037183A403B083C083D503E223F0244804702680869807101724087408A049008914592909388944063
:4005C00095809602980199A09AA49C849D049E509F04A040A140A258A32BA428A520B204C0FFC2FBC4F8CAF1CCF7CEFAE00CEA800807100412021702190C1C021D181E045E
:400600002114280729182C012F013006331C350236013701390840364101420549FF4AFF4BFF4DA04F015018580459045A045C035D025F016040628064406540668068403F
:400640006A506BA86C406D206E506FA88104870189108D038E0193109B109C019D02A302A70CAA02AB10B108B303B401B510B602B704BB20BDA0BE10C032C101C205C9FFEC
:40068000CAFFCBFFCDAFCE07CF01D018D280D417D804D904DA04DB04DC20DD22DF05E040E280E440E540E680E840EA50EBA8EC40ED20EE50EFA80201042008400A010BC093
:4006C0000E800F01120815501A041B801C401E801F40200821152240251027252A252C802F0A30403102322034803680372839AA3A40400441084202450846024A024E0338
:400700004F2058025A6660026318710279808020848089408D808E209101927394049508968897089A079B089C089DA09E409F01A108A2A0A30CA420A510A608A780AD10EE
:40074000B202C041C291C4C2CAB7CC7DCE0FD05ED238D60ED80EDE08E084E201E880EE0805010A010B010E081502180419011E041F042A022B022F0130043102320133019B
:400780003402350436083E013F0540324101420549FF4AFF4BFF4DAF4E074F015018528054055604580459045A045B045C225D225F056040628064406540668068406A50BB
:4007C0006BA86C406D206E506FA88508870489048B089001930295049708A001A601A701A904AB08B001B30CB501B702BB08BE01C036C101C205C5E2C605C70CC837C9FF06
:40080000CAFFCBFFCDAFCE07CF01D018D804D904DA04DD02DF01E040E280E440E540E680E840EA50EBA8EC40ED20EE50EFA801200201084009600C01111015021704191430
:400840001A511F012128220324022504270829202A802C202F0430403114370939183D28400441084202450846024A024D014E15554056015704580859015A806340728011
:4008800078808B408F0191029402988199019A049B049D809E409F01A2A0A308A504A608A780B001B108B404B680B708C003C213C432CA6CCCCECE66D05ED238D60BD8012B
:4008C000DE08E260E850EE610001020204100518080209020A010D1C100411021518160417041B041E182001210822022310250C29142B082C012E022F0130103101320871
:40090000331C34033502360439203A203E414054410249FF4AFF4BFF4DA04F045018540F580459045A045B045D025F05604062C06440654066C068C06AC06CC06EC08473C4
:400940008CCF8E30903092C994949660989E9A609E0FA4FDA602B0FFBE01C054C102C5D2C701C813C9FFCAFFCBFFCDAFCE0FCF04D018D804DA04DD02DF01E040E2C0E440B2
:40098000E540E6C0E8C0EAC0ECC0EEC0014002010320040205140680082409040A820B880D020F221308174118801D1C1E421F10240427542E802F6431203220350237183C
:4009C0003D483F304080412044804520464049814A204D8052045E4A5F10660867047F2087208B108D049102928293049480982099029A099B089C049F10A102A204A33123
:400A0000A608A780B104B308B420B651C075C2BFC494CAF0CCE0CE70D0A5D218D6F0D860DE40E230E640E840EA10ECC0000102020308040C050E0C180F1010021201130EA7
:400A40001418150217041801190E1A021D0823012414280129022A022B043003311E3301341C38203A024023410449FF4AFF4BFF4DA04F015018580459045A045F016040B3
:400A8000628064406540668068406A806C406D206E80820183018602890490019104930296049B01A101A504B004B304B401B501B602B702B908BE10BF14C023C105C53CC1
:400AC000C620C74EC83BC9FFCAFFCBFFCDAFCE07CF01D018D280D804D904DA04DB04DF01E040E280E440E540E680E840EA80EC40ED20EE80020103A00502071008080AA8FC
:400B00000E800F20120813081A801B201D021E081F402101220524042518264028082B802F6030043241332035023710388039083A013C023F204004410945184D024E01FA
:400B40004F0456085711740185018B20C03DC23EC406CAC5CCAFCEABD067D210E280020109040B0A0D0119081A021B041D041F08260429042B082E04300233013401350C82
:400B8000360437023B203F044060410249FF4AFF4BFF4DA04F04501854185604580459045A045B045D305F01604062C06440654066C068C06AC06CC06EC082018304860127
:400BC00087028C02920294019702A604AA04AF01B002B201B301B404B502B704BE04BF10C030C102C5D0C650C712C83AC9FFCAFFCBFFCDAFCE0FCF04D018D280D407D8048F
:400C0000D904DA04DB04DF01E040E2C0E440E540E6C0E8C0EAC0ECC0EEC0010105040742080409100A200C020E201002110816201710180219101A041B011C041E401F0854
:400C40002180221425042604271A29102E8031803210360438903E0A4208430C450446084A044D025402562A57105A015D025E405F28604061406308774080808101830490
:400C800085408605880289018C5490809402960899049A809B209C869F04A110A210A501A711A801B140B305B504B740C0B8C232C465CA14CC4CCECCD064D204D6F1D80DD7
:400CC000E002E248E480E64DEA05EC04EE80040408280A100B020E01103811021501160218181C301E0822042410262028302E082F013004323833023401350136023E0158
:400D00003F10540F580459045B045F05800C82118410860C88098A108E0398109C1C9E02A301A814AF01B01FB501C024C105C6CEC70BC81CC9FFCAFFCBFFCEF0CF44D00CF3
:400D4000D401D804D904DA04DB04DC93DD33DF01E6C0EA40EB0200420328040805A106400A020B080C200D400F60120814041505174018401D041E0A1F0122202728288201
:400D80002D802F02360539803B803F20432144104610480150405258581059015A885E805F19660467077E02804082208501871090089105928293C899209A849B019C0633
:400DC0009D049E109F04A021A150A252A32AA501ACA0AE0AAF40B204B510C0EFC2F3C4F2CA19CCC0CE20D005D208D6FFD860DE10E040E414EA02EC60EE02011002010402FF
:400E0000050809180C020F03111C1301140215071718191F1A0121042402251C27022B043401351F36023A083B203E50401549FF4AFF4BFF4F01501856025713580459043C
:400E40005A045B045C335D395F016040624064406540668068806A806C806E8080038301840888018C088E3492189602A410A604AA20AC03B004B220B301B403B618B820F1
:400E8000BC80BE11C015C9FFCAFFCBFFCD83CE03CF01D018D401D804D904DA04DB04DC02DD99DF01E040E240E440E540E680E880EA80EC80EE80001A01A10240048905086A
:400EC000070109020A100C080E200F04122515041704181419801A081B111E221F20220827042D042E012F0835083610370139023E2A3F40434047404A024E0259465E0205
:400F00006C106D506E087480762A79018210850188088B01904092109340942495509608970999409A059C089DA09E40A004A102A220A608A710AC80AF20B101B310B706CE
:400F4000C0BFC26CC427CAE0CCE0CEF1D018D218D68BDE01E040E410E602EC40EE100B0114012E022F013002340137013E103F40401445EC4720482349FF4AFF4BFF4D839D
:400F80004E034F015018580459045A045B045D095F016040624064406540668068806A806C806E800440050107180A200C400E090F011001151518041A801D611F08228091
:400FC000248925012608270929402C802D842E2034403501361037183A103C403D033E08410143404520470949064C084D804F44510152025610680177408004828083402F
:4010000084018608872089018A018E4090409114922093409489960197059A289D069F40A088A214A320A401A602A708B304C0F0C2C4C471CAF8CCF0CED4D0E9D230E00407
:40104000E230E880EA05EC04EE803240330234823940CCF0CE100E0863028204850886408E40954096809C82AB02C280D640E050E420EA20038006403E1059085D0860206E
:401080008780880295409C829E40A508A701C030CE20D6C0D840E4101B011F028302954096109C80A508A701B020B108C630E020001003808E01C00AE208A380A601A81074
:4010C00082208301A601AF8080808E808F04954096509C80A508B108B640E68007080A400D0812801704562074027B028B088D408E20954096409F04A002A302A508A680C0
:40110000AA10AB02B002C080C230C430D440DC80DE20EAA00B010C10132816401E025A207B807D2084108D108F8097019A20A601C203C40EC601D401DE03E002E4081080E2
:4011400072207402800288809A20AA10AB28B240C408DC01DE04E601EE01000F080B0A0B0C0D0E05100D11011A091B011C0D1D0100FF010303C0000082A000004300000000
:40118000040F19F04004000040000000102206000033000000F3000C1CFF00000811260000084000008C40731C0C0000000000F31C4C2030030F408C8000002200001000E1
:4011C00035060400020CE00009FFFFFF62A0F0410C008000000000000404040433930001000000000000400200103010001010120000000000000000000000000000000062
:40120000803C3C0020000000830048A4A700A300000000000002020000000000C03F3F000400000005F8F800000000008000388707000100400000000E00180100000000F4
:40124000000000000000000000000000000000000000000000000000000000000000000000000000000000000000000000000000000000000000000000000000000000006E
:40128000000000000000000000000000000000000000000000000000000000000000000000000000000000000000000000000000000000000000000000000000000000002E
:4012C00000000000000000000000000000000000000000000000000000000000000000000000000000000000000000000000000000000000000000000000000000000000EE
:4013000000000000000000000000000000000000000000000000000000000000000000000000000000000000000000000000000000000000000000000000000000000000AD
:0200000490006A
:0400000000004005B7
:0200000490105A
:04000000BC90ACAF55
:0200000490303A
:02000000AF252A
:0200000490402A
:4000000000000000000000000000000000000000000000000000000000000000000000000000000000000000000000000000000000000000000000000000000000000000C0
:400040000000000000000000000000000000000000000000000000000000000000000000000000000000000000000000000000000000000000000000000000000000000080
:400080000000000000000000000000000000000000000000000000000000000000000000000000000000000000000000000000000000000000000000000000000000000040
:4000C0000000000000000000000000000000000000000000000000000000000000000000000000000000000000000000000000000000000000000000000000000000000000
:0200000490501A
:0C00000000012E16106900012E3DBF8E7D
:00000001FF