:400000000080002011000000810D0000810D000008B5044B1A6803F53F5302331A6000F0CFFE00BFFA46004010B5054C237833B9044B13B10448AFF300800123237010BD8E
:40004000C081FF1F00000000C44C0000084B10B51BB108490848AFF300800848036803B910BD074B002BFBD0BDE81040184700BF00000000C481FF1FC44C0000C880FF1FF2
:400080000000000008B501F0E1FC0122014B1A6008BD00BFE081FF1FF8B5164B5B68012B27D1144CA0680028B8BF4042E368002BB8BF5B42C01A02F07FF8C4E904010E4D71
:4000C000D5E9002302F0DEF806460F46A86802F085F832463B4601F023FF02F00DFBE86002F0DEFC80B201F08DF9D4E90423C4E90623F8BDE081FF1FD080FF1F38B501F03A
:400100006BFA01F081FA144B1880C0F57F43FF33124880FB03201844DB17C3EB601002F0F5FB0F4C206002F059F80E4D02460B460D49284603F084F9284600F0DFFF0B4932
:40014000206802F08FFC18B10122094B1A6238BD0022074B1A6238BDC482FF1F09CB3D8DD082FF1FB082FF1FC84C000000002041E081FF1F38B501F035FB01F04BFB134C8A
:40018000A084C0F57F43FF33114880FB03201844DB17C3EB601002F0B9FBA06202F01EF80C4D02460B460C49284603F049F9284600F0A4FF0949A06A02F054FC10B10022F3
:4001C000E26238BD0122014BDA6238BDE081FF1F09CB3D8DB082FF1FDC4C00000000204110B50024074B5C60204600F043FE204600F04CFE204601F063F8204601F06CF895
:4002000010BD00BFE081FF1F10B50124074B5C60002000F02FFE204600F038FE002001F04FF8204601F058F810BD00BFE081FF1F10B50124074B5C60204600F01BFE002061
:4002400000F024FE204601F03BF8002001F044F810BD00BFE081FF1F10B50124074B5C60002000F007FE204600F010FE204601F027F8002001F030F810BD00BFE081FF1F5F
:4002800010B50124074B5C60204600F0F3FD002000F0FCFD002001F013F8204601F01CF810BD00BFE081FF1F08B5002000F022FE002000F04BFF024B00229A60DA6008BDB6
:4002C000E081FF1F0000000070B50E4601F074FF3F4BD3E90C2301F0D5FF02F0E5F905460DE000F0FFFD3A4CA06000F027FFE060012E02D1FFF788FF01E0FFF799FF344B2B
:400300009B68002BB8BF5B429D4206DB304BDB68002BB8BF5B429D42E3DAFFF761FF00F0E1FD044600F00AFF204400EBD070401001F042FF04460D4621A3D3E900232549FC
:40034000D1E9040101F09EFF1FA3D3E9002302F0C3F802460B462046294601F093FF1C4B9B6B3BB91A4CD4E9102301F0D9FDC4E9100120E0012B07D1154CD4E9122301F06D
:40038000CFFDC4E9120116E0022B09D1104C02460B46D4E9100101F0C1FDC4E910010AE0032B08D10A4C02460B46D4E9120101F0B5FDC4E91201FFF777FF70BDAFF30080B6
:4003C000182D4454FB2109400000000000A6AC40E081FF1FD080FF1F38B512E0FFF714FF322000F05FFD08E0012001F08BFC0A2000F06EFD002001F085FC01F0FFFA00280C
:40040000F2D02F4B1B6A002BE8D0FFF7E9FE00F069FD044600F092FE204400EBD070401001F0CAFE04460D4621A3D3E900232549D1E9040101F026FF1FA3D3E9002302F06D
:400440004BF802460B462046294601F01BFF1C4B9B6B3BB91A4CD4E9102301F061FDC4E9100120E0012B07D1154CD4E9122301F057FDC4E9120116E0022B09D1104C0246FF
:400480000B46D4E9100101F049FDC4E910010AE0032B08D10A4C02460B46D4E9120101F03DFDC4E91201FFF7FFFE38BDAFF30080182D4454FB2109400000000000A6AC40AF
:4004C000E081FF1FD080FF1F38B512E0FFF79CFE322000F0E7FC08E0012001F0E9F90A2000F0F6FC002001F0E3F901F0EDF90028F2D02F4BDB6A002BE8D0FFF771FE00F0EE
:40050000F1FC044600F01AFE204400EBD070401001F052FE04460D4621A3D3E900232549D1E9040101F0AEFE1FA3D3E9002301F0D3FF02460B462046294601F0A3FE1C4B87
:400540009B6B3BB91A4CD4E9102301F0E9FCC4E9100120E0012B07D1154CD4E9122301F0DFFCC4E9120116E0022B09D1104C02460B46D4E9100101F0D1FCC4E910010AE08E
:40058000032B08D10A4C02460B46D4E9120101F0C5FCC4E91201FFF787FE38BDAFF30080182D4454FB2109400000000000A6AC40E081FF1FD080FF1F38B501E0FFF724FECA
:4005C00001F076FB0028F9D0FFF70AFE00F08AFC044600F0B3FD204400EBD070401001F0EBFD04460D4622A3D3E900232449D1E9040101F047FE20A3D3E9002301F06CFFF1
:4006000002460B462046294601F03CFE1D4B9B6B3BB91C4CD4E9102301F082FCC4E9100120E0012B07D1174CD4E9122301F078FCC4E9120116E0022B09D1124C02460B46C8
:40064000D4E9100101F06AFCC4E910010AE0032B08D10C4C02460B46D4E9120101F05EFCC4E91201FFF720FE38BD00BFAFF30080182D4454FB2109400000000000A6AC401C
:40068000D080FF1FE081FF1F70B505460E460DE000F028FC1B4CA06000F050FDE060012E02D1FFF7EDFD01E0FFF7D6FD154B9B68002BB8BF5B42AB4206DC124BDB68002BDC
:4006C000B8BF5B429D42E3DAFFF78AFD012E0BD10C4B9B6B032B03D100220A4B9A630DE00133084A936309E0064B9B6B1BB90322044B9A6302E0013B024A9363FFF7D4FDDA
:4007000070BD00BFE081FF1FF8B5012001F0C4FA0024464B1C60204601F09AFA204601F0AFFA142000F0BEFB012001F07FFA012000F0B8FB204601F079FA3C4B1B68002B8A
:40074000FBD001F0F3F90446394D02463949284602F076FE284600F0D1FC0025334B1D60284601F075FA012001F08AFA142000F099FB012001F05AFA012000F093FB284689
:4007800001F054FA294B1B68002BFBD001F0CEF90646274D02462849284602F051FE284600F0ACFC0025214B1D60012001F050FA012001F065FA142000F074FB012001F0A7
:4007C00035FA012000F06EFB284601F02FFA174B1B68002BFBD001F0A9F90546144F02461649384602F02CFE384600F087FCAC4206DDB44204DD01200C4B186501F06AFA88
:40080000AC4207DAAE4205DA0222084B1A65012001F054FAB44207DAAE4205DD0322034B1A65012001F062FAF8BD00BFE081FF1FB082FF1F084D0000144D0000204D000055
:400840002DE9F84F62B6DFF874A293A3D3E90023DAE9040101F016FD04460D46DFF858B2CBE916458CA3D3E90023DAE9060101F009FD00228A4B01F005FD06460F46CBE99A
:400880001867DAE9088922462B464046494601F023FECBE90C0142464B463046394601F0F1FC22462B4601F017FE00227D4B01F035FBCBE91A017C4800F072FE7B4801F027
:4008C000A7F900F045FE00F0DFFE00F06FFF00F0E1FF01F085F8764800F0FEFE754801F015F801F0FBF801F06BF900F063FD00F0D1FD01F075FA01F0E3FA00F029FB0020AE
:4009000000F0F8FA00F050FC002000F01FFC00F0DBFB012001F0A8F9012001F08DF9002001F0BAF9DAF8080002F0BAF880B200F0F9FCDAF8080002F0B3F880B200F062FD0C
:400940004FF4FA6000F0AEFA17E001211E20FFF7BBFC594CD4E91A0101F0A6FE0021FFF793FEFFF739FDD4E91A0101F09DFE0121FFF78AFE236F013323674F4B1B6F002BB5
:40098000E3D04FF4FA7000F08DFA0CE0FFF724FD494CD4E91A0101F087FE0121FFF774FE236F01332367444B1B6F012BEED04FF4FA7000F077FA10E0FFF786FD01210820DC
:4009C000FFF782FC3C4CD4E91A0101F06DFE0021FFF75AFE236F01332367374B1B6F022BEAD04FF4FA7000F05DFA05E0FFF7E4FD314A136F013313672F4B1B6F032BF5D0C3
:400A00004FF4FA7000F04EFA18E0FFF77DFE2A4B1B6D012B03D1012001F05CF90AE0022B03D1012001F04AF904E0032B02D1012001F05CF9204A136F013313671E4B1B6FEB
:400A4000042BE2D04FF4FA7000F02CFA19E001211120FFF739FC194C208D01F0E9F94FF4FA7000F01FFAA08D01F072F94FF4FA7000F018FA208E01F0DBF90F4A136F013306
:400A800013670D4B1B6F052BE1D04FF4FA7000F009FA0020BDE8F88F182D4454FB2109400000D03F00407F409900000085000000FD00000075010000E081FF1FD080FF1F3F
:400AC000FEE700BFF0B40022174611E050F82760F3B226F0FF0608E001EB420511F812406D78A5550132013BDBB2002BF4D10137292FEBD9F0BC7047064B1B78DBB203F053
:400B00000701054A11701B09013213704422034B1A707047CF0100496E5800407658004008B50A46002102F012F808BD38B517222F4B1A8018232F490B7002310A8002319A
:400B40000B7002310A802C4A137033210232118002321370EF21023211800232137040F2DF1102321180023213700222234B1A7008224FF040231A70032103F500731970C0
:400B80001F4B1B78DBB21F490B701F4B1A8041F25122023B1A80002419250CE01B4B1B7803F0010343EA440404F003044FF4F07001F096F9013D0DB1032CEFD115B903209A
:400BC000FFF77EFF124B4FF480721A8007221A70002210490A704820023108701A700222033B1A700C4A137843F03F03137038BD80400040824000408A40004000430040C8
:400C000008010049A146004022420040254200400440004006400040A243004008B501F08BFF08BD38B572B6414A137843F00403137000240CE03F4D630019194A0011460A
:400C40002A44084691882858FFF76AFF0134E4B2072CF0D900240BE03648A20011194B0003441A8F596B186BFFF7D8FF0134E4B2012CF1D930494FF09040FFF723FF2F4B75
:400C80002F4A136002F5C072136003F1804302F52072136002F5B062136002F52862136002F564522B32137843F0020313701032137843F002031370224C237843F0400332
:400CC0002370A2F58632513A137843F01003137008221D491D48FFF7A1FF0A221C491D48FFF79CFF08221C491C48FFF797FF08221B491C48FFF792FF0A221B491B48FFF740
:400D00008DFF1B4A137843F008031370194D61232B70FFF70BFF81232B700122164B1A70FFF7EAFE0E2221461448FFF777FF38BDE84600402C4D0000A8000048040404840B
:400D4000D8020140A0430040881300480251004090130048C05100409C13004812510040A413004822510040AC13004830510040224300400048004004000840B0430040C3
:400D800008B501F0ADFE03680C2B00D1FEE7FEE708B5094B1A681044084BC31AB3F5007F02DC054B186005E001F09AFE0C2303604FF0FF32104608BD1081FF1FF082FF1FEF
:400DC00008B5104E104D16E029686B68AC68002204E051F8040B43F8040B0432A242F8D1E868002203E0002143F8041B04328242F9D11035013E002EE6D101F077FEFFF729
:400E00001FFDFEE701000000F84E000008B5104A104B1A60104A136843F40073136000230AE0032B03D80D4A52F8231000E00C490C4A42F8231001332F2BF2D90A4B1A786A
:400E40000A4B1A70074A0A4B1A60FFF7EBFE08BD0004FA050CED00E014ED00E000000000810D00000080FF1FBC760040C080FF1F08ED00E0044A137803F0DF03400100F062
:400E8000200018431070704710510040044A137803F0EF03000100F010001843107070471051004010B5044605E0084B186801F017F8A4F50044B4F5004FF6D8034B586875
:400EC00000FB04F001F00CF810BD00BF1481FF1F08B5034B1B7A00FB03F001F001F808BD1481FF1F08B500F05FF8A0F5004000B208BD00BF08B5002803DB80B280F4004027
:400F000002E0A0F5004080B200F048F808BD00BF024B187800F00F00704700BF6B650040014B1870704700BF8B65004008B50F20FFF7F6FFFFF7ECFF00F0DAFF034A1378DF
:400F400043F01003137000F0D7FF08BD9B65004008B500F07BF84FF4004000F01FF8044B1B7813B90122024B1A70FFF7DFFF08BD7882FF1F024A137843F080031370704713
:400F800074650040014B1870704700BF87650040014B1878704700BF67650040014B1880704700BF0C6A0040024B1B78024B188880B27047066500408C6A0040014B1888B1
:400FC00080B270478C6A0040014B1880704700BF4C6A0040014B1880704700BF6C6A004008B501E0FFF7EAFFFFF7D2FF10F0400FF8D108BD08B5134B1A7802F0F8021A70CE
:401000001A7802F0FC021A70FFF7EAFF4FF40040FFF7DAFF4FF40040FFF7C0FF0020FFF7B1FFFFF7B5FF4FF40040FFF7D3FF00F05FFF054A137843F01003137000F05CFF44
:4010400008BD00BF746500409765004008B5054B1B7823B9FFF7CEFF0122024B1A70FFF789FF08BD7982FF1F7222084B1A702022013B1A700622683B1A70472210331A70FE
:40108000002203F257131A70704700BF8A64004010B500F02DFF04460A4A137843F020031370013A137843F010031370FF32137843F01003137000F033F8204600F01CFFFE
:4010C00010BD00BF9A64004008B5054B1B7823B9FFF7CAFF0122024B1A70FFF7D9FF08BD7A82FF1F034B1B7813F0040FFAD1024B18707047686500404B65004038B5074BBA
:401100001B782BB938BDFFF7EDFF0134A4B201E005460024285D0028F5D138BD7A82FF1F054A137843F0080313701032137843F008031370704700BFA243004008B500F093
:401140005FF8A0F5004000B208BD00BF08B5002803DB80B280F4004002E0A0F5004080B200F048F808BD00BF024B187800F00F00704700BF60640040014B1870704700BF27
:401180008064004008B50F20FFF7F6FFFFF7ECFF00F0AEFE034A137843F01003137000F0ABFE08BD9064004008B500F07BF84FF4004000F01FF8044B1B7813B90122024BBC
:4011C0001A70FFF7DFFF08BD7C82FF1F024A137843F080031370704775640040014B1870704700BF83640040014B1878704700BF63640040014B1880704700BF0468004000
:40120000024B1B78024B188880B270470264004084680040014B188880B2704784680040014B1880704700BF44680040014B1880704700BF6468004008B501E0FFF7EAFFFC
:40124000FFF7D2FF10F0400FF8D108BD08B5134B1A7802F0F8021A701A7802F0FC021A70FFF7EAFF4FF40040FFF7DAFF4FF40040FFF7C0FF0020FFF7B1FFFFF7B5FF4FF47F
:401280000040FFF7D3FF00F033FE054A137843F01003137000F030FE08BD00BF756400409364004008B5054B1B7823B9FFF7CEFF0122024B1A70FFF789FF08BD7D82FF1FD7
:4012C000044A137803F0FD03400000F0020018431070704730510040044A137803F0FB03800000F0040018431070704730510040084A137843F0020313701032137843F074
:401300000203137002F65932137843F001031370704700BFA3430040014B1880704700BF104F0040014B1880704700BF124F0040014B1870704700BF0F4F004008B51A4AC4
:40134000137843F0020313700232137803F08F0343F010031370154B1A7802F0CF021A701A7842F030021A701A7802F0F0021A701A7842F00F021A7046F2A810FFF7CCFF4B
:4013800043F2D400FFF7CEFF0020FFF7D1FF084A137843F00203137002F66A32137843F00103137008BD00BF0C4F0040174F0040A343004008B5054B1B7823B9FFF7BEFFF0
:4013C0000122024B1A70FFF793FF08BD7E82FF1F084A137843F0040313701032137843F00403137002F66532137843F001031370704700BFA3430040014B1880704700BF9A
:401400001C4F0040014B1880704700BF1E4F0040014B1870704700BF1B4F004008B51A4A137843F0020313700232137803F08F0343F010031370154B1A7802F0CF021A7053
:401440001A7842F030021A701A7802F0F0021A701A7842F00F021A7046F2A810FFF7CCFF43F2D400FFF7CEFF0020FFF7D1FF084A137843F00403137002F67632137843F032
:401480000103137008BD00BF184F0040234F0040A343004008B5054B1B7823B9FFF7BEFF0122024B1A70FFF793FF08BD7F82FF1F024A137843F08003137070477A65004027
:4014C000014B1870704700BF89650040014B1878704700BF6965004008B50146014800F00FFD08BD28650040024B186820F07F40704700BF4865004008B50146014800F0FD
:40150000FFFC08BD0865004008B501E0FFF7ECFFFFF7DCFF10F0080FF8D108BD08B54EF65F20FFF7D9FF4EF65F20FFF7E5FF00F0DFFC064A137843F01003137000F0DCFC27
:40154000FFF7E2FF0120FFF7BBFF08BD9965004008B5054B1B7823B9FFF7E0FF0122024B1A70FFF7A5FF08BD8082FF1F014B1B681864704708ED00E04001C0B2014B187098
:40158000704700BF00E400E00122014B1A60704700E100E00122014B1A60704780E100E010B50446FFF7F6FF2046FFF7DFFF0720FFF7E2FFFFF7E8FF10BD00BF024A13783D
:4015C00043F080031370704776650040014B1870704700BF87640040014B1878704700BF67640040014B1880704700BF4C680040014B188880B270478C680040014B1880D3
:40160000704700BF0C680040024B1B78024B188880B27047066400408C68004000F00300044B1A7802F0FC021A701A7810431870704700BF7665004008B501E0FFF7D8FF35
:40164000FFF7CAFF10F0080FF8D108BD08B54FF6FF70FFF7C7FF4FF6FF70FFF7CFFF00F047FC084A137843F01003137000F044FC0020FFF7D3FFFFF7DFFF0220FFF7A6FFDF
:4016800008BD00BF9764004008B5054B1B7823B9FFF7DCFF0122024B1A70FFF78FFF08BD8182FF1F014B1B685864704708ED00E04001C0B2014B1870704700BF01E400E0E1
:4016C0000222014B1A60704700E100E00222014B1A60704780E100E010B50446FFF7F6FF2046FFF7DFFF0720FFF7E2FFFFF7E8FF10BD00BF024A137843F080031370704744
:4017000074640040014B1870704700BF84640040014B1878704700BF64640040014B1880704700BF48680040014B188880B2704788680040014B1880704700BF086800406C
:4017400000F00300044B1A7802F0FC021A701A7810431870704700BF7464004008B501E0FFF7E2FFFFF7D4FF10F0080FF8D108BD08B54FF6FF70FFF7D1FF4FF6FF70FFF75C
:40178000D9FF00F0B5FB084A137843F01003137000F0B2FB0020FFF7D3FFFFF7DFFF0220FFF7B0FF08BD00BF9464004008B5054B1B7823B9FFF7DCFF0122024B1A70FFF7F2
:4017C00099FF08BD8282FF1F024A137843F080031370704775650040014B1870704700BF85650040014B1878704700BF65650040014B1880704700BF486A0040014B188881
:4018000080B27047886A0040014B1880704700BF086A0040024B1B78024B188880B2704704650040886A004000F00300044B1A7802F0FC021A701A7810431870704700BFBF
:401840007565004008B501E0FFF7D8FFFFF7CAFF10F0080FF8D108BD08B54FF6FF70FFF7C7FF4FF6FF70FFF7CFFF00F041FB084A137843F01003137000F03EFB0020FFF7C9
:40188000D3FFFFF7DFFF0220FFF7A6FF08BD00BF9565004008B5054B1B7823B9FFF7DCFF0122024B1A70FFF78FFF08BD8382FF1F044A137803F0DF03400100F020001843FA
:4018C0001070704730510040024B1878C0F38010704700BF31510040014B1B68D864704708ED00E04001C0B2014B1870704700BF03E400E00822014B1A60704700E100E0D5
:401900000822014B1A60704780E100E010B50446FFF7F6FF2046FFF7DFFF0720FFF7E2FFFFF7E8FF10BD00BF024A137843F08003137070477E640040014B1870704700BFF1
:401940008C640040014B1878704700BF6C640040014B1880704700BF5C680040014B188880B270479C680040014B1880704700BF1C68004000F00300044B1A7802F0FC027C
:401980001A701A7810431870704700BF7E64004008B501E0FFF7E2FFFFF7D4FF10F0080FF8D108BD08B54FF6FF70FFF7D1FF4FF6FF70FFF7D9FF00F09BFA084A137843F067
:4019C0001003137000F098FA0020FFF7D3FFFFF7DFFF0220FFF7B0FF08BD00BF9C64004008B5054B1B7823B9FFF7DCFF0122024B1A70FFF799FF08BD8482FF1F024B1878ED
:401A0000C0F3C000704700BFC1510040024A137843F08003137070477F640040014B1880704700BF18680040014B1880704700BF98680040014B1880704700BF5868004073
:401A4000014B1870704700BF88640040014B1878704700BF68640040014B188880B27047B868004008B501E0FFF7F6FFFFF7EEFF10F0100FF8D108BD08B5164A137803F0A9
:401A8000C00343F0090313701D32137843F0010313700132137843F0010313704CF24F30FFF7BCFF4CF24F30FFF7BEFF46F2A710FFF7C0FF0120FFF7C3FF00F019FA064AE7
:401AC000137843F01003137000F016FAFFF7CAFF08BD00BF7F6400409864004008B5054B1B7823B9FFF7C8FF0122024B1A70FFF78DFF08BD8582FF1F024A137843F08003C4
:401B0000137070477B640040014B1870704700BF8B640040014B1878704700BF6B640040014B1860704700BF08640040014B1868704700BF48640040014B1860704700BF24
:401B400028640040014B1860704700BF3864004008B501E0FFF7EAFFFFF7DCFF10F0400FF8D108BD08B5144A137803F0F80343F001031370137803F0FC0343F008031370CC
:401B8000FFF7E6FF6FF00100FFF7D6FF0020FFF7C7FF0020FFF7B8FFFFF7BCFF8020FFF7D1FF00F0A5F9054A137843F01003137000F0A2F908BD00BF7B6400409B640040C1
:401BC00008B5054B1B7823B9FFF7CCFF0122024B1A70FFF791FF08BD8682FF1F014B1B685865704708ED00E04001C0B2014B1870704700BF05E400E02022014B1A607047A0
:401C000000E100E02022014B1A60704780E100E010B50446FFF7F6FF2046FFF7DFFF0720FFF7E2FFFFF7E8FF10BD00BF014B1870704700BF7B650040044A137803F0EF0320
:401C4000000100F0100018431070704720510040044A137803F0F703C00000F0080018431070704720510040044A137803F0DF03400100F02000184310707047205100401D
:401C8000044A137803F0FE0300F0010018431070704700BF20510040044A137803F0BF03800100F0400018431070704720510040014B1878C009704731510040044A1378EB
:401CC00003F0F703C00000F0080018431070704700510040044A137803F0FB03800000F0040018431070704700510040044A137803F0EF03000100F010001843107070476A
:401D000000510040044A137803F0FB03800000F00400184310707047C0510040084A137843F0080313701032137843F00803137002F67132137843F001031370704700BF6F
:401D4000A3430040014B1880704700BF284F0040014B1880704700BF2A4F0040014B1870704700BF274F004008B51A4A137843F0020313700232137803F08F0343F04003F8
:401D80001370154B1A7802F0CF021A701A7842F030021A701A7802F0F0021A701A7842F00F021A7040F2E730FFF7CCFF4FF47570FFF7CEFF0020FFF7D1FF084A137843F097
:401DC0000803137002F68232137843F00103137008BD00BF244F00402F4F0040A343004008B5054B1B7823B9FFF7BEFF0122024B1A70FFF793FF08BD8782FF1F084A1378CF
:401E000043F0010313701032137843F00103137002F64D32137843F001031370704700BFA3430040014B1880704700BF044F0040014B1880704700BF064F0040014B187059
:401E4000704700BF034F004008B51A4A137843F0020313700232137803F08F0343F040031370154B1A7802F0CF021A701A7842F030021A701A7802F0F0021A701A7842F033
:401E80000F021A7040F28920FFF7CCFF40F26720FFF7CEFF0020FFF7D1FF084A137843F00103137002F65E32137843F00103137008BD00BF004F00400B4F0040A343004052
:401EC00008B5054B1B7823B9FFF7BEFF0122024B1A70FFF793FF08BD8882FF1F000000000230800803D000BF01380046FCD17047EFF3108072B6704780F31088704700BF23
:401F0000CBB20370C1F307234370C1F307418170704700BF81F0004102E000BF83F0004330B54FEA41044FEA430594EA050F08BF90EA020F1FBF54EA000C55EA020C7FEA0E
:401F4000645C7FEA655C00F0E2804FEA5454D4EB5555B8BF6D420CDD2C4480EA020281EA030382EA000083EA010180EA020281EA0303362D88BF30BD11F0004F4FEA013171
:401F80004FF4801C4CEA113102D0404261EB410113F0004F4FEA03334CEA133302D0524263EB430394EA050F00F0A780A4F10104D5F1200E0DDB02FA0EFC22FA05F28018E1
:401FC00041F1000103FA0EF2801843FA05F359410EE0A5F120050EF1200E012A03FA0EFC28BF4CF0020C43FA05F3C01851EBE37101F0004507D54FF0000EDCF1000C7EEBD3
:4020000000006EEB0101B1F5801F1BD3B1F5001F0CD349085FEA30004FEA3C0C04F101044FEA445212F5800F80F09A80BCF1004F08BF5FEA500C50F1000041EB045141EAE5
:40204000050130BD5FEA4C0C404141EB010111F4801FA4F10104E9D191F0000F04BF01460020B1FA81F308BF2033A3F10B03B3F120020CDA0C3208DD02F1140CC2F10C02ED
:4020800001FA0CF021FA02F10CE002F11402D8BFC2F1200C01FA02F120FA0CFCDCBF41EA0C019040E41AA2BF01EB0451294330BD6FEA04041F3C1CDA0C340EDC04F114041B
:4020C000C4F1200220FA04F001FA02F340EA030021FA04F345EA030130BDC4F10C04C4F1200220FA02F001FA04F340EA0300294630BD21FA04F0294630BD94F0000F83F414
:40210000801306BF81F480110134013D4EE77FEA645C18BF7FEA655C29D094EA050F08BF90EA020F05D054EA000C04BF1946104630BD91EA030F1EBF0021002030BD5FEA2D
:40214000545C05D14000494128BF41F0004130BD14F580043CBF01F5801130BD01F0004545F0FE4141F470014FF0000030BD7FEA645C1ABF194610467FEA655C1CBF0B4644
:40218000024650EA013406BF52EA033591EA030F41F4002130BD00BF90F0000F04BF0021704730B54FF4806404F132044FF000054FF0000150E700BF90F0000F04BF002152
:4021C000704730B54FF4806404F1320410F0004548BF40424FF000013EE700BF42004FEAE2014FEA31014FEA02701FBF12F07F4393F07F4F81F06051704792F0000F14BF5B
:4022000093F07F4F704730B54FF4607401F0004521F0004120E700BF50EA010208BF704730B54FF000050AE050EA010208BF704730B511F0004502D5404261EB41014FF46E
:40224000806404F132045FEA915C3FF4DCAE4FF003025FEADC0C18BF03325FEADC0C18BF033202EBDC02C2F1200300FA03FC20FA02F001FA03FE40EA0E0021FA02F114445E
:40228000C1E600BF70B54FF0FF0C4CF4E06C1CEA11541DBF1CEA135594EA0C0F95EA0C0F00F0DEF82C4481EA030621EA4C5123EA4C5350EA013518BF52EA033541F4801156
:4022C00043F4801338D0A0FB02CE4FF00005E1FB02E506F00042E0FB03E54FF00006E1FB03569CF0000F18BF4EF0010EA4F1FF04B6F5007F64F5407404D25FEA4E0E6D416E
:4023000046EB060642EAC62141EA55514FEAC52040EA5E504FEACE2EB4F1FD0C88BFBCF5E06F1ED8BEF1004F08BF5FEA500E50F1000041EB045170BD06F0004646EA01019D
:4023400040EA020081EA0301B4EB5C04C2BFD4EB0C0541EA045170BD41F480114FF0000E013C00F3AB8014F1360FDEBF002001F0004170BDC4F10004203C35DA0C341BDC96
:4023800004F11404C4F1200500FA05F320FA04F001FA05F240EA020001F0004221F0004110EBD37021FA04F642EB06015EEA430E08BF20EAD37070BDC4F10C04C4F1200593
:4023C00000FA04F320FA05F001FA04F240EA020001F0004110EBD37041F100015EEA430E08BF20EAD37070BDC4F1200500FA05F24EEA020E20FA04F301FA05F243EA0203FB
:4024000021FA04F001F0004121FA04F220EA020000EBD3705EEA430E08BF20EAD37070BD94F0000F0FD101F00046400041EB010111F4801F08BF013CF7D041EA060195F0F8
:40244000000F18BF704703F00046520043EB030313F4801F08BF013DF7D043EA0603704794EA0C0F0CEA135518BF95EA0C0F0CD050EA410618BF52EA4306D1D181EA03016F
:4024800001F000414FF0000070BD50EA410606BF1046194652EA430619D094EA0C0F02D150EA013613D195EA0C0F05D152EA03361CBF104619460AD181EA030101F0004163
:4024C00041F0FE4141F470014FF0000070BD41F0FE4141F4780170BD70B54FF0FF0C4CF4E06C1CEA11541DBF1CEA135594EA0C0F95EA0C0F00F0A7F8A4EB050481EA030E89
:4025000052EA03354FEA013100F088804FEA03334FF0805545EA131343EA12634FEA022245EA111545EA10654FEA00260EF000419D4208BF964244F1FD0404F5407402D221
:402540005B084FEA3202B61A65EB03055B084FEA32024FF480104FF4002CB6EB020E75EB030E22BFB61A754640EA0C005B084FEA3202B6EB020E75EB030E22BFB61A75462F
:4025800040EA5C005B084FEA3202B6EB020E75EB030E22BFB61A754640EA9C005B084FEA3202B6EB020E75EB030E22BFB61A754640EADC0055EA060E18D04FEA051545EA50
:4025C00016754FEA06164FEAC30343EA52734FEAC2025FEA1C1CC0D111F4801F0BD141EA00014FF000004FF0004CB6E711F4801F04BF01430020B4F1FD0C88BFBCF5E06F28
:402600003FF6AFAEB5EB030C04BFB6EB020C5FEA500C50F1000041EB045170BD0EF0004E4EEA113114EB5C04C2BFD4EB0C0541EA045170BD41F480114FF0000E013C90E66A
:4026400045EA060E8DE60CEA135594EA0C0F08BF95EA0C0F3FF43BAF94EA0C0F0AD150EA01347FF434AF95EA0C0F7FF425AF104619462CE795EA0C0F06D152EA03353FF435
:40268000FDAE1046194622E750EA410618BF52EA43067FF4C5AE50EA41047FF40DAF52EA43057FF4EBAE12E74FEA410212F5001215D211D56FF47873B3EB625212D94FEA91
:4026C000C12343F0004343EA505311F0004F23FA02F018BF404270474FF00000704750EA013005D111F0004008BF6FF0004070474FF00000704700BF4FEA4102B2F1E043B5
:4027000024BFB3F5001CDCF1FE5C0DD901F0004C4FEAC0024CEA5070B2F1004F40EB830008BF20F00100704711F0804F21D113F13872BCBF01F00040704741F480114FEAB6
:402740005252C2F11802C2F1200C10FA0CF320FA02F018BF40F001004FEAC1234FEAD32303FA0CFC40EA0C0023FA02F34FEA4303CCE77FEA625307D150EA01331EBF4FF0A1
:40278000FE4040F44000704701F0004040F0FE4040F40000704700BF80F0004002E000BF81F0004142001FBF5FEA410392EA030F7FEA226C7FEA236C6AD04FEA1262D2EB96
:4027C0001363C1BFD218414048404140B8BF5B42192B88BF704710F0004F40F4000020F07F4018BF404211F0004F41F4000121F07F4118BF494292EA030F3FD0A2F1010282
:4028000041FA03FC10EB0C00C3F1200301FA03F100F0004302D5494260EB4000B0F5000F13D3B0F1807F06D340084FEA310102F10102FE2A51D2B1F1004F40EBC25008BF75
:4028400020F0010040EA03007047490040EB000010F4000FA2F10102EDD1B0FA80FCACF1080CB2EB0C0200FA0CF0AABF00EBC25052421843BCBFD0401843704792F0000F8D
:4028800081F4000106BF80F400000132013BB5E74FEA41037FEA226C18BF7FEA236C21D092EA030F04D092F0000F08BF0846704790EA010F1CBF0020704712F07F4F04D18A
:4028C000400028BF40F00040704712F100723CBF00F50000704700F0004343F0FE4040F4000070477FEA226216BF08467FEA23630146420206BF5FEA412390EA010F40F425
:40290000800070474FF0000304E000BF10F0004348BF40425FEA000C08BF704743F0964301464FF000001CE050EA010208BF70474FF000030AE000BF50EA010208BF7047ED
:4029400011F0004302D5404261EB41015FEA010C02BF84460146002043F0B64308BFA3F18053A3F50003BCFA8CF2083AA3EBC25310DB01FA02FC634400FA02FCC2F120027E
:40298000BCF1004F20FA02F243EB020008BF20F00100704702F1200201FA02FCC2F1200250EA4C0021FA02F243EB020008BF20EADC7070474FF0FF3C06E000BF4FF0010C67
:4029C00002E000BF4FF0010C4DF804CD4FEA40024FEA41037FEA226C18BF7FEA236C11D001B052EA530C18BF90EA010F58BFB2EB030088BFC81738BF6FEAE17018BF40F003
:402A0000010070477FEA226C02D15FEA402C05D17FEA236CE4D15FEA412CE1D05DF8040B704700BF844608466146FFE70FB5FFF7C9FF002848BF10F1000F0FBD4DF808ED2F
:402A4000FFF7F4FF0CBF012000205DF808FB00BF4DF808EDFFF7EAFF34BF012000205DF808FB00BF4DF808EDFFF7E0FF94BF012000205DF808FB00BF4DF808EDFFF7D2FF2B
:402A800094BF012000205DF808FB00BF4DF808EDFFF7C8FF34BF012000205DF808FB00BF42000ED2B2F1FE4F0BD34FF09E03B3EB126209D44FEA002343F0004323FA02F089
:402AC00070474FF00000704712F1610F01D1420202D14FF0FF3070474FF00000704700BF014B1868704700BF8481FF1F0E4B70B51E460E4C0025E41AA410A54204D056F872
:402B0000253098470135F8E702F0E4F9084B094C1E46E41AA4100025A54204D056F8253098470135F8E770BDE04E0000E04E0000E04E0000E84E000010B5431E0A44914214
:402B400004D011F8014B03F8014FF8E710BD03460244934202D003F8011BFAE770472DE9F04788B0149F002B1E461299B8BF03F1004327F02007B6BF1E4600232D23462F31
:402B80001446109DDDF84CA00B7003D0452F03D1013501E0032300E0022307AA049206AA03928DE828042246334600F001FD472F804602D1119BDB0728D5462F08EB050969
:402BC00011D198F80030302B0AD1002200232046314602F02FF818B9C5F10105CAF80050DAF800309944002200232046314602F021F808B9302202E0CDF81C9006E0079B29
:402C0000994503D9591C07911A70F8E74046079B159AC8EB0303136008B0BDE8F087034673B50029B8BF494203F8022BB4BF2D222B22092942701ADD0DF1070216460A254D
:402C400091FBF5F405FB1411092C01F1300102F8011D2146F4DC3031541E02F8011CB4421A460AD214F8012B03F8012BF7E71A463024214402F8024B5970101A02B070BD88
:402C80002DE9F04F91B00C46DDF8688016461F46054601F025FA03681846099300F0F4FB00230E93D8F800300A90073323F0070303F1080294F81890D4F800B0C8F80020CC
:402CC000D3E90023C4E91223D4F84CA0D4F848802AF000430B934FF0FF32A74B40460B9901F0DAFFA0B94FF0FF32A34B40460B9901F0B4FF60B9002200234046514601F085
:402D0000A3FF10B12D2384F843309C4B9C4A0AE0424653464046514601F0BEFF002800F09281984B984AB9F1470F8CBF90469846032323612BF0040323604FF0000A3DE0AA
:402D4000B9F1670F00F08A81B9F1470F00F0868123600193636800210DF13302059002920093424653460691CDF81090CDF80CE02846FFF7F4FE09F0DF03472B804600F028
:402D80008481B9F1650F0D9900F28D8101394A4604F150000D91FFF742FF0E9A82468318012A236100F37C812268D10700F178819DF8333013B12D2384F843300097334665
:402DC0000FAA2146284600F09FF9013002D14FF0FF3096E123685A0501D4236965E0B9F1650F40F2D580D4E912010022002301F021FF78B30123654A31462846B847013066
:402E0000E5D00E9B0D9A9A420BDB2368D80708D423689B0740F111814FF0000804F1190906E10A9B099A31462846B8470130CED04FF0000804F11A090E9B013B9845E7DA73
:402E400001234A4631462846B8470130BFD008F10108F1E70D9B002B29DC01234B4A31462846B8470130B2D00D9B23B90E9B13B92368D907CCD50A9B099A31462846B847C7
:402E80000130A4D04FF0000904F11A0A0D9B5B42994509DA0123524631462846B847013095D009F10109F1E70E9B4246A7E00E9AA36D9A42A8BF1A46002A914606DC4FF0BF
:402EC000000A29EAE97904F11A0B11E01346314642462846B8470130F1D178E701235A4631462846B84701303FF471AF0AF1010AA36DC9EB03029245F0DB08EB03090D9AEE
:402F00000E9B9A420FDB2368DA070CD40E9B0D9A9844C9EB08089B1A9845A8BF9846B8F1000F08DC0FE00A9B099A31462846B8470130EBD14BE743464A4631462846B8473C
:402F400001303FF444AF4FF0000928EAE87804F11A0A09E00123524631462846B84701303FF435AF09F101090D9A0E9B9B1AC8EB03039945EEDB4BE7FFFFEF7F724D000090
:402F8000764D00007A4D00007E4D0000824D00000E9A012A01DCDB0738D50123424631462846B84701303FF412AF0A9B099A31462846B84701303FF40AAFD4E9120100225E
:402FC000002301F037FE20B14FF0000804F11A090EE00E9B08F10102013B19E001234A4631462846B84701303FF4F1AE08F101080E9B013B9845F1DB534604F1500231460E
:403000002846B84701307FF403AFE0E64246012331462846B8470130EED1D8E601234A4631462846B84701303FF4D1AE08F10108E3680F9A9B1A9845F0DBE0680F9B98422F
:40304000B8BF18465DE062680EA8531C0DF1340E4BF480637FF474AE062201E012B90122626075E6002106910DF133018DE80C00236005904246CDF81090CDF80CE0029190
:4030800053462846FFF76BFD80460D9BD81C02DB626893421DDDA9F102095FFA89F970E60133236184E6B9F1660F14D10029636807DD216113B92268D2071DD501330B44D9
:4030C00019E013B92268D00701D5023313E0012311E04FF067090D9B0E9A934205DB22682361D10708D5013305E0002BD4BFC3F102030123134423610D9B4FF0000AA36598
:4031000056E611B0BDE8F08F2DE9F04791461F460A698B6806469342B8BF1346C9F8003091F843200C46DDF8208012B10133C9F800302368990642BFD9F800300233C9F8E0
:403140000030256815F0060510D104F1190A07E00123524639463046C04701301AD00135E368D9F800209B1A9D42F1DB94F843302268003318BF012392060FD5E118302081
:4031800081F843005A1C94F845102244023382F8431003E04FF0FF30BDE8F08704F1430239463046C0470130F4D02268D9F80050E36802F00602042A08BF5D1B2269A36809
:4031C0000CBF25EAE57500259342C4BF9B1AED184FF000091A344D4509D00123224639463046C0470130D5D009F10109F3E70020BDE8F0872DE9F04317460A7E85B06E2AF0
:40320000984606460C460C9B01F1430E00F0AE8011D8632A22D009D8002A00F0BB80582A40F0CA8081F84520834955E0642A1ED0692A1CD0C0E0732A00F0B08009D86F2ABF
:403240002ED0702A40F0B8800A6842F020020A603EE0752A24D0782A3AD0ADE01A6801F14205111D1960136884F84230A8E021681A6811F0800F02D0111D196008E011F0E4
:40328000400F02F10401196002D0B2F9003000E01368002B3CDA2D225B4284F8432037E021681A6811F0800F02D0111D196007E011F0400F02F10401196001D0138800E01B
:4032C0001368227E5C496F2A14BF0A2208221BE078225A4984F845202268186812F0800F00F104051D6003D1550601D5038800E00368D00744BF42F0200222601BB9226838
:4033000022F0200222601022002084F8430001E049490A226568002DA56008DB206820F0040020602BB9002D7DD175460CE0002B79D07546B3FBF2F002FB1033CB5C05F800
:40334000013D03460028F5D1082A0BD12368DA0708D5236962689A42DEBF302305F8013C05F1FF35C5EB0E0323612EE008681A6810F0800F496903D0101D1860136808E09A
:4033800010F0400F02F104001860136801D0198000E0196000232361754616E01A68111D1960156800216268284600F0A5FE08B1401B6060636804E004F1420584F842208A
:4033C00001232361002384F84330CDF800803B4603AA21463046FFF797FE013002D14FF0FF3026E023692A4639463046C0470130F5D023689B0710D5002504F1190907E09D
:4034000001234A4639463046C0470130E7D00135E368039A9B1A9D42F2DBE068039B9842B8BF184605E00B7804F1420584F842308AE705B0BDE8F083844D0000954D00005D
:403440000EB400B54FF402719CB0ADF814106FF00041049107914FF6FF711DAB02900690084853F8042BADF81610006802A9019301F038FA029B00221A701CB05DF804EBE0
:4034800003B070478481FF1F034613F8012B002AFBD1181A013870472DE9F74F03690C6980469C427FDC013C01F114074FEA840E00F1140606EB0E0357F82450019356F8E4
:4034C00024300135B3FBF5F507EB0E09C5B34FF0000A3846B446D34650F8043B9AB205FB02A21B0C4FEA124A05FB03A392B2C2EB0B0BBCF800204FEA134A5A441FFA83FBD0
:40350000DCF800308145CBEB134303EB224392B242EA03424FEA234B4CF8042BDCD256F80E306BB9019B043B9E421A4602D3C8F8104005E01268043B002AF8D1013CF3E78D
:40354000404600F0F4FF00282BDB304601354FF0000E57F8042B036891B2C1EB0E0E120C99B27144C2EB134303EB214389B24FEA234EB94541EA034340F8043BE9D256F880
:40358000242006EB840362B9043B9E421A4602D3C8F8104005E01268043B002AF8D1013CF3E7284600E0002003B0BDE8F08F00002DE9F04F456A95B08246219CCDE902233A
:4035C00045B9102000F090FDCAF82400456085600560C560DAF82430196859B15A68012393404A608B60504600F0C9FDDAF8243000221A60039BA04A002BBDBF0123236043
:40360000039B0023BCBF23F000430393DDF80C80A8BF236028F000431B0D1B0593421DD142F20F73209A1360029B43B9934A944BC8F31300002814BF1846104600E0904844
:40364000229B002B00F04685C37813B100F1080300E0C31C229A136000F03CBDDDE90245002200232046294601F0E4FA074658B1209A01231360229B002B00F01E858148F4
:403680001860013800F026BD12AB019313AB009322462B46504600F0C5FFC8F30A56049056B1C5F3130343F07F51204641F44011A6F2FF3611971DE0139B129E1E4406F224
:4036C0003243202B0ADD029A06F21240C3F1400322FA00F008FA03F3184304E0C3F12000029B03FA00F0FEF757FD0123A1F1F871013E11930022644BFEF710FC58A3D3E9D1
:403700000023FEF7BFFD58A3D3E90023FEF708FC044630460D46FEF74FFD55A3D3E90023FEF7B0FD02460B4620462946FEF7F8FB04460D46FEF7B8FF002283460023204602
:40374000294601F081FA58B15846FEF735FD02460B462046294601F06DFA08B90BF1FF3BBBF1160F0DD8DDE90223484901EBCB01D1E9000101F086FA30B10BF1FF3B002393
:4037800000E00123109300E01090129B9E1B731E079343BFC3F10008002307934FF00008BBF1000F06DB079BCDF82CB05B440793002705E00023CBEB0808CBF100070B9321
:4037C0001E9B092B28D8052BC4BF043B1E931E9BC8BF0025A3F10203D8BF0125032B20D8DFE803F0060E0204012302E0012308E000230A931F9B002B1DDD9946059321E05B
:4038000000230A931F9B0BEB030909F10103012B0593B8BF012315E0012500231E930A9501E001230A934FF0FF390022CDF8149012231F9206E04FF001094B46CDF814906E
:40384000CDF87C90DAF8244000226260042101F114029A421CD86268490001326260F6E761436F63A787D23FB3C8608B288AC63FFB799F501344D33F0000F07FA64D00007B
:40388000AF4D0000834D00000000F83FC04D00006168504600F03EFCDAF8243020601B680693059B0E2B00F25B81002D00F05881DDE90234BBF1000FCDE90E3430DD9F4A6B
:4038C0000BF00F034FEA2B1502EBC303E80618CBCDE908340CD5DDE90E01994B05F00F05D3E90823FEF7F8FD0324CDE9020100E00224934E6DB1E90708D5DDE90801D6E918
:403900000023FEF7BFFCCDE9080101346D100836F0E7DDE90823DDE90201FEF7DDFD20E0CBF1000505B3DDE90E01844B05F00F0203EBC203D3E90023FEF7A4FCCDE90201A2
:403940007F4E2D110023022455B1EA0705D5D6E90023FEF797FC013401236D100836F3E71BB1CDE9020100E00224109BE3B1DDE902560022734B2846314601F065F998B185
:40398000059B8BB1B9F1000F40F3E6800BF1FF330893314600226C4B2846FEF773FC0134CDE902014E4602E0059ECDF820B02046FEF702FCDDE90223FEF764FC634B0022E9
:4039C000FEF7AEFAA1F1507304460C931D46D6B9DDE9020100225E4BFEF7A0FA22460C9BCDE9020101F04EF9002840F03F820C99224601F10043DDE9020101F025F900287C
:403A000040F02B82A8E00A9A4C4B711E002A49D003EBC103D3E9002300204E49FEF75CFD22462B46FEF77AFACDE90C01069CDDE90201FEF739FE0546FEF7BEFB02460B4650
:403A4000DDE90201FEF76AFADDE90C23303504F8015BCDE9020101F0F7F8002840F01D83DDE9022300203749FEF758FADDE90C2301F0EAF8002840F0D180069BE31AB3420B
:403A80006ADADDE90C0100222F4BFEF7FBFB0022CDE90C01DDE902012B4BFEF7F3FBCDE90201C4E703EBC1012246D1E900012B46FEF7E8FB069BCDE90C011D469C19DDE99F
:403AC0000201FEF7F1FD0646FEF776FB02460B46DDE90201FEF722FA303605F8016BAC42CDE902014FF0000222D11A4BDDE90C01FEF716FA02460B46DDE9020101F0C2F8C7
:403B0000002840F08B80DDE90C2300201149FEF705FA02460B46DDE9020101F095F8D8B114F8013C621E302B40F0B7821446F7E7054BFEF7A7FBCDE90201C0E7C04D00003D
:403B4000984E00000000F03F0000244000001C40000014400000E03FDDE90E34CDE90234139B002B7CDBBBF10E0F79DCAB4B03EBCB03D3E900671F9B002B14DA059B002B48
:403B800011DC40F06C810022A54B30463946FEF779FBDDE9022301F06BF8059D2E46002840F05F8165E1069CDDE9028932463B4640464946FEF790FCFEF776FD0546FEF78E
:403BC000FBFA32463B46FEF75DFB0B46024649464046FEF7A3F905F1300E069B04F801EBC3EB040E059B73452DD102460B46FEF797F98046894602460B463046394601F046
:403C000023F878B942464B463046394601F012F8002800F04482EB0704D440E2DDF820B000E01C4614F8012C631E392A07D1069A9A42F6D1069930220BF1010B0A701A7841
:403C400001321A702BE20022764BFEF71BFB002200238046894600F0EDFF0028A6D01EE20A9A002A2BD01E9A012A0ADC119A12B103F2334302E0129BC3F136033D46444644
:403C800013E0059B5D1EAF42BFBF0B9BEA1B9B180B93059BB6BF2F467D1B0025002BA7BF4446059BC3EB08040023079A01211A4450469844079200F001FB064602E03D46E3
:403CC00044460A9E5CB1079B002B08DDA342A8BF2346079AC3EB0808E41AD31A0793002F1DDD0A9BABB18DB131462A46504600F07FFB049A01460646504600F0E8FA0499B5
:403D00000890504600F03BFA089B04937A1B06D000E03A460499504600F06AFB04900121504600F0CBFA0B9B05465BB31A460146504600F05DFB1E9B0546012B18DC029B5D
:403D400083B9039BC3F3130373B9039B23F000473F0D3F054FB1079B08F1010801330793012702E0002700E0029F0B9B73B100E000272B6905EB8303186900F052FAC0F17C
:403D8000200004E01E9B012BD9DD0B9F0120079B184410F01F0008D0C0F12003042B02DDC0F11C0002E006D018461C30079B8044034404440793B8F1000F05DD4246049945
:403DC000504600F063FB0490079B002B05DD29461A46504600F05AFB0546109B23B32946049800F0A4FB00281EDA00230A220499504600F0DBF90A9B0BF1FF3B0490002B8C
:403E000000F05F81314600230A22504600F0CEF9B9F1000F06463FDC3BE000BFC04D00000000144000002440059B002B2BDC1E9B022B28DDDDF81490B9F1000F11D12946A0
:403E40004B460522504600F0B1F901460546049800F06DFB00280CDC03E0354600E000252E461F9B069C6FEA030B09E03546DDF820B0069B069A5C1C312313700BF1010B89
:403E800005960026F7E00A9BDDF8149023B9069CB2E01E9B022BCFDC002C05DD31462246504600F0F3FA06469FB17168504600F031F90446326906F10C01023292000C303B
:403EC000FEF73AFE01222146504600F0DFFA059000E00596029B069F03F00103079329460498FFF7D9FA3146044600F13008049800F01DFB059A02902946504600F033FB13
:403F0000C36802463BB901460A90049800F00FFB0A9A034600E00123114650460A9300F02EF90A9B53B91E9A42B9079A32B9B8F1390F2AD0029B002B1CDC1DE0029A002AB3
:403F400004DB1BD11E9ACAB9079ABAB9002B13DD01220499504600F099FA2946049000F0E6FA002803DC07D118F0010F04D0B8F1390F0AD004F131087C1C0CE0002B07F1F5
:403F800001040BDDB8F1390F03D139233B70013756E008F1010887F800806CE0069B2746E31A4B4504F8018C3BD000230A220499504600F0FBF8059B04909E424FF00A029A
:403FC0004FF000033146504604D100F0EFF80646059084E700F0EAF8002306460A220599504600F0E3F8059079E700230A220499504600F0DBF8049029460498FFF74CFAF9
:40400000069B00F1300804F8018BE31A4B45ECDB069B0596B9F1010FACBF4B4401331F46002601220499504600F030FA2946049000F07DFA002803DC15D118F0010F12D06A
:404040003C4614F8013C621E392B09D1069B934204D10BF1010B3123069A02E01446F0E70133137007E03C4614F8013C621E302B01D11446F8E72946504600F080F8059B01
:404080006BB12EB19E4203D03146504600F077F80599504600F073F801E0DDF820B00499504600F06CF80023209A23700BF101031360229B1BB11C6001E008480AE00698A9
:4040C00008E0B9F1000F3FF7E2AE1E9B022B7FF7DEAEB1E615B0BDE8F08F00BF824D0000004870478881FF1F024B0146186800F041BB00BF8481FF1F10B5C9B20244904203
:40410000034605D01C7801308C42F8D1184610BD002010BD70B5456A04460E463DB91020FFF7E2FF6062456085600560C560656AEB6843B1636ADB6853F8260078B102687E
:4041400043F8262017E021220421204600F0B8FA636AE860DB68002BECD1002070BD012101FA06F56A1D9200204600F0A9FA0028F3D04660856000230361C36070BD70B52E
:40418000446A06460D463CB91020FFF7ADFF7062446084600460C4603DB1736A6A68DB6853F82210296043F8225070BD2DE9F04106460C460D691F4601F1140E0023DEF87C
:4041C0000000013381B202FB0171000C0F0C02FB007089B201EB00419D424FEA10474EF8041BECDCD7B1A3689D4212DB616830460131FFF78FFF8046226904F10C01023276
:4042000092000C30FEF798FC21463046FFF7B7FF444604EB850301355F6125612046BDE8F081030C1B0413B90004102300E0002310F07F4F04BF0002083310F0704F04BF21
:404240000001043310F0404F04BF80000233002803DB420003D5581C70471846704720207047036813F007020BD0D90722D49A074BBF5B089B08036003604CBF01200220BB
:40428000704799B209B91B0C102213F0FF0F04BF1B0A0832190704BF1B090432990704BF9B080232D90702D45B0805D00132036010467047002070472020704710B50C46C1
:4042C0000121FFF727FF01224461026110BD2DE9F74F14460A69236988469A42BEBF0B46A0461C46D8F81070D4F81090D8F80830D8F8041007EB09069E42C8BF0131FFF7DB
:4043000009FF00F114052B4605EB860C0022634502D243F8042BFAE704F1140208F1140102EB890301EB87070093009B0192934257D9B2F800B0BBF1000F23D08946AE46F2
:404340004FF0000859F8044BBEF800A0A3B20BFB03A34FEA144ADEF8004043444FEA14480BFB0A84F24604EB13449BB243EA04434F454FEA14484AF8043B01D9D646E1E7FB
:40438000CEF80480019B0432B3F802A0BAF1000F21D02C4689462B684FF00008B9F800E0B4F802B09BB20AFB0EBEA346F04443EA08434BF8043B59F8043BB4F804E01B0C63
:4043C0000AFB03E34F4503EB18434FEA134801D95C46E3E763600435A7E75CF8043D13B9013E002EF9DC066103B0BDE8F08F00002DE9F843154612F0030206460F4607D085
:40440000214C013A002354F82220FFF7CFFE0746AD1036D0746A3CB91020FFF765FE7062446084600460C460D6F82480D8F808404CB940F271213046FFF740FF04460023A7
:40444000C8F8080003604FF00008EB070AD5394622463046FFF73BFF814639463046FFF78EFE4F466D100CD0206808B10446ECE7224621463046FFF72AFF2060C0F80080C6
:40448000F4E73846BDE8F883884E00002DE9F0470C460746914626694FEA621A56444968A368751CAB4202DA01315B00FAE73846FFF730FE002380461A4600F114015345FF
:4044C00003DA41F823200133F9E72AEAEA73206901EB830319F01F0904F1140101EB800E14D0C9F1200C002208689A4600FA09F0024343F8042B51F8042B8E4522FA0CF2EB
:40450000F2D8CAF8042042B1B51C06E0043B51F8042B8E4543F8042FF9D8013D3846C8F810502146FFF72BFE4046BDE8F08703690A6910B59B1A11D1920014301431831863
:404540000A4453F8044D52F8041D8C4202D007D3012010BD9842F4D3002010BD184610BD4FF0FF3010BD2DE9F8430C460746114620461546FFF7DBFF061E08D131463846C0
:40458000FFF7C8FD012303614661BDE8F883BCBF23462C4638466168BABF1D4601260026FFF7B8FD2B69C660266905F1140904F1140101EB860709EB830800F114054FF0D9
:4045C000000C51F8042B59F8044B93B29C44A3B2240CC3EB0C03C4EB124202EB23429BB24FEA224CC84543EA02428E4645F8042BE7D8BE450ED25EF8041B8AB26244131409
:4046000003EB114392B242EA03424FEA234C45F8042BEEE755F8043D0BB9013EFAE70661BDE8F8832DE9F3411C4601219046089E099DFFF76FFDC4F31302C4F30A54074621
:404640000CB142F480120192B8F1000F19D002A840F8088DFFF705FE009B48B1019AC0F1200102FA01F10B43C2407B61019200E07B61019B002B14BF02210121BB61396112
:4046800007E001A8FFF7EDFD019B01217B613961203034B1A4F2334404443460C0F1350009E0A0F2324007EB810330601869FFF7B8FDC0EB41102860384602B0BDE8F08169
:4046C00038B502FB01F4214600F054F8054618B122460021FEF73BFA284638BD38B50546002944D051F8043C0C1F002BB8BFE41800F017FA1E4A1368114613B96360146009
:4047000030E0A3420DD92268A018834201BF18685B681218226063600C6023E0A24203D813465A68002AF9D118681918A1420BD12168014458188242196013D110685268E7
:40474000014419605A600DE002D90C232B6009E021686018824201BF106852680918216062605C602846BDE8384000F0DBB938BD9082FF1F70B5CD1C25F0030508350C2DAA
:4047800038BF0C25002D064601DBA94202D90C23336046E000F0C5F9234B1C681A462146A1B10B685B1B0ED40B2B03D90B60CC18CD501EE08C420BBF63684B681360636082
:4047C00018BF0C4615E00C464968E9E7174C23681BB9304600F07AF920602946304600F075F9431C18D0C41C24F00304A0420DD12560304600F096F904F10B00231D20F09E
:404800000700C31A0ED05A42E25070BD211A304600F05CF90130EBD10C233360304600F081F9002070BD00BF9082FF1F8C82FF1F2DE9F0478E6882469E420C4691469846DC
:404840003ED88A8912F4906F3AD02568096902236F1A656905EB450595FBF3F57B1C43449D4238BF1D4653050FD52946FFF782FF064698B13A462169FEF75EF9A38923F42C
:40488000906343F08003A38113E02A4600F04BF9064670B921695046FFF720FF0C23CAF80030A3894FF0FF3043F04003A381BDE8F08726613E44266046466561ED1BA5608B
:4048C000464528BF464649463246206800F00EF9A36800209B1BA36023681E442660BDE8F08700002DE9F04F9DB003938B8980461C060D4616460DD50B695BB94021FFF71D
:4049000039FF2860286118B90C23C8F80030CDE040236B610023099320238DF82930DFF89CB130238DF82A3037463C4614F8013B1BB9B7EB060910D003E0252BF9D0274617
:40494000F3E74B46324629464046FFF771FF013000F0A780099B4B4409933B78002B00F0A08000234FF0FF3204930793059206938DF853301A930126052221784E48FFF7D8
:40498000BBFB671C049B38B14B4A3C46801A06FA00F018430490EFE7D90644BF20228DF853201A0744BF2B228DF8532022782A2A03D0079A00210A200BE0039A111D12686E
:4049C0000391002A10DA524243F00200079204900BE027463B780134303B092B03D800FB02320121F5E701B107923B782E2B1ED17B782A2B0AD1039B02371A1D1B680392A3
:404A0000002BB8BF4FF0FF33059310E0002319460593781C0A2407463A780130303A092A03D804FB01210123F5E703B10591032239782248FFF760FB40B14023CBEB000051
:404A400003FA00F0049B013718430490397806221B487E1C8DF82810FFF74EFB88B1194B33B9039B073323F007030833039314E003AB00932A46144B04A94046FEF700F93D
:404A800007E003AB00932A460F4B04A94046FEF7B1FBB0F1FF3F824603D0099B5344099342E7AB895B0601D4099801E04FF0FF301DB0BDE8F08F00BFC04E0000C64E00008A
:404AC000CA4E0000812C00003148000038B5064C0023054608462360FCF75AF9431C02D1236803B12B6038BDE882FF1F884210B501EB020301D8421E0BE09842FBD2811857
:404B0000D21AD34204D013F8014D01F8014DF8E710BD994204D011F8014B02F8014FF8E710BD70477047F8B5074615460E4621B91146BDE8F840FFF71DBE1AB9FFF7CEFDD0
:404B40002846F8BD00F015F885420ED929463846FFF710FE044650B131462A46FDF7ECFF31463846FFF7BAFD01E03046F8BD2046F8BD51F8040C0028BEBF091851F8043CF4
:404B8000C0180438704700004FF0FF3C06E000BF4FF0010C02E000BF4FF0010C4DF804CD4FEA410C7FEA6C5C4FEA430C18BF7FEA6C5C1BD001B050EA410C0CBF52EA430CFC
:404BC00091EA030F02BF90EA020F0020704710F1000F91EA030F58BF994208BF90422CBFD8176FEAE37040F0010070474FEA410C7FEA6C5C02D150EA013C07D14FEA430C0E
:404C00007FEA6C5CD6D152EA033CD3D05DF8040B704700BF8446104662468C461946634600E000BF01B5FFF7B7FF002848BF10F1000F01BD4DF808EDFFF7F4FF0CBF0120F5
:404C400000205DF808FB00BF4DF808EDFFF7EAFF34BF012000205DF808FB00BF4DF808EDFFF7E0FF94BF012000205DF808FB00BF4DF808EDFFF7CEFF94BF012000205DF8F9
:404C800008FB00BF4DF808EDFFF7C4FF34BF012000205DF808FB00BF4FEA410C7FEA6C5C02D150EA013C0AD14FEA430C7FEA6C5C02D152EA033C02D14FF0000070474FF009
:404CC000010070470000000046726F6E74206469737420313A20256C660A00004C656674206469737420313A20256C660A00000052756E6E696E6720465F6F725F525F31A0
:404D00002E2E2E0A000000007265643A2025640A00000000626C75653A2025640A000000677265656E3A2025640A0000004F00403000405100403000F05100401000800053
:404D40000140800F00140140000800400140000A004C0140000200500140200060520040001300480600000001400813004880004300494E4600696E66004E414E006E61BB
:404D80006E00300030313233343536373839414243444546003031323334353637383961626364656600496E66696E697479004E614E00504F534958002E00000000000049
:404DC000000000000000F03F000000000000244000000000000059400000000000408F40000000000088C34000000000006AF8400000000080842E4100000000D012634152
:404E00000000000084D797410000000065CDCD41000000205FA00242000000E876483742000000A2941A6D42000040E59C30A2420000901EC4BCD64200003426F56B0C435A
:404E40000080E03779C3414300A0D8855734764300C84E676DC1AB43003D9160E458E143408CB5781DAF154450EFE2D6E41A4B4492D54D06CFF08044F64AE1C7022DB54484
:404E8000B49DD9794378EA4405000000190000007D000000000000000080E03779C34143176E05B5B5B89346F5F93FE9034F384D321D30F94877825A3CBF737FDD4F15754C
:404EC000232D302B2000686C4C0065666745464700000000F8B500BFF8BC08BC9E4670474D0000000D0E0000F8B500BFF8BC08BC9E46704729000000084F0000C880FF1F77
:404F0000F8000000300100000000000000000000000000000000494000B0B34600B0B3469A99999999991540CDCCCCCCCC4C36400000000000A6AC4067020000AC03000018
:404F40000D020000D40300000000000000001440F082FF1F0000E02EC05D00001800000000366E01000000000000000000000000000000000000000000000000000000007F
:404F800000000000704D0000000000000000000000000000000000000000000000000000000000000000000000000000000000000000000000000000000000000000000034
:404FC000000000002481FF1FB94D0000C54E0000C54E0000C54E0000C54E0000C54E0000C54E0000C54E0000C54E0000C54E0000FFFFFFFFFFFFFFFFFFFFFFFFFFFF00004B
:405000000000000000000000000000000000000000000000000000000000000000000000000000000000000000000000000000000000000000000000000000000000000070
:405040000000000000000000000000000000000000000000000000000000000000000000000000000000000000000000000000000000000000000000000000000000000030
:4050800000000000000000000000000000000000000000000000000000000000000000000000000000000000000000000000000000000000000000000000000000000000F0
:4050C00000000000000000000000000000000000000000000000000000000000000000000000000000000000000000000000000000000000000000000000000000000000B0
:020000040003F7
:0200000480007A
:40000000074F0040055200400964004005650040310001403D010140730201404E0301406A040140530501406E0601404C0701407908014064090140650A0140550B0140B1
:40004000680C0140490D01406F0E01403A0F0140691401405415014066160140591701406918014052190140641A0140601B01400840014010410140124201400C430140ED
:4000800002440140054501400446014004470140094801400F4901400A4C01400D4D01400A5001400251014001500A4B0D20164B224B25502E4B0020080409041801190190
:4000C000800F836F840F870F880D89388A728B778C0F850F876F880F890D8B0F813083C98607870F88C18A1291FD930294C0959E96249760980199739AF29C849E10A0B760
:40010000A240A477A594A760A9CFAA08AB30B2F0B3FFB40FBF04C001C740C9FFCA07CBFFCC40CD20CEF0CF05D008D804D904DA04DC02DD03DF01E040E1A8E240E32000080A
:4001400001120301040C07080AA00B050C040E040F021008110412801410172219921C041F04220423012720280229062C042E042F2430083250330134103624370A39901D
:400180003B043C043D043F02414042484308460249244B02552159905B065C025F0186048D01C06FC2EFC47ECA6BCCEFCECED01FD204D60FE240E40800020105030A08DCF1
:4001C0000CAC0E50115F156A16401705187019371A881C801E3C220324A025032604270C28F0296C2A042B03300132E0343C35703602370F39203E404043410649FF4AFF99
:400200004BFF4DA04F015018580459045A045C225D025F016040628064406540668068406A806C406D206E808003820C880F8C058D038E0A9108922F9503962F970C9901BC
:400240009C059E0AA42FA610A803AA0CB010B104B308B40FB501B620B702B9A0BE40BF14C042C106C543C6C2C70EC81FC9FFCAFFCBFFCDAFCE07CF01D018D40FD804D904D4
:40028000DA04DB04DC21DD22DF05E040E280E440E540E680E840EA80EC40ED20EE8001120301050107060AA00B010E180F021008110C13041414164019101A821D011E193C
:4002C0002004228623082620270628102B202C042F20310432223624370238803F024004410245024708484049244C044D2050C0510852505A095B50610862107A2081049B
:4003000090089303959096E09704980499029E0A9F07A301A40CA6A4A728A920B120B301C0DBC2EDC476CA60CCE7CE88D0C5D224D60FD806DE02E608EE010001074E0D0EE6
:400340000F2012041504171119021B102209234E293E2A022D082E042F113006313033403401350E360837013E113F4040244103420549FF4AFF4BFF4F0150185283540367
:400380005604580459045A045B045C145D115F056040624064406540668068806A806C806E808B038C018E028F0C91049401960A980299019A019C019E06A210AF01B004D8
:4003C000B101B210B302B403B504B608B708BA20BF11C034C102C205C5ECC602C807C9FFCAFFCBFFCD83CE03CF01D018D280D804D904DA04DB04DC22DD21DF01E040E2405D
:40040000E440E540E680E880EA80EC80EE800380044008020E25108011401208150118041A401B801C401E251F20211822502348250226202712280829012A802C02310836
:400440003210371239043B403C803E104114428044084680470849804D8A4E015680591A5A80620268086B01710174027808790880808220834186028D0191049212930232
:400480009590966099109E0B9F41A040A40CA502A728A880AB10B601C088C2E8C41BCA1DCCA6CE3AD0E7D218D60FD801DE02E204E404EE400005020A031E0403060C081F70
:4004C0001114140F171E18031A0C1B381E1F2005220A230E261F271229062B202D1E2F013010320F333E35013B083E0140424103420149FF4AFF4BFF4F01501858045904BA
:400500005A045C115D015F016040624064406540668068806A806C806E80824E8404850286118701940E95019620970698089A119D019E4E9F02A002A210A43EA501A70A89
:40054000B00EB230B308B440B503B601B704BB20BE40C012C103C204C5ECC620C80BC9FFCAFFCBFFCD83CE03CF01D018D403D604D804D904DA04DB04DC21DD11DF05E04019
:40058000E240E440E540E680E880EA80EC80EE80000402400408051A09200A200B020C400E290F021040130815081705180419801A201B011E502108224023042604271425
:4005C0002B202D0A2E802F053108324037153B043D803E403F024020412042414460456047084905512059855A1062017B8082028D108F0195C19C029E0BA101A608A70857
:40060000AC04AF02B008B110B404C07CC2E7C43CCAF2CCEACE82D0FFD60FD801DE01E040E280E480E604E88001770201050307FC08780A020C6E1038124415CC1620172362
:40064000185019BF1A021B4024402585261E271A28562A282DCA2F15301E3201330F347035F040614105420349FF4AFF4BFF4DA04F01501854055604580459045A045B04C4
:400680005C225D445F056040628064406540668068406A506BA86C406D206E506FA8813C820183C184048609897C8B828C0F8F4390109203951899089D10A1FFA5E7A7184E
:4006C000A80FA904AF04B158B218B320B406B51FB601B780B828B980BB20BE50BF04C061C104C203C9FFCAFFCBFFCDAFCE07CF01D018D418D804D904DA04DB04DC33DD346B
:40070000DF01E040E280E440E540E680E840EA50EBA8EC40ED20EE50EFA80088024204800680070408010B800C040E44120813201410171019801B281D101E401F04217219
:4007400022042610271429202B512C102E4030A832013302371439683A013B043D023E04401041804220430244804580462047014B104C044E014F1059025C405F09600441
:4007800061406404651066027C8083208A828C108F0890AE915192939381941095889648973099409A109B209C089E409F15A0FCA101A204A580A60AA70AA812B020B1029B
:4007C000B206B5C0B610C0DDC278C462CA5FCC6ECECDD05BD234D6D1D88CDE10E280E480EC40000105140801091C0B020F201110130C150C171119101F03272028012909F5
:400800002B1032013520371F3F1040614104420349FF4AFF4BFF4DAF4E074F01501856025712580459045A045B045C335D345F016040628064406540668068406A506BA864
:400840006C406D206E506FA881038204940195069905A203A608AD06B001B107B202B408B604B902BE01C061C104C203C50CC605C72EC837C9FFCAFFCBFFCDAFCE07CF01C8
:40088000D018D280D417D804D904DA04DB04DC24DD44DF05E040E280E440E540E680E840EA50EBA8EC40ED20EE50EFA8002204020E1011101501161019041A201D021E1914
:4008C0002004224024802501274029082B082E40326A371439A83D024010418042A04302458046A04B104C044D014F04560A57405A085C205D805E0464026608670468116D
:40090000691070A875017C80810883408F40902A9120920293819720988099409A109B209C089D059E409F01A044A220A708A904AA20AC01AE02AF80B610C01AC220C432E5
:40094000CA16CC6FCE8ED0DBD224D672D870DE10E210EA04EE08064E0B030C3E124E13021402161018041A111C0E1D021E2020082211250230013101320E344035023630AA
:400980003E013F104034410149FF4AFF4BFF4DA04F04501854035604580459045A045B045C415D145F05604062C06440654066C068C06AC06CC06EC0813183C68405860AE6
:4009C000880389AC8A0C8B438C0F8F539005920A9531960F974E9B08A20FA40FA803AA0CAB8CAD30AF40B1F0B38AB40FB50FBB2AC034C101C5D0C612C80EC9FFCAFFCBFFCC
:400A0000CDAFCE0FCF04D018D804D904DA04DC31DD04DF01E040E2C0E440E540E6C0E8C0EAC0ECC0EEC000140201062209080A800D080E050F4010081108128016801920FD
:400A40001D081E452088211122042320240827402A402B082F1032243501374039223B803E10418043054480458047054B0150A0518052105D295E4064407E017F8184407D
:400A800090369101928093C299489A819B049C889D049E02A008A2A0A4A1A50CA904B344C0A7C2FCC41ECA4CCC96CE2DD0DBD6F0D880DE80EA80EC80010603100630070E17
:400AC00008040A020B030C0E0D050E201208161F170F190F1B201F0F221F241F28022A042B19331F343E360137203A203B083E4040344105420149FF4AFF4BFF4F01501853
:400B00005283580459045A045B045C115D115F016040624064406540668068806A806C806E8081059307940295019601971E98019A029C019E06A102A30CA710A801AA0A9E
:400B4000B104B203B308B404B503B608B710B802BA08BB02BD22BE01BF04C034C101C205C5ECC602C807C9FFCAFFCBFFCD83CE03CF01D018D280D804D904DA04DB04DC42E2
:400B8000DD41DF01E040E240E440E540E680E880EA80EC80EE8000140120020109080A800E16101811081280140818041A031E161F052010228024222501270429202CA0A5
:400BC00030103108328035023704380439603A033D02410842814508468248014D094E015680680869606A80734075027C8085408E208F01C007C2ECC44ECAC4CCCECE8FCA
:400C0000D0DBD218DE10E010E240020F040206100C3E140E16201C041E501F01240826502E0F30403230340E360137013E0140634105420149FF4AFF4BFF4F015018528070
:400C4000580459045A045B045C215D215F016040624064406540668068806A806C806E80800F814F8320860F88058A0A8C058E0A8F04910193029403960C97189B4FA00376
:400C8000A20CA40FA74FA902AA0FAB01AD07AF10B20FB320B51FB740BB20BF40C063C105C201C5ECC620C80BC9FFCAFFCBFFCD83CE03CF01D018D283D403D604D804D90418
:400CC000DA04DB04DC11DD11DF05E040E240E440E540E680E880EA80EC80EE80020203A0040A07050A210E10102216101712180819201A611B201E202002258027142E10C3
:400D00002F21328037163D803E02418042204580462049204A024D214E024F04542056205D015E605F0464406D806E106F01710174027E027F0180818202838084018802EC
:400D40008A128E88961097029B029CC29D019F14A540A608A7A0A808A940AA04AE09AF08B040B640C0FDC225C475CA70CCE8CE90D05AD23CD6F0D880DE10E040E428E60141
:400D8000EA81EE06040206010A180B090D0A0E04131C160F170718011A021B0F1E0F200F210F24072610270F2D032F10341F371F3A203B804013410249FF4AFF4BFF4DA0E9
:400DC0004F0150185283580459045A045B045C115D125F016040628064406540668068406A806C406D206E80830A8D04900195029C089F05A003A302A403A60CB002B101B7
:400E0000B201B308B408B504B604B702B80ABE14BF50C053C106C523C6C4C70EC81FC9FFCAFFCBFFCDAFCE07CF01D018D40FD804D904DA04DB04DC22DD22DF05E040E28091
:400E4000E440E540E680E840EA80EC40ED20EE80040805100701080109010A020D040E080F0210A0142016801A461B041D102042218022042308270229012A202B042FA1F4
:400E800030803204371638423D803E1042204580462448A94A40510852A0588059205A05610862206C046F01764078018112868089208A40900291089408954098209A80FF
:400EC0009C029D029E489F01A101A204A301A608A940AB08AD01AF24B020B210B384B401C0E0C2E9C43CCAD1CCEACE39D072D20CD60FD806DE01E408E620E882EA01EC4022
:400F0000EE0900010210050206200A040C0F0F01140818201C101E02200322082B01302032103301340C35023603370138803C023E443F50404249FF4AFF4BFF4F0150185E
:400F40005401580459045A045B045C945D395F016040624064406540668068806A806C806E80810183028473860C881189028B018D018E738F069022940F95019670970AAD
:400F8000980C9A739C7FA008A310A404A80CAC33B030B104B24CB310B40FB503B708BAA8BB20C043C9FFCAFFCBFFCD83CE03CF01D018D401D804D904DA04DB04DC23DD990B
:400FC000DF01E040E240E440E540E680E880EA80EC80EE8000040160040205100610070109210A220E1910AA1501182419021A221B501C501D901F10215122042401250859
:40100000270828802F08320439A23D0C3E804001410442804340468459055B405C025D805F18781079207D808010820185408802890C9082915192D5945097249801998089
:401040009A109B109C189D229E419F01A0B8A120A21EA580A751A902AB10AE04AF04B510C0F7C2EFC41FCA21CC02CE5DD0A3D6FBDE10E620EA40EC4004120605081F1C0979
:401080001D011E26281F2C042E182F0230203101321C340335023F01404345EC4702481349FF4AFF4BFF4D834E034F0150185280580459045A045B045C235D995F01604099
:4010C000624064406540668068806A806C806E80811C84FD8504860287088A0F8B038C738D048F08909E926094CF95029630971D989499439A609F40A320A710A830A910E7
:40110000AAC9AD1CB101B302B53CB6FFB740BE40BF45C051C106C50BC60CC70EC815C9FFCAFFCBFFCEF0CF44D00CD40FD804D904DA04DB04DC20DD23DF01E6C0EA40EB0247
:4011400000200320048005800602071408800E64108211111404152018281B211F802080222024402580272429402C042D842F8032403540362037043D013E64410442805C
:40118000440149054E0A4F04510452045308550456405C405D095F206D806F01728079047A10808081808310840888C089208C128D088E029080913092C494089508970456
:4011C000980199409A209B109C089D259EC49F05A010A21AA402A544A729AB24AE41AF10B080B404B501B620C0E6C271C443CAF8CC78CEF0D013D230D6F0E220E640EC404D
:40120000302033013508371039108F01CCF0CE1008200C8031405D0280808510930295109D089F11A420C2C0CC10D680E020E6100320040258085C0860086408670287016B
:40124000930298209D4A9F01A420B710C030D6C0D8C0E24019821D011F4089408B408C0190029D4AA320A420B020C6F01280C40802080F01A280C002C201AA08AE80B70159
:40128000EE0889408B02E401E604882099809D089F08A420AF08B320B501E81007080A200B020C085D80830188088E1099809F08B108C080C270D620E42009400C10540281
:4012C000A002A302A540B402C203D604EC02101076107B0288108A10A302B010C408DC01DE04E204E404EA04001E080E0A160C1C0E1E101E11011A061C1C1D0100FF010F11
:4013000080A000004000000000007000030F00000C0740102800002000003C0400023C013C00000F00001C0F000103020200012000002400000000187C0000200200011F08
:4013400000000280000050043602010004EC000003FFFFFF62A0F0410C0000000F000000040404041123000100000000000040020010301000101012000000000000000017
:401380000000000000000000807C7C0020000000800048B4B400A00000000000C03F3F00040000008479790000000000800058A72700010000000000000000000000000066
:4013C00000000000000000000000000000000000000000000000000000000000000000000000000000000000000000000000000000000000000000000000000000000000ED
:4014000000000000000000000000000000000000000000000000000000000000000000000000000000000000000000000000000000000000000000000000000000000000AC
:40144000000000000000000000000000000000000000000000000000000000000000000000000000000000000000000000000000000000000000000000000000000000006C
:40148000000000000000000000000000000000000000000000000000000000000000000000000000000000000000000000000000000000000000000000000000000000002C
:0200000490006A
:0400000000004005B7
:0200000490105A
:04000000BC90ACAF55
:0200000490303A
:020000000902F3
:0200000490402A
:4000000000000000000000000000000000000000000000000000000000000000000000000000000000000000000000000000000000000000000000000000000000000000C0
:400040000000000000000000000000000000000000000000000000000000000000000000000000000000000000000000000000000000000000000000000000000000000080
:400080000000000000000000000000000000000000000000000000000000000000000000000000000000000000000000000000000000000000000000000000000000000040
:4000C0000000000000000000000000000000000000000000000000000000000000000000000000000000000000000000000000000000000000000000000000000000000000
:0200000490501A
:0C00000000012E16106900012E3C196B47
:00000001FF